S0170000494D555F48656164747261636B65722E7372656365
S11300000C9437010C9454010C9454010C94540135
S11300100C9454010C9454010C9454010C94540108
S11300200C9454010C9454010C9454010C945401F8
S11300300C9454010C9454010C9454010C945401E8
S11300400C9454010C9454010C9476240C94FA24CA
S11300500C945C250C9454010C9454010C9454019C
S11300600C949E230C945401B9230B240B240B24CD
S11300700B240B240B240B24B9230B240B240B2457
S11300800B240B240B240B24BB230B240B240B2445
S11300900B240B240B240B240B240B240B240B24E4
S11300A00B240B240B240B24BB230B240B240B2425
S11300B00B240B240B240B240B240B240B240B24C4
S11300C00B240B240B240B2407240B240B240B24B8
S11300D00B240B240B240B24E4230B240B240B24CC
S11300E00B240B240B240B240B240B240B240B2494
S11300F00B240B240B240B24D8230B240B240B24B8
S11301000B240B240B240B24F623036EDB363D9ABD
S11301109999993DABAAAA2A3E000000803F084A5B
S1130120D73B3BCE016E84BCBFFDC12F3D6C743107
S11301309ABD56833DDA3D00C77F11BED9E4BB4C5E
S11301403E916BAAAABE000000803F072C7AA5BA94
S11301506CC590DA3B9365FC8BBC53F810FD3C56A0
S113016092834DBD879D3AB63DCBC9BF5BBE73DA62
S11301700FC93F0000407A10F35A00A0724E1809CC
S11301800010A5D4E80000E87648170000E40B54FA
S1130190020000CA9A3B000000E1F50500008096C9
S11301A09800000040420F000000A08601000000FB
S11301B0102700000000E8030000000064000000B5
S11301C000000A00000000000100000000002C767E
S11301D0D888DC674F0823DFC1DFAE59E1B1B79699
S11301E0E5E3E453C63AE651997696E8E6C28426F6
S11301F0EB898C9B62ED407C6FFCEFBC9C9F40F2D2
S1130200BAA56FA5F490055A2AF75C936B6CF9674D
S11302106DC11BFCE0E40D47FEF520E6B500D0ED12
S1130220902E0300943577050080841E080000207A
S11302304E0A000000C80C333333330F986E128318
S11302401141EF8D2114893BE65516CFFEE6DB18EC
S1130250D1844B381BF77C1D901DA4BBE4242032B1
S113026084725E228100C9F124ECA1E53D271124AA
S11302701FBECFEFD8E0DEBFCDBF14E0A0E0B1E0F9
S1130280EAE4FCE502C005900D92A03DB107D9F760
S113029025E0A0EDB4E001C01D92AD34B207E1F752
S11302A00E947D1B0C94232E0C940000FC0180E022
S11302B090E0A0E8BFE380839183A283B383148298
S11302C015821682178280879187A287B387148646
S11302D0158616861786108A118A128A138A148A3A
S11302E0158A168A178A108E118E128E138E148E0A
S11302F0158E168E178E10A211A212A213A214AA82
S113030080E090E0A0E0BBE384A395A3A6A3B7A3F9
S113031008958F929F92AF92BF92CF92DF92EF9205
S1130320FF926B017C0120E030E040E05FE30E943B
S113033003284B015C01D701C601B595A795979594
S113034087950F2EFFEDCF2EF9E5DF2EF7E3EF2E85
S1130350FFE5FF2EF02DC81AD90AEA0AFB0AA70105
S11303609601C501B4010E940328A70196010E94C9
S113037003289B01AC0160E070E080EC9FE30E94E5
S11303807825A70196010E9403286B017C019B013B
S1130390AC01C501B4010E940328A70196010E9483
S11303A003289B01AC0160E070E080EC9FE30E94B5
S11303B07825A70196010E940328FF90EF90DF9013
S11303C0CF90BF90AF909F908F9008952F923F92BF
S11303D04F925F926F927F928F929F92AF92BF9251
S11303E0CF92DF92EF92FF920F931F93CF93DF93FD
S11303F0CDB7DEB7A4970FB6F894DEBF0FBECDBF5E
S11304001C01CB01BA012801390129E33AEF4EE876
S11304105CE30E94032869877A878B879C8729E39A
S11304203AEF4EE85CE3C301B2010E9403286D87F2
S11304307E878F87988B29E33AEF4EE85CE3C70108
S1130440B6010E940328698B7A8B8B8B9C8B20E0EE
S113045030E0A901C501B4010E947226811119C0BE
S113046020E030E0A90169AD7AAD8BAD9CAD0E946E
S1130470722681110EC020E030E0A90121966CADF6
S11304807DAD8EAD9FAD21970E947226882309F41D
S1130490FEC1A5019401C501B4010E9403286B01AA
S11304A07C0129AD3AAD4BAD5CADCA01B9010E94E6
S11304B003289B01AC01C701B6010E9479256B0199
S11304C07C0121962CAD3DAD4EAD5FAD2197CA01A7
S11304D0B9010E9403289B01AC01C701B6010E9427
S11304E079250E9489016B017C019B01AC01C50146
S11304F0B4010E9403286D8B7E8B8F8B988FA7018C
S1130500960169AD7AAD8BAD9CAD0E9403286D8FC9
S11305107E8F8F8F98A3A701960121966CAD7DAD38
S11305208EAD9FAD21970E9403286D837E838F83B8
S11305309887D1011C968D909D90AD90BC901F978B
S113054054964D905D906D907C9057971896CD90F1
S1130550DD90ED90FC901B9750968D919D910D90A0
S1130560BC91A02D89839A83AB83BC83A3019201A0
S1130570C501B4010E940328698F7A8F8B8F9C8FE9
S113058029813A814B815C81C701B6010E9403280D
S11305909B01AC01698D7A8D8B8D9C8D0E94782591
S11305A0698F7A8F8B8F9C8FA7019601C501B40147
S11305B00E9403284B015C0129813A814B815C81B3
S11305C0C301B2010E9403289B01AC01C501B4011F
S11305D00E94792569837A838B839C83A701960182
S11305E0C701B6010E94032820E030E040E05FE349
S11305F00E9478256B017C01A3019201C301B20121
S11306000E9403289B01AC01C701B6010E94792511
S11306106B017C019B01AC016D8D7E8D8F8D98A14A
S11306200E9403284B015C0129813A814B815C8142
S11306306D817E818F8198850E9403289B01AC0186
S1130640C501B4010E94782569A37AA38BA39CA356
S1130650298D3A8D4B8D5C8D6D817E818F8198853E
S11306600E9403284B015C01A70196016D897E89D4
S11306708F89988D0E9403289B01AC01C501B401A8
S11306800E9478256D837E838F83988729813A81A0
S11306904B815C816D897E898F89988D0E940328A6
S11306A06B017C01298D3A8D4B8D5C8D6D8D7E8D1A
S11306B08F8D98A10E9403289B01AC01C701B6014C
S11306C00E94782569837A838B839C83F101C4809B
S11306D0D580E680F78020E030E0A901C701B601AB
S11306E00E94F62718160CF084C0D10194968D90C0
S11306F09D90AD90BC909797A701960169A17AA1AE
S11307008BA19CA10E940328A50194010E940328A7
S1130710F101208D318D428D538D0E9479256D8B91
S11307207E8B8F8B988FD10158966D937D938D938B
S11307309C935B97A70196016D817E818F8198853B
S11307400E940328A50194010E940328F101248D2D
S1130750358D468D578D0E9479252B013C01D101A1
S11307605C966D937D938D939C935F97A7019601FF
S113077069817A818B819C810E940328A50194015F
S11307800E940328F10120A131A142A153A10E949A
S113079079256B017C01D10190966D937D938D93A6
S11307A09C9393972D893E894F89588D69857A85C5
S11307B08B859C850E94792569877A878B879C879E
S11307C0A30192016D857E858F8598890E94792584
S11307D06D877E878F87988BA701960169897A89AF
S11307E08B899C890E947925698B7A8B8B8B9C8B56
S11307F00DC0F101108E118E128E138E148E158E73
S1130800168E178E10A211A212A213A2D101CD909E
S1130810DD90ED90FC90A701960169A17AA18BA1CE
S11308209CA10E9403289B01AC0169857A858B8574
S11308309C850E94792569877A878B879C87A70185
S113084096016D817E818F8198850E9403289B018A
S1130850AC016D857E858F8598890E9479256D8789
S11308607E878F87988BA701960169817A818B8116
S11308709C810E9403289B01AC0169897A898B8938
S11308809C890E947925698B7A8B8B8B9C8B20E0C9
S113089030E040E05FE3F10164A175A186A197A176
S11308A00E9403286B017C019B01AC0169857A8558
S11308B08B859C850E94032869837A838B839C8320
S11308C0A70196016D857E858F8598890E940328EE
S11308D06D837E838F839887A701960169897A89BE
S11308E08B899C890E940328698B7A8B8B8B9C8BC8
S11308F0D10118968D919D910D90BC91A02D898761
S11309009A87AB87BC87F101C484D584E684F784D5
S113091080899189A289B3898D879E87AF87B88B97
S11309204488558866887788C701B601905829811C
S11309303A814B815C810E9403284B015C012D8527
S11309403E854F8558896D817E818F8198850E946F
S113095003289B01AC01C501B4010E9478254B0119
S11309605C01A301920169897A898B899C890E941F
S113097003289B01AC01C501B4010E947825298597
S11309803A854B855C850E9479256D8B7E8B8F8B98
S1130990988F29853A854B855C8569817A818B811D
S11309A09C810E9403284B015C012D853E854F8567
S11309B0588969897A898B899C890E9403289B01BB
S11309C0AC01C501B4010E9479254B015C01A3016E
S11309D092016D817E818F8198850E9403289B01FD
S11309E0AC01C501B4010E947825A70196010E94BB
S11309F079256D8F7E8F8F8F98A329853A854B85B6
S1130A005C856D817E818F8198850E9403284B01CE
S1130A105C01A701960169897A898B899C890E9466
S1130A2003289B01AC01C501B4010E9478254B0148
S1130A305C01A301920169817A818B819C810E946E
S1130A4003289B01AC01C501B4010E9479252D85C1
S1130A503E854F8558890E947925698F7A8F8B8FBF
S1130A609C8F29853A854B855C8569897A898B8930
S1130A709C890E9403284B015C01A70196016D81AA
S1130A807E818F8198850E9403289B01AC01C5015A
S1130A90B4010E9479256B017C012D853E854F852B
S1130AA0588969817A818B819C810E9403289B01EA
S1130AB0AC01C701B6010E947825A30192010E94EE
S1130AC079254B015C012D893E894F89588DCA01D6
S1130AD0B9010E9403286B017C012D8D3E8D4F8D41
S1130AE058A1CA01B9010E9403289B01AC01C701A6
S1130AF0B6010E9479256B017C01298D3A8D4B8DBD
S1130B005C8DCA01B9010E9403289B01AC01C70195
S1130B10B6010E9479256B017C01A5019401C501F0
S1130B20B4010E9403289B01AC01C701B6010E94D5
S1130B3079250E9489016B017C019B01AC016D89BF
S1130B407E898F89988D0E940328D10118966D9310
S1130B507D938D939C931B97A70196016D8D7E8D3C
S1130B608F8D98A10E940328F10164877587868779
S1130B709787A7019601698D7A8D8B8D9C8D0E9434
S1130B800328D10150966D937D938D939C93539735
S1130B90A7019601C501B4010E940328F101648BE9
S1130BA0758B868B978B14AAA4960FB6F894DEBF28
S1130BB00FBECDBFDF91CF911F910F91FF90EF90AA
S1130BC0DF90CF90BF90AF909F908F907F906F9069
S1130BD05F904F903F902F9008952F923F924F92A5
S1130BE05F926F927F928F929F92AF92BF92CF92B9
S1130BF0DF92EF92FF920F931F93CF93DF93CDB7C2
S1130C00DEB7C455D1090FB6F894DEBF0FBECDBF11
S1130C101C01498B5A8B6B8B7C8B0D8B1E8B2F8B02
S1130C20388FAA961FADAA97AB960FADAB97AC962B
S1130C306FACAC97AD967FACAD97AE964FACAE971C
S1130C40AF965FACAF97E0968FADE0978D83E1965A
S1130C509FADE1979D8720E030E0A901E5966CAD5A
S1130C607DAD8EAD9FADE5970E947226811135C092
S1130C7020E030E0A901E9966CAD7DAD8EAD9FAD6D
S1130C80E9970E947226811128C020E030E0A90172
S1130C90ED966CAD7DAD8EAD9FADED970E94722645
S1130CA081111BC0AD85AF93BD81BF935F924F92FD
S1130CB07F926F920F931F930D891E892F89388D10
S1130CC049895A896B897C89C1010E94E6010FB662
S1130CD0F894DEBF0FBECDBF67C629E33AEF4EE8F6
S1130CE05CE369897A898B899C890E940328698BD2
S1130CF07A8B8B8B9C8B29E33AEF4EE85CE36D890E
S1130D007E898F89988D0E9403286D8B7E8B8F8BB3
S1130D10988F29E33AEF4EE85CE3C701B6010E94DD
S1130D20032869A37AA38BA39CA320E030E0A90144
S1130D30C501B4010E947226811119C020E030E07F
S1130D40A901612F702F862D972D0E947226811183
S1130D500EC020E030E0A901FD81ED85642D752DE4
S1130D608F2F9E2F0E947226882309F490C4A50118
S1130D709401C501B4010E9403286B017C01212F59
S1130D80302F462D572D612F702F862D972D0E94C1
S1130D9003289B01AC01C701B6010E9479256B01B0
S1130DA07C019D818D85242D352D492F582F642D4F
S1130DB0752D892F952F0E9403289B01AC01C70133
S1130DC0B6010E9479250E9489016B017C019B0177
S1130DD0AC01C501B4010E94032869AB7AAB8BABAB
S1130DE09CABA7019601612F702F862D972D0E9431
S1130DF003286DAB7EAB8FAB98AFA7019601FD8145
S1130E00ED85642D752D8F2F9E2F0E94032869AFC9
S1130E107AAF8BAF9CAFE5962CAD3DAD4EAD5FADDB
S1130E20E597CA01B9010E9403286B017C01E99688
S1130E302CAD3DAD4EAD5FADE997CA01B9010E943D
S1130E4003289B01AC01C701B6010E9479256B01FF
S1130E507C01ED962CAD3DAD4EAD5FADED97CA0175
S1130E60B9010E9403289B01AC01C701B6010E948D
S1130E7079250E9489016B017C019B01AC01E596F7
S1130E806CAD7DAD8EAD9FADE5970E9403286D835B
S1130E907E838F839887A7019601E9966CAD7DAD1B
S1130EA08EAD9FADE9970E94032869877A878B8767
S1130EB09C87A7019601ED966CAD7DAD8EAD9FAD7F
S1130EC0ED970E9403286D877E878F87988BD101C9
S1130ED018968D919D910D90BC91A02D89839A8334
S1130EE0AB83BC83F101C484D584E684F784A70171
S1130EF09601BC01CD010E9403286DA37EA38FA39C
S1130F0098A7D10150964D905D906D907C90539729
S1130F10A301920169817A818B819C810E940328BB
S1130F20698F7A8F8B8F9C8FF10184889588A6882E
S1130F30B788A501940169817A818B819C810E9483
S1130F4003286D8F7E8F8F8F98A3A3019201C70111
S1130F50B6010E94032869A77AA78BA79CA7A501BD
S1130F609401C701B6010E9403286DA77EA78FA72D
S1130F7098ABA3019201C301B2010E9403282196F8
S1130F806CAF7DAF8EAF9FAF2197A5019401C301D4
S1130F90B2010E94032825966CAF7DAF8EAF9FAF40
S1130FA02597A5019401C501B4010E9403282B01D2
S1130FB03C0121962CAD3DAD4EAD5FAD219760E077
S1130FC070E080E09FE30E947825A30192010E94D3
S1130FD0782529966CAF7DAF8EAF9FAF29972D8D65
S1130FE03E8D4F8D58A169A57AA58BA59CA50E941D
S1130FF078252D966CAF7DAF8EAF9FAF2D972DA525
S11310003EA54FA558A9698D7A8D8B8D9C8D0E9424
S1131010792561966CAF7DAF8EAF9FAF61972996AE
S11310202CAD3DAD4EAD5FAD29976D817E818F8135
S113103098850E9403284B015C012D962CAD3DAD93
S11310404EAD5FAD2D9769857A858B859C850E9411
S113105003289B01AC01C501B4010E9479254B0111
S11310605C0161962CAD3DAD4EAD5FAD61976D8574
S11310707E858F8598890E9403289B01AC01C50158
S1131080B4010E9479259B01AC010E9479254B0192
S11310905C01A7019601C701B6010E9403289B01C8
S11310A0AC0160E070E080E09FE30E9478256596E3
S11310B06CAF7DAF8EAF9FAF659729A53AA54BA5C1
S11310C05CA56D8D7E8D8F8D98A10E9479252D81D3
S11310D03E814F8158850E9403286B017C01A30146
S11310E0920165966CAD7DAD8EAD9FAD65970E9406
S11310F0782529853A854B855C850E9403289B01C8
S1131100AC01C701B6010E9479256B017C012DA1B8
S11311103EA14FA158A525966CAD7DAD8EAD9FAD7A
S113112025970E9478252D853E854F8558890E94F4
S113113003289B01AC01C701B6010E9479259B01DC
S1131140AC010E9479256B017C01A5019401C501C4
S1131150B4010E9403286D8F7E8F8F8F98A3A50101
S11311609401C501B4010E9403284B015C01A7014D
S11311709601C701B6010E9403289B01AC01C50179
S1131180B4010E9479250E9476284B015C01298DC7
S11311903A8D4B8D5C8D6DA57EA58FA598A90E9477
S11311A07825698F7A8F8B8F9C8F25962CAD3DADDA
S11311B04EAD5FAD25976DA17EA18FA198A50E942C
S11311C079256DA37EA38FA398A721962CAD3DAD61
S11311D04EAD5FAD219765966CAD7DAD8EAD9FAD87
S11311E065970E9478256D8F7E8F8F8F98A3298DA8
S11311F03A8D4B8D5C8D6D817E818F8198850E94A7
S113120003286B017C012DA13EA14FA158A569853E
S11312107A858B859C850E9403289B01AC01C701BC
S1131220B6010E9479256B017C012D8D3E8D4F8D79
S113123058A16D857E858F8598890E9403289B011E
S1131240AC01C701B6010E9479259B01AC010E9443
S113125079256B017C0129813A814B815C81CA012A
S1131260B9010E94032820E030E040E05FE30E94DF
S11312707825A30192010E94792569837A838B835F
S11312809C83A501940129966CAD7DAD8EAD9FAD77
S113129029970E9403282B013C01A7019601698D1F
S11312A07A8D8B8D9C8D0E9403289B01AC01C30118
S11312B0B2010E94792569A77AA78BA79CA7A501EB
S11312C094012D966CAD7DAD8EAD9FAD2D970E9492
S11312D003282B013C01A70196016DA17EA18FA1DA
S11312E098A50E9403289B01AC01C301B2010E948E
S11312F079256DA77EA78FA798ABA5019401619668
S11313006CAD7DAD8EAD9FAD61970E9403282B011E
S11313103C01A70196016D8D7E8D8F8D98A10E9451
S113132003289B01AC01C301B2010E9479256B0122
S11313307C0129813A814B815C816DA97EA98FA9A9
S113134098AD0E9403284B015C012DA13EA14FA141
S113135058A569AD7AAD8BAD9CAD0E9403289B0165
S1131360AC01C501B4010E9478254B015C01A701C1
S1131370960169857A858B859C850E9403282B01BB
S11313803C012DA53EA54FA558A96D857E858F8569
S113139098890E9403289B01AC01C301B2010E94F9
S11313A078259B01AC01C501B4010E9479256D8F9C
S11313B07E8F8F8F98A3298D3A8D4B8D5C8D69AD6F
S11313C07AAD8BAD9CAD0E9403284B015C01298151
S11313D03A814B815C8169A97AA98BA99CA90E9455
S11313E003289B01AC01C501B4010E9478254B017F
S11313F05C0129A53AA54BA55CA56D857E858F85E5
S113140098890E9403282B013C01A70196016D8154
S11314107E818F8198850E9403289B01AC01C301C2
S1131420B2010E9478259B01AC01C501B4010E9460
S1131430792569837A838B839C832DA13EA14FA157
S113144058A569A97AA98BA99CA90E9403286B01B4
S11314507C01298D3A8D4B8D5C8D6DA97EA98FA958
S113146098AD0E9403289B01AC01C701B6010E94FC
S113147078256B017C012DA53EA54FA558A96D814A
S11314807E818F8198850E9403284B015C0129A5E8
S11314903AA54BA55CA569857A858B859C850E94B8
S11314A003289B01AC01C501B4010E9478259B016E
S11314B0AC01C701B6010E9479256D837E838F83B9
S11314C09887D1011496CD90DD90ED90FC901797FC
S11314D020E030E0A901C701B6010E94F6271816E2
S11314E00CF082C0F10184A095A0A6A0B7A0A7012A
S11314F096016D8D7E8D8F8D98A10E940328A50184
S113150094010E940328D10158962D913D914D914B
S11315105C915B970E94792569877A878B879C8782
S1131520F101608F718F828F938FA701960169817A
S11315307A818B819C810E940328A50194010E94D9
S11315400328D1015C962D913D914D915C915F975B
S11315500E9479252B013C01F101648F758F868FE0
S1131560978FA70196016D817E818F8198850E9456
S11315700328A50194010E940328D10190962D917E
S11315803D914D915C9193970E9479256B017C016B
S1131590F10160A371A382A393A329853A854B85A6
S11315A05C8569897A898B899C890E947925698BF4
S11315B07A8B8B8B9C8BA30192016D897E898F8999
S11315C0988D0E9479256D8B7E8B8F8B988FA701C8
S11315D0960169A17AA18BA19CA10E94792569A396
S11315E07AA38BA39CA312C0D10158961D921D927D
S11315F01D921C925B97F101148E158E168E178E18
S113160090961D921D921D921C929397F101C08099
S1131610D180E280F380A70196016D8D7E8D8F8D40
S113162098A10E9403289B01AC0169897A898B895E
S11316309C890E947925698B7A8B8B8B9C8BA70163
S1131640960169817A818B819C810E9403289B0188
S1131650AC016D897E898F89988D0E9479256D8B67
S11316607E8B8F8B988FA70196016D817E818F81F0
S113167098850E9403289B01AC0169A17AA18BA1E2
S11316809CA10E94792569A37AA38BA39CA320E043
S113169030E040E05FE3D10194966D917D918D91AE
S11316A09C9197970E9403286B017C019B01AC01DC
S11316B069897A898B899C890E94032869877A873A
S11316C08B879C87A70196016D897E898F89988D68
S11316D00E9403286D877E878F87988BA7019601C8
S11316E069A17AA18BA19CA10E940328698B7A8BA2
S11316F08B8B9C8BD10118968D919D910D90BC91F3
S1131700A02D89839A83AB83BC83F101C484D584DF
S1131710E684F78480899189A289B3898D839E8325
S1131720AF83B8874488558866887788C701B6012F
S1131730905829853A854B855C850E9403284B0186
S11317405C012D813E814F8158856D857E858F8515
S113175098890E9403289B01AC01C501B4010E9431
S113176078254B015C01A301920169897A898B89EF
S11317709C890E9403289B01AC01C501B4010E940D
S1131780782529813A814B815C810E9479256D8B72
S11317907E8B8F8B988F29813A814B815C816985FF
S11317A07A858B859C850E9403284B015C012D81E1
S11317B03E814F81588569897A898B899C890E94E9
S11317C003289B01AC01C501B4010E9479254B019A
S11317D05C01A30192016D857E858F8598890E94A5
S11317E003289B01AC01C501B4010E947825A7011F
S11317F096010E94792569A37AA38BA39CA32981CE
S11318003A814B815C816D857E858F8598890E94A4
S113181003284B015C01A701960169897A898B89A8
S11318209C890E9403289B01AC01C501B4010E945C
S113183078254B015C01A301920169857A858B852A
S11318409C850E9403289B01AC01C501B4010E9440
S113185079252D813E814F8158850E9479254B0140
S11318605C0129813A814B815C8169897A898B8900
S11318709C890E94032869837A838B839C83A701B4
S113188096016D857E858F8598890E9403289B012A
S1131890AC0169817A818B819C810E9479256B01DD
S11318A07C012D813E814F81588569857A858B85A0
S11318B09C850E9403289B01AC01C701B6010E94CC
S11318C07825A30192010E9479252B013C012D89E1
S11318D03E894F89588DCA01B9010E9403286B01C2
S11318E07C0129A13AA14BA15CA1CA01B9010E94C2
S11318F003289B01AC01C701B6010E9479256B0145
S11319007C01A5019401C501B4010E9403289B0137
S1131910AC01C701B6010E9479256B017C01A301CA
S11319209201C301B2010E9403289B01AC01C701CB
S1131930B6010E9479250E9489016B017C019B01FB
S1131940AC016D897E898F89988D0E940328D1010D
S113195018966D937D938D939C931B97A701960185
S113196069A17AA18BA19CA10E940328F10164873B
S1131970758786879787A7019601C501B4010E94E0
S11319800328D10150966D937D938D939C93539727
S1131990A7019601C301B2010E940328F101648BDF
S11319A0758B868B978B14AACC5ADF4F0FB6F8949D
S11319B0DEBF0FBECDBFDF91CF911F910F91FF907E
S11319C0EF90DF90CF90BF90AF909F908F907F90DB
S11319D06F905F904F903F902F9008954F925F9239
S11319E06F927F928F929F92AF92BF92CF92DF922B
S11319F0EF92FF92CF93DF93CDB7DEB762970FB626
S1131A00F894DEBF0FBECDBF9A8B898BDC011C9688
S1131A108D909D90AD90BC901F9750964D905D9089
S1131A206D907C905397A3019201C301B2010E946F
S1131A30032869837A838B839C83A989BA8918963E
S1131A408D919D910D90BC91A02D8D839E83AF832C
S1131A50B887E989FA89C488D588E688F788A50112
S1131A609401C501B4010E9403289B01AC0160E00C
S1131A7070E080E09FE30E94782529813A814B81C0
S1131A805C810E94782569877A878B879C872D8162
S1131A903E814F815885C501B4010E9403286D879A
S1131AA07E878F87988BA7019601C301B2010E949C
S1131AB003289B01AC016D857E858F8598890E94E2
S1131AC0792529853A854B855C850E941326A98949
S1131AD0BA8998966D937D938D939C939B97A70158
S1131AE09601C501B4010E94032869877A878B8710
S1131AF09C872D813E814F815885C301B2010E948C
S1131B0003289B01AC0169857A858B859C850E949D
S1131B10782520E030E040E050EC0E9403280E9449
S1131B20E525E989FA8964A775A786A797A7298176
S1131B303A814B815C8160E070E080E09FE30E9429
S1131B40782569837A838B839C83A7019601C701D7
S1131B50B6010E9403289B01AC0169817A818B81C3
S1131B609C810E94782569837A838B839C83A3015B
S1131B709201C501B4010E9403284B015C01A70135
S1131B8096016D817E818F8198850E9403289B0137
S1131B90AC01C501B4010E94792529813A814B81A8
S1131BA05C810E941326A989BA89D0966D937D938E
S1131BB08D939C93D39781E0D4968C9362960FB6C1
S1131BC0F894DEBF0FBECDBFDF91CF91FF90EF90B1
S1131BD0DF90CF90BF90AF909F908F907F906F9049
S1131BE05F904F900895FF920F931F93CF93DF93CD
S1131BF000D01F92CDB7DEB70F2EF0EDFF2EF02DE3
S1131C00F9828BE68A8381E08B8363E08E010F5F28
S1131C101F4FC8010E94512383E0F80111928A9555
S1131C20E9F7F98287E38A8382E08B8363E0C80162
S1131C300E9451230F900F900F90DF91CF911F912D
S1131C400F91FF9008950F931F93CF93DF93CDB718
S1131C50DEB72A970FB6F894DEBF0FBECDBF8C0156
S1131C6080ED89838BE38A8381ED8C8362E0CE01EE
S1131C7001960E94512367E0CE0104960E945123ED
S1131C8067E0CE0104960E947E238D8190E0982F18
S1131C9088272E81822BF801918380838F8190E0A5
S1131CA0982F88272885822B93838283898590E0C7
S1131CB0982F88272A85822B9583848380E02A960F
S1131CC00FB6F894DEBF0FBECDBFDF91CF911F9149
S1131CD00F910895CF93DF9300D01F92CDB7DEB755
S1131CE080ED89838CE18A8388E08B8363E0CE0175
S1131CF001960E9451232FEF80E792E0215080400B
S1131D009040E1F700C0000080E00F900F900F902A
S1131D10DF91CF910895EF92FF920F931F93CF938A
S1131D20DF93CDB7DEB727970FB6F894DEBF0FBEAB
S1131D30CDBF8C0180ED898387E78A8362E0CE0181
S1131D4001967C010E94512387E0F70111928A9544
S1131D50E9F781ED898367E0C7010E94512367E0B9
S1131D60C7010E947E238A8190E0982F88272B81C7
S1131D70822BF801918380838C8190E0982F8827AF
S1131D802D81822B938382838E8190E0982F8827E4
S1131D902F81822B9583848380E027960FB6F89455
S1131DA0DEBF0FBECDBFDF91CF911F910F91FF908A
S1131DB0EF9008950F931F93CF93DF93CDB7DEB7C2
S1131DC061970FB6F894DEBF0FBECDBF8C01CE0174
S1131DD001960E948B0E81113EC0FE013196DE01F8
S1131DE017969D0141E08191919180FD4C9311964C
S1131DF0E217F307C1F749815A81F8018081918183
S1131E00481B590B5A8349832B813C8182819381DE
S1131E10281B390B3C832B838D819E8164817581C2
S1131E20861B970B9E838D836F81642B4885422B81
S1131E302985822B20ED2A8727E72B875C876D87EE
S1131E403E874F87988B898B68E0CE010A960E9463
S1131E50512380E001C08FEF61960FB6F894DEBF86
S1131E600FBECDBFDF91CF911F910F9108953F9287
S1131E704F925F926F927F928F929F92AF92BF9296
S1131E80CF92DF92EF92FF920F931F93CF93DF9342
S1131E90CDB7DEB72F970FB6F894DEBF0FBECDBF18
S1131EA080ED89838CE18A8388E18B8363E0CE01B2
S1131EB001960E9451232FEF30E742E02150304039
S1131EC04040E1F700C000001D821C821F821E8278
S1131ED01986188600E014E0412C512C3201812C23
S1131EE0912C5401C12CD12C7601CE0104960E9470
S1131EF0230E8C819D81092E000CAA0BBB0B480E6E
S1131F00591E6A1E7B1E8E819F81092E000CAA0B0E
S1131F10BB0B880E991EAA1EBB1E88859985092EA7
S1131F20000CAA0BBB0BC80ED91EEA1EFB1E8FE9C0
S1131F309FE00197F1F700C0000001501109A9F6D4
S1131F407F926F925F924F928DE091E09F938F9377
S1131F5004EE14E01F930F930E940729F8010190E7
S1131F600020E9F73197AF01445E544060E070E02F
S1131F70C8010E9434240F2EF2E33F2EF02DF80105
S1131F80232D11922A95E9F7BF92AF929F928F92D7
S1131F908BE191E09F938F931F930F930E940729E6
S1131FA0F80101900020E9F73197AF01445E5440F5
S1131FB060E070E0C8010E943424F801232D1192DE
S1131FC02A95E9F7FF92EF92DF92CF9289E291E0AE
S1131FD09F938F931F930F930E940729F8010190F9
S1131FE00020E9F73197AF01445E544060E070E0AF
S1131FF0C8010E943424F80111923A94E9F7D301FC
S1132000C2010FB6F894DEBF0FBECDBF772024F413
S113201081509C4FAF4FBF4F2C013D01032E3AE03E
S113202075946794579447943A95D1F7302DD50118
S1132030C401BB2024F481509C4FAF4FBF4F4C01CF
S11320405D01072E7AE0B594A794979487947A95C6
S1132050D1F7702DD701C601FF2024F481509C4F85
S1132060AF4FBF4F6C017D010B2EBAE0F594E7949E
S1132070D794C794BA95D1F7B02D7F926F925F929F
S11320804F9287E391E09F938F9304EE14E01F93A4
S11320900F930E940729F80101900020E9F7319776
S11320A0AF01445E544060E070E0C8010E943424F3
S11320B00F2EF2E33F2EF02DF801232D11922A95D5
S11320C0E9F7BF92AF929F928F9285E491E09F933C
S11320D08F931F930F930E940729F801019000200A
S11320E0E9F73197AF01445E544060E070E0C80105
S11320F00E943424F801232D11922A95E9F7FF92C6
S1132100EF92DF92CF9283E591E09F938F931F9399
S11321100F930E940729F80101900020E9F73197F5
S1132120AF01445E544060E070E0C8010E94342472
S1132130F80111923A94E9F7242D4A865B868C863D
S11321409D868C2D9D2D0FB6F894DEBF0FBECDBF9E
S11321501816190624F498509F878E8703C0985F39
S11321609F878E875F922F930F2EF1E6CF2EF1E09B
S1132170DF2EF02DDF92CF9204EE14E01F930F9325
S11321800E940729F80101900020E9F73197AF0177
S1132190445E544060E070E0C8010E9434240F2E75
S11321A0F2E3FF2EF02DF8012F2D11922A95E9F775
S11321B08D858F938C858F93DF92CF921F930F938E
S11321C00E940729F80101900020E9F73197AF0137
S11321D0445E544060E070E0C8010E943424F80179
S11321E02F2D11922A95E9F78F858F938E858F93E2
S11321F0DF92CF921F930F930E940729F801019059
S11322000020E9F73197AF01445E544060E070E08C
S1132210C8010E943424F8011192FA94E9F7CE011E
S11322200A960E94DA0E0FB6F894DEBF0FBECDBF39
S113223080E02F960FB6F894DEBF0FBECDBFDF91BE
S1132240CF911F910F91FF90EF90DF90CF90BF90AF
S1132250AF909F908F907F906F905F904F903F9042
S113226008950F931F93CF93DF93CDB7DEB72997CC
S11322700FB6F894DEBF0FBECDBF8C0180ED89830D
S113228083E48A8381ED8B8362E0CE0101960E9410
S1132290512367E0CE0103960E94512367E0CE01EB
S11322A003960E947E238C8190E0982F88272D81AD
S11322B0822BF801918380838E8190E0982F882768
S11322C02F81822B93838283888590E0982F88279F
S11322D02985822B9583848380E029960FB6F89410
S11322E0DEBF0FBECDBFDF91CF911F910F91089537
S11322F0CF93DF93CDB7DEB728970FB6F894DEBF40
S11323000FBECDBFFC0140815181519541955109CA
S1132310518340832281338131952195310933835F
S113232022838481958191958195910995838483F4
S113233051813381958160ED698363E16A835B83B5
S11323404C833D832E839F83888768E0CE0101966A
S11323500E94512380E028960FB6F894DEBF0FBE8A
S1132360CDBFDF91CF9108953F924F925F926F92CC
S11323707F928F929F92AF92BF92CF92DF92EF9211
S1132380FF920F931F93CF93DF93CDB7DEB72F97B1
S11323900FB6F894DEBF0FBECDBF80ED89838BE10D
S11323A08A8380E18B8363E0CE0101960E945123EE
S11323B000E014E0CE0104960E9431118C819D81CD
S11323C0092E000CAA0BBB0B480E591E6A1E7B1E5D
S11323D08E819F81092E000CAA0BBB0B880E991EBF
S11323E0AA1EBB1E88859985092E000CAA0BBB0B5F
S11323F0C80ED91EEA1EFB1E89EF90E00197F1F783
S113240000C0000001501109A9F67F926F925F92FB
S11324104F9289E791E09F938F9304EE14E01F930A
S11324200F930E940729F80101900020E9F73197E2
S1132430AF01445E544060E070E0C8010E9434245F
S11324400F2EF2E33F2EF02DF801232D11922A9541
S1132450E9F7BF92AF929F928F9287E891E09F93A2
S11324608F931F930F930E940729F8010190002076
S1132470E9F73197AF01445E544060E070E0C80171
S11324800E943424F801232D11922A95E9F7FF9232
S1132490EF92DF92CF9285E991E09F938F931F9300
S11324A00F930E940729F80101900020E9F7319762
S11324B0AF01445E544060E070E0C8010E943424DF
S11324C0F80111923A94E9F7D301C2010FB6F894D6
S11324D0DEBF0FBECDBF772024F481509C4FAF4F99
S11324E0BF4F072E7AE0B595A795979587957A956E
S11324F0D1F7702D8A879B87B501A401BB2024F4F2
S113250041505C4F6F4F7F4F032E3AE075956795AE
S1132510579547953A95D1F7302D5D874C87B7018C
S1132520A601FF2024F441505C4F6F4F7F4F032ED0
S11325303AE075956795579547953A95D1F7302DBB
S11325405F874E879F938F930F2EF1E6CF2EF1E096
S1132550DF2EF02DDF92CF9204EE14E01F930F9341
S11325600E940729F80101900020E9F73197AF0193
S1132570445E544060E070E0C8010E9434240F2E91
S1132580F2E3FF2EF02DF8012F2D11922A95E9F791
S11325908D858F938C858F93DF92CF921F930F93AA
S11325A00E940729F80101900020E9F73197AF0153
S11325B0445E544060E070E0C8010E943424F80195
S11325C02F2D11922A95E9F78F858F938E858F93FE
S11325D0DF92CF921F930F930E940729F801019075
S11325E00020E9F73197AF01445E544060E070E0A9
S11325F0C8010E943424F8011192FA94E9F7CE013B
S11326000A960E9478110FB6F894DEBF0FBECDBFB4
S113261080E02F960FB6F894DEBF0FBECDBFDF91DA
S1132620CF911F910F91FF90EF90DF90CF90BF90CB
S1132630AF909F908F907F906F905F904F903F905E
S113264008950F931F93CF93DF93EC0106E115E0F8
S1132650F8016081062E000C770B880B990B0E9401
S1132660EB2620E030E040E05FE30E94032820E016
S113267030E040E05CE30E94032820E030E040E8E2
S11326805FE30E9479259B01AC01688179818A818D
S11326909B810E940328688379838A839B83F80142
S11326A06181062E000C770B880B990B0E94EB2698
S11326B020E030E040E05FE30E94032820E030E0C7
S11326C040E05CE30E94032820E030E040E85FE360
S11326D00E9479259B01AC016C817D818E819F8153
S11326E00E9403286C837D838E839F83F80162811B
S11326F0062E000C770B880B990B0E94EB2620E02A
S113270030E040E05FE30E94032820E030E040E056
S11327105CE30E94032820E030E040E85FE30E948D
S113272079259B01AC01688579858A859B850E9402
S11327300328688779878A879B8780E0DF91CF9118
S11327401F910F9108950F931F93CF93DF93CDB7EC
S1132750DEB72A970FB6F894DEBF0FBECDBF8C014B
S113276088E1898383E08A8389E18B8362E0CE01F7
S113277001960E94512368E0CE0103960E945123E2
S113278068E0CE0103960E947E238D8190E0982F0D
S113279088272C81822BF801918380838F8190E09C
S11327A0982F88272E81822B93838283898590E0BA
S11327B0982F88272885822B9583848380E02A9606
S11327C00FB6F894DEBF0FBECDBFDF91CF911F913E
S11327D00F9108952F923F924F925F926F927F9242
S11327E08F929F92AF92BF92CF92DF92EF92FF921D
S11327F00F931F93CF93DF93CDB7DEB7AF970FB689
S1132800F894DEBF0FBECDBF88E189838AE08A8356
S113281086E18B8363E0CE0101960E94512386E01A
S1132820E1E0F1E0DE011A9601900D928A95E1F75C
S113283086E0E7E0F1E0DE01509601900D928A9582
S1132840E1F700E014E05E0126E1A20EB11CCE0126
S113285004960E94A3139E012C5F3F4F6E0180E1FA
S1132860C80ED11C7E019AE0E90EF11CB701F601F5
S1132870D9018D919D919D014081518184179507C6
S113288014F491838083DB014D915C911197481777
S1132890590714F48D939C9332966E5F7F4FEA151B
S11328A0FB0531F7EFE1FEE43197F1F700C00000DA
S11328B00150110961F63E01F0E16F0E711C0F2EFB
S11328C0F3EA8F2EF1E09F2EF02D0F2EF4EEAF2EB3
S11328D0F4E0BF2EF02D12E30F2EFFEA4F2EF1E0AD
S11328E05F2EF02DD7018C9111969C91B2E0EB0EE6
S11328F0F11C9F938F939F928F92BF92AF920E94ED
S11329000729F50101900020E9F73197AF01445EF2
S1132910544060E070E0C5010E943424F501212F89
S113292011922A95E9F7D6018C9111969C91B2E007
S1132930CB0ED11C9F938F935F924F92BF92AF9215
S11329400E940729F50101900020E9F73197AF01B2
S1132950445E544060E070E0C5010E943424F501F7
S1132960212F11922A95E9F70FB6F894DEBF0FBE16
S1132970CDBFE614F70409F0B5CFAA85BB85BBA388
S1132980AAA3E889F989FFA3EEA33D016E0E7F1E79
S113299077201CF4FFEF6F1A7F0A759467942C85D7
S11329A03D8539A728A78A899B899BA78AA74901BE
S11329B0880E991E99201CF49FEF891A990A959400
S11329C087942E843F844C885D885101A40CB51CE7
S11329D0BB201CF4AFEFAA1ABA0AB594A7947F924D
S11329E06F928BEB91E09F938F930F2EF4EEEF2E6B
S11329F0F4E0FF2EF02DFF92EF920E940729F701D9
S1132A0001900020E9F73197AF01445E544060E043
S1132A1070E0C7010E9434240F2EF2E3DF2EF02D64
S1132A20F7012D2D11922A95E9F79F928F9281ED4E
S1132A3091E09F938F93FF92EF920E940729F701F1
S1132A4001900020E9F73197AF01445E544060E003
S1132A5070E0C7010E943424D701ED2D1D92EA9540
S1132A60E9F7BF92AF9287EE91E09F938F93FF9225
S1132A70EF920E940729F70101900020E9F73197AE
S1132A80AF01445E544060E070E0C7010E9434240A
S1132A90D701ED2D1D92EA95E9F7B301770C880B68
S1132AA0990B0E94EB266CA77DA78EA79FA70F2EDC
S1132AB0F5E26F2EF5E07F2EF02DD3016D937D931B
S1132AC08D939C931397B401990C880B990B0E94D6
S1132AD0EB26F3016483758386839783B501BB0C6E
S1132AE0880B990B0E94EB26D30118966D937D9366
S1132AF08D939C931B97D7010D900020E9F71197B4
S1132B0084E1E1E0F2E001900D928A95E1F700EDB5
S1132B1014E025E045E06CA57DA58EA59FA50E9447
S1132B20CF28BC01C7010E94FC28F70101900020B6
S1132B30E9F731970F2EFDE08F2EFAE09F2EF02D4E
S1132B40918280821282F70101900020E9F7319787
S1132B50AF01445E544060E070E0C7010E94342439
S1132B60F7012D2D11922A95E9F70F2EF4E1CF2EBE
S1132B70F02DD801EC2D1D92EA95E9F7D7010D90BF
S1132B800020E9F7119784E1E9E1F2E001900D9268
S1132B908A95E1F7D30114966D917D918D919C9165
S1132BA0179725E045E00E94CF28BC01C7010E9489
S1132BB0FC28F70101900020E9F731979182808287
S1132BC01282F70101900020E9F73197AF01445ECA
S1132BD0544060E070E0C7010E943424F7012D2DB9
S1132BE011922A95E9F7D801EC2D1D92EA95E9F79F
S1132BF0D7010D900020E9F7119784E1E1E3F2E0B9
S1132C0001900D928A95E1F7D30118966D917D910B
S1132C108D919C911B9725E045E00E94CF28BC0133
S1132C20C7010E94FC28F70101900020E9F73197C1
S1132C30918280821282F70101900020E9F7319796
S1132C40AF01445E544060E070E0C7010E94342448
S1132C50F7012D2D11922A95E9F7D801EC2D1D923B
S1132C60EA95E9F7C3010E942113D7010D900020D2
S1132C70E9F7119788E1EDEFF1E001900D928A9563
S1132C80E1F7D3016D917D918D919C9125E045E013
S1132C900E94CF28BC01C7010E94FC28F7010190C3
S1132CA00020E9F73197918280821282F701019026
S1132CB00020E9F73197AF01445E544060E070E0D2
S1132CC0C7010E943424F7012D2D11922A95E9F7AA
S1132CD0D801EC2D1D92EA95E9F7D7010D9000205B
S1132CE0E9F7119788E1E5E1F2E001900D928A9508
S1132CF0E1F7D30114966D917D918D919C91179775
S1132D0025E045E00E94CF28BC01C7010E94FC28B1
S1132D10F70101900020E9F73197918280821282B5
S1132D20F70101900020E9F73197AF01445E544068
S1132D3060E070E0C7010E943424F7012D2D119248
S1132D402A95E9F7D801EC2D1D92EA95E9F7D70108
S1132D500D900020E9F7119788E1EDE2F2E001908F
S1132D600D928A95E1F7D30118966D917D918D911D
S1132D709C911B9725E045E00E94CF28BC01C70128
S1132D800E94FC28F70101900020E9F73197918215
S1132D9080821282F70101900020E9F73197AF0198
S1132DA0445E544060E070E0C7010E943424F7019F
S1132DB01192DA94E9F7D8011D92CA94E9F78AA12D
S1132DC09BA1EEA1FFA18E1B9F0BBC010FB6F89433
S1132DD0DEBF0FBECDBF12F46F5F7F4F7595679551
S1132DE0072E000C880B990B0E94EB264B015C010B
S1132DF06E8B7F8B888F998F88A599A5AAA5BBA573
S1132E008A1B9B0BBC0112F46F5F7F4F759567950E
S1132E10072E000C880B990B0E94EB266A8F7B8F80
S1132E208C8F9D8FC10184199509BC0112F46F5FC9
S1132E307F4F75956795072E000C880B990B0E94A0
S1132E40EB266E8F7F8F88A399A30F2EF4EEEF2EBF
S1132E50F4E0FF2EF02DD7010D900020E9F7119733
S1132E6084E1E9E4F2E001900D928A95E1F700ED46
S1132E7014E025E045E0C501B4010E94CF28BC015F
S1132E80C7010E94FC28F70101900020E9F731975F
S1132E900F2EFDE0AF2EFAE0BF2EF02DB182A082FE
S1132EA01282F70101900020E9F73197AF01445EE7
S1132EB0544060E070E0C7010E9434240F2EF2E316
S1132EC09F2EF02DF701292D11922A95E9F70F2E47
S1132ED0F4E18F2EF02DD801E82D1D92EA95E9F743
S1132EE0D7010D900020E9F7119784E1E1E6F2E0C3
S1132EF001900D928A95E1F76A8D7B8D8C8D9D8D65
S1132F0025E045E00E94CF28BC01C7010E94FC28AF
S1132F10F70101900020E9F73197B182A082128273
S1132F20F70101900020E9F73197AF01445E544066
S1132F3060E070E0C7010E943424D701E92D1D929E
S1132F40EA95E9F7D801E82D1D92EA95E9F7D7014A
S1132F500D900020E9F7119784E1E9E7F2E0019090
S1132F600D928A95E1F76E8D7F8D88A199A125E058
S1132F7045E00E94CF28BC01C7010E94FC28F7014C
S1132F8001900020E9F73197B182A0821282F70103
S1132F9001900020E9F73197AF01445E544060E0AE
S1132FA070E0C7010E943424D701E92D1D92EA95EF
S1132FB0E9F7D801E82D1D92EA95E9F7CE01469686
S1132FC00E942113D7010D900020E9F7119788E1A1
S1132FD0E5E4F2E001900D928A95E1F76E897F892C
S1132FE0888D998D25E045E00E94CF28BC01C7015A
S1132FF00E94FC28F70101900020E9F73197B18283
S1133000A0821282F70101900020E9F73197AF0105
S1133010445E544060E070E0C7010E943424D7014C
S1133020E92D1D92EA95E9F7D801E82D1D92EA955C
S1133030E9F7D7010D900020E9F7119788E1EDE554
S1133040F2E001900D928A95E1F76A8D7B8D8C8D6B
S11330509D8D25E045E00E94CF28BC01C7010E9458
S1133060FC28F70101900020E9F73197B182A08292
S11330701282F70101900020E9F73197AF01445E15
S1133080544060E070E0C7010E943424D701E92D68
S11330901D92EA95E9F7D801E82D1D92EA95E9F722
S11330A0D7010D900020E9F7119788E1E5E7F2E0F8
S11330B001900D928A95E1F76E8D7F8D88A199A17B
S11330C025E045E00E94CF28BC01C7010E94FC28EE
S11330D0F70101900020E9F73197B182A0821282B2
S11330E0F70101900020E9F73197AF01445E5440A5
S11330F060E070E0C7010E943424D701E92D1D92DD
S1133100EA95E9F7D801E82D1D92EA95E9F72A8DA9
S11331103B8D4C8D5D8D6E897F89888D998D0E9444
S113312079252E8D3F8D48A159A10E94792520E053
S113313030E040E450E40E9477266AA37BA38CA38A
S11331409DA3D7010D900020E9F7119788E0EDE8E1
S1133150F2E001900D928A95E1F725E045E06AA13D
S11331607BA18CA19DA10E94CF28BC01C7010E9414
S1133170FC28F70101900020E9F73197B182A08281
S11331801282F70101900020E9F73197AF01445E04
S1133190544060E070E0C7010E943424D701E92D57
S11331A01D92EA95E9F7D801E82D1D92EA95E9F711
S11331B02E893F89488D598D6AA17BA18CA19DA13F
S11331C00E9477262B013C010F2EF9E12F2EF5E00A
S11331D03F2EF02DD1016D937D938D939C93139786
S11331E02A8D3B8D4C8D5D8D6AA17BA18CA19DA107
S11331F00E947726F10164837583868397832E8DDD
S11332003F8D48A159A16AA17BA18CA19DA10E94D7
S11332107726D10118966D937D938D939C931B977C
S1133220D7010D900020E9F7119788E1E5E4F2E079
S113323001900D928A95E1F725E045E0C301B201C2
S11332400E94CF28BC01C7010E94FC28F70101900D
S11332500020E9F73197B182A0821282F701019030
S11332600020E9F73197AF01445E544060E070E01C
S1133270C7010E943424F701292D11922A95E9F7F8
S1133280D801E82D1D92EA95E9F7D7010D900020A9
S1133290E9F7119788E1EDE5F2E001900D928A9546
S11332A0E1F7D10114966D917D918D919C911797C1
S11332B025E045E00E94CF28BC01C7010E94FC28FC
S11332C0F70101900020E9F73197B182A0821282C0
S11332D0F70101900020E9F73197AF01445E5440B3
S11332E060E070E0C7010E943424F701292D119297
S11332F02A95E9F7D801E82D1D92EA95E9F7D70157
S11333000D900020E9F7119788E1E5E7F2E00190DC
S11333100D928A95E1F7D10118966D917D918D9169
S11333209C911B9725E045E00E94CF28BC01C70172
S11333300E94FC28F70101900020E9F73197B1823F
S1133340A0821282F70101900020E9F73197AF01C2
S1133350445E544060E070E0C7010E943424F701E9
S1133360292D11922A95E9F7D8011D928A94E9F73B
S113337081E1E5E9F2E0D70101900D928A95E1F748
S1133380F70101900020E9F73197AF01445E544002
S113339060E070E0C7010E943424F70111929A940E
S11333A0E9F780E0AF960FB6F894DEBF0FBECDBF4D
S11333B0DF91CF911F910F91FF90EF90DF90CF900D
S11333C0BF90AF909F908F907F906F905F904F9041
S11333D03F902F900895BF92CF92DF92EF92FF9289
S11333E00F931F93CF93DF93CDB7DEB727970FB615
S11333F0F894DEBF0FBECDBF0F2EF8E1DF2EF02D07
S1133400D9820F2EFAE0BF2EF02DBA828FE08B8383
S113341063E0CE0101960E945123D98280E18A8320
S113342089E18C8362E0CE0101960E94512364E01D
S1133430CE0104960E94512364E0CE0104960E94BA
S11334407E238D810F2EF6E1EF2EF5E0FF2EF02D79
S1133450F70180839E8191839F819283282F082E78
S1133460000C330B3F938F9386EA92E09F938F93E4
S113347004EE14E01F930F930E940729F8010190B2
S11334800020E9F73197AF01445E544060E070E0FA
S1133490C8010E9434240F2EF2E3CF2EF02DF80140
S11334A08C2D11928A95E9F7F7018181282F082E36
S11334B0000C330B3F938F938BEB92E09F938F938E
S11334C01F930F930E940729F80101900020E9F748
S11334D03197AF01445E544060E070E0C8010E943F
S11334E03424F8018C2D11928A95E9F7F701828131
S11334F0282F082E000C330B3F938F9380ED92E01E
S11335009F938F931F930F930E940729F8010190B3
S11335100020E9F73197AF01445E544060E070E069
S1133520C8010E943424F8011192CA94E9F7D9829F
S1133530BA821B8263E0CE0101960E94512387EC7C
S113354090E00197F1F700C000000FB6F894DEBFD9
S11335500FBECDBF80E027960FB6F894DEBF0FBE36
S1133560CDBFDF91CF911F910F91FF90EF90DF902E
S1133570CF90BF9008950F931F93CF93DF93EC01E7
S113358005E215E0F801208131814281538168818F
S113359079818A819B810E947825688379838A83D3
S11335A09B83F80124813581468157816C817D811B
S11335B08E819F810E9478256C837D838E839F8377
S11335C0F8012085318542855385688579858A850A
S11335D09B850E947825688779878A879B8780E006
S11335E0DF91CF911F910F9108950F931F93CF9364
S11335F0DF93EC0109E115E0F8012081318142817A
S11336005381688179818A819B810E940328688320
S113361079838A839B83F80124813581468157818C
S11336206C817D818E819F810E9403286C837D83C0
S11336308E839F83F8012085318542855385688573
S113364079858A859B850E940328688779878A877C
S11336509B8780E0DF91CF911F910F910895EF92A6
S1133660FF920F931F93CF93DF9300D01F92CDB798
S1133670DEB710ED19830F2EFBE1FF2EF02DFA8239
S11336800F2EF0EEEF2EF02DEB8263E0CE010196CB
S11336900E94512319830CE10A83EB8263E0CE017B
S11336A001960E9451232FEF80E792E02150804041
S11336B09040E1F700C000001983FA821B8263E0A6
S11336C0CE0101960E94512319830A831B8263E071
S11336D0CE0101960E9451238FE39CE90197F1F7F3
S11336E000C0000080E00F900F900F90DF91CF9109
S11336F01F910F91FF90EF900895CF93DF93CDB773
S1133700DEB7C158D1090FB6F894DEBF0FBECDBFE6
S11337100E9447230E941F24789404EE14E08FE251
S1133720E5EEF2E0D80101900D928A95E1F7F801F7
S113373001900020E9F73197AF01445E544060E006
S113374070E0C8010E9434240F2EF2E3DF2EF02D26
S1133750D801ED2D1D92EA95E9F7FFEF29E688E1FE
S1133760F15020408040E1F700C000000E94F30DBA
S11337700E942F1B8CE1E4E1F3E0D80101900D924B
S11337808A95E1F7F80101900020E9F73197AF013C
S1133790445E544060E070E0C8010E943424D801C3
S11337A0ED2D1D92EA95E9F70E94370F83E1E0E3DE
S11337B0F3E0D80101900D928A95E1F7F8010190A8
S11337C00020E9F73197AF01445E544060E070E0B7
S11337D0C8010E943424D801ED2D1D92EA95E9F721
S11337E00E94B41187E2E3E4F3E0D80101900D9262
S11337F08A95E1F7F80101900020E9F73197AF01CC
S1133800445E544060E070E0C8010E943424D80152
S1133810ED2D1D92EA95E9F7FFEF21E18AE7F150DA
S113382020408040E1F700C000000E94EB1985E2CF
S1133830EAE6F3E0D80101900D928A95E1F7F801E8
S113384001900020E9F73197AF01445E544060E0F5
S113385070E0C8010E943424D801ED2D1D92EA9530
S1133860E9F70E94EA138BE1EFE8F3E0D801019055
S11338700D928A95E1F7F80101900020E9F731975C
S1133880AF01445E544060E070E0C8010E943424FB
S1133890D8011D92DA94E9F70E946A0ECE01C79608
S11338A00E9456018AE097EDA3E2BCE36F968CAFC9
S11338B09DAFAEAFBFAF6F9718010F2EF2E34F2E3F
S11338C0F02DFE01F196AE96FFAFEEAFAE970F2E40
S11338D0FDE06F2EFAE07F2EF02D0F2EF4E15F2E27
S11338E0F02DCE018B960E943111D101E42D1D9251
S11338F0EA95E9F78CA58F938BA58F938AEA93E0D9
S11339009F938F933F922F920E940729F101019078
S11339100020E9F73197AF01445E544060E070E065
S1133920C1010E943424D101E42D1D92EA95E9F7E6
S11339308EA58F938DA58F9386EB93E09F938F93A2
S11339403F922F920E940729F10101900020E9F78C
S11339503197AF01445E544060E070E0C1010E94C1
S11339603424D101E42D1D92EA95E9F788A98F93B7
S11339708FA58F9382EC93E09F938F933F922F9226
S11339800E940729F10101900020E9F73197AF0166
S1133990445E544060E070E0C1010E943424CE01D2
S11339A0C1960E94230ED101E42D1D92EA95E9F7F8
S11339B08AA98F9389A98F938EEC93E09F938F9319
S11339C03F922F920E940729F10101900020E9F70C
S11339D03197AF01445E544060E070E0C1010E9441
S11339E03424D101E42D1D92EA95E9F78CA98F9333
S11339F08BA98F938AED93E09F938F933F922F929D
S1133A000E940729F10101900020E9F73197AF01E5
S1133A10445E544060E070E0C1010E943424D1014E
S1133A20E42D1D92EA95E9F78EA98F938DA98F93C2
S1133A3086EE93E09F938F933F922F920E940729E3
S1133A40F10101900020E9F73197AF01445E544041
S1133A500FB6F894DEBF0FBECDBF60E070E0C101C9
S1133A600E943424CE0185960E94A313D101E42D33
S1133A701D92EA95E9F78EA18F938DA18F9382EF22
S1133A8093E09F938F933F922F920E940729F10115
S1133A9001900020E9F73197AF01445E544060E0A3
S1133AA070E0C1010E943424D101E42D1D92EA95F5
S1133AB0E9F788A58F938FA18F938EEF93E09F935F
S1133AC08F933F922F920E940729F10101900020C9
S1133AD0E9F73197AF01445E544060E070E0C10102
S1133AE00E943424D101E42D1D92EA95E9F78AA5B8
S1133AF08F9389A58F938AE094E09F938F933F924D
S1133B002F920E940729F10101900020E9F73197D3
S1133B10AF01445E544060E070E0C1010E9434246F
S1133B206DA17EA1072E000C880B990B0E94EB2639
S1133B306B017C0169837A838B839C836FA178A555
S1133B40072E000C880B990B0E94EB266D837E8355
S1133B508F83988769A57AA5072E000C880B990B8B
S1133B600E94EB2669877A878B879C87D101E42D95
S1133B701D92EA95E9F7D1010D900020E9F711971C
S1133B808BE0E6E1F4E001900D928A95E1F700ED17
S1133B9014E025E04AE0C701B6010E94CF28BC0129
S1133BA0C1010E94FC28F10101900020E9F731973E
S1133BB0718260821282F10101900020E9F731974D
S1133BC0AF01445E544060E070E0C1010E943424BF
S1133BD0D101E42D1D92EA95E9F7D801E52D1D9256
S1133BE0EA95E9F7D1010D900020E9F711978BE0F0
S1133BF0E1E2F4E001900D928A95E1F76D817E8116
S1133C008F81988525E04AE00E94CF28BC01C1013C
S1133C100E94FC28F10101900020E9F7319771829C
S1133C2060821282F10101900020E9F73197AF011F
S1133C30445E544060E070E0C1010E943424D1012C
S1133C40E42D1D92EA95E9F7D801E52D1D92EA9538
S1133C50E9F7D1010D900020E9F711978BE0ECE230
S1133C60F4E001900D928A95E1F769857A858B8558
S1133C709C8525E04AE00E94CF28BC01C1010E9436
S1133C80FC28F10101900020E9F7319771826082EC
S1133C901282F10101900020E9F73197AF01445EEF
S1133CA0544060E070E0C1010E943424CE010196CA
S1133CB00E942113CE0101960E94BB1ACE010196E7
S1133CC00E94F51ACE018B967C016E019DE0C90E0F
S1133CD0D11CDE01D1964D015E01B9E1AB0EB11CE0
S1133CE08E010F5F1F4F0FB6F894DEBF0FBECDBF1E
S1133CF0D7016D917D917D01072E000C880B990BE6
S1133D000E94EB2620E931EC49EF5CE30E94032892
S1133D10F60161937193819391936F01D4016D9135
S1133D207D914D01072E000C880B990B0E94EB2608
S1133D3020E030E04AEF5DE30E940328F50161933F
S1133D407193819391935F012AE939E949E15EE333
S1133D50D8016D917D918D919C910E940328F80169
S1133D6061937193819391938F01AE968EAD9FADC4
S1133D70AE97E816F90609F0BBCFD101E42D1D92E8
S1133D80EA95E9F7D1010D900020E9F7119789E050
S1133D90E7E3F4E001900D928A95E1F78D859E8525
S1133DA0AF85B889E2968CAF9DAFAEAFBFAFE29757
S1133DB000ED14E025E04AE0BC01CD010E94CF28CB
S1133DC0BC01C1010E94FC28F10101900020E9F727
S1133DD03197718260821282F10101900020E9F72B
S1133DE03197AF01445E544060E070E0C1010E942D
S1133DF03424D101E42D1D92EA95E9F7D801E52D8B
S1133E001D92EA95E9F7D1010D900020E9F7119789
S1133E1089E0E0E4F4E001900D928A95E1F7898964
S1133E209A89AB89BC89E6968CAF9DAFAEAFBFAF24
S1133E30E69725E04AE0BC01CD010E94CF28BC01F1
S1133E40C1010E94FC28F10101900020E9F731979B
S1133E50718260821282F10101900020E9F73197AA
S1133E60AF01445E544060E070E0C1010E9434241C
S1133E70D101E42D1D92EA95E9F7D801E52D1D92B3
S1133E80EA95E9F7D1010D900020E9F7119789E04F
S1133E90E9E4F4E001900D928A95E1F78D899E8919
S1133EA0AF89B88DEA968CAF9DAFAEAFBFAFEA973E
S1133EB025E04AE0BC01CD010E94CF28BC01C1012C
S1133EC00E94FC28F10101900020E9F731977182EA
S1133ED060821282F10101900020E9F73197AF016D
S1133EE0445E544060E070E0C1010E943424D1017A
S1133EF0E42D1D92EA95E9F7D1010D900020E9F730
S1133F00119788E0E2E5F4E001900D928A95E1F7DB
S1133F10898C9A8CAB8CBC8C25E04AE0C501B40139
S1133F200E94CF28BC01C1010E94FC28F10101902C
S1133F300020E9F73197718260821282F1010190C9
S1133F400020E9F73197AF01445E544060E070E02F
S1133F50C1010E943424D101E42D1D92EA95E9F7B0
S1133F60D801E52D1D92EA95E9F7D1010D900020C5
S1133F70E9F7119788E0EAE5F4E001900D928A955B
S1133F80E1F7FD8DEB96FFAFEB972E8DEC962FAFFF
S1133F90EC978F8DED968FAFED9798A1EE969FAF2E
S1133FA0EE9725E04AE0EC96EFADEC976F2F7E2F6D
S1133FB00E94CF28BC01C1010E94FC28F10101909C
S1133FC00020E9F73197718260821282F101019039
S1133FD00020E9F73197AF01445E544060E070E09F
S1133FE0C1010E943424D101E42D1D92EA95E9F720
S1133FF0D801E52D1D92EA95E9F7D1010D90002035
S1134000E9F7119788E0E2E6F4E001900D928A95D1
S1134010E1F7F9A1EF96FFAFEF972AA1C158DF4F5F
S11340202883CF57D0408BA1C058DF4F8883C05816
S1134030D0409CA1CF57DF4F9883C158D04025E092
S11340404AE0C158DF4FE881CF57D0406F2F7E2F11
S11340500E94CF28BC01C1010E94FC28F1010190FB
S11340600020E9F73197718260821282F101019098
S11340700020E9F73197AF01445E544060E070E0FE
S1134080C1010E943424D101E42D1D92EA95E9F77F
S1134090D1010D900020E9F711978BE0EAE6F4E0F6
S11340A001900D928A95E1F769817A818B819C81D7
S11340B025E04AE00E94CF28BC01C1010E94FC28EF
S11340C0F10101900020E9F7319771826082128238
S11340D0F10101900020E9F73197AF01445E5440AB
S11340E060E070E0C1010E943424D101E42D1D92EE
S11340F0EA95E9F7D801E52D1D92EA95E9F7D10192
S11341000D900020E9F711978BE0E5E7F4E00190CA
S11341100D928A95E1F76D817E818F81988525E0E6
S11341204AE00E94CF28BC01C1010E94FC28F10191
S113413001900020E9F73197718260821282F101C7
S113414001900020E9F73197AF01445E544060E0EC
S113415070E0C1010E943424D101E42D1D92EA953E
S1134160E9F7D801E52D1D92EA95E9F7D1010D9003
S11341700020E9F711978BE0E0E8F4E001900D925C
S11341808A95E1F769857A858B859C8525E04AE0E7
S11341900E94CF28BC01C1010E94FC28F1010190BA
S11341A00020E9F73197718260821282F101019057
S11341B00020E9F73197AF01445E544060E070E0BD
S11341C0C1010E943424D101E42D1D92EA95E9F73E
S11341D0D1010D900020E9F7119789E0EBE8F4E0B4
S11341E001900D928A95E1F72BED3FE049E450E40C
S11341F0E2966CAD7DAD8EAD9FADE2970E94032833
S113420020E030E044E353E40E947726E2966CAF6A
S11342107DAF8EAF9FAFE29725E04AE00E94CF28A2
S1134220BC01C1010E94FC28F10101900020E9F7C2
S11342303197718260821282F10101900020E9F7C6
S11342403197AF01445E544060E070E0C1010E94C8
S11342503424D101E42D1D92EA95E9F7D801E52D26
S11342601D92EA95E9F7D1010D900020E9F7119725
S113427089E0E4E9F4E001900D928A95E1F72BEDF1
S11342803FE049E450E4E6966CAD7DAD8EAD9FAD64
S1134290E6970E94032820E030E044E353E40E94C0
S11342A07726E6966CAF7DAF8EAF9FAFE69725E09D
S11342B04AE00E94CF28BC01C1010E94FC28F10100
S11342C001900020E9F73197718260821282F10136
S11342D001900020E9F73197AF01445E544060E05B
S11342E070E0C1010E943424D101E42D1D92EA95AD
S11342F0E9F7D801E52D1D92EA95E9F7D1010D9072
S11343000020E9F7119789E0EDE9F4E001900D92BE
S11343108A95E1F72BED3FE049E450E4EA966CAD71
S11343207DAD8EAD9FADEA970E94032820E030E07A
S113433044E353E40E9477266B017C0125E04AE0C4
S11343400E94CF28BC01C1010E94FC28F101019008
S11343500020E9F73197718260821282F1010190A5
S11343600020E9F73197AF01445E544060E070E00B
S1134370C1010E9434248C858F938B858F938A8509
S11343808F9389858F9388858F938F818F938E8167
S11343908F938D818F938C818F938B818F938A815F
S11343A08F9389818F93CF57DF4FF881C158D040C5
S11343B0FF93C058DF4F2881C058D0402F93C15875
S11343C0DF4F8881CF57D0408F93EF969FADEF9703
S11343D09F93EE96AFADEE97AF93ED96BFADED978D
S11343E0BF93EC96EFADEC97EF93EB96FFADEB97A5
S11343F0FF93E6960CAD1DAD2EAD3FADE697E2966C
S11344004CAD5DAD6EAD7FADE297CE01C7960E9417
S1134410ED050FB6F894DEBF0FBECDBFAC968FADE1
S1134420AC978111F4C0CE01C7960E94EE0C21EE28
S11344303EE245E652E4A3966CAD7DAD8EAD9FADF4
S1134440A3970E9403286B017C01AC968FADAC97B7
S1134450811104C1CE01C7960E94EE0C21EE3EE20A
S113446045E652E4AB966CAD7DAD8EAD9FADAB979A
S11344700E94032820E030E044E353E40E947925BD
S1134480E2966CAF7DAF8EAF9FAFE297AC968FADE7
S1134490AC97811104C0CE01C7960E94EE0C21EEA8
S11344A03EE245E652E4A7966CAD7DAD8EAD9FAD80
S11344B0A7970E9403284B015C01D101E42D1D92B2
S11344C0EA95E9F7D1010D900020E9F711978DE005
S11344D0E6EAF4E001900D928A95E1F700ED14E02C
S11344E025E045E0C701B6010E94CF28BC01C10107
S11344F00E94FC28F10101900020E9F731977182B4
S113450060821282F10101900020E9F73197AF0136
S1134510445E544060E070E0C1010E943424D10143
S1134520E42D1D92EA95E9F7D801E52D1D92EA954F
S1134530E9F7D1010D900020E9F711978CE0E3EB46
S1134540F4E001900D928A95E1F725E045E0E296CA
S11345506CAD7DAD8EAD9FADE2970E94CF28BC01BE
S1134560C1010E94FC28F10101900020E9F7319774
S1134570718260821282F10101900020E9F7319783
S1134580AF01445E544060E070E0C1010E943424F5
S1134590D101E42D1D92EA95E9F7D801E52D1D928C
S11345A0EA95E9F7D1010D900020E9F711978EE023
S11345B0EFEBF4E001900D928A95E1F725E045E0F8
S11345C0C501B4010E94CF28BC01C1010E94FC288E
S11345D0F10101900020E9F7319771826082128223
S11345E0F10101900020E9F73197AF01445E544096
S11345F060E070E0C1010E943424FFEF20E782E014
S1134600F15020408040E1F700C000006AC921EE6B
S11346103EE245E652E4A3966CAD7DAD8EAD9FAD12
S1134620A3970E9403286B017C0121EE3EE245E63C
S113463052E4AB966CAD7DAD8EAD9FADAB970E9451
S1134640032820E030E044E353E40E947925E29615
S11346506CAF7DAF8EAF9FAFE29721CF21EE3EE2EC
S113466045E652E4AB966CAD7DAD8EAD9FADAB9798
S11346700E94032820E030E044E353E40E947925BB
S1134680E2966CAF7DAF8EAF9FAFE29708CF82E02A
S11346908093B8008FEF8093BB0084E08093BC00CC
S11346A00895CF93DF93EC01ECEBF0E0908190FD63
S11346B0FDCF6093330588818093340580FD13C05A
S11346C0623088F0FE013196A5E3B5E06250262FF2
S11346D030E02E5F3F4FCE01820F931F21912D9327
S11346E0E817F907D9F71092320588EF8093000193
S11346F085EA8093BC00DF91CF910895AC01ECEB87
S1134700F0E0908190FDFDCF8091320580FF12C0D2
S1134710662381F0A4E3B5E0FA016150262F30E06E
S11347202F5F3F4FCA01820F931F2D912193E817EA
S1134730F907D9F780913205817008951F920F927D
S11347400FB60F9211242F933F938F939F93AF93A0
S1134750BF93EF93FF93E091B9008E2F90E0FC019B
S11347603897E135F10508F056C0EC5CFF4F0C9426
S1134770722510923105E091310580913305E817D7
S113478070F481E08E0F80933105F0E0EC5CFA4F19
S113479080818093BB0085E88093BC0043C08091F6
S11347A0320581608093320584E98093BC003AC06D
S11347B0E091310581E08E0F809331058091BB003B
S11347C0F0E0EC5CFA4F80832091310530E0809179
S11347D0330590E001972817390724F485EC80937A
S11347E0BC0020C085E88093BC001CC08091BB0045
S11347F0E0913105F0E0EC5CFA4F80838091320562
S113480081608093320584E98093BC000BC085EA03
S11348108093BC0007C08091B9008093000184E0BC
S11348208093BC00FF91EF91BF91AF919F918F91C5
S11348303F912F910F900FBE0F901F901895E0ECB1
S1134840F0E080811082E1ECF0E080EC808386E08F
S11348508093C2008CE090E09093C5008093C400E4
S11348608081886080830895FC01909144059111B2
S113487037C04115510561057105A1F181E08093AF
S113488044054093490550934A0560934B05709342
S11348904C05109240051092410510924205109269
S11348A04305F0934805E093470580818093C60053
S11348B0E1ECF0E080818062808380914405813066
S11348C099F4F89483B7816083BF7894889583B70B
S11348D08E7F83BF80914405813099F381E00895F0
S11348E080E0089580E0089581E008951F920F927A
S11348F00FB60F9211242F933F934F935F936F93AF
S11349007F938F939F93AF93BF93CF93DF93EF9353
S1134910FF93C0914505D091460580913C05909147
S11349203D05A0913E05B0913F052091C600FE01D2
S1134930E80FF91F208380913C0590913D05A091DB
S11349403E05B0913F05892B8A2B8B2B69F1809111
S11349503C0590913D05A0913E05B0913F0501971E
S113496042E050E06DEC74E08C0F9D1F0E94EF2834
S1134970892BD1F080913C0590913D05A0913E0595
S1134980B0913F05C80FD91F198280914405833027
S113499021F481E08093440502C010924405E1ECC7
S11349A0F0E080818F7E808380913C0590913D056D
S11349B0A0913E05B0913F050196A11DB11D8093C4
S11349C03C0590933D05A0933E05B0933F05FF91B0
S11349D0EF91DF91CF91BF91AF919F918F917F9193
S11349E06F915F914F913F912F910F900FBE0F9058
S11349F01F9018951F920F920FB60F9211242F93A8
S1134A003F934F935F936F937F938F939F93AF9352
S1134A10BF93EF93FF938091400590914105A0913E
S1134A204205B09143050196A11DB11D8093400537
S1134A3090934105A0934205B093430540914005EE
S1134A40509141056091420570914305809149055B
S1134A5090914A05A0914B05B0914C054817590710
S1134A606A077B0798F48091400590914105A091D5
S1134A704205B09143052091470530914805F9015D
S1134A80E80FF91F80818093C60005C0E1ECF0E0D7
S1134A9080818F7D8083FF91EF91BF91AF919F9132
S1134AA08F917F916F915F914F913F912F910F90D3
S1134AB00FBE0F901F9018951F920F920FB60F9272
S1134AC011248F9380914405833021F482E08093F4
S1134AD0440502C0109244058F910F900FBE0F90B1
S1134AE01F901895EE0FFF1F0590F491E02D099487
S1134AF05058BB27AA270E9490250C94BC270E94DB
S1134B00AE2738F00E94B52720F039F49F3F19F4FE
S1134B1026F40C9470270EF4E095E7FB0C946A27B6
S1134B20E92F0E94CD2758F3BA1762077307840749
S1134B30950720F079F4A6F50C94EF270EF4E09590
S1134B400B2EBA2FA02D0B01B90190010C01CA0143
S1134B50A0011124FF27591B99F0593F50F4503EEE
S1134B6068F11A16F040A22F232F342F4427585FE0
S1134B70F3CF469537952795A795F0405395C9F7F8
S1134B807EF41F16BA0B620B730B840BBAF09150B0
S1134B90A1F0FF0FBB1F661F771F881FC2F70EC04F
S1134BA0BA0F621F731F841F48F487957795679522
S1134BB0B795F7959E3F08F0B0CF9395880F08F00E
S1134BC09927EE0F9795879508959F939F77EEE326
S1134BD089379E0728F4EAE0F1E00E949A270CC086
S1134BE00E9426279058A2EA2AED3FE049EC5FE3B1
S1134BF00E9490250E94BC270F9007FC90580895AE
S1134C000E94AE2760F080E891E009F49EEF0E94D4
S1134C10B52728F040E851E071F45EEF0CC00C9425
S1134C2070270C94EF27E92FE0780E94CD2740F3FA
S1134C30092E052AB1F3261737074807590738F014
S1134C400E2E07F8E02569F0E025E0640AC0EF6362
S1134C5007F8009407FADB01B9019D01DC01CA01E0
S1134C60AD01EF930E948E260E94BC270E9443262A
S1134C705F91552339F02BED3FE049E450FD49ECB9
S1134C800C9479250895DF93DD27B92FBF7740E889
S1134C905FE31616170648075B0718F4D92F0E941E
S1134CA0FB279F938F937F936F930E94B628EEE127
S1134CB0F1E00E9473270E94BC272F913F914F91EE
S1134CC05F910E941628DD2351F09058A2EA2AED44
S1134CD03FE049EC5FE3D0785D270E949025DF91A7
S1134CE00C94BC270E94462708F481E008950E9492
S1134CF08B260C94BC270E94B52758F00E94AE273F
S1134D0040F029F45F3F29F00C946A2751110C9468
S1134D10F0270C9470270E94CD2768F39923B1F3F0
S1134D20552391F3951B550BBB27AA2762177307CD
S1134D30840738F09F5F5F4F220F331F441FAA1F61
S1134D40A9F335D00E2E3AF0E0E832D0915050401D
S1134D50E695001CCAF72BD0FE2F29D0660F771FCB
S1134D60881FBB1F261737074807AB07B0E809F0B1
S1134D70BB0B802DBF01FF2793585F4F3AF09E3F36
S1134D80510578F00C946A270C94F0275F3FE4F304
S1134D90983ED4F3869577956795B795F7959F5F79
S1134DA0C9F7880F911D9695879597F90895E1E0C5
S1134DB0660F771F881FBB1F621773078407BA0724
S1134DC020F0621B730B840BBA0BEE1F88F7E0957F
S1134DD00895E89409C097FB3EF4909580957095EA
S1134DE061957F4F8F4F9F4F9923A9F0F92F96E933
S1134DF0BB279395F695879577956795B795F111A8
S1134E00F8CFFAF4BB0F11F460FF1BC06F5F7F4F44
S1134E108F4F9F4F16C0882311F096E911C0772356
S1134E2021F09EE8872F762F05C0662371F096E85F
S1134E30862F70E060E02AF09A95660F771F881F2E
S1134E40DAF7880F9695879597F90895DF93CF93AE
S1134E501F930F938B01EC01EBE4F1E00E947327A5
S1134E600E94BC279801AE018B01EC0160E070E068
S1134E7080E89FE30E9478250E9476289801AE017D
S1134E800F911F91CF91DF910C941628990F000870
S1134E90550FAA0BE0E8FEEF16161706E807F90708
S1134EA0C0F012161306E407F50798F0621B730BA3
S1134EB0840B950B39F40A2661F0232B242B252B24
S1134EC021F408950A2609F4A140A6958FEF811DC7
S1134ED0811D089597F99F6780E870E060E0089568
S1134EE09FEF80EC0895DF93CF931F930F93FF926E
S1134EF0EF92DF927B018C01689406C0DA2EEF01F9
S1134F000E941628FE01E894A591259135914591BA
S1134F105591A6F3EF010E949025FE019701A80187
S1134F20DA9469F7DF90EF90FF900F911F91CF9182
S1134F30DF9108959F938F937F936F93FF93EF93E4
S1134F409B01AC010E940328EF91FF910E947327FB
S1134F502F913F914F915F910C94032800240A9460
S1134F601616170618060906089500240A94121640
S1134F701306140605060895092E0394000C11F473
S1134F80882352F0BB0F40F4BF2B11F460FF04C020
S1134F906F5F7F4F8F4F9F4F089557FD9058440F79
S1134FA0551F59F05F3F71F04795880F97FB991F84
S1134FB061F09F3F79F08795089512161306140641
S1134FC0551FF2CF4695F1DF08C0161617061806CE
S1134FD0991FF1CF86957105610508940895E894A9
S1134FE0BB2766277727CB0197F908950E944627A8
S1134FF008F48FEF08959B01AC0160E070E080E855
S11350009FE30C9477260E9416280C94BC270E94D8
S1135010AE2738F00E94B52720F0952311F00C94A8
S11350206A270C94702711240C94F0270E94CD2732
S113503070F3959FC1F3950F50E0551F629FF001E7
S1135040729FBB27F00DB11D639FAA27F00DB11D00
S1135050AA1F649F6627B00DA11D661F829F222789
S1135060B00DA11D621F739FB00DA11D621F839F10
S1135070A00D611D221F749F3327A00D611D231FE6
S1135080849F600D211D822F762F6A2F11249F5734
S113509050409AF0F1F088234AF0EE0FFF1FBB1F37
S11350A0661F771F881F91505040A9F79E3F5105F6
S11350B080F00C946A270C94F0275F3FE4F3983E49
S11350C0D4F3869577956795B795F795E7959F5FA0
S11350D0C1F7FE2B880F911D9695879597F9089532
S11350E019F416F40C9470270C94BA280E94D5274E
S11350F0B8F39923C9F3B6F39F57550B87FF0E9462
S1135100C8280024A0E640EA900180585695979557
S113511028F4805C660F771F881F20F02617370756
S1135120480730F4621B730B840B202931294A2B66
S1135130A69517940794202531254A2758F7660F1A
S1135140771F881F20F026173707480730F4620BB3
S1135150730B840B200D311D411DA09581F7B901FE
S1135160842F9158880F9695879508959B01AC01DB
S11351700C9403289F3F31F0915020F48795779544
S11351806795B795880F911D9695879597F908951A
S113519091505040660F771F881FD2F70895EF9201
S11351A00F931F93CF93DF93E80147FD02C034E0D0
S11351B001C034E1042E000C550B57FF03C0519578
S11351C041955109E32E022F242FAE010E940A2B90
S11351D0CE01DF91CF911F910F91EF900895FB01C4
S11351E0DC0104C08D910190801921F4415050409C
S11351F0C8F7881B990B0895FB01DC010D90002072
S1135200E9F7119701900D920020E1F70895AEE0BF
S1135210B0E0EDE0F9E20C94FA2D0D891E8986E0E8
S11352208C831A8309838FEF9FE79E838D83AE015E
S1135230475E5F4F6F89788DCE0101960E942929C0
S1135240EF81F885E00FF11F10822E96E4E00C94B4
S1135250162EABE0B0E0EFE2F9E20C94EC2D6C0119
S11352607B018A01FC0117821682838181FFCCC1F4
S1135270CE0101963C01F6019381F70193FD8591DE
S113528093FF81917F01882309F4BAC1853239F4EF
S113529093FD859193FF81917F01853229F4B601B5
S11352A090E00E94522DE7CF912C212C312CFFE16C
S11352B0F315D8F08B3279F038F4803279F08332F8
S11352C0A1F4232D20611DC08D3261F0803369F477
S11352D0232D216016C0832D8260382EE32DE460D7
S11352E03E2E2AC0F32DF8601DC037FC2DC020EDE2
S11352F0280F2A3040F08E32B9F436FC81C1232DB8
S11353002064322E19C036FE06C08AE0989E200D15
S11353101124922E11C0EAE02E9E200D1124222E7B
S1135320F32DF0623F2E08C08C3621F4832D806863
S1135330382E02C0883641F4F70193FD859193FF1E
S113534081917F018111B3CF982F9F7D9554933024
S113535028F40C5F1F4F9FE399830DC0833631F00F
S1135360833771F0833509F059C021C0F801808179
S113537089830E5F1F4F88248394912C530113C09B
S11353802801F2E04F0E511CF801A080B18036FED6
S113539003C0692D70E002C06FEF7FEFC5010E946A
S11353A0472D4C018201F32DFF773F2E16C02801B3
S11353B022E0420E511CF801A080B18036FE03C0E9
S11353C0692D70E002C06FEF7FEFC5010E943C2D94
S11353D04C01F32DF0683F2E820133FC1BC0822D5B
S11353E090E088169906B0F4B60180E290E00E943D
S11353F0522D2A94F4CFF50137FC859137FE819123
S11354005F01B60190E00E94522D21102A9421E000
S1135410821A91088114910471F7E8C0843611F05E
S1135420893641F5F80137FE07C0608171818281B8
S113543093810C5F1F4F08C060817181072E000C9F
S1135440880B990B0E5F1F4FF32DFF763F2E97FFAE
S113545009C090958095709561957F4F8F4F9F4FB0
S1135460F0683F2E2AE030E0A3010E948E2D882EA2
S1135470861845C0853731F4232D2F7EB22E2AE0BD
S113548030E025C0932D997FB92E8F36C1F018F4E2
S1135490883579F0B5C0803719F0883721F0B0C06D
S11354A0E92FE061BE2EB4FE0DC0FB2DF460BF2ECB
S11354B009C034FE0AC0292F2660B22E06C028E097
S11354C030E005C020E130E002C020E132E0F80124
S11354D0B7FE07C060817181828193810C5F1F4F89
S11354E006C06081718180E090E00E5F1F4FA301D0
S11354F00E948E2D882E8618FB2DFF773F2E36FEB8
S11355000DC0232D2E7FA22E891458F434FE0BC017
S113551032FC09C0832D8E7EA82E05C0B82CA32C86
S113552003C0B82C01C0B92CA4FE0FC0FE01E80DC5
S1135530F11D8081803321F49A2D997EA92E09C012
S1135540A2FE06C0B394B39404C08A2D867809F0F1
S1135550B394A3FC11C0A0FE06C0B21488F4280CB6
S1135560922C9B180EC0B21460F4B60180E290E055
S11355700E94522DB394F7CFB21418F42B1802C022
S1135580982C212CA4FE10C0B60180E390E00E9468
S1135590522DA2FE17C0A1FC03C088E790E002C010
S11355A088E590E0B6010CC08A2D867859F0A1FEFA
S11355B002C08BE201C080E2A7FC8DE2B60190E05C
S11355C00E94522D891438F4B60180E390E00E94C1
S11355D0522D9A94F7CF8A94F301E80DF11D80813E
S11355E0B60190E00E94522D8110F5CF222009F4DB
S11355F042CEB60180E290E00E94522D2A94F6CF6A
S1135600F6018681978102C08FEF9FEF2B96E2E12E
S11356100C94082EA9E0B0E0E0E1FBE20C94F22D3A
S11356206A01122FB02E2BE3201720F0FF24F394ED
S1135630F00E02C02CE3F22E0F2D27E0AE014F5FD7
S11356405F4F0E94642CBC014981842F8970813092
S113565031F0E1FC06C0E0FE06C090E205C09DE228
S113566003C09BE201C090E05E2D507143FF3CC03B
S1135670911102C083E001C084E0811718F4212F46
S1135680281B01C020E051110BC0F601822F30E22B
S1135690882319F031938150FBCFC20ED11C20E036
S11356A0992329F0D6019C93F60131966F01C60126
S11356B00396E2FE0AC03EE4D6013C9341E411960F
S11356C04C93119712963C9306C03EE6F601308344
S11356D041E641833283FC01322F40E2332309F453
S11356E042C041933150FACF42FF44C0911102C0ED
S11356F083E001C084E0811718F4212F281B01C026
S113570020E051110BC0F601822F30E2882319F0FA
S113571031938150FBCFC20ED11C20E0992329F094
S1135720D6019C93F60131966F01C6010396E2FE01
S11357300BC039E4D6013C933EE411963C93119797
S113574036E412963C9307C039E6F60130833EE610
S1135750318336E63283FC01322F40E2332319F0E1
S113576041933150FBCFFC01E20FF11D10828EEF0B
S11357709FEFA6C021E030E0911102C020E030E0AC
S1135780161617061CF4FB01319602C0E1E0F0E0A6
S11357902E0F3F1FBB2021F0EB2DF0E0319602C00D
S11357A0E0E0F0E02E0F3F1FE12FF0E02E173F075F
S11357B01CF4121B212F01C020E08E2D887159F496
S11357C0F601822F30E2882319F031938150FBCF08
S11357D0C20ED11C20E0992329F0D6019C93F60136
S11357E031966F0151110BC0F601822F90E388238B
S11357F019F091938150FBCFC20ED11C20E00F2DE4
S1135800060F9A81342F307144FF03C0913309F499
S11358100150101624F4093018F008E001C001E02A
S1135820AB0177FF02C040E050E0FB01E41BF50B45
S1135830A1E0B0E0AC0FBD1FEA0FFB1F8EE2A82E63
S11358404B01801A91080B2D10E011950195110957
S11358504F3FBFEF5B0721F4D601AC9211966D0167
S1135860641775072CF08416950614F4818101C021
S113587080E3415051093196D60111967D014017BC
S1135880510724F0D6018C936701E2CF64177507A2
S113589039F4963320F4953319F4311101C081E3BE
S11358A0F6018083F701822F90E2882319F0919307
S11358B08150FBCFF701E20FF11D108280E090E0F0
S11358C02996ECE00C940E2E283008F027E03327BC
S11358D0DA01990F311D87FD91600096610571050C
S11358E039F432602E5F3D9330E32A95E1F7089551
S11358F09F3F30F080387105610509F03C5F3C5FE3
S11359003D93913008F08068911DDF93CF931F93EE
S11359100F93FF92EF92192F987F9695E92F969502
S11359209695E90FFF27E253FE4F99273327EE247C
S1135930FF24A701E70105900894079428F4360F83
S1135940E71EF81E491F511D660F771F881F991FF8
S11359500694A1F70590079428F4E70EF81E491F52
S1135960561FC11D770F881F991F661F0694A1F744
S11359700590079428F4F80E491F561FC71FD11D20
S1135980880F991F661F771F0694A1F70590079447
S113599020F4490F561FC71FD81F990F661F771F82
S11359A0881F0694A9F784911095177041F0D69535
S11359B0C79557954795F794E7941A95C1F7E4E787
S11359C0F1E0689415901591359165919591059044
S11359D07FE27395E118F10A430B560BC90BD0090A
S11359E0C0F7E10CF11E431F561FC91FD01D7EF4E2
S11359F0703311F48A95E6CFE894015030F0080F23
S1135A000AF40027021708F4202F2395022F7A3373
S1135A1028F079E37D932A95E9F710C07D932A95C0
S1135A2089F6069497956795379517951794E11815
S1135A30F10A430B560BC90BD00998F023957E91BC
S1135A4073957A3308F070E37C932013B8F77E9152
S1135A5070617D9330F0839571E37D9370E32A95B3
S1135A60E1F71124EF90FF900F911F91CF91DF91F7
S1135A70992787FD90950895FC0105906150704029
S1135A800110D8F7809590958E0F9F1F0895FC0103
S1135A906150704001900110D8F7809590958E0F59
S1135AA09F1F08950F931F93CF93DF93FB012381CF
S1135AB021FD03C08FEF9FEF2CC022FF16C046814B
S1135AC05781248135814217530744F4A081B18161
S1135AD09D012F5F3F4F318320838C932681378133
S1135AE02F5F3F4F3783268314C08B01EC01FB01EA
S1135AF00084F185E02D0995892BE1F6D8011696ED
S1135B008D919C911797019617969C938E93169757
S1135B10CE01DF91CF911F910F910895FA01AA2729
S1135B20283051F1203181F1E8946F936E7F6E5FDC
S1135B307F4F8F4F9F4FAF4FB1E03ED0B4E03CD08A
S1135B40670F781F891F9A1FA11D680F791F8A1F6D
S1135B50911DA11D6A0F711D811D911DA11D20D0D4
S1135B6009F468943F912AE0269F11243019305D8E
S1135B703193DEF6CF010895462F4770405D41937F
S1135B80B3E00FD0C9F7F6CF462F4F70405D4A33CC
S1135B9018F0495D31FD4052419302D0A9F7EACF94
S1135BA0B4E0A6959795879577956795BA95C9F7C3
S1135BB000976105710508959B01AC010A2E0694B6
S1135BC05795479537952795BA95C9F7620F731F6F
S1135BD0841F951FA01D08952F923F924F925F92AC
S1135BE06F927F928F929F92AF92BF92CF92DF92E9
S1135BF0EF92FF920F931F93CF93DF93CDB7DEB74E
S1135C00CA1BDB0B0FB6F894DEBF0FBECDBF0994E1
S1135C102A88398848885F846E847D848C849B8438
S1135C20AA84B984C884DF80EE80FD800C811B8146
S1135C30AA81B981CE0FD11D0FB6F894DEBF0FBE75
S10D5C40CDBFED010895F894FFCFE5
S1135C4AF8008000800080FF7FFF7FFF7F53756D1F
S1135C5A2061783A20256C640D0A0053756D206121
S1135C6A793A20256C640D0A0053756D20617A3ADD
S1135C7A20256C640D0A004176672061783A202554
S1135C8A6C640D0A004176672061793A20256C64B8
S1135C9A0D0A0041766720617A3A20256C640D0A60
S1135CAA005A65726F696E67206269617320776949
S1135CBA74683A2025640D0A0053756D2067783A92
S1135CCA20256C640D0A0053756D2067793A2025E6
S1135CDA6C640D0A0053756D20677A3A20256C644A
