S0170000494D555F48656164747261636B65722E7372656365
S11300000C9485000C94A2000C94A2000C94A20001
S11300100C94A2000C94A2000C94A2000C94A200D4
S11300200C94A2000C94A2000C94A2000C94A200C4
S11300300C94A2000C94A2000C94A2000C94A200B4
S11300400C94A2000C94A2000C943C010C94BF01EB
S11300500C9420020C94A2000C94A2000C94A20014
S11300600C94BB000C94A200D6002801280128019E
S11300702801280128012801D60028012801280187
S11300802801280128012801D80028012801280175
S11300902801280128012801280128012801280114
S11300A02801280128012801D80028012801280155
S11300B028012801280128012801280128012801F4
S11300C028012801280128012401280128012801E8
S11300D028012801280128010101280128012801FB
S11300E028012801280128012801280128012801C4
S11300F02801280128012801F500280128012801E8
S11301002801280128012801130111241FBECFEF63
S1130110D8E0DEBFCDBF11E0A0E0B1E0E6EAF4E054
S113012002C005900D92A430B107D9F721E0A4E0F4
S1130130B1E001C01D92AC31B207E1F70E94A40006
S11301400C9451020C9400000E94B10078942FEF9B
S113015084E39CE0215080409040E1F700C000001F
S1130160FFCF82E08093B8008FEF8093BB0084E0E0
S11301708093BC0008951F920F920FB60F92112422
S11301802F933F938F939F93AF93BF93EF93FF93DB
S1130190E091B9008E2F90E0FC013897E135F1052C
S11301A008F056C0EC5CFF4F0C943E021092040120
S11301B0E091040180910601E81770F481E08E0F4C
S11301C080930401F0E0E95FFE4F80818093BB00DF
S11301D085E88093BC0043C08091050181608093D1
S11301E0050184E98093BC003AC0E091040181E0F8
S11301F08E0F809304018091BB00F0E0E95FFE4F15
S113020080832091040130E08091060190E0019701
S11302102817390724F485EC8093BC0020C085E8B6
S11302208093BC001CC08091BB00E0910401F0E00D
S1130230E95FFE4F80838091050181608093050111
S113024084E98093BC000BC085EA8093BC0007C09E
S11302508091B9008093000184E08093BC00FF91F9
S1130260EF91BF91AF919F918F913F912F910F90FB
S11302700FBE0F901F9018951F920F920FB60F92FA
S113028011242F933F934F935F936F937F938F9397
S11302909F93AF93BF93CF93DF93EF93FF93C0915B
S11302A01401D091150180910B0190910C01A09142
S11302B00D01B0910E012091C600FE01E80FF91F57
S11302C0208380910B0190910C01A0910D01B091BC
S11302D00E01892B8A2B8B2B61F180910B0190915C
S11302E00C01A0910D01B0910E01019742E050E084
S11302F061E071E08C0F9D1F0E944402892BC9F0BC
S113030080910B0190910C01A0910D01B0910E010F
S1130310C80FD91F198280911301833021F481E021
S11303208093130102C010921301E1ECF0E080818C
S1130330108280910B0190910C01A0910D01B0915C
S11303400E010196A11DB11D80930B0190930C0128
S1130350A0930D01B0930E01FF91EF91DF91CF9126
S1130360BF91AF919F918F917F916F915F914F91C9
S11303703F912F910F900FBE0F901F9018951F92D1
S11303800F920FB60F9211242F933F934F935F93C5
S11303906F937F938F939F93AF93BF93EF93FF9349
S11303A080910F0190911001A0911101B09112015F
S11303B00196A11DB11D80930F0190931001A0938C
S11303C01101B093120140910F01509110016091FD
S11303D01101709112018091180190911901A0915D
S11303E01A01B0911B01481759076A077B0798F453
S11303F080910F0190911001A0911101B09112010F
S11304002091160130911701F901E80FF91F80813D
S11304108093C60004C0E1ECF0E080811082FF917B
S1130420EF91BF91AF919F918F917F916F915F9168
S11304304F913F912F910F900FBE0F901F901895E1
S11304401F920F920FB60F9211248F93EF93FF9385
S113045080911301833021F482E08093130102C060
S113046010921301E1ECF0E080811082FF91EF9192
S11304708F910F900FBE0F901F901895EE0FFF1FD6
S11304800590F491E02D0994FB01DC0104C08D91E9
S11304900190801921F441505040C8F7881B990BF2
S10904A00895F894FFCF5B
S10704A6F80D0A003F
S9030000FC
