S0170000494D555F48656164747261636B65722E7372656365
S11300000C9485000C94A2000C94A2000C94A20001
S11300100C94A2000C94A2000C94A2000C94A200D4
S11300200C94A2000C94A2000C94A2000C94A200C4
S11300300C94A2000C94A2000C94A2000C94A200B4
S11300400C94A2000C94A2000C94A20A0C94260B0B
S11300500C94880B0C94A2000C94A2000C94A200A3
S11300600C94CA090C94A200E509370A370A370A26
S1130070370A370A370A370AE509370A370A370AC7
S1130080370A370A370A370AE709370A370A370AB5
S1130090370A370A370A370A370A370A370A370A54
S11300A0370A370A370A370AE709370A370A370A95
S11300B0370A370A370A370A370A370A370A370A34
S11300C0370A370A370A370A330A370A370A370A28
S11300D0370A370A370A370A100A370A370A370A3B
S11300E0370A370A370A370A370A370A370A370A04
S11300F0370A370A370A370A040A370A370A370A27
S1130100370A370A370A370A220A11241FBECFEFEB
S1130110D8E0DEBFCDBF12E0A0E0B1E0EEEEF0E249
S113012002C005900D92AA36B107D9F722E0AAE6DB
S1130130B2E001C01D92A33DB207E1F70E9490080E
S11301400C9475100C940000FC0180E090E0A0E891
S1130150BFE380839183A283B383148215821682C2
S1130160178280879187A287B3871486158616869F
S11301701786108A118A128A138A148A158A168A93
S1130180178A108E118E128E138E148E158E168E63
S1130190178E10A211A212A213A214AA80E090E05A
S11301A0A0E0BBE384A395A3A6A3B7A30895FF92FD
S11301B00F931F93CF93DF9300D01F92CDB7DEB779
S11301C00F2EF0EDFF2EF02DF9828BE68A8381E06D
S11301D08B8363E08E010F5F1F4FC8010E947D096E
S11301E083E0F80111928A95E9F7F98287E38A831B
S11301F082E08B8363E0C8010E947D090F900F9019
S11302000F90DF91CF911F910F91FF9008950F935D
S11302101F93CF93DF93CDB7DEB72A970FB6F89429
S1130220DEBF0FBECDBF8C0180ED89838BE38A8353
S113023081ED8C8362E0CE0101960E947D0967E026
S1130240CE0104960E947D0967E0CE0104960E94C7
S1130250AA098D8190E0982F88272E81822BF8019E
S1130260918380838F8190E0982F88272885822B23
S113027093838283898590E0982F88272A85822B0F
S11302809583848380E02A960FB6F894DEBF0FBE70
S1130290CDBFDF91CF911F910F910895CF93DF933D
S11302A000D01F92CDB7DEB780ED89838CE18A83BD
S11302B088E08B8363E0CE0101960E947D0980E093
S11302C00F900F900F90DF91CF910895EF92FF92CE
S11302D00F931F93CF93DF93CDB7DEB727970FB656
S11302E0F894DEBF0FBECDBF8C0180ED898387E714
S11302F08A8362E0CE0101967C010E947D0987E039
S1130300F70111928A95E9F781ED898367E0C701C6
S11303100E947D0967E0C7010E94AA098A8190E0D2
S1130320982F88272B81822BF801918380838C81DD
S113033090E0982F88272D81822B938382838E814E
S113034090E0982F88272F81822B9583848380E0E7
S113035027960FB6F894DEBF0FBECDBFDF91CF91C5
S11303601F910F91FF90EF9008950F931F93CF93D8
S1130370DF93CDB7DEB761970FB6F894DEBF0FBE3B
S1130380CDBF8C01CE0101960E94660181113EC051
S1130390FE013196DE0117969D0141E08191919114
S11303A080FD4C931196E217F307C1F749815A81F6
S11303B0F80180819181481B590B5A8349832B8111
S11303C03C8182819381281B390B3C832B838D8153
S11303D09E8164817581861B970B9E838D836F81BB
S11303E0642B4885422B2985822B20ED2A8727E719
S11303F02B875C876D873E874F87988B898B68E056
S1130400CE010A960E947D0980E001C08FEF6196BB
S11304100FB6F894DEBF0FBECDBFDF91CF911F9111
S11304200F9108952F923F924F925F926F927F9215
S11304308F929F92AF92BF92CF92DF92EF92FF92F0
S11304400F931F93CF93DF93CDB7DEB72F970FB6DC
S1130450F894DEBF0FBECDBF80ED89838CE18A8323
S113046088E18B8363E0CE0101960E947D0900E060
S113047014E0CE0104960E9407018C819D81092E0F
S1130480000CAA0BBB0BC80ED91EEA1EFB1E8E81E4
S11304909F81092E000CAA0BBB0B480E591E6A1E25
S11304A07B1E88859985092E000CAA0BBB0B880E30
S11304B0991EAA1EBB1E8FEC97E00197F1F700C0AE
S11304C0000001501109A9F6DF92CF928DE091E06E
S11304D09F938F930AE612E01F930F930E948B0D54
S11304E0F80101900020E9F73197AF014A565240D4
S11304F060E070E0C8010E94600A0F2EF2E33F2E14
S1130500F02DF801232D11922A95E9F75F924F926D
S11305108AE191E09F938F931F930F930E948B0D19
S1130520F80101900020E9F73197AF014A56524093
S113053060E070E0C8010E94600AF801232D119266
S11305402A95E9F79F928F9287E291E09F938F9388
S11305501F930F930E948B0DF80101900020E9F77F
S11305603197AF014A56524060E070E0C8010E94E2
S1130570600AF80111923A94E9F7D701C6010FB65F
S1130580F894DEBF0FBECDBFFF2024F481509C4FF2
S1130590AF4FBF4F6C017D010B2EBAE0F594E79489
S11305A0D794C794BA95D1F7B02DDF92CF9284E354
S11305B091E09F938F930AE612E01F930F930E949A
S11305C08B0DF80101900020E9F73197AF014A56ED
S11305D0524060E070E0C8010E94600A82E3F801C2
S11305E011928A95E9F7D301C2010F900F900F90F1
S11305F00F900F900F90772024F481509C4FAF4FB1
S1130600BF4F2C013D01032E3AE075946794579433
S113061047943A95D1F7302D5F924F9281E491E05F
S11306209F938F930AE612E01F930F930E948B0D02
S1130630F80101900020E9F73197AF014A56524082
S113064060E070E0C8010E94600A82E3F801119240
S11306508A95E9F7D501C4010F900F900F900F9080
S11306600F900F90BB2024F481509C4FAF4FBF4F8D
S11306704C015D01072E7AE0B594A7949794879472
S11306807A95D1F7702D9F928F928EE491E09F938B
S11306908F930AE612E01F930F930E948B0DF801CB
S11306A001900020E9F73197AF014A56524060E0CB
S11306B070E0C8010E94600A82E3F80111928A95F1
S11306C0E9F7CA86DB864C865D860F900F900F9003
S11306D00F900F900F90181419042CF4F8E09F1A3F
S11306E09F868E8604C028EF921A9F868E86DF929C
S11306F0CF920F2EFBE5CF2EF1E0DF2EF02DDF920F
S1130700CF920AE612E01F930F930E948B0DF8011B
S113071001900020E9F73197AF014A56524060E05A
S113072070E0C8010E94600A0F2EF2E3FF2EF02D44
S1130730F8012F2D11922A95E9F78D858F938C85D9
S11307408F93DF92CF921F930F930E948B0DF8012A
S113075001900020E9F73197AF014A56524060E01A
S113076070E0C8010E94600AF8012F2D11922A95A9
S1130770E9F78F858F938E858F93DF92CF921F93A6
S11307800F930E948B0DF80101900020E9F7319737
S1130790AF014A56524060E070E0C8010E94600A0E
S11307A0F8011192FA94E9F7CE010A960E94B50174
S11307B00FB6F894DEBF0FBECDBF80E02F960FB604
S11307C0F894DEBF0FBECDBFDF91CF911F910F9183
S11307D0FF90EF90DF90CF90BF90AF909F908F905D
S11307E07F906F905F904F903F902F9008950F935C
S11307F01F93CF93DF93CDB7DEB729970FB6F89445
S1130800DEBF0FBECDBF8C0180ED898383E48A8374
S113081081ED8B8362E0CE0101960E947D0967E041
S1130820CE0103960E947D0967E0CE0103960E94E3
S1130830AA098C8190E0982F88272D81822BF801BA
S1130840918380838E8190E0982F88272F81822B3B
S113085093838283888590E0982F88272985822B2B
S11308609583848380E029960FB6F894DEBF0FBE8B
S1130870CDBFDF91CF911F910F910895CF93DF9357
S1130880CDB7DEB728970FB6F894DEBF0FBECDBF45
S1130890FC01408151815195419551095183408317
S11308A022813381319521953109338322838481D7
S11308B095819195819591099583848351813381A3
S11308C0958160ED698363E16A835B834C833D8337
S11308D02E839F83888768E0CE0101960E947D095C
S11308E080E028960FB6F894DEBF0FBECDBFDF912F
S11308F0CF9108953F924F925F926F927F928F9221
S11309009F92AF92BF92CF92DF92EF92FF920F939A
S11309101F93CF93DF93CDB7DEB72F970FB6F8941D
S1130920DEBF0FBECDBF80ED89838BE18A8380E17A
S11309308B8363E0CE0101960E947D0900E014E000
S1130940CE0104960E94F7038C819D81092E000C30
S1130950AA0BBB0B480E591E6A1E7B1E8E819F81FB
S1130960092E000CAA0BBB0B880E991EAA1EBB1ED7
S113097088859985092E000CAA0BBB0BC80ED91EBD
S1130980EA1EFB1E89EF90E00197F1F700C000001A
S113099001501109A9F67F926F925F924F9283E7FB
S11309A091E09F938F930AE612E01F930F930E94A6
S11309B08B0DF80101900020E9F73197AF014A56F9
S11309C0524060E070E0C8010E94600A0F2EF2E31A
S11309D03F2EF02DF801232D11922A95E9F7BF92AD
S11309E0AF929F928F9280E891E09F938F931F9391
S11309F00F930E948B0DF80101900020E9F73197C5
S1130A00AF014A56524060E070E0C8010E94600A9B
S1130A10F801232D11922A95E9F7FF92EF92DF92C4
S1130A20CF928DE891E09F938F931F930F930E9431
S1130A308B0DF80101900020E9F73197AF014A5678
S1130A40524060E070E0C8010E94600AF80111920F
S1130A503A94E9F7D301C2010FB6F894DEBF0FBE92
S1130A60CDBF772024F481509C4FAF4FBF4F072E4A
S1130A707AE0B595A795979587957A95D1F7702DD6
S1130A808A879B87B501A401BB2024F441505C4FA5
S1130A906F4F7F4F032E3AE07595679557954795AD
S1130AA03A95D1F7302D5D874C87B701A601FF2019
S1130AB024F441505C4F6F4F7F4F032E3AE07595FD
S1130AC06795579547953A95D1F7302D5F874E87AF
S1130AD09F938F930F2EFBE5CF2EF1E0DF2EF02DA9
S1130AE0DF92CF920AE612E01F930F930E948B0DC0
S1130AF0F80101900020E9F73197AF014A565240BE
S1130B0060E070E0C8010E94600A0F2EF2E3FF2E3D
S1130B10F02DF8012F2D11922A95E9F78D858F93E9
S1130B208C858F93DF92CF921F930F930E948B0D2E
S1130B30F80101900020E9F73197AF014A5652407D
S1130B4060E070E0C8010E94600AF8012F2D119244
S1130B502A95E9F78F858F938E858F93DF92CF92B5
S1130B601F930F930E948B0DF80101900020E9F769
S1130B703197AF014A56524060E070E0C8010E94CC
S1130B80600AF8011192FA94E9F7CE010A960E94DC
S1130B903E040FB6F894DEBF0FBECDBF80E02F96A3
S1130BA00FB6F894DEBF0FBECDBFDF91CF911F917A
S1130BB00F91FF90EF90DF90CF90BF90AF909F90F8
S1130BC08F907F906F905F904F903F9008950F9318
S1130BD01F93CF93DF93EC010CE912E0F8016081DD
S1130BE0062E000C770B880B990B0E94850C20E0D5
S1130BF030E040E05FE30E94110D20E030E040E08F
S1130C005CE30E94110D20E030E040E85FE30E94C5
S1130C10A50B9B01AC01688179818A819B810E942B
S1130C20110D688379838A839B83F8016181062E81
S1130C30000C770B880B990B0E94850C20E030E0A8
S1130C4040E05FE30E94110D20E030E040E05CE30F
S1130C500E94110D20E030E040E85FE30E94A50B04
S1130C609B01AC016C817D818E819F810E94110D5D
S1130C706C837D838E839F83F8016281062E000C32
S1130C80770B880B990B0E94850C20E030E040E044
S1130C905FE30E94110D20E030E040E05CE30E943D
S1130CA0110D20E030E040E85FE30E94A50B9B01BA
S1130CB0AC01688579858A859B850E94110D6887BA
S1130CC079878A879B8780E0DF91CF911F910F916D
S1130CD008950F931F93CF93DF93CDB7DEB7299772
S1130CE00FB6F894DEBF0FBECDBF8C0188E18983B7
S1130CF083E08A8389E18B8362E0CE0101960E94BE
S1130D007D0967E0CE0103960E947D0967E0CE016C
S1130D1003960E94AA098D8190E0982F88272C8140
S1130D20822BF801918380838F8190E0982F88270C
S1130D302E81822B93838283898590E0982F882744
S1130D402885822B9583848380E029960FB6F894B6
S1130D50DEBF0FBECDBFDF91CF911F910F910895DC
S1130D604F925F926F927F928F929F92AF92BF92B7
S1130D70CF92DF92EF92FF920F931F93CF93DF9363
S1130D80CDB7DEB7A5970FB6F894DEBF0FBECDBFC3
S1130D9088E189838AE08A8386E18B8363E0CE01DC
S1130DA001960E947D090AE612E08CE0EAE9F1E08E
S1130DB0D80101900D928A95E1F7F8010190002085
S1130DC0E9F73197AF014A56524060E070E0C8013C
S1130DD00E94600A82E3D8011D928A95E9F786E0B1
S1130DE0E1E0F1E0DE011A9601900D928A95E1F7B7
S1130DF086E0E7E0F1E0DE01509601900D928A95DD
S1130E00E1F7E12C6894FF24F2F88E010A5E1F4F8B
S1130E10CE0104960E9469069E012C5F3F4FFE019D
S1130E207096BE01665F7F4FD9018D919D919D01A2
S1130E30408151818417950714F491838083DB01E9
S1130E404D915C9111974817590714F48D939C9315
S1130E5032966E5F7F4FE017F10731F7EFE1FEE462
S1130E603197F1F700C00000F1E0EF1AF10881F6C4
S1130E70AA84BB8468887988CC84DD848A889B882A
S1130E80EE84FF844C885D88B501660D771D772359
S1130E9014F46F5F7F4F75956795072E000C880BD0
S1130EA0990B0E94850C6093AB027093AC02809303
S1130EB0AD029093AE02B601680D791D772314F448
S1130EC06F5F7F4F75956795072E000C880B990B04
S1130ED00E94850C6093AF027093B0028093B102BC
S1130EE09093B202B701640D751D772314F46F5FFC
S1130EF07F4F75956795072E000C880B990B0E9400
S1130F00850C6093B3027093B4028093B5029093FE
S1130F10B6028BEA92E00E94E705A618B708B5016D
S1130F2012F46F5F7F4F75956795072E000C880B41
S1130F30990B0E94850C6E8B7F8B888F998FC818B4
S1130F40D908B60112F46F5F7F4F75956795072E28
S1130F50000C880B990B0E94850C6A8F7B8F8C8FF9
S1130F609D8FE418F508B70112F46F5F7F4F7595F4
S1130F706795072E000C880B990B0E94850C6E8FC9
S1130F807F8F88A399A3CE0146960E94E7054E88D9
S1130F905F88688C798C8A8C9B8CAC8CBD8CCE8C55
S1130FA0DF8CE8A0F9A0A5019401C301B2010E945D
S1130FB0A50BA70196010E94A50B20E030E040E4B8
S1130FC050E40E94110C6AA37BA38CA39DA30FE998
S1130FD012E0A30192010E94110CD8016D937D933C
S1130FE08D939C931397A50194016AA17BA18CA175
S1130FF09DA10E94110CF8016483758386839783F5
S1131000A70196016AA17BA18CA19DA10E94110C4C
S1131010D80118966D937D938D939C931B970AE644
S113102012E081E1E6EAF1E0D80101900D928A959F
S1131030E1F7F80101900020E9F73197AF014A5632
S1131040524060E070E0C8010E94600A82E3F80147
S113105011928A95E9F780E0A5960FB6F894DEBF61
S11310600FBECDBFDF91CF911F910F91FF90EF90F5
S1131070DF90CF90BF90AF909F908F907F906F90B4
S11310805F904F9008950F931F93CF93DF93CDB745
S1131090DEB727970FB6F894DEBF0FBECDBF18E1B9
S11310A019830AE00A838FE08B8363E0CE01019603
S11310B00E947D09198380E18A8389E18C8362E03F
S11310C0CE0101960E947D0964E0CE0104960E943F
S11310D07D0964E0CE0104960E94AA09ECE9F2E0DD
S11310E08D8180838E8181838F81828319830A839A
S11310F01B8263E0CE0101960E947D0987EC90E09B
S11311000197F1F700C0000080E027960FB6F8942D
S1131110DEBF0FBECDBFDF91CF911F910F91089518
S1131120FF920F931F93CF93DF93CDB7DEB7E5976D
S11311300FB6F894DEBF0FBECDBF0E9473090E94A4
S11311404B0A78940AE612E08FE2E7EBF1E0D8016B
S113115001900D928A95E1F7F80101900020E9F7DA
S11311603197AF014A56524060E070E0C8010E94D6
S1131170600A0F2EF2E3FF2EF02DF8012F2D1192AD
S11311802A95E9F78FEF99E6E8E181509040E04035
S1131190E1F700C000000E94D7008CE1E6EEF1E028
S11311A0D80101900D928A95E1F7F8010190002091
S11311B0E9F73197AF014A56524060E070E0C80148
S11311C00E94600AF8012F2D11922A95E9F70E94D6
S11311D0120283E1E2E0F2E0D80101900D928A95D7
S11311E0E1F7F80101900020E9F73197AF014A5681
S11311F0524060E070E0C8010E94600AF8012F2D9F
S113120011922A95E9F70E947A0487E2E5E1F2E077
S1131210D80101900D928A95E1F7F8010190002020
S1131220E9F73197AF014A56524060E070E0C801D7
S11312300E94600AF8012F2D11922A95E9F78FEF89
S113124091E1EAE781509040E040E1F700C00000FE
S11312500E94430880E1ECE3F2E0D80101900D9292
S11312608A95E1F7F80101900020E9F73197AF0181
S11312704A56524060E070E0C8010E94600AF801DA
S11312802F2D11922A95E9F70E94B0068BE1ECE428
S1131290F2E0D80101900D928A95E1F7F8010190EE
S11312A00020E9F73197AF014A56524060E070E000
S11312B0C8010E94600AF8011192FA94E9F70E94A9
S11312C04E01CE0101960E94A40080E090E0E596D4
S11312D00FB6F894DEBF0FBECDBFDF91CF911F9143
S11312E00F91FF90089582E08093B8008FEF809370
S11312F0BB0084E08093BC000895CF93DF93EC019E
S1131300ECEBF0E0908190FDFDCF6093B902888111
S11313108093BA0280FD13C0623088F0FE013196DA
S1131320ABEBB2E06250262F30E02E5F3F4FCE0190
S1131330820F931F21912D93E817F907D9F7109283
S1131340B80288EF8093000185EA8093BC00DF91A6
S1131350CF910895AC01ECEBF0E0908190FDFDCFCE
S11313608091B80280FF12C0662381F0AAEBB2E03C
S1131370FA016150262F30E02F5F3F4FCA01820FE0
S1131380931F2D912193E817F907D9F78091B8029B
S1131390817008951F920F920FB60F9211242F930C
S11313A03F938F939F93AF93BF93EF93FF93E091FA
S11313B0B9008E2F90E0FC013897E135F10508F073
S11313C056C0EC5CFF4F0C949E0B1092B702E09158
S11313D0B7028091B902E81770F481E08E0F809310
S11313E0B702F0E0E654FD4F80818093BB0085E8AE
S11313F08093BC0043C08091B80281608093B8029E
S113140084E98093BC003AC0E091B70281E08E0F7A
S11314108093B7028091BB00F0E0E654FD4F8083D7
S11314202091B70230E08091B90290E0019728172B
S1131430390724F485EC8093BC0020C085E88093B0
S1131440BC001CC08091BB00E091B702F0E0E65400
S1131450FD4F80838091B80281608093B80284E953
S11314608093BC000BC085EA8093BC0007C08091C8
S1131470B9008093000184E08093BC00FF91EF9158
S1131480BF91AF919F918F913F912F910F900FBE7C
S11314900F901F901895E0ECF0E080811082E1EC51
S11314A0F0E080EC808386E08093C2008CE090E0E2
S11314B09093C5008093C4008081886080830895E0
S11314C0FC019091CA02911137C041155105610583
S11314D07105A1F181E08093CA024093CF02509339
S11314E0D0026093D1027093D2021092C60210927D
S11314F0C7021092C8021092C902F093CE02E09380
S1131500CD0280818093C600E1ECF0E080818062AE
S113151080838091CA02813099F4F89483B7816002
S113152083BF7894889583B78E7F83BF8091CA02E6
S1131530813099F381E0089580E0089580E0089572
S113154081E008951F920F920FB60F9211242F93EA
S11315503F934F935F936F937F938F939F93AF9337
S1131560BF93CF93DF93EF93FF93C091CB02D091BE
S1131570CC028091C2029091C302A091C402B091A6
S1131580C5022091C600FE01E80FF91F2083809157
S1131590C2029091C302A091C402B091C502892BEA
S11315A08A2B8B2B69F18091C2029091C302A09186
S11315B0C402B091C502019742E050E067E672E0D0
S11315C08C0F9D1F0E947E0D892BD1F08091C20249
S11315D09091C302A091C402B091C502C80FD91F53
S11315E019828091CA02833021F481E08093CA0277
S11315F002C01092CA02E1ECF0E080818F7E808309
S11316008091C2029091C302A091C402B091C5021C
S11316100196A11DB11D8093C2029093C302A093B1
S1131620C402B093C502FF91EF91DF91CF91BF91B6
S1131630AF919F918F917F916F915F914F913F9166
S11316402F910F900FBE0F901F9018951F920F921D
S11316500FB60F9211242F933F934F935F936F9381
S11316607F938F939F93AF93BF93EF93FF93809157
S1131670C6029091C702A091C802B091C902019616
S1131680A11DB11D8093C6029093C702A093C80206
S1131690B093C9024091C6025091C7026091C8023A
S11316A07091C9028091CF029091D002A091D10291
S11316B0B091D202481759076A077B0798F48091C2
S11316C0C6029091C702A091C802B091C9022091AC
S11316D0CD023091CE02F901E80FF91F8081809389
S11316E0C60005C0E1ECF0E080818F7D8083FF912E
S11316F0EF91BF91AF919F918F917F916F915F9186
S11317004F913F912F910F900FBE0F901F901895FE
S11317101F920F920FB60F9211248F938091CA02D9
S1131720833021F482E08093CA0202C01092CA027C
S11317308F910F900FBE0F901F901895EE0FFF1F03
S11317400590F491E02D09945058BB27AA270E94D4
S1131750BC0B0C94D70C0E94C90C38F00E94D00C1E
S113176020F039F49F3F19F426F40C94C60C0EF4BF
S1131770E095E7FB0C94C00CE92F0E94E80C58F3A9
S1131780BA17620773078407950720F079F4A6F562
S11317900C940A0D0EF4E0950B2EBA2FA02D0B011C
S11317A0B90190010C01CA01A0011124FF27591BA2
S11317B099F0593F50F4503E68F11A16F040A22FA8
S11317C0232F342F4427585FF3CF46953795279519
S11317D0A795F0405395C9F77EF41F16BA0B620B18
S11317E0730B840BBAF09150A1F0FF0FBB1F661F5F
S11317F0771F881FC2F70EC0BA0F621F731F841FA2
S113180048F4879577956795B795F7959E3F08F0C7
S1131810B0CF9395880F08F09927EE0F9795879589
S113182008950E94250C0C94D70C0E94D00C58F0FB
S11318300E94C90C40F029F45F3F29F00C94C00CBD
S113184051110C940B0D0C94C60C0E94E80C68F317
S11318509923B1F3552391F3951B550BBB27AA2765
S113186062177307840738F09F5F5F4F220F331F9F
S1131870441FAA1FA9F335D00E2E3AF0E0E832D067
S113188091505040E695001CCAF72BD0FE2F29D06A
S1131890660F771F881FBB1F261737074807AB073C
S11318A0B0E809F0BB0B802DBF01FF2793585F4FB1
S11318B03AF09E3F510578F00C94C00C0C940B0D3B
S11318C05F3FE4F3983ED4F3869577956795B79593
S11318D0F7959F5FC9F7880F911D9695879597F99E
S11318E00895E1E0660F771F881FBB1F6217730717
S11318F08407BA0720F0621B730B840BBA0BEE1F2C
S113190088F7E0950895E89409C097FB3EF4909514
S11319108095709561957F4F8F4F9F4F9923A9F0C4
S1131920F92F96E9BB279395F69587957795679553
S1131930B795F111F8CFFAF4BB0F11F460FF1BC097
S11319406F5F7F4F8F4F9F4F16C0882311F096E92A
S113195011C0772321F09EE8872F762F05C06623D8
S113196071F096E8862F70E060E02AF09A95660F91
S1131970771F881FDAF7880F9695879597F908954A
S113198097F99F6780E870E060E008959FEF80EC2E
S1131990089500240A9416161706180609060895D1
S11319A000240A9412161306140605060895092E37
S11319B00394000C11F4882352F0BB0F40F4BF2BA6
S11319C011F460FF04C06F5F7F4F8F4F9F4F0895E6
S11319D057FD9058440F551F59F05F3F71F04795DC
S11319E0880F97FB991F61F09F3F79F087950895C1
S11319F0121613061406551FF2CF4695F1DF08C0E0
S1131A00161617061806991FF1CF869571056105FC
S1131A1008940895E894BB2766277727CB0197F9A4
S1131A2008950E94240D0C94D70C0E94C90C38F020
S1131A300E94D00C20F0952311F00C94C00C0C944F
S1131A40C60C11240C940B0D0E94E80C70F3959FA6
S1131A50C1F3950F50E0551F629FF001729FBB27A1
S1131A60F00DB11D639FAA27F00DB11DAA1F649F3D
S1131A706627B00DA11D661F829F2227B00DA11DF0
S1131A80621F739FB00DA11D621F839FA00D611D76
S1131A90221F749F3327A00D611D231F849F600D97
S1131AA0211D822F762F6A2F11249F5750409AF0C0
S1131AB0F1F088234AF0EE0FFF1FBB1F661F771F4C
S1131AC0881F91505040A9F79E3F510580F00C9417
S1131AD0C00C0C940B0D5F3FE4F3983ED4F3869551
S1131AE077956795B795F795E7959F5FC1F7FE2BB7
S1131AF0880F911D9695879597F90895FB01DC0150
S1131B0004C08D910190801921F441505040C8F7D0
S1131B10881B990B0895AEE0B0E0E1E9FDE00C9478
S1131B204C100D891E8986E08C831A8309838FEFFC
S1131B309FE79E838D83AE01475E5F4F6F89788DEB
S1131B40CE0101960E94AD0DEF81F885E00FF11FE3
S1131B5010822E96E4E00C946810ABE0B0E0E3EB66
S1131B60FDE00C943E106C017B018A01FC0117829C
S1131B701682838181FFCCC1CE0101963C01F6011E
S1131B809381F70193FD859193FF81917F018823D0
S1131B9009F4BAC1853239F493FD859193FF81919B
S1131BA07F01853229F4B60190E00E94A40FE7CFAB
S1131BB0912C212C312CFFE1F315D8F08B3279F0E4
S1131BC038F4803279F08332A1F4232D20611DC0D2
S1131BD08D3261F0803369F4232D216016C0832D8A
S1131BE08260382EE32DE4603E2E2AC0F32DF86087
S1131BF01DC037FC2DC020ED280F2A3040F08E3256
S1131C00B9F436FC81C1232D2064322E19C036FE6E
S1131C1006C08AE0989E200D1124922E11C0EAE09D
S1131C202E9E200D1124222EF32DF0623F2E08C08B
S1131C308C3621F4832D8068382E02C0883641F416
S1131C40F70193FD859193FF81917F018111B3CFBA
S1131C50982F9F7D9554933028F40C5F1F4F9FE37A
S1131C6099830DC0833631F0833771F0833509F0E1
S1131C7059C021C0F801808189830E5F1F4F8824D9
S1131C808394912C530113C02801F2E04F0E511C90
S1131C90F801A080B18036FE03C0692D70E002C057
S1131CA06FEF7FEFC5010E94990F4C018201F32D64
S1131CB0FF773F2E16C0280122E0420E511CF80186
S1131CC0A080B18036FE03C0692D70E002C06FEFC2
S1131CD07FEFC5010E948E0F4C01F32DF0683F2E5B
S1131CE0820133FC1BC0822D90E088169906B0F463
S1131CF0B60180E290E00E94A40F2A94F4CFF5018B
S1131D0037FC859137FE81915F01B60190E00E9416
S1131D10A40F21102A9421E0821A910881149104BD
S1131D2071F7E8C0843611F0893641F5F80137FEC1
S1131D3007C060817181828193810C5F1F4F08C04D
S1131D4060817181072E000C880B990B0E5F1F4F69
S1131D50F32DFF763F2E97FF09C0909580957095DF
S1131D6061957F4F8F4F9F4FF0683F2E2AE030E000
S1131D70A3010E94E00F882E861845C0853731F4F0
S1131D80232D2F7EB22E2AE030E025C0932D997F9B
S1131D90B92E8F36C1F018F4883579F0B5C0803784
S1131DA019F0883721F0B0C0E92FE061BE2EB4FEEF
S1131DB00DC0FB2DF460BF2E09C034FE0AC0292FCC
S1131DC02660B22E06C028E030E005C020E130E0F5
S1131DD002C020E132E0F801B7FE07C060817181E2
S1131DE0828193810C5F1F4F06C06081718180E006
S1131DF090E00E5F1F4FA3010E94E00F882E86180B
S1131E00FB2DFF773F2E36FE0DC0232D2E7FA22EF5
S1131E10891458F434FE0BC032FC09C0832D8E7E25
S1131E20A82E05C0B82CA32C03C0B82C01C0B92C13
S1131E30A4FE0FC0FE01E80DF11D8081803321F462
S1131E409A2D997EA92E09C0A2FE06C0B394B3941C
S1131E5004C08A2D867809F0B394A3FC11C0A0FEB7
S1131E6006C0B21488F4280C922C9B180EC0B2142D
S1131E7060F4B60180E290E00E94A40FB394F7CF1F
S1131E80B21418F42B1802C0982C212CA4FE10C0F4
S1131E90B60180E390E00E94A40FA2FE17C0A1FC4B
S1131EA003C088E790E002C088E590E0B6010CC06A
S1131EB08A2D867859F0A1FE02C08BE201C080E22F
S1131EC0A7FC8DE2B60190E00E94A40F891438F4B7
S1131ED0B60180E390E00E94A40F9A94F7CF8A940D
S1131EE0F301E80DF11D8081B60190E00E94A40F7A
S1131EF08110F5CF222009F442CEB60180E290E0B1
S1131F000E94A40F2A94F6CFF6018681978102C01D
S1131F108FEF9FEF2B96E2E10C945A10FC01059091
S1131F20615070400110D8F7809590958E0F9F1FD7
S1131F300895FC016150704001900110D8F780951C
S1131F4090958E0F9F1F08950F931F93CF93DF9348
S1131F50FB01238121FD03C08FEF9FEF2CC022FFE3
S1131F6016C046815781248135814217530744F4B2
S1131F70A081B1819D012F5F3F4F318320838C93DA
S1131F80268137812F5F3F4F3783268314C08B010F
S1131F90EC01FB010084F185E02D0995892BE1F624
S1131FA0D80116968D919C911797019617969C933C
S1131FB08E931697CE01DF91CF911F910F910895C3
S1131FC0FA01AA27283051F1203181F1E8946F9366
S1131FD06E7F6E5F7F4F8F4F9F4FAF4FB1E03ED00C
S1131FE0B4E03CD0670F781F891F9A1FA11D680FAA
S1131FF0791F8A1F911DA11D6A0F711D811D911DDD
S1132000A11D20D009F468943F912AE0269F112451
S11320103019305D3193DEF6CF010895462F4770B5
S1132020405D4193B3E00FD0C9F7F6CF462F4F7010
S1132030405D4A3318F0495D31FD4052419302D06E
S1132040A9F7EACFB4E0A695979587957795679514
S1132050BA95C9F700976105710508959B01AC0114
S11320600A2E06945795479537952795BA95C9F73B
S1132070620F731F841F951FA01D08952F923F9216
S11320804F925F926F927F928F929F92AF92BF9284
S1132090CF92DF92EF92FF920F931F93CF93DF9330
S11320A0CDB7DEB7CA1BDB0B0FB6F894DEBF0FBE8D
S11320B0CDBF09942A88398848885F846E847D84DA
S11320C08C849B84AA84B984C884DF80EE80FD80DC
S11320D00C811B81AA81B981CE0FD11D0FB6F89452
S11120E0DEBF0FBECDBFED010895F894FFCF13
S11320EEF8008000800080FF7FFF7FFF7F53756DB7
S11320FE2061783A2025640D0A0053756D206179AC
S113210E3A2025640D0A0053756D20617A3A202514
S113211E640D0A004176672061783A2025640D0A21
S113212E004176672061793A2025640D0A004176D4
S113213E6720617A3A2025640D0A005A65726F6928
S113214E6E67206269617320776974683A2025642A
S113215E0D0A0053756D2067783A2025640D0A0028
S113216E53756D2067793A2025640D0A0053756DF9
S113217E20677A3A2025640D0A00696E697420641A
S113218E6F6E650D0A00736F66742069726F6E2030
S113219E646F6E650D0A00506C6561736520707511
S11321AE74207468652073656E736F7220646F7724
S11321BE6E206F6E206120666C617420737572667A
S11321CE6163650D0A0043616C6962726174696EC4
S11321DE6720416363656C65726F6D657465720D1E
S11321EE0A0043616C6962726174696E6720477993
S11321FE726F0D0A00506C656173652077617665A8
S113220E207468652073656E736F7220696E206129
S113221E6E20382073686170650D0A005363616C1B
S113222E696E677320726561640D0A00596F7520BB
S113223E63616E2073746F7020776176696E6720A8
S10D224E6E6F77200D0A000D0A00E0
S9030000FC
