S0170000494D555F48656164747261636B65722E7372656365
S11300000C94BA000C94D7000C94D7000C94D7002D
S11300100C94D7000C94D7000C94D7000C94D70000
S11300200C94D7000C94D7000C94D7000C94EB1EBE
S11300300C94D7000C94D7000C94D7000C94D700E0
S11300400C94D7000C94D7000C9435200C94B92050
S11300500C9413210C94D7000C94D7000C94D70063
S11300600C945F1F0C94D7007A1FCC1FCC1FCC1F9D
S1130070CC1FCC1FCC1FCC1F7A1FCC1FCC1FCC1F76
S1130080CC1FCC1FCC1FCC1F7C1FCC1FCC1FCC1F64
S1130090CC1FCC1FCC1FCC1FCC1FCC1FCC1FCC1F04
S11300A0CC1FCC1FCC1FCC1F7C1FCC1FCC1FCC1F44
S11300B0CC1FCC1FCC1FCC1FCC1FCC1FCC1FCC1FE4
S11300C0CC1FCC1FCC1FCC1FC81FCC1FCC1FCC1FD8
S11300D0CC1FCC1FCC1FCC1FA51FCC1FCC1FCC1FEB
S11300E0CC1FCC1FCC1FCC1FCC1FCC1FCC1FCC1FB4
S11300F0CC1FCC1FCC1FCC1F991FCC1FCC1FCC1FD7
S1130100CC1FCC1FCC1FCC1FB71F036EDB363D9A10
S11301109999993DABAAAA2A3E000000803F084A5B
S1130120D73B3BCE016E84BCBFFDC12F3D6C743107
S11301309ABD56833DDA3D00C77F11BED9E4BB4C5E
S11301403E916BAAAABE000000803F072C7AA5BA94
S11301506CC590DA3B9365FC8BBC53F810FD3C56A0
S113016092834DBD879D3AB63DCBC9BF5BBE73DA62
S11301700FC93F0011241FBECFEFD8E0DEBFCDBFB3
S113018011E0A0E0B1E0EEE9F9E402C005900D92BF
S1130190A032B107D9F721E0A0E2B1E001C01D927D
S11301A0A23EB207E1F70E949F1D0C94CD240C944B
S11301B00000CF92DF92EF92FF920F931F938B0177
S11301C09C0135952795179507950F2EFFEDCF2E9A
S11301D0F9E5DF2EF7E3EF2EFFE5FF2EF02DC01A31
S11301E0D10AE20AF30A20E030E040E05FE30E9433
S11301F0EB23A70196010E94EB23A70196010E941D
S1130200EB239B01AC0160E070E080EC9FE30E9473
S11302102F21A70196010E94EB231F910F91FF90BC
S1130220EF90DF90CF9008954F925F926F927F92FC
S11302308F929F92AF92BF92CF92DF92EF92FF92F2
S11302400F931F93CF93DF93CDB7DEB7CC54D1096F
S11302500FB6F894DEBF0FBECDBF6D837E838F8350
S1130260988729873A874B875C87E982FA820B83D0
S11302701C838091380190913901A0913A01B09189
S11302803B014090340150903501609036017090EC
S11302903701E0903001F09031010091320110916A
S11302A03301E9A6FAA60BA71CA7BC01CD019058FF
S11302B02D813E814F8158850E94EB236D8B7E8B6F
S11302C08F8B988F29853A854B855C85C301B20154
S11302D00E94EB239B01AC016D897E898F89988DE7
S11302E00E942F212B013C0129813A814B815C81A1
S11302F0C801B7010E94EB239B01AC01C301B20109
S11303000E942F2120E030E040E05FE30E94EB23D5
S113031069A77AA78BA79CA72091000130910101BE
S113032040910201509103014090340150903501F5
S11303306090360170903701E0903001F090310107
S11303400091320110913301ED8AFE8A0F8B188FD0
S11303506D817E818F8198850E94EB23698F7A8FCE
S11303608B8F9C8FA301920169817A818B819C81FF
S11303700E94EB239B01AC01698D7A8D8B8D9C8D42
S11303800E9430212B013C01A801970169857A85DF
S11303908B859C850E94EB239B01AC01C301B201B8
S11303A00E942F2120E030E040E05FE30E94EB2335
S11303B06D8B7E8B8F8B988F209100013091010182
S11303C0409102015091030140903801509039014D
S11303D060903A0170903B01E0903001F09031015F
S11303E00091320110913301E98EFA8E0B8F1C8F2C
S11303F069857A858B859C850E94EB236D8F7E8F22
S11304008F8F98A3A301920169817A818B819C814A
S11304100E94EB239B01AC016D8D7E8D8F8D98A185
S11304200E942F212B013C01A80197016D817E813F
S11304308F8198850E94EB239B01AC01C301B2011B
S11304400E94302120E030E040E05FE30E94EB2393
S1130450698F7A8F8B8F9C8F2091000130910101DD
S113046040910201509103014090380150903901AC
S113047060903A0170903B01E0903401F0903501B6
S11304800091360110913701ED8EFE8E0F8F18A367
S113049069817A818B819C810E94EB2369837A83B1
S11304A08B839C83A301920169857A858B859C85C6
S11304B00E94EB239B01AC0169817A818B819C8131
S11304C00E9430212B013C01A80197016D817E819E
S11304D08F8198850E94EB239B01AC01C301B2017B
S11304E00E942F2120E030E040E05FE30E94EB23F4
S11304F06D8F7E8F8F8F98A320E030E0A901C60115
S1130500B5010E94292281111BC020E030E0A9011D
S1130510A3966CAD7DAD8EAD9FADA3970E942922AD
S113052081110EC020E030E0A901A7966CAD7DAD2D
S11305308EAD9FADA7970E942922882309F4C4C3D6
S1130540A6019501C601B5010E94EB232B013C01D4
S1130550A3962CAD3DAD4EAD5FADA397CA01B901D5
S11305600E94EB239B01AC01C301B2010E94302124
S11305702B013C01A7962CAD3DAD4EAD5FADA797C9
S1130580CA01B9010E94EB239B01AC01C301B20172
S11305900E9430210E94D9002B013C019B01AC0137
S11305A0C601B5010E94EB236D837E838F839887F8
S11305B0A3019201A3966CAD7DAD8EAD9FADA397C3
S11305C00E94EB2369877A878B879C87A30192011A
S11305D0A7966CAD7DAD8EAD9FADA7970E94EB2322
S11305E06DA77EA78FA798AB609100017091010160
S11305F080910201909103019B01AC010E94302182
S113060069AB7AAB8BAB9CAB6091380170913901CB
S113061080913A0190913B019B01AC010E943021F1
S11306206DAB7EAB8FAB98AF6091340170913501A7
S113063080913601909137019B01AC010E943021D9
S113064069AF7AAF8BAF9CAF60913001709131018B
S113065080913201909133019B01AC010E943021C1
S113066021966CAF7DAF8EAF9FAF21976091000153
S113067070910101809102019091030120E030E02A
S113068040E850E40E94EB236B017C016091380147
S11306907091390180913A0190913B0120E030E062
S11306A040E850E40E94EB236D877E878F87988B08
S11306B06091340170913501809136019091370138
S11306C020E030E040E850E40E94EB2369A37AA3E1
S11306D08BA39CA3609138017091390180913A01F8
S11306E090913B0120E030E040E051E40E94EB2394
S11306F025966CAF7DAF8EAF9FAF25976091340187
S113070070913501809136019091370120E030E0FD
S113071040E051E40E94EB2329966CAF7DAF8EAF8D
S11307209FAF29978090000190900101A090020151
S1130730B0900301409000015090010160900201CB
S113074070900301609138017091390180913A01F0
S113075090913B01209138013091390140913A0147
S113076050913B010E94EB2369837A838B839C83A2
S11307706091340170913501809136019091370177
S11307802091340130913501409136015091370167
S11307900E94EB23698B7A8B8B8B9C8B609130014D
S11307A07091310180913201909133012091300197
S11307B03091310140913201509133010E94EB2379
S11307C02D966CAF7DAF8EAF9FAF2D9729893A8957
S11307D04B895C89C701B6010E94EB236DA37EA3FC
S11307E08FA398A729AD3AAD4BAD5CAD6D817E81E9
S11307F08F8198850E94EB239B01AC016DA17EA1A2
S11308008FA198A50E9430216DA37EA38FA398A7E2
S113081029813A814B815C81C701B6010E94EB2397
S11308209B01AC016DA17EA18FA198A50E943021EE
S11308306B017C012DA93EA94FA958AD69857A8524
S11308408B859C850E94EB239B01AC01C701B601FB
S11308500E942F216DA37EA38FA398A7A3019201C9
S1130860C501B4010E94EB2320E030E040E850E4ED
S11308700E94EB236B017C014090380150903901B8
S113088060903A0170903B012D962CAD3DAD4EAD7C
S11308905FAD2D976D857E858F8598890E94EB23AA
S11308A04B015C0121962CAD3DAD4EAD5FAD219762
S11308B06D817E818F8198850E94EB239B01AC0121
S11308C0C501B4010E942F214B015C01A3019201D7
S11308D0C701B6010E94EB239B01AC01C501B40121
S11308E00E9430214B015C0129A93AA94BA95CA9BA
S11308F069857A858B859C850E94EB239B01AC01DD
S1130900C501B4010E942F212D853E854F8558894C
S11309100E942F214B015C0129813A814B815C812A
S113092025966CAD7DAD8EAD9FAD25970E94EB23D2
S11309309B01AC01C501B4010E9430214B015C0153
S113094029893A894B895C8925966CAD7DAD8EAD3C
S11309509FAD25970E94EB239B01AC01C501B40117
S11309600E9430214B015C012D853E854F855889BD
S11309706DA57EA58FA598A90E94EB239B01AC01D0
S1130980C501B4010E9430216D877E878F87988BC3
S11309902091340130913501409136015091370155
S11309A0C701B6010E94EB236B017C0129A93AA976
S11309B04BA95CA96D817E818F8198850E94EB2370
S11309C09B01AC01C701B6010E9430216B017C017F
S11309D02D962CAD3DAD4EAD5FAD2D9769A17AA19D
S11309E08BA19CA10E94EB239B01AC01C701B60122
S11309F00E9430216B017C0121962CAD3DAD4EADA2
S1130A005FAD219769857A858B859C850E94EB2350
S1130A109B01AC01C701B6010E942F2129A13AA173
S1130A204BA15CA10E942F216B017C0129813A8199
S1130A304B815C8129966CAD7DAD8EAD9FAD2997C0
S1130A400E94EB239B01AC01C701B6010E94302137
S1130A506B017C0129893A894B895C8929966CADA3
S1130A607DAD8EAD9FAD29970E94EB239B01AC0118
S1130A70C701B6010E9430216B017C0129A13AA172
S1130A804BA15CA16DA57EA58FA598A90E94EB231F
S1130A909B01AC01C701B6010E94302169A37AA36E
S1130AA08BA39CA3C0903001D0903101E09032011F
S1130AB0F09033018090300190903101A090320188
S1130AC0B090330120E030E040E850E469817A815D
S1130AD08B819C810E94EB23A70196010E94EB234A
S1130AE06B017C012DA93EA94FA958AD6D817E8172
S1130AF08F8198850E94EB239B01AC01C701B6014D
S1130B000E942F216B017C0120E030E040E850E49A
S1130B1069897A898B899C890E94EB23A5019401B8
S1130B200E94EB239B01AC01C701B6010E94302156
S1130B306B017C0129AD3AAD4BAD5CAD69857A851D
S1130B408B859C850E94EB239B01AC01C701B601F8
S1130B500E942F214B015C012DA13EA14FA158A55C
S1130B60CA01B9010E94EB236B017C012D853E85EE
S1130B704F855889CA01B9010E94EB239B01AC013E
S1130B80C701B6010E9430216B017C0129A13AA161
S1130B904BA15CA1CA01B9010E94EB239B01AC01EA
S1130BA0C701B6010E9430216B017C01A5019401AB
S1130BB0C501B4010E94EB239B01AC01C701B6013E
S1130BC00E9430210E94D9006B017C0140900401F5
S1130BD05090050160900601709007019B01AC01E3
S1130BE06DA17EA18FA198A50E94EB23A301920180
S1130BF00E94EB239B01AC0169A57AA58BA59CA55A
S1130C000E942F2169A77AA78BA79CA74090040173
S1130C10509005016090060170900701A7019601AC
S1130C206D857E858F8598890E94EB23A3019201AF
S1130C300E94EB239B01AC016D897E898F89988D7D
S1130C400E942F216D8B7E8B8F8B988F4090040197
S1130C50509005016090060170900701A70196016C
S1130C6069A17AA18BA19CA10E94EB23A30192010B
S1130C700E94EB239B01AC01698D7A8D8B8D9C8D39
S1130C800E942F21698F7A8F8B8F9C8F4090040153
S1130C90509005016090060170900701A70196012C
S1130CA0C501B4010E94EB23A30192010E94EB232E
S1130CB09B01AC016D8D7E8D8F8D98A10E942F219B
S1130CC06D8F7E8F8F8F98A3209120013091210109
S1130CD04091220150912301C0900001D090010164
S1130CE0E0900201F090030169A57AA58BA59CA56B
S1130CF00E94EB23A70196010E943021609300011A
S1130D0070930101809302019093030120912001CB
S1130D10309121014091220150912301C09038016A
S1130D20D0903901E0903A01F0903B016D897E89C1
S1130D308F89988D0E94EB23A70196010E94302190
S1130D40609338017093390180933A0190933B0189
S1130D5020912001309121014091220150912301E1
S1130D60C0903401D0903501E0903601F090370105
S1130D70698D7A8D8B8D9C8D0E94EB23A701960142
S1130D800E943021609334017093350180933601C1
S1130D90909337012091200130912101409122014B
S1130DA050912301C0903001D0903101E090320184
S1130DB0F09033016D8D7E8D8F8D98A10E94EB2371
S1130DC0A70196010E943021609330017093310194
S1130DD0809332019093330160910001709101017D
S1130DE08091020190910301209100013091010151
S1130DF04091020150910301809038019090390193
S1130E00A0903A01B0903B014090380150903901D4
S1130E1060903A0170903B01E0903401F09035010C
S1130E200091360110913701ED82FE820F831887FD
S1130E30E0903401F09035010091360110913701B2
S1130E40E986FA860B871C87E0903001F090310127
S1130E500091320110913301ED86FE860F87188BC5
S1130E60E0903001F0903101009132011091330192
S1130E70E982FA820B831C830E94EB236B017C01C1
S1130E80A3019201C501B4010E94EB239B01AC01B3
S1130E90C701B6010E9430214B015C0129853A85C6
S1130EA04B855C856D817E818F8198850E94EB23C3
S1130EB09B01AC01C501B4010E9430214B015C01CE
S1130EC029813A814B815C816D857E858F859889E6
S1130ED00E94EB239B01AC01C501B4010E943021A7
S1130EE00E94D9006B017C01209100013091010125
S1130EF040910201509103010E94EB236093000191
S1130F0070930101809302019093030120913801B1
S1130F103091390140913A0150913B01C701B6012A
S1130F200E94EB23609338017093390180933A0156
S1130F3090933B0120913401309135014091360169
S1130F4050913701C701B6010E94EB23609334012D
S1130F5070933501809336019093370120913001CD
S1130F60309131014091320150913301C701B601F2
S1130F700E94EB236093300170933101809332011E
S1130F8090933301C45BDF4F0FB6F894DEBF0FBEFE
S1130F90CDBFDF91CF911F910F91FF90EF90DF9024
S1130FA0CF90BF90AF909F908F907F906F905F9005
S1130FB04F9008952F923F924F925F926F927F923B
S1130FC08F929F92AF92BF92CF92DF92EF92FF9255
S1130FD00F931F93CF93DF93CDB7DEB7C459D109D5
S1130FE00FB6F894DEBF0FBECDBF69837A838B83BF
S1130FF09C8329873A874B875C87ED82FE820F8327
S11310001887C755DF4F1881C95AD040C655DF4FDE
S11310100881CA5AD040C555DF4F3880CB5AD040DA
S1131020C455DF4F2880CC5AD040C355DF4FE880E9
S1131030CD5AD040E98AC255DF4FF880CE5AD0400D
S1131040FD8EC155DF4FE880CF5AD040E9AAC05584
S1131050DF4FF880C05BD040FDAA20E030E0A9015A
S1131060CF54DF4F688179818A819B81C15BD040F5
S11310700E94292281113DC020E030E0A901CB5417
S1131080DF4F688179818A819B81C55BD0400E9452
S1131090292281112EC020E030E0A901C754DF4F7E
S11310A0688179818A819B81C95BD0400E94292211
S11310B081111FC0FF92EF92ED8CEF92F988FF929D
S11310C02F923F920F931F93ED80FE800F8118851E
S11310D029853A854B855C8569817A818B819C81E0
S11310E00E9414010FB6F894DEBF0FBECDBF0C945E
S11310F0E0158091380190913901A0913A01B091A5
S11311003B0140903401509035016090360170905D
S113111037012091300130913101409132015091D9
S1131120330129A33AA34BA35CA3BC01CD0190587E
S113113029813A814B815C810E94EB236DA37EA3BC
S11311408FA398A7A301920169857A858B859C85D5
S11311500E94EB239B01AC016DA17EA18FA198A5F8
S11311600E942F212B013C0129A13AA14BA15CA192
S11311706D817E818F8198850E94EB239B01AC0158
S1131180C301B2010E942F2120E030E040E05FE380
S11311900E94EB2369966CAF7DAF8EAF9FAF6997CA
S11311A0209100013091010140910201509103010D
S11311B040903401509035016090360170903701B1
S11311C08091300190913101A0913201B0913301AD
S11311D089A39AA3ABA3BCA369817A818B819C81E7
S11311E00E94EB236DA37EA38FA398A7A301920172
S11311F06D817E818F8198850E94EB239B01AC01D8
S11312006DA17EA18FA198A50E9430212B013C01E4
S113121029A13AA14BA15CA169857A858B859C851E
S11312200E94EB239B01AC01C301B2010E942F2158
S113123020E030E040E05FE30E94EB236D966CAF6A
S11312407DAF8EAF9FAF6D9720910001309101016A
S113125040910201509103014090380150903901AE
S113126060903A0170903B0180913001909131017E
S1131270A0913201B091330189A39AA3ABA3BCA37B
S113128069857A858B859C850E94EB236DA37EA35B
S11312908FA398A7A30192016D817E818F81988588
S11312A00E94EB239B01AC016DA17EA18FA198A5A7
S11312B00E942F212B013C0129A13AA14BA15CA141
S11312C069817A818B819C810E94EB239B01AC0113
S11312D0C301B2010E94302120E030E040E05FE32E
S11312E00E94EB23A1966CAF7DAF8EAF9FAFA19709
S11312F020910001309101014091020150910301BC
S1131300409038015090390160903A0170903B014F
S11313108091340190913501A0913601B09137014B
S113132089A39AA3ABA3BCA36D817E818F81988589
S11313300E94EB236D837E838F839887A3019201A0
S113134069857A858B859C850E94EB239B01AC0182
S11313506D817E818F8198850E9430212B013C0113
S113136029A13AA14BA15CA169817A818B819C81DD
S11313700E94EB239B01AC01C301B2010E942F2107
S113138020E030E040E05FE30E94EB23A5966CAFE1
S11313907DAF8EAF9FAFA59720E030E0A901C601D5
S11313A0B5010E94292281111CC020E030E0A9016E
S11313B0612F702F832D922D0E942922811111C03B
S11313C020E030E0A901B989AD8DF9A9EDA96B2F11
S11313D07A2F8F2F9E2F0E942922882311F40C9498
S11313E07A14A6019501C601B5010E94EB232B01D5
S11313F03C01212F302F432D522D612F702F832D2F
S1131400922D0E94EB239B01AC01C301B2010E9407
S113141030212B013C0179896D8D99A98DA9272F44
S1131420362F492F582F672F732F892F952F0E94FE
S1131430EB239B01AC01C301B2010E9430210E9445
S1131440D9002B013C019B01AC01C601B5010E94EE
S1131450EB23C757DF4F688379838A839B83C958FB
S1131460D040A3019201612F702F832D922D0E94F1
S1131470EB23C357DF4F688379838A839B83CD58DB
S1131480D040A3019201B989AD8DF9A9EDA96B2FC3
S11314907A2F8F2F9E2F0E94EB23CF56DF4F688326
S11314A079838A839B83C159D040CF54DF4F2881ED
S11314B039814A815B81C15BD040CA01B9010E9474
S11314C0EB236B017C01CB54DF4F288139814A81A6
S11314D05B81C55BD040CA01B9010E94EB239B012B
S11314E0AC01C701B6010E9430216B017C01C754D5
S11314F0DF4F288139814A815B81C95BD040CA01B1
S1131500B9010E94EB239B01AC01C701B6010E9403
S113151030210E94D9006B017C019B01AC01CF54A6
S1131520DF4F688179818A819B81C15BD0400E94B1
S1131530EB23698B7A8B8B8B9C8BA7019601CB5405
S1131540DF4F688179818A819B81C55BD0400E948D
S1131550EB236D837E838F839887A7019601C754FD
S1131560DF4F688179818A819B81C95BD0400E9469
S1131570EB236D877E878F87988B60910001709134
S1131580010180910201909103019B01AC010E9431
S1131590302129893A894B895C890E94EB23299659
S11315A06CAF7DAF8EAF9FAF2997609100017091B2
S11315B0010180910201909103019B01AC010E9401
S11315C030212D813E814F8158850E94EB2369AFE4
S11315D07AAF8BAF9CAF6091000170910101809153
S11315E00201909103019B01AC010E9430212D85E1
S11315F03E854F8558890E94EB2369877A878B87BC
S11316009C87609138017091390180913A019091E1
S11316103B019B01AC010E94302129893A894B8905
S11316205C890E94EB2361966CAF7DAF8EAF9FAF58
S11316306197609100017091010180910201909184
S113164003019B01AC010E94302125966CAF7DAF54
S11316508EAF9FAF259760913801709139018091C9
S11316603A0190913B019B01AC010E94302169AB8E
S11316707AAB8BAB9CAB6091340170913501809156
S11316803601909137019B01AC010E9430216DAB72
S11316907EAB8FAB98AF6091300170913101809136
S11316A03201909133019B01AC010E943021A99633
S11316B06CAF7DAF8EAF9FAFA997E0900001F09023
S11316C0010100910201109103012196ECAEFDAEDF
S11316D00EAF1FAF2197E0903401F09035010091D7
S11316E0360110913701AD96ECAEFDAE0EAF1FAFD3
S11316F0AD97E0903401F0903501009136011091DE
S11317003701EDA6FEA60FA718ABE0903001F090CC
S113171031010091320110913301E196ECAEFDAE3E
S11317200EAF1FAFE19760910001709101018091AC
S11317300201909103012091000130910101409137
S11317400201509103010E94EB236DA37EA38FA39A
S113175098A760910001709101018091020190911C
S11317600301209138013091390140913A0150919F
S11317703B010E94EB2369A77AA78BA79CA76091E2
S11317800001709101018091020190910301209167
S113179034013091350140913601509137010E9456
S11317A0EB2365966CAF7DAF8EAF9FAF6597E090EE
S11317B00001F09001010091020110910301E596EE
S11317C0ECAEFDAE0EAF1FAFE597E0903001F090A8
S11317D031010091320110913301E996ECAEFDAE76
S11317E00EAF1FAFE9976091380170913901809174
S11317F03A0190913B012091380130913901409197
S11318003A0150913B010E94EB236D8F7E8F8F8FA5
S113181098A3E0903801F090390100913A011091B9
S11318203B01ED96ECAEFDAE0EAF1FAFED97E09031
S11318303401F09035010091360110913701C358FD
S1131840DF4FE882F9820A831B83CD57D040609131
S113185038017091390180913A0190913B012091B6
S113186030013091310140913201509133010E9495
S1131870EB236D8B7E8B8F8B988F609134017091ED
S113188035018091360190913701209134013091D6
S1131890350140913601509137010E94EB23698F45
S11318A07A8F8B8F9C8FE0903401F09035010091FA
S11318B0360110913701CF57DF4FE882F9820A834E
S11318C01B83C158D040E0903001F0903101009169
S11318D0320110913301CB57DF4FE882F9820A833A
S11318E01B83C558D04060913001709131018091C3
S11318F032019091330120913001309131014091B6
S11319003201509133010E94EB2369A37AA38BA384
S11319109CA340903001509031016090320170904E
S11319203301C0903401D0903501E0903601F0903D
S11319303701009134011091350120913601309125
S1131940370109831A832B833C8380903001909064
S11319503101A0903201B09033012DA13EA14FA1DD
S113196058A569897A898B899C890E94EB232D96D5
S11319706CAF7DAF8EAF9FAF2D97A301920169AD80
S11319807AAD8BAD9CAD0E94EB239B01AC012D96EF
S11319906CAD7DAD8EAD9FAD2D970E942F212B0197
S11319A03C01A701960169857A858B859C850E94F7
S11319B0EB239B01AC01C301B2010E9430216B01F6
S11319C07C012D8D3E8D4F8D58A169897A898B8933
S11319D09C890E94EB239B01AC01C701B6010E94C4
S11319E030216B017C0129A93AA94BA95CA96D811D
S11319F07E818F8198850E94EB2329813A814B81D6
S1131A005C810E94EB239B01AC01C701B6010E94DB
S1131A1030216B017C0129A93AA94BA95CA96D85E8
S1131A207E858F8598890E94EB23A50194010E94ED
S1131A30EB239B01AC01C701B6010E9430216B016D
S1131A407C01298D3A8D4B8D5C8D69897A898B89CE
S1131A509C890E94EB239B01AC01C701B6010E9443
S1131A602F216B017C0129A13AA14BA15CA16989B9
S1131A707A898B899C890E94EB239B01AC01C70165
S1131A80B6010E942F2169837A838B839C832091E2
S1131A903001309131014091320150913301409035
S1131AA038015090390160903A0170903B01C09028
S1131AB03401D0903501E0903601F09037018090E8
S1131AC0300190903101A0903201B09033012996F9
S1131AD06CAD7DAD8EAD9FAD29970E94EB232D9605
S1131AE06CAF7DAF8EAF9FAF2D972DA13EA14FA1BF
S1131AF058A56D817E818F8198850E94EB239B017F
S1131B00AC012D966CAD7DAD8EAD9FAD2D970E9431
S1131B1030212D966CAF7DAF8EAF9FAF2D97A30173
S1131B20920169857A858B859C850E94EB239B01B4
S1131B30AC012D966CAD7DAD8EAD9FAD2D970E9401
S1131B402F212B013C01A701960161966CAD7DAD5F
S1131B508EAD9FAD61970E94EB239B01AC01C30145
S1131B60B2010E9430216B017C012D8D3E8D4F8D81
S1131B7058A16D817E818F8198850E94EB239B0102
S1131B80AC01C701B6010E942F216B017C01298D94
S1131B903A8D4B8D5C8D6D817E818F8198850E94FD
S1131BA0EB239B01AC01C701B6010E9430216B01FC
S1131BB07C012DA93EA94FA958AD6D857E858F85E1
S1131BC098890E94EB23A50194010E94EB239B01B9
S1131BD0AC01C701B6010E9430216B017C0129A12F
S1131BE03AA14BA15CA16D817E818F8198850E9471
S1131BF0EB239B01AC01C701B6010E942F216B01AD
S1131C007C0129813A814B815C81CA01B9010E941E
S1131C10EB234B015C01A7019601C701B6010E94A9
S1131C20EB239B01AC01C501B4010E9430210E9449
S1131C305E2469877A878B879C8720913401309151
S1131C403501409136015091370140903801509050
S1131C50390160903A0170903B01C0903001D090FE
S1131C603101E0903201F090330180903001909086
S1131C703101A0903201B090330129966CAD7DAD55
S1131C808EAD9FAD299790580E94EB2369837A8388
S1131C908B839C83A301920169AD7AAD8BAD9CAD1E
S1131CA00E94EB239B01AC0169817A818B819C8129
S1131CB00E9430212B013C012DA13EA14FA158A52A
S1131CC06D857E858F8598890E94EB239B01AC01ED
S1131CD0C301B2010E9430212B013C01A7019601EE
S1131CE061966CAD7DAD8EAD9FAD61970E94EB2387
S1131CF09B01AC01C301B2010E9430216B017C0144
S1131D002D8D3E8D4F8D58A16D857E858F8598894B
S1131D100E94EB239B01AC01C701B6010E942F2155
S1131D206B017C012DA93EA94FA958AD6D817E811F
S1131D308F8198850E94EB23A50194010E94EB23D7
S1131D409B01AC01C701B6010E9430216B017C01EB
S1131D50298D3A8D4B8D5C8D6D857E858F85988917
S1131D600E94EB239B01AC01C701B6010E942F2105
S1131D706B017C0129A13AA14BA15CA16D857E85F3
S1131D808F8598890E94EB239B01AC01C701B601A2
S1131D900E94302169837A838B839C839B01AC01ED
S1131DA00E94302129966CAF7DAF8EAF9FAF2997EB
S1131DB02D893E894F89588DCA01B9010E9430216D
S1131DC06B017C0121962CAD3DAD4EAD5FAD2197ED
S1131DD0CA01B9010E943021AD962CAD3DAD4EAD86
S1131DE05FADAD970E94EB239B01AC01C701B60127
S1131DF00E942F21C757DF4F288139814A815B8197
S1131E00C958D0400E942F216DA37EA38FA398A709
S1131E102DA53EA54FA558A9CA01B9010E9430219C
S1131E20E1962CAD3DAD4EAD5FADE1970E94EB2345
S1131E306B017C0129A53AA54BA55CA5CA01B90192
S1131E400E9430219B01AC01C701B6010E943021E0
S1131E50C357DF4F288139814A815B81CD58D040F7
S1131E600E942F2121966CAF7DAF8EAF9FAF21973B
S1131E70E0903401F0903501009136011091370162
S1131E80EDA6FEA60FA718AB298D3A8D4B8D5C8D60
S1131E9060E070E080E09FE30E942F2129A13AA135
S1131EA04BA15CA10E942F2129853A854B855C8535
S1131EB00E94EB236B017C0165962CAD3DAD4EADCC
S1131EC05FAD65976D897E898F89988D0E942F21DA
S1131ED029813A814B815C810E94EB239B01AC01F7
S1131EE0C701B6010E94302129893A894B895C894E
S1131EF00E942F21698B7A8B8B8B9C8B09851A8589
S1131F002B853C85305809A31AA32BA33CA34090EE
S1131F103001509031016090320170903301809013
S1131F20380190903901A0903A01B0903B01C35818
S1131F30DF4F288139814A815B81CD57D040ED96AE
S1131F406CAD7DAD8EAD9FADED970E94EB236B0123
S1131F507C01E9962CAD3DAD4EAD5FADE997E596BC
S1131F606CAD7DAD8EAD9FADE5970E94EB239B01DB
S1131F70AC01C701B6010E942F2129853A854B8502
S1131F805C850E94EB236B017C01CB57DF4F2881DA
S1131F9039814A815B81C558D040CF57DF4F688172
S1131FA079818A819B81C158D0400E94EB2329A565
S1131FB03AA54BA55CA50E94302129813A814B8129
S1131FC05C810E94EB239B01AC01C701B6010E9416
S1131FD030212D813E814F8158850E942F216D83B0
S1131FE07E838F839887C0903401D0903501E09030
S1131FF03601F09037012D8D3E8D4F8D58A160E054
S113200070E080E09FE30E942F21298D3A8D4B8D53
S11320105C8D0E942F2129813A814B815C810E9431
S1132020EB2369A77AA78BA79CA72D893E894F89A3
S1132030588D65966CAD7DAD8EAD9FAD65970E9454
S1132040302129853A854B855C850E94EB239B01D1
S1132050AC0169A57AA58BA59CA50E9430212D858C
S11320603E854F8558890E942F216D877E878F87F3
S1132070988B6DA97EA98FA998AD90582DA13EA1EA
S11320804FA158A50E94EB236D8B7E8B8F8B988F6D
S113209021962CAD3DAD4EAD5FAD219769A97AA9CE
S11320A08BA99CA90E94EB239B01AC016D897E89BD
S11320B08F89988D0E9430216D8B7E8B8F8B988FAA
S11320C02DA53EA54FA558A969817A818B819C8154
S11320D00E94EB2329893A894B895C890E94EB236E
S11320E09B01AC016D897E898F89988D0E942F2177
S11320F06D8B7E8B8F8B988FA301920169A17AA13E
S11321008BA19CA10E94EB232B013C01A50194010E
S113211069817A818B819C810E94EB239B01AC01B4
S1132120C301B2010E9430212D813E814F81588527
S11321300E94EB239B01AC016D897E898F89988D68
S11321400E9430214B015C01A701960169857A85C3
S11321508B859C850E94EB232D853E854F85588970
S11321600E94EB239B01AC01C501B4010E94302104
S11321706D8B7E8B8F8B988F4090380150903901F6
S113218060903A0170903B012D8D3E8D4F8D58A18A
S1132190CA01B9010E9430219B01AC0160E070E0EA
S11321A080E89FE30E942F216B017C01298D3A8DE9
S11321B04B8D5C8DCA01B9010E9430219B01AC0199
S11321C0C701B6010E942F21CF56DF4F28813981E4
S11321D04A815B81C159D0400E942F216D8F7E8F2F
S11321E08F8F98A3C0903001D0903101E0903201DC
S11321F0F090330120913401309135014091360142
S113220050913701298F3A8F4B8F5C8F8091000159
S113221090910101A0910201B091030189A79AA7AD
S1132220ABA7BCA78090300190903101A0903201FF
S1132230B0903301009138011091390120913A0195
S113224030913B010DA71EA72FA738AB2DA13EA1AE
S11322504FA158A5A9966CAD7DAD8EAD9FADA99744
S11322600E94EB2369AF7AAF8BAF9CAF21962CAD64
S11322703DAD4EAD5FAD219725966CAD7DAD8EAD78
S11322809FAD25970E94EB239B01AC0169AD7AAD0C
S11322908BAD9CAD0E94302169AF7AAF8BAF9CAF00
S11322A020E030E040E850E4C301B2010E94EB2397
S11322B02D8D3E8D4F8D58A10E94EB239B01AC01C7
S11322C069AD7AAD8BAD9CAD0E942F212B013C01F1
S11322D0A701960169817A818B819C810E94EB23FD
S11322E029893A894B895C890E94EB239B01AC01C3
S11322F0C301B2010E9430216B017C01298D3A8D0A
S11323004B8D5C8D69857A858B859C850E94EB233A
S11323102B013C0129A53AA54BA55CA569817A81CD
S11323208B819C810E94EB239B01AC01C301B20110
S11323300E9430212D813E814F8158850E94EB23DC
S11323409B01AC01C701B6010E9430216B017C01E5
S1132350A501940169857A858B859C850E94EB2370
S11323604B015C012DA53EA54FA558A929966CAD3E
S11323707DAD8EAD9FAD29970E94EB239B01AC01EF
S1132380C501B4010E942F212D853E854F855889B2
S11323900E94EB239B01AC01C701B6010E943021CE
S11323A0698F7A8F8B8F9C8F4090340150903501C8
S11323B0609036017090370129853A854B855C859C
S11323C0CA01B9010E9430219B01AC01505829A7D0
S11323D03AA74BA75CA7C0903401D0903501E09098
S11323E03601F09037018091000190910101A09194
S11323F00201B09103018DA79EA7AFA7B8AB0091CE
S113240038011091390120913A0130913B0109AF13
S11324101AAF2BAF3CAF2091300130913101409184
S113242032015091330161962CAF3DAF4EAF5FAF97
S113243061978090000190900101A0900201B090FA
S113244003018091340190913501A0913601B0913E
S1132450370165968CAF9DAFAEAFBFAF659725963C
S11324606CAD7DAD8EAD9FAD259790582DA13EA14D
S11324704FA158A50E94EB2325966CAF7DAF8EAF7C
S11324809FAF259721962CAD3DAD4EAD5FAD219705
S1132490A9966CAD7DAD8EAD9FADA9970E94EB233F
S11324A09B01AC0125966CAD7DAD8EAD9FAD25979E
S11324B00E94302125966CAF7DAF8EAF9FAF2597DC
S11324C020E030E040E850E4C301B2010E94EB2375
S11324D02D8D3E8D4F8D58A10E94EB239B01AC01A5
S11324E025966CAD7DAD8EAD9FAD25970E942F21B5
S11324F02B013C01A701960169A57AA58BA59CA592
S11325000E94EB236B017C012DA53EA54FA558A984
S113251069817A818B819C810E94EB239B01AC01B0
S1132520C701B6010E942F2129893A894B895C8908
S11325300E94EB239B01AC01C301B2010E94302134
S11325406B017C0129AD3AAD4BAD5CAD69857A85F3
S11325508B859C850E94EB232B013C0161962CAD5D
S11325603DAD4EAD5FAD619769817A818B819C8170
S11325700E94EB239B01AC01C301B2010E943021F4
S11325802D813E814F8158850E94EB239B01AC0134
S1132590C701B6010E9430216B017C01A5019401A1
S11325A069857A858B859C850E94EB234B015C01B0
S11325B065962CAD3DAD4EAD5FAD659729966CAD7E
S11325C07DAD8EAD9FAD29970E94EB239B01AC019D
S11325D0C501B4010E942F212D853E854F85588960
S11325E00E94EB239B01AC01C701B6010E9430217C
S11325F06D8F7E8F8F8F98A32091300130913101A0
S1132600409132015091330140903801509039018A
S113261060903A0170903B01C0900001D09001019C
S1132620E0900201F0900301809134019091350112
S1132630A0913601B09137018DA79EA7AFA7B8AB83
S11326408090380190903901A0903A01B0903B01FC
S113265069A57AA58BA59CA50E94EB2369A77AA7F7
S11326608BA79CA7A301920169817A818B819C81AC
S11326700E94EB239B01AC0169A57AA58BA59CA5BF
S11326800E94302129893A894B895C890E94EB2375
S1132690698B7A8B8B8B9C8B2DA13EA14FA158A566
S11326A069A97AA98BA99CA90E94EB232B013C015F
S11326B021962CAD3DAD4EAD5FAD21976DA97EA9A0
S11326C08FA998AD0E94EB239B01AC01C301B20119
S11326D00E9430219B01AC0169897A898B899C898C
S11326E00E9430212B013C01A701960169A17AA126
S11326F08BA19CA10E94EB236B017C012DA53EA51F
S11327004FA558A969817A818B819C810E94EB2312
S11327109B01AC01C701B6010E9430212D813E818D
S11327204F8158850E94EB239B01AC01C301B20188
S11327300E9430216B017C01A501940169857A8591
S11327408B859C850E94EB232D853E854F8558897A
S11327500E94EB239B01AC01C701B6010E9430210A
S11327604B015C012D893E894F89588DCA01B901FD
S11327700E94EB236B017C01298D3A8D4B8D5C8D7E
S1132780CA01B9010E94EB239B01AC01C701B60148
S11327900E9430216B017C012D8D3E8D4F8D58A1FF
S11327A0CA01B9010E94EB239B01AC01C701B60128
S11327B00E9430216B017C01A5019401C501B40183
S11327C00E94EB239B01AC01C701B6010E9430219A
S11327D00E94D9006B017C014090040150900501D6
S11327E060900601709007019B01AC016D897E89A0
S11327F08F89988D0E94EB23A30192010E94EB2301
S11328009B01AC0169966CAD7DAD8EAD9FAD6997B2
S11328100E942F2169966CAF7DAF8EAF9FAF6997F1
S113282040900401509005016090060170900701EA
S1132830A7019601698D7A8D8B8D9C8D0E94EB2367
S1132840A30192010E94EB239B01AC016D966CAD38
S11328507DAD8EAD9FAD6D970E942F216D966CAFAF
S11328607DAF8EAF9FAF6D974090040150900501EE
S11328706090060170900701A70196016D8D7E8D11
S11328808F8D98A10E94EB23A30192010E94EB2358
S11328909B01AC01A1966CAD7DAD8EAD9FADA197B2
S11328A00E942F21A1966CAF7DAF8EAF9FAFA197F1
S11328B0409004015090050160900601709007015A
S11328C0A7019601C501B4010E94EB23A301920163
S11328D00E94EB239B01AC01A5966CAD7DAD8EAD42
S11328E09FADA5970E942F21A5966CAF7DAF8EAFAB
S11328F09FAFA597209120013091210140912201A1
S113290050912301C0900001D0900101E090020198
S1132910F090030169966CAD7DAD8EAD9FAD699766
S11329200E94EB23A70196010E94302160930001CD
S1132930709301018093020190930301209120017F
S1132940309121014091220150912301C09038011E
S1132950D0903901E0903A01F0903B016D966CAD56
S11329607DAD8EAD9FAD6D970E94EB23A7019601BF
S11329700E943021609338017093390180933A01A9
S113298090933B012091200130912101409122013B
S113299050912301C0903401D0903501E09036016C
S11329A0F0903701A1966CAD7DAD8EAD9FADA19732
S11329B00E94EB23A70196010E9430216093340109
S11329C07093350180933601909337012091200153
S11329D0309121014091220150912301C090300196
S11329E0D0903101E0903201F0903301A5966CADA6
S11329F07DAD8EAD9FADA5970E94EB23A7019601F7
S1132A000E94302160933001709331018093320130
S1132A109093330160910001709101018091020152
S1132A209091030120910001309101014091020134
S1132A30509103018090380190903901A0903A019F
S1132A40B0903B01409038015090390160903A01B8
S1132A5070903B01E0903401F09035010091360113
S1132A6010913701E982FA820B831C83E0903401D0
S1132A70F09035010091360110913701E986FA860C
S1132A800B871C87E0903001F090310100913201F6
S1132A9010913301E98AFA8A0B8B1C8BE090300188
S1132AA0F09031010091320110913301ED82FE82E8
S1132AB00F8318870E94EB236B017C01A301920111
S1132AC0C501B4010E94EB239B01AC01C701B6010F
S1132AD00E9430214B015C0129853A854B855C8538
S1132AE069817A818B819C810E94EB239B01AC01DB
S1132AF0C501B4010E9430214B015C012D813E814E
S1132B004F81588569897A898B899C890E94EB2336
S1132B109B01AC01C501B4010E9430210E94D9007F
S1132B206B017C012091000130910101409102016F
S1132B30509103010E94EB23609300017093010103
S1132B40809302019093030120913801309139015F
S1132B5040913A0150913B01C701B6010E94EB2319
S1132B60609338017093390180933A0190933B014B
S1132B702091340130913501409136015091370153
S1132B80C701B6010E94EB236093340170933501B1
S1132B9080933601909337012091300130913101B7
S1132BA04091320150913301C701B6010E94EB23D9
S1132BB0609330017093310180933201909333011B
S1132BC0CC56DF4F0FB6F894DEBF0FBECDBFDF91FA
S1132BD0CF911F910F91FF90EF90DF90CF90BF9016
S1132BE0AF909F908F907F906F905F904F903F90A9
S1132BF02F9008954F925F926F927F928F929F923F
S1132C00AF92BF92CF92DF92EF92FF920F931F93F6
S1132C10CF93DF93CDB7DEB764970FB6F894DEBFDA
S1132C200FBECDBF609138017091390180913A0196
S1132C3090913B01209138013091390140913A0142
S1132C4050913B018090340190903501A090360161
S1132C50B0903701409034015090350160903601B6
S1132C6070903701E0900001F090010100910201A1
S1132C7010910301E982FA820B831C83E0903801EE
S1132C80F090390100913A0110913B01ED82FE82EE
S1132C900F831887E0903401F090350100913601DC
S1132CA010913701E98AFA8A0B8B1C8BE090300172
S1132CB0F09031010091320110913301E986FA86D6
S1132CC00B871C870E94EB239B01AC0160E070E042
S1132CD080E09FE30E942F216B017C01A3019201FC
S1132CE0C501B4010E94EB239B01AC01C701B601ED
S1132CF00E942F212B013C012D813E814F8158855B
S1132D0069817A818B819C810E94EB234B015C0158
S1132D1029853A854B855C8569897A898B899C8963
S1132D200E94EB239B01AC01C501B4010E94302138
S1132D30A30192010E94CA2122E933EB41E252E449
S1132D400E94EB2360932C0170932D0180932E013C
S1132D5090932F01609138017091390180913A016B
S1132D6090913B0120913001309131014091320129
S1132D70509133018090000190900101A0900201D4
S1132D80B0900301409034015090350160903601B9
S1132D90709037010E94EB236B017C01A301920127
S1132DA0C501B4010E94EB239B01AC01C701B6012C
S1132DB00E942F2120E030E040E050EC0E94EB2301
S1132DC00E949C2122E933EB41E252E40E94EB236E
S1132DD0609328017093290180932A0190932B0119
S1132DE060913401709135018091360190913701E1
S1132DF020913401309135014091360150913701D1
S1132E008090300190903101A0903201B090330154
S1132E104090300150903101609032017090330144
S1132E20E0903801F090390100913A0110913B0192
S1132E30E982FA820B831C83E0903401F09035011F
S1132E400091360110913701ED82FE820F831887BD
S1132E50E0900001F0900101009102011091030142
S1132E60E98AFA8A0B8B1C8BE0903001F0903101D7
S1132E700091320110913301E986FA860B871C8791
S1132E800E94EB239B01AC0160E070E080E09FE3D3
S1132E900E942F216B017C01A3019201C501B401A1
S1132EA00E94EB239B01AC01C701B6010E942F21B4
S1132EB02B013C012D813E814F81588569817A81A6
S1132EC08B819C810E94EB234B015C0129853A850F
S1132ED04B855C8569897A898B899C890E94EB235F
S1132EE09B01AC01C501B4010E943021A3019201F0
S1132EF00E94CA2122E933EB41E252E40E94EB230F
S1132F0060932401709325018093260190932701F7
S1132F1064960FB6F894DEBF0FBECDBFDF91CF919C
S1132F201F910F91FF90EF90DF90CF90BF90AF90E3
S1132F309F908F907F906F905F904F900895EF9245
S1132F40FF920F931F93CF93DF9300D01F92CDB7BF
S1132F50DEB70F2EF0EDFF2EF02DF9820F2EFBE6DB
S1132F60EF2EF02DEA8280E88B8363E08E010F5F01
S1132F701F4FC8010E94121FEA8281E08B8363E025
S1132F80C8010E94121F83E0F80111928A95E9F7A3
S1132F90F98287E38A8382E08B8363E0C8010E941D
S1132FA0121F0F900F900F90DF91CF911F910F91EF
S1132FB0FF90EF900895FC01ADE3B1E08081918131
S1132FC02D913C911197821B930B91838083828175
S1132FD0938112962D913C911397821B930B9383AB
S1132FE082838481958114962D913C911597821B3F
S1132FF0930B9583848308950F931F93CF93DF934B
S1133000CDB7DEB72A970FB6F894DEBF0FBECDBF9B
S11330108C0180ED89838BE38A8381ED8C8362E06C
S1133020CE0101960E94121F67E0CE0104960E9411
S1133030121F67E0CE0104960E943F1F8D8190E02D
S1133040982F88272E81822BF801918380838F818A
S113305090E0982F88272885822B93838283898503
S113306090E0982F88272A85822B9583848380E09B
S11330702A960FB6F894DEBF0FBECDBFDF91CF9175
S11330801F910F9108954F925F926F927F928F924A
S11330909F92AF92BF92CF92DF92EF92FF920F93E3
S11330A01F93CF93DF93CDB7DEB729970FB6F8946C
S11330B0DEBF0FBECDBF80ED89838CE18A8388E0BB
S11330C08B8363E0CE0101960E94121F1D821C8235
S11330D01F821E821986188600E018E0412C512CAC
S11330E03201812C912C5401C12CD12C7601CE01BA
S11330F004960E94FC178C819D81092E000CAA0B5A
S1133100BB0B480E591E6A1E7B1E8E819F81092EA1
S1133110000CAA0BBB0B880E991EAA1EBB1E888529
S11331209985092E000CAA0BBB0BC80ED91EEA1EEA
S1133130FB1E87E998E00197F1F700C000000150F9
S11331401109A9F6D301C201772024F48150984FC4
S1133150AF4FBF4F072E7BE0B595A7959795879501
S11331607A95D1F7702D90933E0180933D01D5015E
S1133170C401BB2024F48150984FAF4FBF4F072E9A
S11331807BE0B595A795979587957A95D1F7702D9E
S11331909093400180933F01D701C601FF2024F49E
S11331A08150984FAF4FBF4F072E7BE0B595A79541
S11331B0979587957A95D1F7702D1816190634F4DA
S11331C09052909342018093410105C0905E909388
S11331D042018093410180E029960FB6F894DEBF46
S11331E00FBECDBFDF91CF911F910F91FF90EF9054
S11331F0DF90CF90BF90AF909F908F907F906F9013
S11332005F904F9008950F931F93CF93DF93CDB7A3
S1133210DEB729970FB6F894DEBF0FBECDBF8C0181
S113322080ED898383E48A8381ED8B8362E0CE0120
S113323001960E94121F67E0CE0103960E94121F9E
S113324067E0CE0103960E943F1F8C8190E0982F87
S113325088272D81822BF801918380838E8190E0D1
S1133260982F88272F81822B93838283888590E0EF
S1133270982F88272985822B9583848380E029963B
S11332800FB6F894DEBF0FBECDBFDF91CF911F9173
S11332900F910895CF93DF93CDB7DEB728970FB67C
S11332A0F894DEBF0FBECDBFFC0140815181519522
S11332B04195510951834083228133813195219570
S11332C03109338322838481958191958195910974
S11332D09583848351813381958160ED698363E1B2
S11332E06A835B834C833D832E839F83888768E056
S11332F0CE0101960E94121F80E028960FB6F89422
S1133300DEBF0FBECDBFDF91CF9108954F925F9284
S11333106F927F928F929F92AF92BF92CF92DF92E1
S1133320EF92FF920F931F93CF93DF93CDB7DEB746
S11333302F970FB6F894DEBF0FBECDBF80ED898303
S11333408BE18A8380E18B8363E0CE0101960E9446
S1133350121F00E018E0412C512C3201812C912CD9
S11333605401C12CD12C7601CE0104960E9403197C
S11333708C819D81092E000CAA0BBB0B480E591E93
S11333806A1E7B1E8E819F81092E000CAA0BBB0B2B
S1133390880E991EAA1EBB1E88859985092E000CCD
S11333A0AA0BBB0BC80ED91EEA1EFB1E89EF90E0C8
S11333B00197F1F700C0000001501109A9F6D301EB
S11333C0C201772024F48150984FAF4FBF4F072E8E
S11333D07BE0B595A795979587957A95D1F7702D4C
S11333E09B878A87D501C401BB2024F48150984F60
S11333F0AF4FBF4F072E7BE0B595A795979587955F
S11334007A95D1F7702D9D878C87D701C601FF204F
S113341024F48150984FAF4FBF4F072E7BE0B595F2
S1133420A795979587957A95D1F7702D9F878E8765
S1133430CE010A960E944A1980E02F960FB6F8949E
S1133440DEBF0FBECDBFDF91CF911F910F91FF90D3
S1133450EF90DF90CF90BF90AF909F908F907F9030
S11334606F905F904F9008950F931F93CF93DF93C6
S1133470EC0103E411E0F801608170E080E090E089
S11334800E94D62220E030E040E053E40E942F2145
S113349020E030E040E05FE30E94EB2320E030E0F6
S11334A040E05CE30E94EB2320E030E040E85FE38F
S11334B00E9430219B01AC01688179818A819B81C2
S11334C00E94EB23688379838A839B83F80161815B
S11334D070E080E090E00E94D62220E030E040E0FE
S11334E053E40E942F2120E030E040E05FE30E949B
S11334F0EB2320E030E040E05CE30E94EB2320E09B
S113350030E040E85FE30E9430219B01AC016C8114
S11335107D818E819F810E94EB236C837D838E83CA
S11335209F83F801628170E080E090E00E94D622DF
S113353020E030E040E053E40E942F2120E030E01E
S113354040E05FE30E94EB2320E030E040E05CE3F6
S11335500E94EB2320E030E040E85FE30E9430214A
S11335609B01AC01688579858A859B850E94EB2344
S1133570688779878A879B8780E0DF91CF911F9145
S11335800F9108950F931F93CF93DF93CDB7DEB7B9
S11335902A970FB6F894DEBF0FBECDBF8C0188E129
S11335A0898383E08A8389E18B8362E0CE0101967B
S11335B00E94121F68E0CE0103960E94121F68E069
S11335C0CE0103960E943F1F8D8190E0982F88279B
S11335D02C81822BF801918380838F8190E0982F36
S11335E088272E81822B93838283898590E0982F6C
S11335F088272885822B95838483968581E093FF91
S113360080E02A960FB6F894DEBF0FBECDBFDF91DF
S1133610CF911F910F9108952F923F924F925F92F5
S11336206F927F928F929F92AF92BF92CF92DF92CE
S1133630EF92FF920F931F93CF93DF93CDB7DEB733
S1133640A5970FB6F894DEBF0FBECDBF88E189837E
S11336508AE08A8386E18B8363E0CE0101960E942F
S1133660121F86E0E1E1F1E0DE011A9601900D926D
S11336708A95E1F786E0E7E1F1E0DE0150960190FA
S11336800D928A95E1F7E12C6894FF24F3F88E01FA
S11336900A5E1F4FCE0104960E94C21A9E012C5F3F
S11336A03F4FFE017096BE01665F7F4FD9018D9139
S11336B09D919D01408151818417950714F4918354
S11336C08083DB014D915C9111974817590714F4DD
S11336D08D939C9332966E5F7F4FE017F10731F71D
S11336E0EFE1FEE43197F1F700C00000F1E0EF1ADA
S11336F0F10881F62A853B8548895989C901840FD7
S1133700951F99230CF401969595879590935F01E5
S113371080935E01CC84DD84AA88BB88C6018A0DAF
S11337209B1D99230CF401969595879590936101BF
S1133730809360010E851F85EC88FD88C8018E0D7D
S11337409F1D99230CF40196959587959093630199
S113375080936201241B350BB90112F46F5F7F4F14
S113376075956795072E000C880B990B0E94D8223B
S11337706E8B7F8B888F998FCA18DB08B60112F481
S11337806F5F7F4F75956795072E000C880B990B1B
S11337900E94D8226A8F7B8F8C8F9D8F0E191F09F0
S11337A0B80112F46F5F7F4F75956795072E000C73
S11337B0880B990B0E94D8226E8F7F8F88A399A3C0
S11337C0CE0146960E94341A4E885F88688C798CA4
S11337D08A8C9B8CAC8CBD8CCE8CDF8CE8A0F9A041
S11337E0A5019401C301B2010E943021A7019601F1
S11337F00E94302120E030E040E450E40E942E2278
S11338006AA37BA38CA39DA3A30192010E942E22F1
S11338102B013C0102E511E0D8016D937D938D935A
S11338209C931397A50194016AA17BA18CA19DA1EE
S11338300E942E224B015C01F80164837583868308
S11338409783A70196016AA17BA18CA19DA10E94E7
S11338502E226B017C01D80118966D937D938D9374
S11338609C931B970F2EF6E42F2EF1E03F2EF02DA4
S113387003E411E0F801608170E080E090E00E94D0
S1133880D62220E030E040E053E40E942F2120E0E3
S113389030E040E85BE30E94EB2320E030E040E8C6
S11338A05FE30E943021A30192010E94EB23D10126
S11338B06D937D938D939C931397F801618170E0D0
S11338C080E090E00E94D62220E030E040E053E423
S11338D00E942F2120E030E040E85BE30E94EB23CC
S11338E020E030E040E85FE30E943021A50194012C
S11338F00E94EB23D10114966D937D938D939C9339
S11339001797F801628170E080E090E00E94D6226F
S113391020E030E040E053E40E942F2120E030E03A
S113392040E85BE30E94EB2320E030E040E85FE303
S11339300E943021A70196010E94EB23D101189621
S11339406D937D938D939C931B9780E0A5960FB602
S1133950F894DEBF0FBECDBFDF91CF911F910F91C1
S1133960FF90EF90DF90CF90BF90AF909F908F909B
S11339707F906F905F904F903F902F900895DF92CB
S1133980EF92FF920F931F93CF93DF93CDB7DEB7E0
S113399027970FB6F894DEBF0FBECDBF0F2EF8E108
S11339A0FF2EF02DF9820F2EFAE0EF2EF02DEA8291
S11339B08FE08B8363E08E010F5F1F4FC8010E946D
S11339C0121F0F2EF3E0DF2EF02DF8018D2D119232
S11339D08A95E9F7F98280E18A8389E18C8362E040
S11339E0C8010E94121F64E0CE0104960E94121FB7
S11339F064E0CE0104960E943F1FE3E4F1E08D8170
S1133A0080838E8181838F818283F8011192DA947D
S1133A10E9F7F982EA8263E0C8010E94121F87EC89
S1133A2090E00197F1F700C0000080E027960FB600
S1133A30F894DEBF0FBECDBFDF91CF911F910F91E0
S1133A40FF90EF90DF900895CF92DF92EF92FF9274
S1133A500F931F93CF93DF936C01EB010F2EFEE5C1
S1133A60EF2EF1E0FF2EF02DFC0160817181F70152
S1133A7080819181681B790B072E000C880B990BB0
S1133A800E94D82206E411E0F801208131814281AC
S1133A9053810E94EB23688379838A839B83F60195
S1133AA062817381F70182819381681B790B072EF0
S1133AB0000C880B990B0E94D822F80124813581CF
S1133AC0468157810E94EB236C837D838E839F8381
S1133AD0F60164817581F70184819581681B790BF6
S1133AE0072E000C880B990B0E94D822F801208520
S1133AF03185428553850E94EB23688779878A87BD
S1133B009B87DF91CF911F910F91FF90EF90DF90F2
S1133B10CF90089589E191E490938900809388007F
S1133B2082E086BBEFE6F0E0808182608083E1E89A
S1133B30F0E08081826080830895219A0895CF9374
S1133B40DF93CDB7DEB7AA970FB6F894DEBF0FBEEA
S1133B50CDBF0E94081F0E94E01F78942FEF89E6D2
S1133B6098E1215080409040E1F700C000000E949D
S1133B709F17EFEFF0E722E0E150F0402040E1F73B
S1133B8000C000000E9443180E9486190E94BF1CB6
S1133B900E940C1B0E948A1D0E949D1D809084001F
S1133BA0909085000F2EF4E82F2E312CF02D0F2E3F
S1133BB0F8E06F2EF1E07F2EF02D299ACE01439686
S1133BC00E940319CE0149960E94FC17CE01499622
S1133BD00E94DB17CE010D960E94C21A811108C003
S1133BE0BE016F5F7F4FCE010D960E94241D0CC055
S1133BF019821A821B821C821D821E821F821886D1
S1133C0019861A861B861C866B897C89072E000CF4
S1133C10880B990B0E94D82227E73DE74BE05AE333
S1133C200E94EB236F8F78A389A39AA36D897E8961
S1133C30072E000C880B990B0E94D82227E73DE73A
S1133C404BE05AE30E94EB236BA37CA38DA39EA3BA
S1133C506F89788D072E000C880B990B0E94D8224F
S1133C6027E73DE74BE05AE30E94EB236FA378A7D5
S1133C7089A79AA7F101608171818616970668F475
S1133C806819790980E090E00E94D62220E034E2AD
S1133C9044E759E40E942E2210C0C401861B970BEE
S1133CA0BC016095709580E090E00E94D62220E0EF
S1133CB034E244E759E40E942E2260932001709379
S1133CC021018093220190932301F101808091804E
S1133CD0698D7A8D072E000C880B990B0E94D822CF
S1133CE05B016C0189859A85AB85BC85B058BF930F
S1133CF0AF939F938F938C818F938B818F938A81C2
S1133D008F9389818F9388858F938F818F938E81F1
S1133D108F938D818F936D8D7E8D072E000C880B74
S1133D20990B0E94D8229F938F937F936F936B8DEF
S1133D307C8D072E000C880B990B0E94D8229F9330
S1133D408F937F936F93EFA0F8A409A51AA52BA1D5
S1133D503CA14DA15EA16F8D78A189A19AA10E9479
S1133D60DA070E94FA150FB6F894DEBF0FBECDBF76
S1133D7080913C01882369F110923C0160912C01EF
S1133D8070912D0180912E0190912F010E94A0220B
S1133D90F3016283609128017091290180912A01C5
S1133DA090912B010E94A022F3016383609124016E
S1133DB07091250180912601909127010E94A022F3
S1133DC0F301648348E050E060E070E0C3010E94C6
S1133DD0F51F2998F2CE1F920F920FB60F9211245D
S1133DE08F939F93EF93FF9381E080933C01E8E8E6
S1133DF0F0E080819181875E9E4B91838083FF9167
S1133E00EF919F918F910F900FBE0F901F90189577
S1133E1082E08093B8008FEF8093BB0084E08093AE
S1133E20BC000895CF93DF93EC01ECEBF0E09081BC
S1133E3090FDFDCF6093660188818093670180FDCA
S1133E4013C0623088F0FE013196A8E6B1E06250FA
S1133E50262F30E02E5F3F4FCE01820F931F21911A
S1133E602D93E817F907D9F71092650188EF80932D
S1133E70100185EA8093BC00DF91CF910895AC01D5
S1133E80ECEBF0E0908190FDFDCF8091650180FF27
S1133E9012C0662381F0A7E6B1E0FA016150262F33
S1133EA030E02F5F3F4FCA01820F931F2D91219362
S1133EB0E817F907D9F780916501817008951F9279
S1133EC00F920FB60F9211242F933F938F939F93CA
S1133ED0AF93BF93EF93FF93E091B9008E2F90E0DF
S1133EE0FC013897E135F10508F056C0EC5CFF4F52
S1133EF00C94292110926401E0916401809166017F
S1133F00E81770F481E08E0F80936401F0E0E959C2
S1133F10FE4F80818093BB0085E88093BC0043C042
S1133F208091650181608093650184E98093BC0080
S1133F303AC0E091640181E08E0F80936401809126
S1133F40BB00F0E0E959FE4F80832091640130E02A
S1133F508091660190E001972817390724F485ECD5
S1133F608093BC0020C085E88093BC001CC0809175
S1133F70BB00E0916401F0E0E959FE4F8083809139
S1133F80650181608093650184E98093BC000BC066
S1133F9085EA8093BC0007C08091B900809310012A
S1133FA084E08093BC00FF91EF91BF91AF919F910A
S1133FB08F913F912F910F900FBE0F901F901895E6
S1133FC0E0ECF0E080811082E1ECF0E080EC8083B2
S1133FD086E08093C2008CE090E09093C5008093CB
S1133FE0C4008081886080830895CF92DF92EF922D
S1133FF0FF929C01909177019111FCCF90917701F0
S113400091112BC0411551056105710541F16A01FA
S11340107B01B90181E080937701A6018AE791E0F1
S11340200E94C424C092DE01D092DF01E092E0013C
S1134030F092E101109273011092740110927501D3
S11340401092760180917A018093C600E1ECF0E051
S113405080818062808381E003C080E001C080E0D1
S1134060FF90EF90DF90CF9008951F920F920FB6BC
S11340700F9211242F933F934F935F936F937F93EA
S11340808F939F93AF93BF93CF93DF93EF93FF935C
S1134090C0917801D091790180916F019091700164
S11340A0A0917101B09172012091C600FE01E80F48
S11340B0F91F208380916F0190917001A09171018B
S11340C0B0917201892B8A2B8B2B69F180916F013E
S11340D090917001A0917101B0917201019742E039
S11340E050E06DE171E08C0F9D1F0E94B724892B75
S11340F0D1F080916F0190917001A0917101B09104
S11341007201C80FD91F198280917701833021F47D
S113411081E08093770102C010927701E1ECF0E036
S113412080818F7E808380916F0190917001A09136
S11341307101B09172010196A11DB11D80936F01AF
S113414090937001A0937101B0937201FF91EF916C
S1134150DF91CF91BF91AF919F918F917F916F919B
S11341605F914F913F912F910F900FBE0F901F9031
S113417018951F920F920FB60F9211244F935F93CD
S11341806F937F938F939F93AF93BF93EF93FF931B
S11341908091730190917401A0917501B0917601A1
S11341A00196A11DB11D8093730190937401A09396
S11341B07501B0937601409173015091740160913F
S11341C07501709176018091DE019091DF01A091DB
S11341D0E001B091E101481759076A077B0778F4B9
S11341E08091730190917401A0917501B091760151
S11341F0FC01E658FE4F80818093C60005C0E1ECC7
S1134200F0E080818F7D8083FF91EF91BF91AF912A
S11342109F918F917F916F915F914F910F900FBEFE
S11342200F901F9018951F920F920FB60F921124A2
S11342308F9380917701833021F482E0809377011A
S113424002C0109277018F910F900FBE0F901F90B4
S11342501895EE0FFF1F0590F491E02D0994505826
S1134260BB27AA270E9447210C94A9230E949B23C1
S113427038F00E94A22320F039F49F3F19F426F469
S11342800C945D230EF4E095E7FB0C945723E92F7F
S11342900E94BA2358F3BA17620773078407950775
S11342A020F079F4A6F50C94DC230EF4E0950B2EA3
S11342B0BA2FA02D0B01B90190010C01CA01A00174
S11342C01124FF27591B99F0593F50F4503E68F1CF
S11342D01A16F040A22F232F342F4427585FF3CF10
S11342E0469537952795A795F0405395C9F77EF4E1
S11342F01F16BA0B620B730B840BBAF09150A1F02A
S1134300FF0FBB1F661F771F881FC2F70EC0BA0FAF
S1134310621F731F841F48F4879577956795B79537
S1134320F7959E3F08F0B0CF9395880F08F0992732
S1134330EE0F9795879508959F939F77EEE38937BE
S11343409E0728F4EAE0F1E00E9487230CC00E9453
S113435013239058A2EA2AED3FE049EC5FE30E9460
S113436047210E94A9230F9007FC905808950E94AA
S11343709B2360F080E891E009F49EEF0E94A22361
S113438028F040E851E071F45EEF0CC00C945D231A
S11343900C94DC23E92FE0780E94BA2340F3092E21
S11343A0052AB1F3261737074807590738F00E2EA8
S11343B007F8E02569F0E025E0640AC0EF6307F838
S11343C0009407FADB01B9019D01DC01CA01AD01CA
S11343D0EF930E9445220E94A9230E94FA215F9133
S11343E0552339F02BED3FE049E450FD49EC0C94A2
S11343F030210895DF93DD27B92FBF7740E85FE3CD
S11344001616170648075B0718F4D92F0E94E323F2
S11344109F938F937F936F930E949E24EEE1F1E02C
S11344200E9460230E94A9232F913F914F915F9195
S11344300E94FE23DD2351F09058A2EA2AED3FE0CA
S113444049EC5FE3D0785D270E944721DF910C940B
S1134450A9230E94332308F481E008950E94422294
S11344600C94A9230E94A22358F00E949B2340F09D
S113447029F45F3F29F00C94572351110C94DD2348
S11344800C945D230E94BA2368F39923B1F3552356
S113449091F3951B550BBB27AA2762177307840753
S11344A038F09F5F5F4F220F331F441FAA1FA9F3E9
S11344B035D00E2E3AF0E0E832D091505040E695D7
S11344C0001CCAF72BD0FE2F29D0660F771F881F38
S11344D0BB1F261737074807AB07B0E809F0BB0B2B
S11344E0802DBF01FF2793585F4F3AF09E3F51053F
S11344F078F00C9457230C94DD235F3FE4F3983E4B
S1134500D4F3869577956795B795F7959F5FC9F727
S1134510880F911D9695879597F90895E1E0660FA8
S1134520771F881FBB1F621773078407BA0720F021
S1134530621B730B840BBA0BEE1F88F7E09508958A
S11345400E94A7226894B1110C94DD2308950E945F
S1134550C22388F09F5798F0B92F9927B751B0F02C
S1134560E1F0660F771F881F991F1AF0BA95C9F7F3
S113457014C0B13091F00E94DC23B1E008950C9492
S1134580DC23672F782F8827B85F39F0B93FCCF345
S1134590869577956795B395D9F73EF49095809570
S11345A0709561957F4F8F4F9F4F0895E89409C090
S11345B097FB3EF490958095709561957F4F8F4F52
S11345C09F4F9923A9F0F92F96E9BB279395F69568
S11345D0879577956795B795F111F8CFFAF4BB0FE6
S11345E011F460FF1BC06F5F7F4F8F4F9F4F16C04A
S11345F0882311F096E911C0772321F09EE8872FD4
S1134600762F05C0662371F096E8862F70E060E08F
S11346102AF09A95660F771F881FDAF7880F969508
S1134620879597F90895DF93CF931F930F938B0189
S1134630EC01EBE4F1E00E9460230E94A9239801BD
S1134640AE018B01EC0160E070E080E89FE30E9422
S11346502F210E945E249801AE010F911F91CF91EA
S1134660DF910C94FE23990F0008550FAA0BE0E884
S1134670FEEF16161706E807F907C0F01216130620
S1134680E407F50798F0621B730B840B950B39F460
S11346900A2661F0232B242B252B21F408950A26C6
S11346A009F4A140A6958FEF811D811D089597F906
S11346B09F6780E870E060E008959FEF80EC0895C4
S11346C0DF93CF931F930F93FF92EF92DF927B01BF
S11346D08C01689406C0DA2EEF010E94FE23FE01CD
S11346E0E894A5912591359145915591A6F3EF0153
S11346F00E944721FE019701A801DA9469F7DF902F
S1134700EF90FF900F911F91CF91DF9108959F93A8
S11347108F937F936F93FF93EF939B01AC010E9460
S1134720EB23EF91FF910E9460232F913F914F91D2
S11347305F910C94EB2300240A94161617061806AE
S11347400906089500240A94121613061406050691
S11347500895092E0394000C11F4882352F0BB0F22
S113476040F4BF2B11F460FF04C06F5F7F4F8F4F85
S11347709F4F089557FD9058440F551F59F05F3FC0
S113478071F04795880F97FB991F61F09F3F79F06F
S113479087950895121613061406551FF2CF4695F1
S11347A0F1DF08C0161617061806991FF1CF869573
S11347B07105610508940895E894BB276627772757
S11347C0CB0197F908959B01AC0160E070E080E8AB
S11347D09FE30C942E220E94FE230C94A9230E9492
S11347E09B2338F00E94A22320F0952311F00C940F
S11347F057230C945D2311240C94DD230E94BA23C7
S113480070F3959FC1F3950F50E0551F629FF0011F
S1134810729FBB27F00DB11D639FAA27F00DB11D38
S1134820AA1F649F6627B00DA11D661F829F2227C1
S1134830B00DA11D621F739FB00DA11D621F839F48
S1134840A00D611D221F749F3327A00D611D231F1E
S1134850849F600D211D822F762F6A2F11249F576C
S113486050409AF0F1F088234AF0EE0FFF1FBB1F6F
S1134870661F771F881F91505040A9F79E3F51052E
S113488080F00C9457230C94DD235F3FE4F3983EAF
S1134890D4F3869577956795B795F795E7959F5FD8
S11348A0C1F7FE2B880F911D9695879597F908956A
S11348B019F416F40C945D230C94A2240E94C223D0
S11348C0B8F39923C9F3B6F39F57550B87FF0E949A
S11348D0B0240024A0E640EA9001805856959795AC
S11348E028F4805C660F771F881F20F0261737078F
S11348F0480730F4621B730B840B202931294A2B9F
S1134900A69517940794202531254A2758F7660F52
S1134910771F881F20F026173707480730F4620BEB
S1134920730B840B200D311D411DA09581F7B90136
S1134930842F9158880F9695879508959B01AC0113
S11349400C94EB239F3F31F0915020F48795779599
S11349506795B795880F911D9695879597F9089552
S113496091505040660F771F881FD2F70895FB01BE
S1134970DC0104C08D910190801921F44150504014
S1134980C8F7881B990B0895FB01DC0102C0019054
S11149900D9241505040D8F70895F894FFCF8F
S113499E0000803FCDCCCC3DFD06000000000000A1
S11349AEF8008000800080FF7FFF7FFF7F0D0A00EC
S9030000FC
