S0170000494D555F48656164747261636B65722E7372656365
S11300000C9437010C9454010C9454010C94540135
S11300100C9454010C9454010C9454010C94540108
S11300200C9454010C9454010C9454010C945401F8
S11300300C9454010C9454010C9454010C945401E8
S11300400C9454010C9454010C9468190C94EC19FC
S11300500C944E1A0C9454010C9454010C945401B5
S11300600C9490180C945401AB18FD18FD18FD184D
S1130070FD18FD18FD18FD18AB18FD18FD18FD1826
S1130080FD18FD18FD18FD18AD18FD18FD18FD1814
S1130090FD18FD18FD18FD18FD18FD18FD18FD18B4
S11300A0FD18FD18FD18FD18AD18FD18FD18FD18F4
S11300B0FD18FD18FD18FD18FD18FD18FD18FD1894
S11300C0FD18FD18FD18FD18F918FD18FD18FD1888
S11300D0FD18FD18FD18FD18D618FD18FD18FD189B
S11300E0FD18FD18FD18FD18FD18FD18FD18FD1864
S11300F0FD18FD18FD18FD18CA18FD18FD18FD1887
S1130100FD18FD18FD18FD18E818036EDB363D9A3E
S11301109999993DABAAAA2A3E000000803F084A5B
S1130120D73B3BCE016E84BCBFFDC12F3D6C743107
S11301309ABD56833DDA3D00C77F11BED9E4BB4C5E
S11301403E916BAAAABE000000803F072C7AA5BA94
S11301506CC590DA3B9365FC8BBC53F810FD3C56A0
S113016092834DBD879D3AB63DCBC9BF5BBE73DA62
S11301700FC93F0000407A10F35A00A0724E1809CC
S11301800010A5D4E80000E87648170000E40B54FA
S1130190020000CA9A3B000000E1F50500008096C9
S11301A09800000040420F000000A08601000000FB
S11301B0102700000000E8030000000064000000B5
S11301C000000A00000000000100000000002C767E
S11301D0D888DC674F0823DFC1DFAE59E1B1B79699
S11301E0E5E3E453C63AE651997696E8E6C28426F6
S11301F0EB898C9B62ED407C6FFCEFBC9C9F40F2D2
S1130200BAA56FA5F490055A2AF75C936B6CF9674D
S11302106DC11BFCE0E40D47FEF520E6B500D0ED12
S1130220902E0300943577050080841E080000207A
S11302304E0A000000C80C333333330F986E128318
S11302401141EF8D2114893BE65516CFFEE6DB18EC
S1130250D1844B381BF77C1D901DA4BBE4242032B1
S113026084725E228100C9F124ECA1E53D271124AA
S11302701FBECFEFD8E0DEBFCDBF13E0A0E0B1E0FA
S1130280E8E1F6E402C005900D92A033B107D9F776
S113029023E0A0E3B3E001C01D92A939B207E1F75E
S11302A00E948F130C940A230C940000FC0180E03C
S11302B090E0A0E8BFE380839183A283B383148298
S11302C015821682178280879187A287B387148646
S11302D0158616861786108A118A128A138A148A3A
S11302E0158A168A178A108E118E128E138E148E0A
S11302F0158E168E178E10A211A212A213A214AA82
S113030080E090E0A0E0BBE384A395A3A6A3B7A3F9
S113031008958F929F92AF92BF92CF92DF92EF9205
S1130320FF926B017C0120E030E040E05FE30E943B
S1130330F51C4B015C01D701C601B595A7959795AE
S113034087950F2EFFEDCF2EF9E5DF2EF7E3EF2E85
S1130350FFE5FF2EF02DC81AD90AEA0AFB0AA70105
S11303609601C501B4010E94F51CA70196010E94E3
S1130370F51C9B01AC0160E070E080EC9FE30E94FF
S11303806A1AA70196010E94F51C6B017C019B016E
S1130390AC01C501B4010E94F51CA70196010E949D
S11303A0F51C9B01AC0160E070E080EC9FE30E94CF
S11303B06A1AA70196010E94F51CFF90EF90DF9046
S11303C0CF90BF90AF909F908F9008952F923F92BF
S11303D04F925F926F927F928F929F92AF92BF9251
S11303E0CF92DF92EF92FF920F931F93CF93DF93FD
S11303F0CDB7DEB7A4970FB6F894DEBF0FBECDBF5E
S11304001C01CB01BA012801390129E33AEF4EE876
S11304105CE30E94F51C69877A878B879C8729E3B4
S11304203AEF4EE85CE3C301B2010E94F51C6D870C
S11304307E878F87988B29E33AEF4EE85CE3C70108
S1130440B6010E94F51C698B7A8B8B8B9C8B20E008
S113045030E0A901C501B4010E94641B811119C0D7
S113046020E030E0A90169AD7AAD8BAD9CAD0E946E
S1130470641B81110EC020E030E0A90121966CAD0F
S11304807DAD8EAD9FAD21970E94641B882309F436
S1130490FEC1A5019401C501B4010E94F51C6B01C4
S11304A07C0129AD3AAD4BAD5CADCA01B9010E94E6
S11304B0F51C9B01AC01C701B6010E946B1A6B01CC
S11304C07C0121962CAD3DAD4EAD5FAD2197CA01A7
S11304D0B9010E94F51C9B01AC01C701B6010E9441
S11304E06B1A0E9489016B017C019B01AC01C5015F
S11304F0B4010E94F51C6D8B7E8B8F8B988FA701A6
S1130500960169AD7AAD8BAD9CAD0E94F51C6D8FE3
S11305107E8F8F8F98A3A701960121966CAD7DAD38
S11305208EAD9FAD21970E94F51C6D837E838F83D2
S11305309887D1011C968D909D90AD90BC901F978B
S113054054964D905D906D907C9057971896CD90F1
S1130550DD90ED90FC901B9750968D919D910D90A0
S1130560BC91A02D89839A83AB83BC83A3019201A0
S1130570C501B4010E94F51C698F7A8F8B8F9C8F03
S113058029813A814B815C81C701B6010E94F51C27
S11305909B01AC01698D7A8D8B8D9C8D0E946A1AAA
S11305A0698F7A8F8B8F9C8FA7019601C501B40147
S11305B00E94F51C4B015C0129813A814B815C81CD
S11305C0C301B2010E94F51C9B01AC01C501B40139
S11305D00E946B1A69837A838B839C83A70196019B
S11305E0C701B6010E94F51C20E030E040E05FE363
S11305F00E946A1A6B017C01A3019201C301B2013A
S11306000E94F51C9B01AC01C701B6010E946B1A44
S11306106B017C019B01AC016D8D7E8D8F8D98A14A
S11306200E94F51C4B015C0129813A814B815C815C
S11306306D817E818F8198850E94F51C9B01AC01A0
S1130640C501B4010E946A1A69A37AA38BA39CA36F
S1130650298D3A8D4B8D5C8D6D817E818F8198853E
S11306600E94F51C4B015C01A70196016D897E89EE
S11306708F89988D0E94F51C9B01AC01C501B401C2
S11306800E946A1A6D837E838F83988729813A81B9
S11306904B815C816D897E898F89988D0E94F51CC0
S11306A06B017C01298D3A8D4B8D5C8D6D8D7E8D1A
S11306B08F8D98A10E94F51C9B01AC01C701B60166
S11306C00E946A1A69837A838B839C83F101C480B4
S11306D0D580E680F78020E030E0A901C701B601AB
S11306E00E94E81C18160CF084C0D10194968D90D9
S11306F09D90AD90BC909797A701960169A17AA1AE
S11307008BA19CA10E94F51CA50194010E94F51CDB
S1130710F101208D318D428D538D0E946B1A6D8BAA
S11307207E8B8F8B988FD10158966D937D938D938B
S11307309C935B97A70196016D817E818F8198853B
S11307400E94F51CA50194010E94F51CF101248D61
S1130750358D468D578D0E946B1A2B013C01D101BA
S11307605C966D937D938D939C935F97A7019601FF
S113077069817A818B819C810E94F51CA501940179
S11307800E94F51CF10120A131A142A153A10E94B4
S11307906B1A6B017C01D10190966D937D938D93BF
S11307A09C9393972D893E894F89588D69857A85C5
S11307B08B859C850E946B1A69877A878B879C87B7
S11307C0A30192016D857E858F8598890E946B1A9D
S11307D06D877E878F87988BA701960169897A89AF
S11307E08B899C890E946B1A698B7A8B8B8B9C8B6F
S11307F00DC0F101108E118E128E138E148E158E73
S1130800168E178E10A211A212A213A2D101CD909E
S1130810DD90ED90FC90A701960169A17AA18BA1CE
S11308209CA10E94F51C9B01AC0169857A858B858E
S11308309C850E946B1A69877A878B879C87A7019E
S113084096016D817E818F8198850E94F51C9B01A4
S1130850AC016D857E858F8598890E946B1A6D87A2
S11308607E878F87988BA701960169817A818B8116
S11308709C810E94F51C9B01AC0169897A898B8952
S11308809C890E946B1A698B7A8B8B8B9C8B20E0E2
S113089030E040E05FE3F10164A175A186A197A176
S11308A00E94F51C6B017C019B01AC0169857A8572
S11308B08B859C850E94F51C69837A838B839C833A
S11308C0A70196016D857E858F8598890E94F51C08
S11308D06D837E838F839887A701960169897A89BE
S11308E08B899C890E94F51C698B7A8B8B8B9C8BE2
S11308F0D10118968D919D910D90BC91A02D898761
S11309009A87AB87BC87F101C484D584E684F784D5
S113091080899189A289B3898D879E87AF87B88B97
S11309204488558866887788C701B601905829811C
S11309303A814B815C810E94F51C4B015C012D8541
S11309403E854F8558896D817E818F8198850E946F
S1130950F51C9B01AC01C501B4010E946A1A4B014C
S11309605C01A301920169897A898B899C890E941F
S1130970F51C9B01AC01C501B4010E946A1A2985CA
S11309803A854B855C850E946B1A6D8B7E8B8F8BB1
S1130990988F29853A854B855C8569817A818B811D
S11309A09C810E94F51C4B015C012D853E854F8581
S11309B0588969897A898B899C890E94F51C9B01D5
S11309C0AC01C501B4010E946B1A4B015C01A30187
S11309D092016D817E818F8198850E94F51C9B0117
S11309E0AC01C501B4010E946A1AA70196010E94D4
S11309F06B1A6D8F7E8F8F8F98A329853A854B85CF
S1130A005C856D817E818F8198850E94F51C4B01E8
S1130A105C01A701960169897A898B899C890E9466
S1130A20F51C9B01AC01C501B4010E946A1A4B017B
S1130A305C01A301920169817A818B819C810E946E
S1130A40F51C9B01AC01C501B4010E946B1A2D85F4
S1130A503E854F8558890E946B1A698F7A8F8B8FD8
S1130A609C8F29853A854B855C8569897A898B8930
S1130A709C890E94F51C4B015C01A70196016D81C4
S1130A807E818F8198850E94F51C9B01AC01C50174
S1130A90B4010E946B1A6B017C012D853E854F8544
S1130AA0588969817A818B819C810E94F51C9B0104
S1130AB0AC01C701B6010E946A1AA30192010E9407
S1130AC06B1A4B015C012D893E894F89588DCA01EF
S1130AD0B9010E94F51C6B017C012D8D3E8D4F8D5B
S1130AE058A1CA01B9010E94F51C9B01AC01C701C0
S1130AF0B6010E946B1A6B017C01298D3A8D4B8DD6
S1130B005C8DCA01B9010E94F51C9B01AC01C701AF
S1130B10B6010E946B1A6B017C01A5019401C50109
S1130B20B4010E94F51C9B01AC01C701B6010E94EF
S1130B306B1A0E9489016B017C019B01AC016D89D8
S1130B407E898F89988D0E94F51CD10118966D932A
S1130B507D938D939C931B97A70196016D8D7E8D3C
S1130B608F8D98A10E94F51CF10164877587868793
S1130B709787A7019601698D7A8D8B8D9C8D0E9434
S1130B80F51CD10150966D937D938D939C9353974F
S1130B90A7019601C501B4010E94F51CF101648B03
S1130BA0758B868B978B14AAA4960FB6F894DEBF28
S1130BB00FBECDBFDF91CF911F910F91FF90EF90AA
S1130BC0DF90CF90BF90AF909F908F907F906F9069
S1130BD05F904F903F902F9008952F923F924F92A5
S1130BE05F926F927F928F929F92AF92BF92CF92B9
S1130BF0DF92EF92FF920F931F93CF93DF93CDB7C2
S1130C00DEB7C455D1090FB6F894DEBF0FBECDBF11
S1130C101C01498B5A8B6B8B7C8B0D8B1E8B2F8B02
S1130C20388FAA961FADAA97AB960FADAB97AC962B
S1130C306FACAC97AD967FACAD97AE964FACAE971C
S1130C40AF965FACAF97E0968FADE0978D83E1965A
S1130C509FADE1979D8720E030E0A901E5966CAD5A
S1130C607DAD8EAD9FADE5970E94641B811135C0AB
S1130C7020E030E0A901E9966CAD7DAD8EAD9FAD6D
S1130C80E9970E94641B811128C020E030E0A9018B
S1130C90ED966CAD7DAD8EAD9FADED970E94641B5E
S1130CA081111BC0AD85AF93BD81BF935F924F92FD
S1130CB07F926F920F931F930D891E892F89388D10
S1130CC049895A896B897C89C1010E94E6010FB662
S1130CD0F894DEBF0FBECDBF67C629E33AEF4EE8F6
S1130CE05CE369897A898B899C890E94F51C698BEC
S1130CF07A8B8B8B9C8B29E33AEF4EE85CE36D890E
S1130D007E898F89988D0E94F51C6D8B7E8B8F8BCD
S1130D10988F29E33AEF4EE85CE3C701B6010E94DD
S1130D20F51C69A37AA38BA39CA320E030E0A9015E
S1130D30C501B4010E94641B811119C020E030E098
S1130D40A901612F702F862D972D0E94641B81119C
S1130D500EC020E030E0A901FD81ED85642D752DE4
S1130D608F2F9E2F0E94641B882309F490C4A50131
S1130D709401C501B4010E94F51C6B017C01212F73
S1130D80302F462D572D612F702F862D972D0E94C1
S1130D90F51C9B01AC01C701B6010E946B1A6B01E3
S1130DA07C019D818D85242D352D492F582F642D4F
S1130DB0752D892F952F0E94F51C9B01AC01C7014D
S1130DC0B6010E946B1A0E9489016B017C019B0190
S1130DD0AC01C501B4010E94F51C69AB7AAB8BABC5
S1130DE09CABA7019601612F702F862D972D0E9431
S1130DF0F51C6DAB7EAB8FAB98AFA7019601FD815F
S1130E00ED85642D752D8F2F9E2F0E94F51C69AFE3
S1130E107AAF8BAF9CAFE5962CAD3DAD4EAD5FADDB
S1130E20E597CA01B9010E94F51C6B017C01E996A2
S1130E302CAD3DAD4EAD5FADE997CA01B9010E943D
S1130E40F51C9B01AC01C701B6010E946B1A6B0132
S1130E507C01ED962CAD3DAD4EAD5FADED97CA0175
S1130E60B9010E94F51C9B01AC01C701B6010E94A7
S1130E706B1A0E9489016B017C019B01AC01E59610
S1130E806CAD7DAD8EAD9FADE5970E94F51C6D8375
S1130E907E838F839887A7019601E9966CAD7DAD1B
S1130EA08EAD9FADE9970E94F51C69877A878B8781
S1130EB09C87A7019601ED966CAD7DAD8EAD9FAD7F
S1130EC0ED970E94F51C6D877E878F87988BD101E3
S1130ED018968D919D910D90BC91A02D89839A8334
S1130EE0AB83BC83F101C484D584E684F784A70171
S1130EF09601BC01CD010E94F51C6DA37EA38FA3B6
S1130F0098A7D10150964D905D906D907C90539729
S1130F10A301920169817A818B819C810E94F51CD5
S1130F20698F7A8F8B8F9C8FF10184889588A6882E
S1130F30B788A501940169817A818B819C810E9483
S1130F40F51C6D8F7E8F8F8F98A3A3019201C7012B
S1130F50B6010E94F51C69A77AA78BA79CA7A501D7
S1130F609401C701B6010E94F51C6DA77EA78FA747
S1130F7098ABA3019201C301B2010E94F51C219612
S1130F806CAF7DAF8EAF9FAF2197A5019401C301D4
S1130F90B2010E94F51C25966CAF7DAF8EAF9FAF5A
S1130FA02597A5019401C501B4010E94F51C2B01EC
S1130FB03C0121962CAD3DAD4EAD5FAD219760E077
S1130FC070E080E09FE30E946A1AA30192010E94EC
S1130FD06A1A29966CAF7DAF8EAF9FAF29972D8D7E
S1130FE03E8D4F8D58A169A57AA58BA59CA50E941D
S1130FF06A1A2D966CAF7DAF8EAF9FAF2D972DA53E
S11310003EA54FA558A9698D7A8D8B8D9C8D0E9424
S11310106B1A61966CAF7DAF8EAF9FAF61972996C7
S11310202CAD3DAD4EAD5FAD29976D817E818F8135
S113103098850E94F51C4B015C012D962CAD3DADAD
S11310404EAD5FAD2D9769857A858B859C850E9411
S1131050F51C9B01AC01C501B4010E946B1A4B0144
S11310605C0161962CAD3DAD4EAD5FAD61976D8574
S11310707E858F8598890E94F51C9B01AC01C50172
S1131080B4010E946B1A9B01AC010E946B1A4B01C4
S11310905C01A7019601C701B6010E94F51C9B01E2
S11310A0AC0160E070E080E09FE30E946A1A6596FC
S11310B06CAF7DAF8EAF9FAF659729A53AA54BA5C1
S11310C05CA56D8D7E8D8F8D98A10E946B1A2D81EC
S11310D03E814F8158850E94F51C6B017C01A30160
S11310E0920165966CAD7DAD8EAD9FAD65970E9406
S11310F06A1A29853A854B855C850E94F51C9B01FB
S1131100AC01C701B6010E946B1A6B017C012DA1D1
S11311103EA14FA158A525966CAD7DAD8EAD9FAD7A
S113112025970E946A1A2D853E854F8558890E940D
S1131130F51C9B01AC01C701B6010E946B1A9B010F
S1131140AC010E946B1A6B017C01A5019401C501DD
S1131150B4010E94F51C6D8F7E8F8F8F98A3A5011B
S11311609401C501B4010E94F51C4B015C01A70167
S11311709601C701B6010E94F51C9B01AC01C50193
S1131180B4010E946B1A0E94681D4B015C01298DF9
S11311903A8D4B8D5C8D6DA57EA58FA598A90E9477
S11311A06A1A698F7A8F8B8F9C8F25962CAD3DADF3
S11311B04EAD5FAD25976DA17EA18FA198A50E942C
S11311C06B1A6DA37EA38FA398A721962CAD3DAD7A
S11311D04EAD5FAD219765966CAD7DAD8EAD9FAD87
S11311E065970E946A1A6D8F7E8F8F8F98A3298DC1
S11311F03A8D4B8D5C8D6D817E818F8198850E94A7
S1131200F51C6B017C012DA13EA14FA158A5698558
S11312107A858B859C850E94F51C9B01AC01C701D6
S1131220B6010E946B1A6B017C012D8D3E8D4F8D92
S113123058A16D857E858F8598890E94F51C9B0138
S1131240AC01C701B6010E946B1A9B01AC010E945C
S11312506B1A6B017C0129813A814B815C81CA0143
S1131260B9010E94F51C20E030E040E05FE30E94F9
S11312706A1AA30192010E946B1A69837A838B8391
S11312809C83A501940129966CAD7DAD8EAD9FAD77
S113129029970E94F51C2B013C01A7019601698D39
S11312A07A8D8B8D9C8D0E94F51C9B01AC01C30132
S11312B0B2010E946B1A69A77AA78BA79CA7A50104
S11312C094012D966CAD7DAD8EAD9FAD2D970E9492
S11312D0F51C2B013C01A70196016DA17EA18FA1F4
S11312E098A50E94F51C9B01AC01C301B2010E94A8
S11312F06B1A6DA77EA78FA798ABA5019401619681
S11313006CAD7DAD8EAD9FAD61970E94F51C2B0138
S11313103C01A70196016D8D7E8D8F8D98A10E9451
S1131320F51C9B01AC01C301B2010E946B1A6B0155
S11313307C0129813A814B815C816DA97EA98FA9A9
S113134098AD0E94F51C4B015C012DA13EA14FA15B
S113135058A569AD7AAD8BAD9CAD0E94F51C9B017F
S1131360AC01C501B4010E946A1A4B015C01A701DA
S1131370960169857A858B859C850E94F51C2B01D5
S11313803C012DA53EA54FA558A96D857E858F8569
S113139098890E94F51C9B01AC01C301B2010E9413
S11313A06A1A9B01AC01C501B4010E946B1A6D8FCE
S11313B07E8F8F8F98A3298D3A8D4B8D5C8D69AD6F
S11313C07AAD8BAD9CAD0E94F51C4B015C0129816B
S11313D03A814B815C8169A97AA98BA99CA90E9455
S11313E0F51C9B01AC01C501B4010E946A1A4B01B2
S11313F05C0129A53AA54BA55CA56D857E858F85E5
S113140098890E94F51C2B013C01A70196016D816E
S11314107E818F8198850E94F51C9B01AC01C301DC
S1131420B2010E946A1A9B01AC01C501B4010E9479
S11314306B1A69837A838B839C832DA13EA14FA170
S113144058A569A97AA98BA99CA90E94F51C6B01CE
S11314507C01298D3A8D4B8D5C8D6DA97EA98FA958
S113146098AD0E94F51C9B01AC01C701B6010E9416
S11314706A1A6B017C012DA53EA54FA558A96D8163
S11314807E818F8198850E94F51C4B015C0129A502
S11314903AA54BA55CA569857A858B859C850E94B8
S11314A0F51C9B01AC01C501B4010E946A1A9B01A1
S11314B0AC01C701B6010E946B1A6D837E838F83D2
S11314C09887D1011496CD90DD90ED90FC901797FC
S11314D020E030E0A901C701B6010E94E81C1816FB
S11314E00CF082C0F10184A095A0A6A0B7A0A7012A
S11314F096016D8D7E8D8F8D98A10E94F51CA5019E
S113150094010E94F51CD10158962D913D914D9165
S11315105C915B970E946B1A69877A878B879C879B
S1131520F101608F718F828F938FA701960169817A
S11315307A818B819C810E94F51CA50194010E94F3
S1131540F51CD1015C962D913D914D915C915F9775
S11315500E946B1A2B013C01F101648F758F868FF9
S1131560978FA70196016D817E818F8198850E9456
S1131570F51CA50194010E94F51CD10190962D91B2
S11315803D914D915C9193970E946B1A6B017C0184
S1131590F10160A371A382A393A329853A854B85A6
S11315A05C8569897A898B899C890E946B1A698B0D
S11315B07A8B8B8B9C8BA30192016D897E898F8999
S11315C0988D0E946B1A6D8B7E8B8F8B988FA701E1
S11315D0960169A17AA18BA19CA10E946B1A69A3AF
S11315E07AA38BA39CA312C0D10158961D921D927D
S11315F01D921C925B97F101148E158E168E178E18
S113160090961D921D921D921C929397F101C08099
S1131610D180E280F380A70196016D8D7E8D8F8D40
S113162098A10E94F51C9B01AC0169897A898B8978
S11316309C890E946B1A698B7A8B8B8B9C8BA7017C
S1131640960169817A818B819C810E94F51C9B01A2
S1131650AC016D897E898F89988D0E946B1A6D8B80
S11316607E8B8F8B988FA70196016D817E818F81F0
S113167098850E94F51C9B01AC0169A17AA18BA1FC
S11316809CA10E946B1A69A37AA38BA39CA320E05C
S113169030E040E05FE3D10194966D917D918D91AE
S11316A09C9197970E94F51C6B017C019B01AC01F6
S11316B069897A898B899C890E94F51C69877A8754
S11316C08B879C87A70196016D897E898F89988D68
S11316D00E94F51C6D877E878F87988BA7019601E2
S11316E069A17AA18BA19CA10E94F51C698B7A8BBC
S11316F08B8B9C8BD10118968D919D910D90BC91F3
S1131700A02D89839A83AB83BC83F101C484D584DF
S1131710E684F78480899189A289B3898D839E8325
S1131720AF83B8874488558866887788C701B6012F
S1131730905829853A854B855C850E94F51C4B01A0
S11317405C012D813E814F8158856D857E858F8515
S113175098890E94F51C9B01AC01C501B4010E944B
S11317606A1A4B015C01A301920169897A898B8908
S11317709C890E94F51C9B01AC01C501B4010E9427
S11317806A1A29813A814B815C810E946B1A6D8BA4
S11317907E8B8F8B988F29813A814B815C816985FF
S11317A07A858B859C850E94F51C4B015C012D81FB
S11317B03E814F81588569897A898B899C890E94E9
S11317C0F51C9B01AC01C501B4010E946B1A4B01CD
S11317D05C01A30192016D857E858F8598890E94A5
S11317E0F51C9B01AC01C501B4010E946A1AA70152
S11317F096010E946B1A69A37AA38BA39CA32981E7
S11318003A814B815C816D857E858F8598890E94A4
S1131810F51C4B015C01A701960169897A898B89C2
S11318209C890E94F51C9B01AC01C501B4010E9476
S11318306A1A4B015C01A301920169857A858B8543
S11318409C850E94F51C9B01AC01C501B4010E945A
S11318506B1A2D813E814F8158850E946B1A4B0172
S11318605C0129813A814B815C8169897A898B8900
S11318709C890E94F51C69837A838B839C83A701CE
S113188096016D857E858F8598890E94F51C9B0144
S1131890AC0169817A818B819C810E946B1A6B01F6
S11318A07C012D813E814F81588569857A858B85A0
S11318B09C850E94F51C9B01AC01C701B6010E94E6
S11318C06A1AA30192010E946B1A2B013C012D8913
S11318D03E894F89588DCA01B9010E94F51C6B01DC
S11318E07C0129A13AA14BA15CA1CA01B9010E94C2
S11318F0F51C9B01AC01C701B6010E946B1A6B0178
S11319007C01A5019401C501B4010E94F51C9B0151
S1131910AC01C701B6010E946B1A6B017C01A301E3
S11319209201C301B2010E94F51C9B01AC01C701E5
S1131930B6010E946B1A0E9489016B017C019B0114
S1131940AC016D897E898F89988D0E94F51CD10127
S113195018966D937D938D939C931B97A701960185
S113196069A17AA18BA19CA10E94F51CF101648755
S1131970758786879787A7019601C501B4010E94E0
S1131980F51CD10150966D937D938D939C93539741
S1131990A7019601C301B2010E94F51CF101648BF9
S11319A0758B868B978B14AACC5ADF4F0FB6F8949D
S11319B0DEBF0FBECDBFDF91CF911F910F91FF907E
S11319C0EF90DF90CF90BF90AF909F908F907F90DB
S11319D06F905F904F903F902F9008954F925F9239
S11319E06F927F928F929F92AF92BF92CF92DF922B
S11319F0EF92FF92CF93DF93CDB7DEB762970FB626
S1131A00F894DEBF0FBECDBF9A8B898BDC011C9688
S1131A108D909D90AD90BC901F9750964D905D9089
S1131A206D907C905397A3019201C301B2010E946F
S1131A30F51C69837A838B839C83A989BA89189658
S1131A408D919D910D90BC91A02D8D839E83AF832C
S1131A50B887E989FA89C488D588E688F788A50112
S1131A609401C501B4010E94F51C9B01AC0160E026
S1131A7070E080E09FE30E946A1A29813A814B81D9
S1131A805C810E946A1A69877A878B879C872D817B
S1131A903E814F815885C501B4010E94F51C6D87B4
S1131AA07E878F87988BA7019601C301B2010E949C
S1131AB0F51C9B01AC016D857E858F8598890E94FC
S1131AC06B1A29853A854B855C850E94051BA9897B
S1131AD0BA8998966D937D938D939C939B97A70158
S1131AE09601C501B4010E94F51C69877A878B872A
S1131AF09C872D813E814F815885C301B2010E948C
S1131B00F51C9B01AC0169857A858B859C850E94B7
S1131B106A1A20E030E040E050EC0E94F51C0E947C
S1131B20D71AE989FA8964A775A786A797A729818F
S1131B303A814B815C8160E070E080E09FE30E9429
S1131B406A1A69837A838B839C83A7019601C701F0
S1131B50B6010E94F51C9B01AC0169817A818B81DD
S1131B609C810E946A1A69837A838B839C83A30174
S1131B709201C501B4010E94F51C4B015C01A7014F
S1131B8096016D817E818F8198850E94F51C9B0151
S1131B90AC01C501B4010E946B1A29813A814B81C1
S1131BA05C810E94051BA989BA89D0966D937D93A7
S1131BB08D939C93D39781E0D4968C9362960FB6C1
S1131BC0F894DEBF0FBECDBFDF91CF91FF90EF90B1
S1131BD0DF90CF90BF90AF909F908F907F906F9049
S1131BE05F904F900895FF920F931F93CF93DF93CD
S1131BF000D01F92CDB7DEB70F2EF0EDFF2EF02DE3
S1131C00F9828BE68A8381E08B8363E08E010F5F28
S1131C101F4FC8010E94431883E0F80111928A956E
S1131C20E9F7F98287E38A8382E08B8363E0C80162
S1131C300E9443180F900F900F90DF91CF911F9146
S1131C400F91FF9008950F931F93CF93DF93CDB718
S1131C50DEB72A970FB6F894DEBF0FBECDBF8C0156
S1131C6080ED89838BE38A8381ED8C8362E0CE01EE
S1131C7001960E94431867E0CE0104960E9443181F
S1131C8067E0CE0104960E9470188D8190E0982F31
S1131C9088272E81822BF801918380838F8190E0A5
S1131CA0982F88272885822B93838283898590E0C7
S1131CB0982F88272A85822B9583848380E02A960F
S1131CC00FB6F894DEBF0FBECDBFDF91CF911F9149
S1131CD00F910895CF93DF9300D01F92CDB7DEB755
S1131CE080ED89838CE18A8388E08B8363E0CE0175
S1131CF001960E94431880E00F900F900F90DF919F
S1131D00CF9108950F931F93CF93DF93CDB7DEB791
S1131D1029970FB6F894DEBF0FBECDBF8C0180EDBE
S1131D20898383E48A8381ED8B8362E0CE0101960B
S1131D300E94431867E0CE0103960E94431867E0AF
S1131D40CE0103960E9470188C8190E0982F88270A
S1131D502D81822BF801918380838E8190E0982FCE
S1131D6088272F81822B93838283888590E0982F04
S1131D7088272985822B9583848380E029960FB652
S1131D80F894DEBF0FBECDBFDF91CF911F910F91AD
S1131D900895CF93DF93CDB7DEB728970FB6F894A5
S1131DA0DEBF0FBECDBFFC014081518151954195ED
S1131DB05109518340832281338131952195310921
S1131DC033832283848195819195819591099583AB
S1131DD0848351813381958160ED698363E16A83F2
S1131DE05B834C833D832E839F83888768E0CE0189
S1131DF001960E94431880E028960FB6F894DEBF3F
S1131E000FBECDBFDF91CF9108953F924F925F9265
S1131E106F927F928F929F92AF92BF92CF92DF92F6
S1131E20EF92FF920F931F93CF93DF93CDB7DEB75B
S1131E302F970FB6F894DEBF0FBECDBF80ED898318
S1131E408BE18A8380E18B8363E0CE0101960E945B
S1131E50431800E014E0CE0104960E94820E8C81A7
S1131E609D81092E000CAA0BBB0B480E591E6A1E3D
S1131E707B1E8E819F81092E000CAA0BBB0B880E42
S1131E80991EAA1EBB1E88859985092E000CAA0BD3
S1131E90BB0BC80ED91EEA1EFB1E89EF90E001970A
S1131EA0F1F700C0000001501109A9F67F926F926A
S1131EB05F924F9289E791E09F938F9300E313E041
S1131EC01F930F930E94EE1DF80101900020E9F783
S1131ED03197AF014053534060E070E0C8010E9465
S1131EE026190F2EF2E33F2EF02DF801232D119227
S1131EF02A95E9F7BF92AF929F928F9286E891E07C
S1131F009F938F931F930F930E94EE1DF8010190EE
S1131F100020E9F73197AF014053534060E070E08F
S1131F20C8010E942619F801232D11922A95E9F778
S1131F30FF92EF92DF92CF9283E991E09F938F9388
S1131F401F930F930E94EE1DF80101900020E9F702
S1131F503197AF014053534060E070E0C8010E94E4
S1131F602619F80111923A94E9F7D301C2010FB688
S1131F70F894DEBF0FBECDBF772024F481509C4F70
S1131F80AF4FBF4F072E7AE0B595A79597958795E4
S1131F907A95D1F7702D8A879B87B501A401BB2060
S1131FA024F441505C4F6F4F7F4F032E3AE07595F8
S1131FB06795579547953A95D1F7302D5D874C87AE
S1131FC0B701A601FF2024F441505C4F6F4F7F4FAF
S1131FD0032E3AE075956795579547953A95D1F74D
S1131FE0302D5F874E879F938F930F2EF1E6CF2E70
S1131FF0F1E0DF2EF02DDF92CF9200E313E01F9388
S11320000F930E94EE1DF80101900020E9F731972B
S1132010AF014053534060E070E0C8010E942619AC
S11320200F2EF2E3FF2EF02DF8012F2D11922A9599
S1132030E9F78D858F938C858F93DF92CF921F93D1
S11320400F930E94EE1DF80101900020E9F73197EB
S1132050AF014053534060E070E0C8010E9426196C
S1132060F8012F2D11922A95E9F78F858F938E858C
S11320708F93DF92CF921F930F930E94EE1DF8016E
S113208001900020E9F73197AF014053534060E0DD
S113209070E0C8010E942619F8011192FA94E9F738
S11320A0CE010A960E94C90E0FB6F894DEBF0FBE89
S11320B0CDBF80E02F960FB6F894DEBF0FBECDBF24
S11320C0DF91CF911F910F91FF90EF90DF90CF9010
S11320D0BF90AF909F908F907F906F905F904F9044
S11320E03F9008950F931F93CF93DF93EC0102E683
S11320F013E0F8016081062E000C770B880B990B16
S11321000E94DD1B20E030E040E05FE30E94F51C0C
S113211020E030E040E05CE30E94F51C20E030E089
S113212040E85FE30E946B1A9B01AC0168817981EE
S11321308A819B810E94F51C688379838A839B83AF
S1132140F8016181062E000C770B880B990B0E9415
S1132150DD1B20E030E040E05FE30E94F51C20E05E
S113216030E040E05CE30E94F51C20E030E040E811
S11321705FE30E946B1A9B01AC016C817D818E81AF
S11321809F810E94F51C6C837D838E839F83F8015D
S11321906281062E000C770B880B990B0E94DD1BC5
S11321A020E030E040E05FE30E94F51C20E030E0F6
S11321B040E05CE30E94F51C20E030E040E85FE38F
S11321C00E946B1A9B01AC01688579858A859B8581
S11321D00E94F51C688779878A879B8780E0DF9156
S11321E0CF911F910F9108950F931F93CF93DF9376
S11321F0CDB7DEB729970FB6F894DEBF0FBECDBFBB
S11322008C0188E1898383E08A8389E18B8362E09E
S1132210CE0101960E94431867E0CE0103960E9406
S1132220431867E0CE0103960E9470188D8190E0F8
S1132230982F88272C81822BF801918380838F81AA
S113224090E0982F88272E81822B9383828389851F
S113225090E0982F88272885822B9583848380E0BB
S113226029960FB6F894DEBF0FBECDBFDF91CF9194
S11322701F910F9108954F925F926F927F928F9268
S11322809F92AF92BF92CF92DF92EF92FF920F9301
S11322901F93CF93DF93CDB7DEB7A5970FB6F8940E
S11322A0DEBF0FBECDBF88E189838AE08A8386E1E1
S11322B08B8363E0CE0101960E94431800E313E090
S11322C08CE0E0EAF1E0D80101900D928A95E1F703
S11322D0F80101900020E9F73197AF0140535340D2
S11322E060E070E0C8010E94261982E3D8011D92C3
S11322F08A95E9F786E0E1E0F1E0DE011A960190C3
S11323000D928A95E1F786E0E7E0F1E0DE01509670
S113231001900D928A95E1F7E12C6894FF24F2F87C
S11323208E010A5E1F4FCE0104960E94F4109E0196
S11323302C5F3F4FFE017096BE01665F7F4FD9014F
S11323408D919D919D01408151818417950714F4CD
S113235091838083DB014D915C9111974817590754
S113236014F48D939C9332966E5F7F4FE017F107C0
S113237031F7EFE1FEE43197F1F700C00000F1E03E
S1132380EF1AF10881F6AA84BB8468887988CC8422
S1132390DD848A889B88EE84FF844C885D88B5013F
S11323A0660D771D772314F46F5F7F4F75956795DE
S11323B0072E000C880B990B0E94DD1B60937103A0
S11323C0709372038093730390937403B601680D42
S11323D0791D772314F46F5F7F4F75956795072EEA
S11323E0000C880B990B0E94DD1B6093750370939E
S11323F076038093770390937803B701640D751D7A
S1132400772314F46F5F7F4F75956795072E000C43
S1132410880B990B0E94DD1B6093790370937A03F8
S113242080937B0390937C0381E793E00E94721076
S1132430A618B708B50112F46F5F7F4F75956795BD
S1132440072E000C880B990B0E94DD1B6E8B7F8B73
S1132450888F998FC818D908B60112F46F5F7F4F1F
S113246075956795072E000C880B990B0E94DD1B50
S11324706A8F7B8F8C8F9D8FE418F508B70112F457
S11324806F5F7F4F75956795072E000C880B990B2E
S11324900E94DD1B6E8F7F8F88A399A3CE01469681
S11324A00E9472104E885F88688C798C8A8C9B8C11
S11324B0AC8CBD8CCE8CDF8CE8A0F9A0A501940176
S11324C0C301B2010E946B1AA70196010E946B1A04
S11324D020E030E040E450E40E94691B6AA37BA33F
S11324E08CA39DA305E613E0A30192010E94691B3E
S11324F0D8016D937D938D939C931397A5019401BB
S11325006AA17BA18CA19DA10E94691BF80164832F
S1132510758386839783A70196016AA17BA18CA109
S11325209DA10E94691BD80118966D937D938D938C
S11325309C931B9700E313E081E1ECEAF1E0D801FE
S113254001900D928A95E1F7F80101900020E9F7D6
S11325503197AF014053534060E070E0C8010E94DE
S1132560261982E3F80111928A95E9F780E0A5968D
S11325700FB6F894DEBF0FBECDBFDF91CF911F9190
S11325800F91FF90EF90DF90CF90BF90AF909F900E
S11325908F907F906F905F904F9008950F931F934B
S11325A0CF93DF93CDB7DEB727970FB6F894DEBF8E
S11325B00FBECDBF18E119830AE00A838FE08B8335
S11325C063E0CE0101960E944318198380E18A8357
S11325D089E18C8362E0CE0101960E94431864E095
S11325E0CE0104960E94431864E0CE0104960E9432
S11325F07018E2E6F3E08D8180838E8181838F8180
S1132600828319830A831B8263E0CE0101960E94B0
S1132610431887EC90E00197F1F700C0000080E0D8
S113262027960FB6F894DEBF0FBECDBFDF91CF91D2
S11326301F910F9108950F931F93CF93DF93EC0194
S113264001E713E0F80120813181428153816881DF
S113265079818A819B810E946A1A688379838A833B
S11326609B83F80124813581468157816C817D816A
S11326708E819F810E946A1A6C837D838E839F83DF
S1132680F8012085318542855385688579858A8559
S11326909B850E946A1A688779878A879B8780E06E
S11326A0DF91CF911F910F9108950F931F93CF93B3
S11326B0DF93EC0105E613E0F801208131814281CA
S11326C05381688179818A819B810E94F51C68838A
S11326D079838A839B83F8012481358146815781DC
S11326E06C817D818E819F810E94F51C6C837D832A
S11326F08E839F83F80120853185428553856885C3
S113270079858A859B850E94F51C688779878A87E5
S11327109B8780E0DF91CF911F910F910895CF9314
S1132720DF93CDB7DEB7C057D1090FB6F894DEBF3B
S11327300FBECDBF0E9439180E941119789400E38E
S113274013E08FE2EDEBF1E0D80101900D928A9550
S1132750E1F7F80101900020E9F73197AF01405308
S1132760534060E070E0C8010E9426190F2EF2E386
S1132770FF2EF02DF8012F2D11922A95E9F78FEFF6
S113278099E6E8E181509040E040E1F700C00000A4
S11327900E94F30D8CE1ECEEF1E0D80101900D9272
S11327A08A95E1F7F80101900020E9F73197AF012C
S11327B04053534060E070E0C8010E942619F801BC
S11327C02F2D11922A95E9F783E1E8E0F2E0D80190
S11327D001900D928A95E1F7F80101900020E9F744
S11327E03197AF014053534060E070E0C8010E944C
S11327F02619F8012F2D11922A95E9F70E94050F49
S113280087E2EBE1F2E0D80101900D928A95E1F7BD
S1132810F80101900020E9F73197AF01405353408C
S113282060E070E0C8010E942619F8012F2D119272
S11328302A95E9F78FEF91E1EAE781509040E04073
S1132840E1F700C000000E94CE1280E1E2E4F2E071
S1132850D80101900D928A95E1F7F80101900020CA
S1132860E9F73197AF014053534060E070E0C8018D
S11328700E942619F8012F2D11922A95E9F70E943A
S11328803B118BE1E2E5F2E0D80101900D928A95CB
S1132890E1F7F80101900020E9F73197AF014053C7
S11328A0534060E070E0C8010E942619F8011192BB
S11328B0FA94E9F70E946A0ECE01C7960E94560167
S11328C08AE097EDA3E2BCE36F968CAF9DAFAEAF09
S11328D0BFAF6F9738010F2EF2E34F2EF02D0F2E5E
S11328E0FDE62F2EF2E03F2EF02DCE018B960E94B6
S11328F0820EF301242D11922A95E9F78CA58F936A
S11329008BA58F933F922F927F926F920E94EE1D20
S1132910F30101900020E9F73197AF014053534090
S113292060E070E0C3010E942619F301242D119286
S11329302A95E9F78EA58F938DA58F9389E792E069
S11329409F938F937F926F920E94EE1DF3010190EB
S11329500020E9F73197AF014053534060E070E045
S1132960C3010E942619F301242D11922A95E9F737
S113297088A98F938FA58F9385E892E09F938F9377
S11329807F926F920E94EE1DF30101900020E9F7FF
S11329903197AF014053534060E070E0C3010E949F
S11329A02619CE01C1960E94230EF301242D119203
S11329B02A95E9F78AA98F9389A98F9381E992E0EF
S11329C09F938F937F926F920E94EE1DF30101906B
S11329D00020E9F73197AF014053534060E070E0C5
S11329E0C3010E942619F301242D11922A95E9F7B7
S11329F08CA98F938BA98F938DE992E09F938F93EA
S1132A007F926F920E94EE1DF30101900020E9F77E
S1132A103197AF014053534060E070E0C3010E941E
S1132A202619F301242D11922A95E9F78EA98F9383
S1132A308DA98F9389EA92E09F938F937F926F92EF
S1132A400E94EE1DF30101900020E9F73197AF01D8
S1132A50405353400FB6F894DEBF0FBECDBF60E0C5
S1132A6070E0C3010E942619CE0185960E94F410DD
S1132A70F301242D11922A95E9F78EA18F938DA14C
S1132A808F9385EB92E09F938F937F926F920E9436
S1132A90EE1DF30101900020E9F73197AF01405397
S1132AA0534060E070E0C3010E942619F301242D15
S1132AB011922A95E9F788A58F938FA18F9381ECC2
S1132AC092E09F938F937F926F920E94EE1DF30189
S1132AD001900020E9F73197AF014053534060E083
S1132AE070E0C3010E942619F301242D11922A9546
S1132AF0E9F78AA58F9389A58F938DEC92E09F9334
S1132B008F937F926F920E94EE1DF301019000203B
S1132B10E9F73197AF014053534060E070E0C301DF
S1132B200E9426196DA17EA1072E000C880B990B1B
S1132B300E94DD1B162F072FF82EE92E862F902FCB
S1132B40AF2DBE2D89839A83AB83BC836FA178A5F7
S1132B50072E000C880B990B0E94DD1B6D837E836E
S1132B608F83988769A57AA5072E000C880B990B8B
S1132B700E94DD1B69877A878B879C87F301242D4C
S1132B8011922A95E9F7EF92FF920F931F9389ED23
S1132B9092E09F938F937F926F920E94EE1DF301B8
S1132BA001900020E9F73197AF014053534060E0B2
S1132BB070E0C3010E942619F301242D11922A9575
S1132BC0E9F788858F938F818F938E818F938D8181
S1132BD08F9387EE92E09F938F937F926F920E94E0
S1132BE0EE1DF30101900020E9F73197AF01405346
S1132BF053400FB6F894DEBF0FBECDBF60E070E067
S1132C00C3010E942619F301242D11922A95E9F794
S1132C108C858F938B858F938A858F9389858F93EA
S1132C2085EF92E09F938F937F926F920E94EE1DA7
S1132C30F30101900020E9F73197AF01405353406D
S1132C4060E070E0C3010E942619F301242D119263
S1132C502A95E9F78DE0E3E0F3E0D30101900D92CA
S1132C608A95E1F7F30101900020E9F73197AF016C
S1132C704053534060E070E0C3010E942619F30101
S1132C80242D11922A95E9F7830125E045E06BEDA7
S1132C907FE089E490E40E94C11DF30101900020CB
S1132CA0E9F73197AF014053534060E070E0C3014E
S1132CB00E942619CE0101960E947210CE0101963F
S1132CC00E941B13CE0101960E9455130FB6F8946F
S1132CD0DEBF0FBECDBF92E0951508F44FC0052DA1
S1132CE010E0EE24E394F12CEC0EFD1EE4E05E9E75
S1132CF0E00CF11C1124000F111F81E090E08C0FF7
S1132D009D1F080F191FF80162A573A5072E000C5B
S1132D10880B990B0E94DD1B20E931EC49EF5CE341
S1132D200E94F51CF7016487758786879787F801E9
S1132D3060A971A9072E000C880B990B0E94DD1B5A
S1132D4020E030E04AEF5DE30E94F51CF701608F5C
S1132D50718F828F938F20E030E040EC5FE36081DD
S1132D607181828193810E94F51CF70160837183D4
S1132D70828393835394F3E05F12B1CF898C9A8C4E
S1132D80AB8CBC8C2BED3FE049E450E46D897E892B
S1132D908F89988D0E94F51C20E030E044E353E4D1
S1132DA00E94691B6B017C012BED3FE049E450E478
S1132DB069897A898B899C890E94F51C20E030E01E
S1132DC044E353E40E94691BE0966CAF7DAF8EAF81
S1132DD09FAFE0972BED3FE049E450E46D857E859D
S1132DE08F8598890E94F51C20E030E044E353E489
S1132DF00E94691BAB01BC018C858F938B858F93DB
S1132E008A858F9389858F9388858F938F818F93FC
S1132E108E818F938D818F938C818F938B818F93F0
S1132E208A818F9389818F938CA18F938BA18F93A8
S1132E308AA18F9389A18F9388A18F938F8D8F936C
S1132E408E8D8F938D8D8F93E0960CAD1DAD2EAD31
S1132E503FADE097CE01C7960E94ED050FB6F894FA
S1132E60DEBF0FBECDBFAC968FADAC978111BFC096
S1132E70CE01C7960E94EE0C21EE3EE245E652E4F6
S1132E80A3966CAD7DAD8EAD9FADA3970E94F51C4E
S1132E90AD966FAFAD97E1967FAFE197D82EC92E6F
S1132EA0AC968FADAC978111CDC0CE01C7960E9470
S1132EB0EE0C21EE3EE245E652E4AB966CAD7DAD00
S1132EC08EAD9FADAB970E94F51C20E030E044E34B
S1132ED053E40E946B1AE62EF72E082F192FAC9696
S1132EE08FADAC97811104C0CE01C7960E94EE0C41
S1132EF021EE3EE245E652E4A7966CAD7DAD8EAD83
S1132F009FADA7970E94F51CB62EA72E982E892E4A
S1132F10F301242D11922A95E9F71F930F93FF9241
S1132F20EF9280E193E09F938F937F926F920E9440
S1132F30EE1DF30101900020E9F73197AF014053F2
S1132F40534060E070E0C3010E942619F301242D70
S1132F5011922A95E9F7CF92DF92E1968FADE1972E
S1132F608F93AD969FADAD979F9389E193E09F9327
S1132F708F937F926F920E94EE1DF30101900020C7
S1132F80E9F73197AF014053534060E070E0C3016B
S1132F900E942619F301242D11922A95E9F78F92A4
S1132FA09F92AF92BF9283E293E09F938F937F921D
S1132FB06F920E94EE1DF30101900020E9F7319712
S1132FC0AF014053534060E070E0C3010E942619F2
S1132FD08FEF99E6E8E181509040E040E1F700C0CE
S1132FE000000FB6F894DEBF0FBECDBF7ECC21EE3D
S1132FF03EE245E652E4A3966CAD7DAD8EAD9FAD49
S1133000A3970E94F51CAD966FAFAD97E1967FAF85
S1133010E197D82EC92E21EE3EE245E652E4AB9666
S11330206CAD7DAD8EAD9FADAB970E94F51C20E0DD
S113303030E044E353E40E946B1AE62EF72E082F87
S1133040192F56CF21EE3EE245E652E4AB966CAD25
S11330507DAD8EAD9FADAB970E94F51C20E030E0B6
S113306044E353E40E946B1AE62EF72E082F192F1F
S11330703FCF82E08093B8008FEF8093BB0084E061
S11330808093BC000895CF93DF93EC01ECEBF0E068
S1133090908190FDFDCF60937F03888180938003AE
S11330A080FD13C0623088F0FE013196A1E8B3E0E0
S11330B06250262F30E02E5F3F4FCE01820F931FC8
S11330C021912D93E817F907D9F710927E0388EF21
S11330D08093000185EA8093BC00DF91CF9108952D
S11330E0AC01ECEBF0E0908190FDFDCF80917E038C
S11330F080FF12C0662381F0A0E8B3E0FA016150BA
S1133100262F30E02F5F3F4FCA01820F931F2D916E
S11331102193E817F907D9F780917E038170089508
S11331201F920F920FB60F9211242F933F938F93F8
S11331309F93AF93BF93EF93FF93E091B9008E2FCA
S113314090E0FC013897E135F10508F056C0EC5CDD
S1133150FF4F0C94641A10927D03E0917D038091DB
S11331607F03E81770F481E08E0F80937D03F0E015
S1133170E058FC4F80818093BB0085E88093BC00BD
S113318043C080917E03816080937E0384E98093B1
S1133190BC003AC0E0917D0381E08E0F80937D03F3
S11331A08091BB00F0E0E058FC4F808320917D03C8
S11331B030E080917F0390E001972817390724F4C9
S11331C085EC8093BC0020C085E88093BC001CC0C3
S11331D08091BB00E0917D03F0E0E058FC4F8083D8
S11331E080917E03816080937E0384E98093BC0098
S11331F00BC085EA8093BC0007C08091B90080931E
S1133200000184E08093BC00FF91EF91BF91AF91E6
S11332109F918F913F912F910F900FBE0F901F9010
S11332201895E0ECF0E080811082E1ECF0E080ECB5
S1133230808386E08093C2008CE090E09093C50088
S11332408093C4008081886080830895FC019091FC
S11332509003911137C04115510561057105A1F124
S113326081E0809390034093950350939603609379
S113327097037093980310928C0310928D0310920D
S11332808E0310928F03F0939403E0939303808151
S11332908093C600E1ECF0E08081806280838091BD
S11332A09003813099F4F89483B7816083BF789454
S11332B0889583B78E7F83BF80919003813099F383
S11332C081E0089580E0089580E0089581E0089504
S11332D01F920F920FB60F9211242F933F934F9387
S11332E05F936F937F938F939F93AF93BF93CF938A
S11332F0DF93EF93FF93C0919103D0919203809158
S1133300880390918903A0918A03B0918B03209143
S1133310C600FE01E80FF91F208380918803909175
S11333208903A0918A03B0918B03892B8A2B8B2B61
S113333069F18091880390918903A0918A03B091E7
S11333408B03019742E050E06EE273E08C0F9D1F07
S11333500E94E11D892BD1F080918803909189030B
S1133360A0918A03B0918B03C80FD91F1982809151
S11333709003833021F481E08093900302C0109283
S11333809003E1ECF0E080818F7E8083809188035C
S113339090918903A0918A03B0918B030196A11D9A
S11333A0B11D8093880390938903A0938A03B093FB
S11333B08B03FF91EF91DF91CF91BF91AF919F91DB
S11333C08F917F916F915F914F913F912F910F90CA
S11333D00FBE0F901F9018951F920F920FB60F9269
S11333E011242F933F934F935F936F937F938F9306
S11333F09F93AF93BF93EF93FF9380918C0390912E
S11334008D03A0918E03B0918F030196A11DB11D70
S113341080938C0390938D03A0938E03B0938F03BA
S113342040918C0350918D0360918E0370918F03B2
S11334308091950390919603A0919703B09198037E
S1133440481759076A077B0798F480918C03909179
S11334508D03A0918E03B0918F032091930330913B
S11334609403F901E80FF91F80818093C60005C019
S1133470E1ECF0E080818F7D8083FF91EF91BF913B
S1133480AF919F918F917F916F915F914F913F91F8
S11334902F910F900FBE0F901F9018951F920F92AF
S11334A00FB60F9211248F9380919003833021F4EF
S11334B082E08093900302C0109290038F910F904A
S11334C00FBE0F901F901895EE0FFF1F0590F491FB
S11334D0E02D09945058BB27AA270E94821A0C9405
S11334E0AE1C0E94A01C38F00E94A71C20F039F4E6
S11334F09F3F19F426F40C94621C0EF4E095E7FB4C
S11335000C945C1CE92F0E94BF1C58F3BA17620785
S113351073078407950720F079F4A6F50C94E11C51
S11335200EF4E0950B2EBA2FA02D0B01B9019001DA
S11335300C01CA01A0011124FF27591B99F0593F1E
S113354050F4503E68F11A16F040A22F232F342F66
S11335504427585FF3CF469537952795A795F040B4
S11335605395C9F77EF41F16BA0B620B730B840BC9
S1133570BAF09150A1F0FF0FBB1F661F771F881F81
S1133580C2F70EC0BA0F621F731F841F48F48795D9
S113359077956795B795F7959E3F08F0B0CF9395CB
S11335A0880F08F09927EE0F9795879508959F93B4
S11335B09F77EEE389379E0728F4EAE0F1E00E9462
S11335C08C1C0CC00E94181C9058A2EA2AED3FE003
S11335D049EC5FE30E94821A0E94AE1C0F9007FC24
S11335E0905808950E94A01C60F080E891E009F4CE
S11335F09EEF0E94A71C28F040E851E071F45EEFB2
S11336000CC00C94621C0C94E11CE92FE0780E941D
S1133610BF1C40F3092E052AB1F3261737074807C4
S1133620590738F00E2E07F8E02569F0E025E0642C
S11336300AC0EF6307F8009407FADB01B9019D01A2
S1133640DC01CA01AD01EF930E94801B0E94AE1CF5
S11336500E94351B5F91552339F02BED3FE049E47F
S113366050FD49EC0C946B1A0895DF93DD27B92FB4
S1133670BF7740E85FE31616170648075B0718F4A0
S1133680D92F0E94ED1C9F938F937F936F930E9479
S1133690A81DEEE1F1E00E94651C0E94AE1C2F9172
S11336A03F914F915F910E94081DDD2351F0905886
S11336B0A2EA2AED3FE049EC5FE3D0785D270E945F
S11336C0821ADF910C94AE1C0E94381C08F481E02D
S11336D008950E947D1B0C94AE1C0E94A71C58F0F8
S11336E00E94A01C40F029F45F3F29F00C945C1C5C
S11336F051110C94E21C0C94621C0E94BF1C68F3D0
S11337009923B1F3552391F3951B550BBB27AA2796
S113371062177307840738F09F5F5F4F220F331FD0
S1133720441FAA1FA9F335D00E2E3AF0E0E832D098
S113373091505040E695001CCAF72BD0FE2F29D09B
S1133740660F771F881FBB1F261737074807AB076D
S1133750B0E809F0BB0B802DBF01FF2793585F4FE2
S11337603AF09E3F510578F00C945C1C0C94E21CDA
S11337705F3FE4F3983ED4F3869577956795B795C4
S1133780F7959F5FC9F7880F911D9695879597F9CF
S11337900895E1E0660F771F881FBB1F6217730748
S11337A08407BA0720F0621B730B840BBA0BEE1F5D
S11337B088F7E0950895E89409C097FB3EF4909546
S11337C08095709561957F4F8F4F9F4F9923A9F0F6
S11337D0F92F96E9BB279395F69587957795679585
S11337E0B795F111F8CFFAF4BB0F11F460FF1BC0C9
S11337F06F5F7F4F8F4F9F4F16C0882311F096E95C
S113380011C0772321F09EE8872F762F05C0662309
S113381071F096E8862F70E060E02AF09A95660FC2
S1133820771F881FDAF7880F9695879597F908957B
S1133830DF93CF931F930F938B01EC01EBE4F1E043
S11338400E94651C0E94AE1C9801AE018B01EC0124
S113385060E070E080E89FE30E946A1A0E94681D9D
S11338609801AE010F911F91CF91DF910C94081D27
S1133870990F0008550FAA0BE0E8FEEF161617067D
S1133880E807F907C0F012161306E407F50798F0E5
S1133890621B730B840B950B39F40A2661F0232BFE
S11338A0242B252B21F408950A2609F4A140A6957A
S11338B08FEF811D811D089597F99F6780E870E05F
S11338C060E008959FEF80EC0895DF93CF931F93FA
S11338D00F93FF92EF92DF927B018C01689406C0F4
S11338E0DA2EEF010E94081DFE01E894A5912591AE
S11338F0359145915591A6F3EF010E94821AFE017C
S11339009701A801DA9469F7DF90EF90FF900F9187
S11339101F91CF91DF9108959F938F937F936F931E
S1133920FF93EF939B01AC010E94F51CEF91FF9173
S11339300E94651C2F913F914F915F910C94F51C4F
S113394000240A941616170618060906089500247A
S11339500A9412161306140605060895092E0394F4
S1133960000C11F4882352F0BB0F40F4BF2B11F468
S113397060FF04C06F5F7F4F8F4F9F4F089557FDC7
S11339809058440F551F59F05F3F71F04795880FC9
S113399097FB991F61F09F3F79F087950895121660
S11339A013061406551FF2CF4695F1DF08C016160C
S11339B017061806991FF1CF8695710561050894BD
S11339C00895E894BB2766277727CB0197F90895D4
S11339D00E94381C08F48FEF08959B01AC0160E04D
S11339E070E080E89FE30C94691B0E94081D0C940E
S11339F0AE1C0E94A01C38F00E94A71C20F0952346
S1133A0011F00C945C1C0C94621C11240C94E21CA8
S1133A100E94BF1C70F3959FC1F3950F50E0551F92
S1133A20629FF001729FBB27F00DB11D639FAA270F
S1133A30F00DB11DAA1F649F6627B00DA11D661F5E
S1133A40829F2227B00DA11D621F739FB00DA11D7F
S1133A50621F839FA00D611D221F749F3327A00D39
S1133A60611D231F849F600D211D822F762F6A2FD5
S1133A7011249F5750409AF0F1F088234AF0EE0F3A
S1133A80FF1FBB1F661F771F881F91505040A9F767
S1133A909E3F510580F00C945C1C0C94E21C5F3F2B
S1133AA0E4F3983ED4F3869577956795B795F795A3
S1133AB0E7959F5FC1F7FE2B880F911D969587951B
S1133AC097F9089519F416F40C94621C0C94AC1D27
S1133AD00E94C71CB8F39923C9F3B6F39F57550B3B
S1133AE087FF0E94BA1D0024A0E640EA9001805896
S1133AF05695979528F4805C660F771F881F20F0F1
S1133B0026173707480730F4621B730B840B2029F0
S1133B1031294A2BA69517940794202531254A2745
S1133B2058F7660F771F881F20F0261737074807B6
S1133B3030F4620B730B840B200D311D411DA095D5
S1133B4081F7B901842F9158880F96958795089528
S1133B509B01AC010C94F51C9F3F31F0915020F473
S1133B60879577956795B795880F911D9695879555
S1133B7097F9089591505040660F771F881FD2F728
S1133B800895EF920F931F93CF93DF93E80147FDBE
S1133B9002C034E001C034E1042E000C550B57FF81
S1133BA003C0519541955109E32E022F242FAE01F4
S1133BB00E94F11FCE01DF91CF911F910F91EF90E1
S1133BC00895FB01DC0104C08D910190801921F45A
S1133BD041505040C8F7881B990B0895AEE0B0E0FF
S1133BE0E4EFFDE10C94E1220D891E8986E08C83CB
S1133BF01A8309838FEF9FE79E838D83AE01475E0F
S1133C005F4F6F89788DCE0101960E94101EEF815F
S1133C10F885E00FF11F10822E96E4E00C94FD224B
S1133C20ABE0B0E0E6E1FEE10C94D3226C017B0151
S1133C308A01FC0117821682838181FFCCC1CE01E7
S1133C4001963C01F6019381F70193FD859193FF61
S1133C5081917F01882309F4BAC1853239F493FD37
S1133C60859193FF81917F01853229F4B60190E01B
S1133C700E943922E7CF912C212C312CFFE1F3153E
S1133C80D8F08B3279F038F4803279F08332A1F4B1
S1133C90232D20611DC08D3261F0803369F4232D02
S1133CA0216016C0832D8260382EE32DE4603E2E01
S1133CB02AC0F32DF8601DC037FC2DC020ED280F5D
S1133CC02A3040F08E32B9F436FC81C1232D2064B1
S1133CD0322E19C036FE06C08AE0989E200D1124AB
S1133CE0922E11C0EAE02E9E200D1124222EF32DD7
S1133CF0F0623F2E08C08C3621F4832D8068382E64
S1133D0002C0883641F4F70193FD859193FF8191B8
S1133D107F018111B3CF982F9F7D9554933028F460
S1133D200C5F1F4F9FE399830DC0833631F08337B7
S1133D3071F0833509F059C021C0F801808189836D
S1133D400E5F1F4F88248394912C530113C02801C4
S1133D50F2E04F0E511CF801A080B18036FE03C082
S1133D60692D70E002C06FEF7FEFC5010E942E2223
S1133D704C018201F32DFF773F2E16C0280122E06B
S1133D80420E511CF801A080B18036FE03C0692D9B
S1133D9070E002C06FEF7FEFC5010E9423224C0147
S1133DA0F32DF0683F2E820133FC1BC0822D90E07E
S1133DB088169906B0F4B60180E290E00E94392298
S1133DC02A94F4CFF50137FC859137FE81915F0188
S1133DD0B60190E00E94392221102A9421E0821A2F
S1133DE091088114910471F7E8C0843611F0893682
S1133DF041F5F80137FE07C06081718182819381AA
S1133E000C5F1F4F08C060817181072E000C880B66
S1133E10990B0E5F1F4FF32DFF763F2E97FF09C0BE
S1133E2090958095709561957F4F8F4F9F4FF06867
S1133E303F2E2AE030E0A3010E947522882E8618C6
S1133E4045C0853731F4232D2F7EB22E2AE030E091
S1133E5025C0932D997FB92E8F36C1F018F488357B
S1133E6079F0B5C0803719F0883721F0B0C0E92F58
S1133E70E061BE2EB4FE0DC0FB2DF460BF2E09C060
S1133E8034FE0AC0292F2660B22E06C028E030E096
S1133E9005C020E130E002C020E132E0F801B7FEC5
S1133EA007C060817181828193810C5F1F4F06C0BE
S1133EB06081718180E090E00E5F1F4FA3010E943A
S1133EC07522882E8618FB2DFF773F2E36FE0DC0F7
S1133ED0232D2E7FA22E891458F434FE0BC032FCFD
S1133EE009C0832D8E7EA82E05C0B82CA32C03C038
S1133EF0B82C01C0B92CA4FE0FC0FE01E80DF11DC1
S1133F008081803321F49A2D997EA92E09C0A2FEC6
S1133F1006C0B394B39404C08A2D867809F0B39490
S1133F20A3FC11C0A0FE06C0B21488F4280C922C85
S1133F309B180EC0B21460F4B60180E290E00E94B7
S1133F403922B394F7CFB21418F42B1802C0982C6A
S1133F50212CA4FE10C0B60180E390E00E94392217
S1133F60A2FE17C0A1FC03C088E790E002C088E568
S1133F7090E0B6010CC08A2D867859F0A1FE02C0EB
S1133F808BE201C080E2A7FC8DE2B60190E00E94C2
S1133F903922891438F4B60180E390E00E94392272
S1133FA09A94F7CF8A94F301E80DF11D8081B6014C
S1133FB090E00E9439228110F5CF222009F442CEEC
S1133FC0B60180E290E00E9439222A94F6CFF601ED
S1133FD08681978102C08FEF9FEF2B96E2E10C94CC
S1133FE0EF22A9E0B0E0E7EFFFE10C94D9226A01E7
S1133FF0122FB02E2BE3201720F0FF24F394F00EA1
S113400002C02CE3F22E0F2D27E0AE014F5F5F4F6D
S11340100E944B21BC014981842F8970813031F089
S1134020E1FC06C0E0FE06C090E205C09DE203C0CC
S11340309BE201C090E05E2D507143FF3CC09111A2
S113404002C083E001C084E0811718F4212F281BEB
S113405001C020E051110BC0F601822F30E2882309
S113406019F031938150FBCFC20ED11C20E099236B
S113407029F0D6019C93F60131966F01C60103968F
S1134080E2FE0AC03EE4D6013C9341E411964C930F
S1134090119712963C9306C03EE6F601308341E642
S11340A041833283FC01322F40E2332309F442C0BE
S11340B041933150FACF42FF44C0911102C083E0D2
S11340C001C084E0811718F4212F281B01C020E0CF
S11340D051110BC0F601822F30E2882319F031937D
S11340E08150FBCFC20ED11C20E0992329F0D601C8
S11340F09C93F60131966F01C6010396E2FE0BC054
S113410039E4D6013C933EE411963C93119736E48E
S113411012963C9307C039E6F60130833EE63183BC
S113412036E63283FC01322F40E2332319F0419307
S11341303150FBCFFC01E20FF11D10828EEF9FEF97
S1134140A6C021E030E0911102C020E030E0161654
S113415017061CF4FB01319602C0E1E0F0E02E0FDB
S11341603F1FBB2021F0EB2DF0E0319602C0E0E0D0
S1134170F0E02E0F3F1FE12FF0E02E173F071CF455
S1134180121B212F01C020E08E2D887159F4F601F5
S1134190822F30E2882319F031938150FBCFC20E75
S11341A0D11C20E0992329F0D6019C93F601319685
S11341B06F0151110BC0F601822F90E3882319F08F
S11341C091938150FBCFC20ED11C20E00F2D060F1E
S11341D09A81342F307144FF03C0913309F40150A4
S11341E0101624F4093018F008E001C001E0AB0116
S11341F077FF02C040E050E0FB01E41BF50BA1E0B7
S1134200B0E0AC0FBD1FEA0FFB1F8EE2A82E4B01DE
S1134210801A91080B2D10E01195019511094F3F5B
S1134220BFEF5B0721F4D601AC9211966D016417C0
S113423075072CF08416950614F4818101C080E37F
S1134240415051093196D60111967D01401751070D
S113425024F0D6018C936701E2CF6417750739F413
S1134260963320F4953319F4311101C081E3F6013A
S11342708083F701822F90E2882319F09193815073
S1134280FBCFF701E20FF11D108280E090E0299648
S1134290ECE00C94F522283008F027E03327DA010B
S11342A0990F311D87FD916000966105710539F400
S11342B032602E5F3D9330E32A95E1F708959F3FE6
S11342C030F080387105610509F03C5F3C5F3D9337
S11342D0913008F08068911DDF93CF931F930F9363
S11342E0FF92EF92192F987F9695E92F96959695C0
S11342F0E90FFF27E253FE4F99273327EE24FF24CB
S1134300A701E70105900894079428F4360FE71EE7
S1134310F81E491F511D660F771F881F991F0694A9
S1134320A1F70590079428F4E70EF81E491F561FBD
S1134330C11D770F881F991F661F0694A1F705906A
S1134340079428F4F80E491F561FC71FD11D880F64
S1134350991F661F771F0694A1F70590079420F410
S1134360490F561FC71FD81F990F661F771F881F35
S11343700694A9F784911095177041F0D695C795C6
S113438057954795F794E7941A95C1F7E4E7F1E058
S113439068941590159135916591959105907FE2FA
S11343A07395E118F10A430B560BC90BD009C0F7FA
S11343B0E10CF11E431F561FC91FD01D7EF470333C
S11343C011F48A95E6CFE894015030F0080F0AF40E
S11343D00027021708F4202F2395022F7A3328F0A0
S11343E079E37D932A95E9F710C07D932A9589F6A0
S11343F0069497956795379517951794E118F10AE0
S1134400430B560BC90BD00998F023957E917395F5
S11344107A3308F070E37C932013B8F77E917061CF
S11344207D9330F0839571E37D9370E32A95E1F7F2
S11344301124EF90FF900F911F91CF91DF91992755
S113444087FD90950895FC0105906150704001101E
S1134450D8F7809590958E0F9F1F0895FC016150A9
S1134460704001900110D8F7809590958E0F9F1F92
S113447008950F931F93CF93DF93FB01238121FDB5
S113448003C08FEF9FEF2CC022FF16C046815781D7
S1134490248135814217530744F4A081B1819D01E1
S11344A02F5F3F4F318320838C93268137812F5F89
S11344B03F4F3783268314C08B01EC01FB0100843A
S11344C0F185E02D0995892BE1F6D80116968D9199
S11344D09C911797019617969C938E931697CE01ED
S11344E0DF91CF911F910F910895FA01AA272830E7
S11344F051F1203181F1E8946F936E7F6E5F7F4FAD
S11345008F4F9F4FAF4FB1E03ED0B4E03CD0670F28
S1134510781F891F9A1FA11D680F791F8A1F911D7B
S1134520A11D6A0F711D811D911DA11D20D009F4CB
S113453068943F912AE0269F11243019305D31930D
S1134540DEF6CF010895462F4770405D4193B3E0F6
S11345500FD0C9F7F6CF462F4F70405D4A3318F09D
S1134560495D31FD4052419302D0A9F7EACFB4E04E
S1134570A6959795879577956795BA95C9F7009706
S11345806105710508959B01AC010A2E06945795A7
S1134590479537952795BA95C9F7620F731F841FFE
S11345A0951FA01D08952F923F924F925F926F9294
S11345B07F928F929F92AF92BF92CF92DF92EF92AF
S11345C0FF920F931F93CF93DF93CDB7DEB7CA1B30
S11345D0DB0B0FB6F894DEBF0FBECDBF09942A885B
S11345E0398848885F846E847D848C849B84AA8403
S11345F0B984C884DF80EE80FD800C811B81AA8190
S1134600B981CE0FD11D0FB6F894DEBF0FBECDBF5A
S10B4610ED010895F894FFCFB9
S1134618F8008000800080FF7FFF7FFF7F53756D67
S11346282061783A20256C640D0A0053756D206169
S1134638793A20256C640D0A0053756D20617A3A25
S113464820256C640D0A004176672061783A20259C
S11346586C640D0A004176672061793A20256C6400
S11346680D0A0041766720617A3A20256C640D0AA8
S1134678005A65726F696E67206269617320776991
S113468874683A2025640D0A0053756D2067783ADA
S11346982025640D0A0053756D2067793A20256436
S11346A80D0A0053756D20677A3A2025640D0A00B7
S11346B8696E697420646F6E650D0A00736F6674A1
S11346C82069726F6E20646F6E650D0A00506C6508
S11346D861736520707574207468652073656E73E2
S11346E86F7220646F776E206F6E206120666C6134
S11346F87420737572666163650D0A0063616C6981
S113470862726174696E6720616363656C65726F58
S11347186D657465720D0A0043616C696272617437
S1134728696E67204779726F0D0A00506C65617372
S1134738652077617665207468652073656E736F8C
S11347487220696E20616E20382073686170650D6F
S11347580A005363616C696E677320726561640D46
S11347680A00596F752063616E2073746F70207727
S11347786176696E67206E6F77200D0A0072617723
S11347882067782025640D0A0072617720677920F4
S113479825640D0A0072617720677A2025640D0A62
S11347A8007261772061782025640D0A00726177B0
S11347B82061792025640D0A0072617720617A20CE
S11347C825640D0A00726177206D782025640D0A2E
S11347D800726177206D792025640D0A0072617773
S11347E8206D7A2025640D0A00666C6F6174206D53
S11347F8782025660D0A00666C6F6174206D792037
S113480825660D0A00666C6F6174206D7A20256632
S11348180D0A00666C6F617420746573740D0A0068
S11348287961772025660D0A00726F6C6C20256605
S11348380D0A0070697463682025660D0A000D0A64
S9030000FC
