S0170000494D555F48656164747261636B65722E7372656365
S11300000C9485000C94A2000C94A2000C94A20001
S11300100C94A2000C94A2000C94A2000C94A200D4
S11300200C94A2000C94A2000C94A2000C94A200C4
S11300300C94A2000C94A2000C94A2000C94A200B4
S11300400C94A2000C94A2000C94D9030C945C04AC
S11300500C94BD040C94A2000C94A2000C94A20075
S11300600C944B030C94A2006603B803B803B803C2
S1130070B803B803B803B8036603B803B803B803F6
S1130080B803B803B803B8036803B803B803B803E4
S1130090B803B803B803B803B803B803B803B80384
S11300A0B803B803B803B8036803B803B803B803C4
S11300B0B803B803B803B803B803B803B803B80364
S11300C0B803B803B803B803B403B803B803B80358
S11300D0B803B803B803B8039103B803B803B8036B
S11300E0B803B803B803B803B803B803B803B80334
S11300F0B803B803B803B8038503B803B803B80357
S1130100B803B803B803B803A30311241FBECFEF89
S1130110D8E0DEBFCDBF11E0A0E0B1E0E0EEF9E051
S113012002C005900D92A031B107D9F721E0A0E1FA
S1130130B1E001C01D92AF32B207E1F70E94E702BD
S11301400C94EE040C940000FF920F931F93CF9332
S1130150DF9300D01F92CDB7DEB70F2EF0EDFF2E48
S1130160F02DF9828BE68A8381E08B8363E08E0134
S11301700F5F1F4FC8010E94FE0283E0F801119235
S11301808A95E9F7F98287E38A8382E08B8363E0C7
S1130190C8010E94FE020F900F900F90DF91CF9143
S11301A01F910F91FF9008950F931F93CF93DF93A7
S11301B0CDB7DEB729970FB6F894DEBF0FBECDBF1B
S11301C08C0180ED898383E48A8381ED8B8362E0F3
S11301D0CE0101960E94FE0267E0CE0103960E94C2
S11301E0FE0267E0CE0103960E942B038C8190E00F
S11301F0982F88272D81822BF801918380838E810B
S113020090E0982F88272F81822B9383828388857F
S113021090E0982F88272985822B9583848380E01A
S113022029960FB6F894DEBF0FBECDBFDF91CF91F4
S11302301F910F910895CF93DF93CDB7DEB7289721
S11302400FB6F894DEBF0FBECDBFFC0140815181D3
S113025051954195510951834083228133813195D0
S113026021953109338322838481958191958195E8
S113027091099583848351813381958160ED6983EC
S113028063E16A835B834C833D832E839F838887EA
S113029068E0CE0101960E94FE0280E028960FB627
S11302A0F894DEBF0FBECDBFDF91CF9108954F927A
S11302B05F926F927F928F929F92AF92BF92CF92F2
S11302C0DF92EF92FF920F931F93CF93DF93CDB7FB
S11302D0DEB72F970FB6F894DEBF0FBECDBF80ED0B
S11302E089838BE18A8380E18B8363E0CE0101966D
S11302F00E94FE0200E014E0CE0104960E94D400A5
S11303008C819D81092E000CAA0BBB0B480E591E33
S11303106A1E7B1E8E819F81092E000CAA0BBB0BCB
S1130320880E991EAA1EBB1E88859985092E000C6D
S1130330AA0BBB0BC80ED91EEA1EFB1E89EF90E068
S11303400197F1F700C0000001501109A9F6D3018B
S1130350C201772024F481509C4FAF4FBF4F072E2A
S11303607AE0B595A795979587957A95D1F7702DED
S11303709B878A87D501C401BB2024F481509C4FFC
S1130380AF4FBF4F072E7AE0B595A7959795879500
S11303907A95D1F7702D9D878C87D701C601FF20F0
S11303A024F481509C4FAF4FBF4F072E7AE0B59590
S11303B0A795979587957A95D1F7702D9F878E8706
S11303C0CE010A960E941B0180E02F960FB6F89486
S11303D0DEBF0FBECDBFDF91CF911F910F91FF9074
S11303E0EF90DF90CF90BF90AF909F908F907F90D1
S11303F06F905F904F9008950F931F93CF93DF9367
S1130400CDB7DEB729970FB6F894DEBF0FBECDBFC8
S11304108C0188E1898383E08A8389E18B8362E0AC
S1130420CE0101960E94FE0267E0CE0103960E946F
S1130430FE0267E0CE0103960E942B038D8190E0BB
S1130440982F88272C81822BF801918380838F81B8
S113045090E0982F88272E81822B9383828389852D
S113046090E0982F88272885822B9583848380E0C9
S113047029960FB6F894DEBF0FBECDBFDF91CF91A2
S11304801F910F910895CF93DF93CDB7DEB7659792
S11304900FB6F894DEBF0FBECDBF88E189838AE032
S11304A08A8386E18B8363E0CE0101960E94FE027B
S11304B086E0E1E0F1E0DE011A9601900D928A9562
S11304C0E1F786E0E7E0F1E0DE01509601900D925D
S11304D08A95E1F78E010A5E1F4FCE0104960E94B1
S11304E0FC019E012C5F3F4FFE017096BE01665FCA
S11304F07F4FD9018D919D919D0140815181841738
S1130500950714F491838083DB014D915C911197DD
S11305104817590714F48D939C9332966E5F7F4F5E
S1130520E017F10731F78FE19EE40197F1F700C07E
S11305300000D3CF0F931F93CF93DF93CDB7DEB7D4
S113054027970FB6F894DEBF0FBECDBF18E119830D
S11305500AE00A838FE08B8363E0CE0101960E9458
S1130560FE02198380E18A8389E18C8362E0CE01F3
S113057001960E94FE0264E0CE0104960E94FE02EF
S113058064E0CE0104960E942B03E0E1F1E08D814A
S113059080838E8181838F81828319830A831B8266
S11305A063E0CE0101960E94FE0287EC90E0019781
S11305B0F1F700C0000080E027960FB6F894DEBF84
S11305C00FBECDBFDF91CF911F910F9108950E946F
S11305D0F4020E94CC0378940E94A4000E94570164
S11305E00E949A020E94430282E08093B8008FEF37
S11305F08093BB0084E08093BC000895CF93DF9385
S1130600EC01ECEBF0E0908190FDFDCF60931501DF
S113061088818093160180FD13C0623088F0FE014A
S11306203196A7E1B1E06250262F30E02E5F3F4FB4
S1130630CE01820F931F21912D93E817F907D9F763
S11306401092140188EF8093000185EA8093BC0026
S1130650DF91CF910895AC01ECEBF0E0908190FD37
S1130660FDCF8091140180FF12C0662381F0A6E1C2
S1130670B1E0FA016150262F30E02F5F3F4FCA01ED
S1130680820F931F2D912193E817F907D9F78091D1
S11306901401817008951F920F920FB60F921124C6
S11306A02F933F938F939F93AF93BF93EF93FF93B6
S11306B0E091B9008E2F90E0FC013897E135F10507
S11306C008F056C0EC5CFF4F0C94DB04109213014D
S11306D0E091130180911501E81770F481E08E0F09
S11306E080931301F0E0EA5EFE4F80818093BB00AB
S11306F085E88093BC0043C080911401816080939D
S1130700140184E98093BC003AC0E091130181E0B4
S11307108E0F809313018091BB00F0E0EA5EFE4FE0
S113072080832091130130E08091150190E00197BE
S11307302817390724F485EC8093BC0020C085E891
S11307408093BC001CC08091BB00E0911301F0E0D9
S1130750EA5EFE4F808380911401816080931401CE
S113076084E98093BC000BC085EA8093BC0007C079
S11307708091B9008093000184E08093BC00FF91D4
S1130780EF91BF91AF919F918F913F912F910F90D6
S11307900FBE0F901F90189580EC8093C10086E0E7
S11307A08093C2008CE090E09093C5008093C400D5
S11307B008951F920F920FB60F9211242F933F9317
S11307C04F935F936F937F938F939F93AF93BF9355
S11307D0CF93DF93EF93FF93C0912701D09128012A
S11307E080911E0190911F01A0912001B0912101DF
S11307F02091C600FE01E80FF91F208380911E019D
S113080090911F01A0912001B0912101892B8A2B85
S11308108B2B61F180911E0190911F01A091200109
S1130820B0912101019742E050E06DE071E08C0F3E
S11308309D1F0E94E104892BC9F080911E019091B3
S11308401F01A0912001B0912101C80FD91F198265
S113085080912601833021F481E08093260102C037
S113086010922601E1ECF0E08081108280911E015B
S113087090911F01A0912001B09121010196A11D29
S1130880B11D80931E0190931F01A0932001B0938A
S11308902101FF91EF91DF91CF91BF91AF919F9192
S11308A08F917F916F915F914F913F912F910F9015
S11308B00FBE0F901F9018951F920F920FB60F92B4
S11308C011242F933F934F935F936F937F938F9351
S11308D09F93AF93BF93EF93FF93809122019091E5
S11308E02301A0912401B09125010196A11DB11D00
S11308F08093220190932301A0932401B0932501B6
S113090040912201509123016091240170912501AD
S113091080912B0190912C01A0912D01B0912E0179
S1130920481759076A077B0798F480912201909130
S11309302301A0912401B091250120912901309136
S11309402A01F901E80FF91F80818093C60004C0D1
S1130950E1ECF0E080811082FF91EF91BF91AF91C3
S11309609F918F917F916F915F914F913F912F91C3
S11309700F900FBE0F901F9018951F920F920FB6F5
S11309800F9211248F93EF93FF938091260183306C
S113099021F482E08093260102C010922601E1EC4A
S11309A0F0E080811082FF91EF918F910F900FBE44
S11309B00F901F901895EE0FFF1F0590F491E02DF6
S11309C00994FB01DC0104C08D910190801921F48C
S11309D041505040C8F7881B990B0895F894FFCFF5
S11309E0F8008000800080FF7FFF7FFF7F0D0A00FA
S9030000FC
