S0170000494D555F48656164747261636B65722E7372656365
S11300000C9485000C94A2000C94A2000C94A20001
S11300100C94A2000C94A2000C94A2000C94A200D4
S11300200C94A2000C94A2000C94A2000C94A200C4
S11300300C94A2000C94A2000C94A2000C94A200B4
S11300400C94A2000C94A2000C94A2000C94A200A4
S11300500C94A2000C94A2000C94A2000C94A20094
S11300600C94CB000C94A200E6003801380138014E
S11300703801380138013801E60038013801380107
S11300803801380138013801E800380138013801F5
S11300903801380138013801380138013801380194
S11300A03801380138013801E800380138013801D5
S11300B03801380138013801380138013801380174
S11300C03801380138013801340138013801380168
S11300D0380138013801380111013801380138017B
S11300E03801380138013801380138013801380144
S11300F03801380138013801050138013801380167
S11301003801380138013801230111241FBECFEF13
S1130110D8E0DEBFCDBF11E0A0E0B1E0E8EAF2E054
S113012002C005900D92A230B107D9F721E0A2E0F8
S1130130B1E001C01D92A930B207E1F70E94A4000A
S11301400C9452010C9400000E94C100E1ECF0E018
S113015080EC808386E08093C2008CE090E09093F2
S1130160C5008093C40080818861808378942FEFD8
S113017084E39CE0215080409040E1F700C00000FF
S1130180FFCF82E08093B8008FEF8093BB0084E0C0
S11301908093BC0008951F920F920FB60F92112402
S11301A02F933F938F939F93AF93BF93EF93FF93BB
S11301B0E091B9008E2F90E0FC013897E135F1050C
S11301C008F056C0EC5CFF4F0C944C0110920201F5
S11301D0E091020180910401E81770F481E08E0F30
S11301E080930201F0E0EB5FFE4F80818093BB00BF
S11301F085E88093BC0043C08091030181608093B3
S1130200030184E98093BC003AC0E091020181E0DB
S11302108E0F809302018091BB00F0E0EB5FFE4FF4
S113022080832091020130E08091040190E00197E5
S11302302817390724F485EC8093BC0020C085E896
S11302408093BC001CC08091BB00E0910201F0E0EF
S1130250EB5FFE4F808380910301816080930301F3
S113026084E98093BC000BC085EA8093BC0007C07E
S11302708091B9008093000184E08093BC00FF91D9
S1130280EF91BF91AF919F918F913F912F910F90DB
S11302900FBE0F901F901895EE0FFF1F0590F4915D
S10B02A0E02D0994F894FFCF4E
S10502A8F80058
S9030000FC
