S0170000494D555F48656164747261636B65722E7372656365
S11300000C9485000C94A2000C94A2000C94A20001
S11300100C94A2000C94A2000C94A2000C94A200D4
S11300200C94A2000C94A2000C94A2000C94A200C4
S11300300C94A2000C94A2000C94A2000C94A200B4
S11300400C94A2000C94A2000C94A2000C94A200A4
S11300500C94A2000C94A2000C94A2000C94A20094
S11300600C94A5000C94A200C0001201120112010C
S11300701201120112011201C00012011201120137
S11300801201120112011201C20012011201120125
S113009012011201120112011201120112011201C4
S11300A01201120112011201C20012011201120105
S11300B012011201120112011201120112011201A4
S11300C012011201120112010E0112011201120198
S11300D01201120112011201EB00120112011201AC
S11300E01201120112011201120112011201120174
S11300F01201120112011201DF0012011201120198
S11301001201120112011201FD0011241FBECFEFD2
S1130110D8E0DEBFCDBF11E0A0E0B1E0ECE5F2E055
S113012002C005900D92A230B107D9F721E0A2E0F8
S1130130B1E001C01D92A930B207E1F70E94A4000A
S11301400C942C010C940000FFCF1F920F920FB659
S11301500F9211242F933F938F939F93AF93BF9349
S1130160EF93FF93E091B9008E2F90E0FC01389754
S1130170E135F10508F056C0EC5CFF4F0C94260104
S113018010920201E091020180910401E81770F4D9
S113019081E08E0F80930201F0E0EB5FFE4F8081DF
S11301A08093BB0085E88093BC0043C08091030129
S11301B081608093030184E98093BC003AC0E0919C
S11301C0020181E08E0F809302018091BB00F0E078
S11301D0EB5FFE4F80832091020130E080910401A7
S11301E090E001972817390724F485EC8093BC002C
S11301F020C085E88093BC001CC08091BB00E091C6
S11302000201F0E0EB5FFE4F808380910301816087
S11302108093030184E98093BC000BC085EA80933A
S1130220BC0007C08091B9008093000184E08093F2
S1130230BC00FF91EF91BF91AF919F918F913F913E
S11302402F910F900FBE0F901F901895EE0FFF1F68
S10F02500590F491E02D0994F894FFCF80
S105025CF800A4
S9030000FC
