S0170000494D555F48656164747261636B65722E7372656365
S11300000C9485000C94A2000C94A2000C94A20001
S11300100C94A2000C94A2000C94A2000C94A200D4
S11300200C94A2000C94A2000C94A2000C94A200C4
S11300300C94A2000C94A2000C94A2000C94A200B4
S11300400C94A2000C94A2000C94C1000C94CB005C
S11300500C9400010C94A2000C94A2000C94A20035
S11300600C9418010C94A2003301850185018501CB
S1130070850185018501850133018501850185019E
S1130080850185018501850135018501850185018C
S1130090850185018501850185018501850185012C
S11300A0850185018501850135018501850185016C
S11300B0850185018501850185018501850185010C
S11300C08501850185018501810185018501850100
S11300D085018501850185015E0185018501850113
S11300E085018501850185018501850185018501DC
S11300F085018501850185015201850185018501FF
S11301008501850185018501700111241FBECFEF92
S1130110D8E0DEBFCDBF11E0A0E0B1E0E2E4F3E05F
S113012002C005900D92A230B107D9F721E0A2E0F8
S1130130B1E001C01D92AF30B207E1F70E94A40004
S11301400C949F010C9400000E940E01E1ECF0E07D
S113015080EC808386E08093C2008CE090E09093F2
S1130160C5008093C40080818861808378942FEFD8
S113017084E39CE0215080409040E1F700C00000FF
S1130180FFCF1F920F920FB60F9211240F900FBE44
S11301900F901F9018951F920F920FB60F92112473
S11301A08F939F93AF93BF93EF93FF93809102013B
S11301B090910301A0910401B09105010196A11D44
S11301C0B11D8093020190930301A0930401B093A5
S11301D005018091020190910301A0910401B09165
S11301E00501E1ECF0E080811082FF91EF91BF9175
S11301F0AF919F918F910F900FBE0F901F90189504
S11302001F920F920FB60F921124109207011092B1
S113021006010F900FBE0F901F90189582E08093F7
S1130220B8008FEF8093BB0084E08093BC000895F6
S11302301F920F920FB60F9211242F933F938F9317
S11302409F93AF93BF93EF93FF93E091B9008E2FE9
S113025090E0FC013897E135F10508F056C0EC5CFC
S1130260FF4F0C94990110920801E09108018091CC
S11302700A01E81770F481E08E0F80930801F0E022
S1130280E55FFE4F80818093BB0085E88093BC00CE
S113029043C08091090181608093090184E98093BE
S11302A0BC003AC0E091080181E08E0F8093080100
S11302B08091BB00F0E0E55FFE4F80832091080150
S11302C030E080910A0190E001972817390724F45F
S11302D085EC8093BC0020C085E88093BC001CC0E2
S11302E08091BB00E0910801F0E0E55FFE4F808360
S11302F08091090181608093090184E98093BC00A5
S11303000BC085EA8093BC0007C08091B90080933C
S1130310000184E08093BC00FF91EF91BF91AF9105
S11303209F918F913F912F910F900FBE0F901F902F
S11303301895EE0FFF1F0590F491E02D0994F894A1
S1050340FFCFE9
S1050342F800BD
S9030000FC
