S0170000494D555F48656164747261636B65722E7372656365
S11300000C9437010C9454010C9454010C94540135
S11300100C9454010C9454010C9454010C94540108
S11300200C9454010C9454010C9454010C945401F8
S11300300C9454010C9454010C9454010C945401E8
S11300400C9454010C9454010C94FB1F0C947F20C9
S11300500C94D9200C9454010C9454010C94540124
S11300600C94251F0C945401401F921F921F921F41
S1130070921F921F921F921F401F921F921F921F46
S1130080921F921F921F921F421F921F921F921F34
S1130090921F921F921F921F921F921F921F921FD4
S11300A0921F921F921F921F421F921F921F921F14
S11300B0921F921F921F921F921F921F921F921FB4
S11300C0921F921F921F921F8E1F921F921F921FA8
S11300D0921F921F921F921F6B1F921F921F921FBB
S11300E0921F921F921F921F921F921F921F921F84
S11300F0921F921F921F921F5F1F921F921F921FA7
S1130100921F921F921F921F7D1F036EDB363D9A32
S11301109999993DABAAAA2A3E000000803F084A5B
S1130120D73B3BCE016E84BCBFFDC12F3D6C743107
S11301309ABD56833DDA3D00C77F11BED9E4BB4C5E
S11301403E916BAAAABE000000803F072C7AA5BA94
S11301506CC590DA3B9365FC8BBC53F810FD3C56A0
S113016092834DBD879D3AB63DCBC9BF5BBE73DA62
S11301700FC93F0000407A10F35A00A0724E1809CC
S11301800010A5D4E80000E87648170000E40B54FA
S1130190020000CA9A3B000000E1F50500008096C9
S11301A09800000040420F000000A08601000000FB
S11301B0102700000000E8030000000064000000B5
S11301C000000A00000000000100000000002C767E
S11301D0D888DC674F0823DFC1DFAE59E1B1B79699
S11301E0E5E3E453C63AE651997696E8E6C28426F6
S11301F0EB898C9B62ED407C6FFCEFBC9C9F40F2D2
S1130200BAA56FA5F490055A2AF75C936B6CF9674D
S11302106DC11BFCE0E40D47FEF520E6B500D0ED12
S1130220902E0300943577050080841E080000207A
S11302304E0A000000C80C333333330F986E128318
S11302401141EF8D2114893BE65516CFFEE6DB18EC
S1130250D1844B381BF77C1D901DA4BBE4242032B1
S113026084725E228100C9F124ECA1E53D271124AA
S11302701FBECFEFD8E0DEBFCDBF13E0A0E0B1E0FA
S1130280E6E5F3E502C005900D92AC34B107D9F769
S113029024E0ACE4B3E001C01D92A336B207E1F759
S11302A00E94971C0C94A9290C940000CF92DF9211
S11302B0EF92FF920F931F938B019C013595279525
S11302C0179507950F2EFFEDCF2EF9E5DF2EF7E3F7
S11302D0EF2EFFE5FF2EF02DC01AD10AE20AF30A31
S11302E020E030E040E05FE30E948023A701960114
S11302F00E948023A70196010E9480239B01AC01E8
S113030060E070E080EC9FE30E94F520A701960175
S11303100E9480231F910F91FF90EF90DF90CF9068
S113032008954F925F926F927F928F929F92AF92B5
S1130330BF92CF92DF92EF92FF920F931F93CF93CE
S1130340DF93CDB7DEB7A4970FB6F894DEBF0FBE28
S1130350CDBF6D877E878F87988B298B3A8B4B8B8C
S11303605C8BED8AFE8A0F8B188F20E030E0A901A8
S1130370C601B5010E94EF21811117C020E030E0D1
S1130380A9016FA978AD89AD9AAD0E94EF218111C1
S11303900CC020E030E0A9016BAD7CAD8DAD9EAD0D
S11303A00E94EF21882309F479C2A6019501C601B0
S11303B0B5010E9480232B013C012FA938AD49AD22
S11303C05AADCA01B9010E9480239B01AC01C3014B
S11303D0B2010E94F6202B013C012BAD3CAD4DAD8A
S11303E05EADCA01B9010E9480239B01AC01C30127
S11303F0B2010E94F6200E9456012B013C019B0190
S1130400AC01C601B5010E94802369837A838B8382
S11304109C83A30192016FA978AD89AD9AAD0E9426
S1130420802369877A878B879C87A30192016BADB0
S11304307CAD8DAD9EAD0E9480236D837E838F83C2
S11304409887609170037091710380917203909109
S11304507303209168033091690340916A035091BA
S11304606B038090000190900101A0900201B09074
S1130470030140906C0350906D0360906E03709084
S11304806F030E9480236B017C01A3019201C501CB
S1130490B4010E9480239B01AC01C701B6010E94F4
S11304A0F520698F7A8F8B8F9C8F609100017091FA
S11304B00101809102019091030120917003309118
S11304C07103409172035091730380906C03909078
S11304D06D03A0906E03B0906F034090680350903A
S11304E0690360906A0370906B030E9480236B0120
S11304F07C01A3019201C501B4010E9480239B01E8
S1130500AC01C701B6010E94F6206D8F7E8F8F8FDC
S113051098A3609100017091010180910201909172
S11305200301209100013091010140910201509199
S113053003018090680390906903A0906A03B090CF
S11305406B03409068035090690360906A03709055
S11305506B030E94802320E030E040E05FE30E94D0
S1130560F5206B017C01A3019201C501B4010E9435
S113057080239B01AC01C701B6010E94F6206B01E8
S11305807C019B01AC0169857A858B859C850E94E1
S113059080234B015C012D8D3E8D4F8D58A16D81C3
S11305A07E818F8198850E9480239B01AC01C501C7
S11305B0B4010E94F52069A37AA38BA39CA3298D7F
S11305C03A8D4B8D5C8D6D817E818F8198850E94E3
S11305D080234B015C01A701960169817A818B819B
S11305E09C810E9480239B01AC01C501B4010E943F
S11305F0F5206D837E838F8398872D8D3E8D4F8D5F
S113060058A169817A818B819C810E9480236B012E
S11306107C01298D3A8D4B8D5C8D69857A858B851E
S11306209C850E9480239B01AC01C701B6010E94F6
S1130630F5206B017C0160917403709175038091C6
S113064076039091770320E030E0A9010E947323A0
S113065018160CF0BFC020917403309175034091BB
S113066076035091770340904C0350904D03609073
S11306704E0370904F038090640390906503A090A4
S11306806603B090670369A17AA18BA19CA10E9423
S11306908023A30192010E948023A50194010E945A
S11306A0F6206093640370936503809366039093CC
S11306B06703209174033091750340917603509140
S11306C0770340904C0350904D0360904E0370901C
S11306D04F038090600390906103A0906203B090F8
S11306E063036D817E818F8198850E948023A3019D
S11306F092010E948023A50194010E94F620609338
S11307006003709361038093620390936303209169
S113071074033091750340917603509177034090B0
S11307204C0350904D0360904E0370904F038090A3
S11307305C0390905D03A0905E03B0905F03C701DB
S1130740B6010E948023A30192010E948023A50187
S113075094010E94F62060935C0370935D03809380
S11307605E0390935F03209164033091650340918D
S11307706603509167036D857E858F8598890E94F5
S1130780F6206D877E878F87988B20916003309148
S11307906103409162035091630369897A898B896B
S11307A09C890E94F620698B7A8B8B8B9C8B209181
S11307B05C0330915D0340915E0350915F036D894A
S11307C07E898F89988D0E94F6206D8B7E8B8F8B0E
S11307D0988F18C0109264031092650310926603F8
S11307E010926703109260031092610310926203E7
S11307F01092630310925C0310925D0310925E03E7
S113080010925F032091040130910501409106018B
S11308105091070169A17AA18BA19CA10E94802318
S11308209B01AC016D857E858F8598890E94F62099
S11308306D877E878F87988B209104013091050105
S113084040910601509107016D817E818F819885C9
S11308500E9480239B01AC0169897A898B899C89D8
S11308600E94F620698B7A8B8B8B9C8B20910401E0
S1130870309105014091060150910701C701B6016D
S11308800E9480239B01AC016D897E898F89988D9C
S11308900E94F6206D8B7E8B8F8B988F60914C031A
S11308A070914D0380914E0390914F0320E030E00E
S11308B040E05FE30E9480232D853E854F85588963
S11308C00E9480236D877E878F87988B60914C036D
S11308D070914D0380914E0390914F0320E030E0DE
S11308E040E05FE30E94802329893A894B895C892F
S11308F00E948023698B7A8B8B8B9C8B60914C0339
S113090070914D0380914E0390914F0320E030E0AD
S113091040E05FE30E9480232D893E894F89588DF2
S11309200E9480236D8B7E8B8F8B988FE0900001CB
S1130930F09001010091020110910301E986FA8609
S11309400B871C878090700390907103A0907203B2
S1130950B0907303E0906C03F0906D0300916E030C
S113096010916F03ED82FE820F8318874090680315
S11309705090690360906A0370906B03C09000010B
S1130980D0900101E0900201F0900301C501B4018F
S113099090582D853E854F8558890E948023698310
S11309A07A838B839C832D813E814F81588569890D
S11309B07A898B899C890E9480239B01AC0169817F
S11309C07A818B819C810E94F52069837A838B8351
S11309D09C83A30192016D897E898F89988D0E94E1
S11309E080239B01AC0169817A818B819C810E9467
S11309F0F520A70196010E94F620609300017093F0
S1130A000101809302019093030140906803509088
S1130A10690360906A0370906B03C0907003D09078
S1130A207103E0907203F090730329853A854B8536
S1130A305C856D857E858F8598890E948023698376
S1130A407A838B839C832D813E814F8158856D8968
S1130A507E898F89988D0E9480239B01AC016981D6
S1130A607A818B819C810E94F62069837A838B83AF
S1130A709C83A301920169897A898B899C890E944C
S1130A8080239B01AC0169817A818B819C810E94C6
S1130A90F520A70196010E94F620609370037093DD
S1130AA07103809372039093730340906803509092
S1130AB0690360906A0370906B03C0906C03D090DC
S1130AC06D03E0906E03F0906F0329853A854B85A2
S1130AD05C8569897A898B899C890E9480236983D2
S1130AE07A838B839C83A50194016D897E898F8988
S1130AF0988D0E9480239B01AC0169817A818B814E
S1130B009C810E94F52069837A838B839C83A30153
S1130B1092016D857E858F8598890E9480239B0133
S1130B20AC0169817A818B819C810E94F620A701A6
S1130B3096010E94F62060936C0370936D0380937A
S1130B406E0390936F03C0906803D0906903E090A4
S1130B506A03F0906B0329853A854B855C856D8922
S1130B607E898F89988D0E9480232B013C01A501E9
S1130B70940169897A898B899C890E9480239B01CD
S1130B80AC01C301B2010E94F6204B015C012D812E
S1130B903E814F8158856D857E858F8598890E9419
S1130BA080239B01AC01C501B4010E94F520A7017B
S1130BB096010E94F6206093680370936903809302
S1130BC06A0390936B03609100017091010180911D
S1130BD002019091030120910001309101014091A3
S1130BE00201509103018090700390907103A090D2
S1130BF07203B0907303409070035090710360903F
S1130C00720370907303E0906C03F0906D03009195
S1130C106E0310916F03ED86FE860F87188BE090AC
S1130C206C03F0906D0300916E0310916F03E98AD9
S1130C30FA8A0B8B1C8BE0906803F0906903009197
S1130C406A0310916B03E982FA820B831C83E090A0
S1130C506803F090690300916A0310916B03ED8AB5
S1130C60FE8A0F8B188F0E9480236B017C01A301E5
S1130C709201C501B4010E9480239B01AC01C7010C
S1130C80B6010E94F6204B015C0129893A894B89FF
S1130C905C896D857E858F8598890E9480239B0160
S1130CA0AC01C501B4010E94F6204B015C012D8901
S1130CB03E894F89588D69817A818B819C810E94FC
S1130CC080239B01AC01C501B4010E94F6200E945F
S1130CD056016B017C01209100013091010140918A
S1130CE00201509103010E948023609300017093DC
S1130CF001018093020190930301209170033091CC
S1130D0071034091720350917303C701B6010E94AD
S1130D1080236093700370937103809372039093A4
S1130D20730320916C0330916D0340916E035091D5
S1130D306F03C701B6010E94802360936C03709314
S1130D406D0380936E0390936F0320916803309139
S1130D50690340916A0350916B03C701B6010E9475
S1130D608023609368037093690380936A0390936C
S1130D706B03A4960FB6F894DEBF0FBECDBFDF9110
S1130D80CF911F910F91FF90EF90DF90CF90BF9084
S1130D90AF909F908F907F906F905F904F90089549
S1130DA02F923F924F925F926F927F928F929F9277
S1130DB0AF92BF92CF92DF92EF92FF920F931F9365
S1130DC0CF93DF93CDB7DEB7C855D1090FB6F894EA
S1130DD0DEBF0FBECDBF698B7A8B8B8B9C8B298F2B
S1130DE03A8F4B8F5C8FED82FE820F831887AE960D
S1130DF0FFACAE97AF96EFACAF97E0969FACE097A1
S1130E00E1968FACE197E2961FADE297E3960FADC2
S1130E10E397E4963FACE497E5962FACE59720E0A2
S1130E2030E0A901E9966CAD7DAD8EAD9FADE9973B
S1130E300E94EF21811138C020E030E0A901ED9635
S1130E406CAD7DAD8EAD9FADED970E94EF2181110C
S1130E502BC020E030E0A901C358DF4F68817981BD
S1130E608A819B81CD57D0400E94EF2181111CC003
S1130E702F923F920F931F938F929F92EF92FF9224
S1130E80ED80FE800F811885298D3A8D4B8D5C8D08
S1130E9069897A898B899C890E9491010FB6F8949B
S1130EA0DEBF0FBECDBFDCC720E030E0A901C60124
S1130EB0B5010E94EF21811117C020E030E0A901A3
S1130EC06F2D7E2D892D982D0E94EF2181110CC04C
S1130ED020E030E0A901612F702F832D922D0E9414
S1130EE0EF21882309F451C5A6019501C601B50176
S1130EF00E9480232B013C012F2D3E2D492D582D7E
S1130F006F2D7E2D892D982D0E9480239B01AC018D
S1130F10C301B2010E94F6202B013C01212F302F86
S1130F20432D522D612F702F832D922D0E948023EB
S1130F309B01AC01C301B2010E94F6200E9456013C
S1130F402B013C019B01AC01C601B5010E94802329
S1130F506DAB7EAB8FAB98AFA30192016F2D7E2D4D
S1130F60892D982D0E94802369AF7AAF8BAF9CAFF7
S1130F70A3019201612F702F832D922D0E94802353
S1130F8021966CAF7DAF8EAF9FAF2197E9962CADC4
S1130F903DAD4EAD5FADE997CA01B9010E94802312
S1130FA06B017C01ED962CAD3DAD4EAD5FADED9783
S1130FB0CA01B9010E9480239B01AC01C701B6019B
S1130FC00E94F6206B017C01C358DF4F28813981D0
S1130FD04A815B81CD57D040CA01B9010E94802368
S1130FE09B01AC01C701B6010E94F6200E94560184
S1130FF06B017C019B01AC01E9966CAD7DAD8EADBE
S11310009FADE9970E94802369877A878B879C87A5
S1131010A7019601ED966CAD7DAD8EAD9FADED97BC
S11310200E9480236D877E878F87988BA701960106
S1131030C358DF4F688179818A819B81CD57D04025
S11310400E94802369837A838B839C834090000170
S1131050509001016090020170900301E090000142
S1131060F090010100910201109103016996ECAE28
S1131070FDAE0EAF1FAF6997609100017091010141
S113108080910201909103012091700330917103CA
S113109040917203509173030E94802369A37AA341
S11310A08BA39CA3609100017091010180910201C6
S11310B09091030120916C0330916D0340916E0374
S11310C050916F030E9480236D8F7E8F8F8F98A322
S11310D060910001709101018091020190910301DE
S11310E0209168033091690340916A0350916B0326
S11310F00E9480236D8B7E8B8F8B988FC0907003A2
S1131100D0907103E0907203F090730380917003A8
S113111090917103A0917203B091730389AB9AAB60
S1131120ABABBCAB6091700370917103809172039F
S11311309091730320916C0330916D0340916E0381
S113114050916F030E94802369A77AA78BA79CA75D
S11311506091700370917103809172039091730395
S1131160209168033091690340916A0350916B03A5
S11311700E9480236DA77EA78FA798AB60916C0314
S113118070916D0380916E0390916F0320916C03B5
S113119030916D0340916E0350916F030E94802340
S11311A025966CAF7DAF8EAF9FAF259760916C0392
S11311B070916D0380916E0390916F032091680389
S11311C03091690340916A0350916B030E9480231C
S11311D029966CAF7DAF8EAF9FAF2997609168035E
S11311E07091690380916A0390916B032091680365
S11311F03091690340916A0350916B030E948023EC
S11312006DA37EA38FA398A725962CAD3DAD4EADBF
S11312105FAD259760E070E080E09FE30E94F520D9
S11312202DA13EA14FA158A50E94F5202D966CAF8B
S11312307DAF8EAF9FAF2D972D893E894F89588DF5
S113124069A57AA58BA59CA50E94F52061966CAF33
S11312507DAF8EAF9FAF61972DA53EA54FA558A931
S11312606D8D7E8D8F8D98A10E94F62065966CAF52
S11312707DAF8EAF9FAF65972D962CAD3DAD4EAD36
S11312805FAD2D9769857A858B859C850E94802327
S11312904B015C0161962CAD3DAD4EAD5FAD6197E8
S11312A06D857E858F8598890E9480239B01AC0182
S11312B0C501B4010E94F6204B015C0165962CAD7A
S11312C03DAD4EAD5FAD659769817A818B819C811F
S11312D00E9480239B01AC01C501B4010E94F62049
S11312E09B01AC010E94F6204B015C0129A93AA99B
S11312F04BA95CA9C701B6010E9480239B01AC01E4
S113130060E070E080E09FE30E94F52069AB7AAB77
S11313108BAB9CAB29A53AA54BA55CA56D897E89B1
S11313208F89988D0E94F62029853A854B855C85A6
S11313300E9480236B017C012DA13EA14FA158A5E1
S113134069A97AA98BA99CA90E94F5202D853E85BF
S11313504F8558890E9480239B01AC01C701B601C7
S11313600E94F6206B017C0129A13AA14BA15CA14A
S113137029966CAD7DAD8EAD9FAD29970E94F52069
S113138029813A814B815C810E9480239B01AC01BD
S1131390C701B6010E94F6209B01AC010E94F62011
S11313A06B017C01A5019401C501B4010E94802355
S11313B06D8B7E8B8F8B988FA5019401C501B40131
S11313C00E9480234B015C01A7019601C701B6016D
S11313D00E9480239B01AC01C501B4010E94F62048
S11313E00E94F3234B015C012D8D3E8D4F8D58A13E
S11313F06DA57EA58FA598A90E94F5206D8F7E8F7F
S11314008F8F98A329962CAD3DAD4EAD5FAD299736
S113141069A17AA18BA19CA10E94F62069A37AA359
S11314208BA39CA325962CAD3DAD4EAD5FAD25970A
S113143069A97AA98BA99CA90E94F5206D8B7E8B42
S11314408F8B988F2D8D3E8D4F8D58A169857A8510
S11314508B859C850E9480236B017C0129A13AA184
S11314604BA15CA16D857E858F8598890E94802320
S11314709B01AC01C701B6010E94F6206B017C01FF
S11314802D893E894F89588D69817A818B819C8110
S11314900E9480239B01AC01C701B6010E94F62083
S11314A09B01AC010E94F6206B017C0169962CAD76
S11314B03DAD4EAD5FAD6997C301B2010E9480237B
S11314C020E030E040E05FE30E94F5202DA13EA142
S11314D04FA158A50E94F6206DA37EA38FA398A7C1
S11314E0A50194012D966CAD7DAD8EAD9FAD2D976C
S11314F00E9480232B013C01A70196016D8D7E8DF6
S11315008F8D98A10E9480239B01AC01C301B2017D
S11315100E94F62069A77AA78BA79CA7A50194012E
S113152061966CAD7DAD8EAD9FAD61970E948023B9
S11315302B013C01A701960169A17AA18BA19CA171
S11315400E9480239B01AC01C301B2010E94F620DA
S11315506DA77EA78FA798ABA501940165966CAD86
S11315607DAD8EAD9FAD65970E9480232B013C011C
S1131570A70196016D897E898F89988D0E948023A9
S11315809B01AC01C301B2010E94F6206B017C01F6
S11315902DA13EA14FA158A569AD7AAD8BAD9CADEF
S11315A00E9480234B015C0129A13AA14BA15CA1BB
S11315B021966CAD7DAD8EAD9FAD21970E948023A9
S11315C09B01AC01C501B4010E94F5204B015C01F3
S11315D0A70196016D857E858F8598890E94802359
S11315E02B013C012DA53EA54FA558A969817A81FF
S11315F08B819C810E9480239B01AC01C301B201B9
S11316000E94F5209B01AC01C501B4010E94F620A3
S11316106D8B7E8B8F8B988F2D8D3E8D4F8D58A12A
S113162021966CAD7DAD8EAD9FAD21970E94802338
S11316304B015C012DA13EA14FA158A56DA97EA926
S11316408FA998AD0E9480239B01AC01C501B40110
S11316500E94F5204B015C0129A53AA54BA55CA588
S113166069817A818B819C810E9480232B013C01BA
S1131670A701960169857A858B859C850E948023C4
S11316809B01AC01C301B2010E94F5209B01AC0196
S1131690C501B4010E94F62069837A838B839C83FD
S11316A029A13AA14BA15CA16DA97EA98FA998ADEE
S11316B00E9480236B017C012D8D3E8D4F8D58A19E
S11316C069AD7AAD8BAD9CAD0E9480239B01AC01CA
S11316D0C701B6010E94F5206B017C012DA53EA532
S11316E04FA558A969857A858B859C850E9480239E
S11316F04B015C0129A53AA54BA55CA56D857E85AA
S11317008F8598890E9480239B01AC01C501B40197
S11317100E94F5209B01AC01C701B6010E94F6208E
S11317206B017C0160917403709175038091760361
S11317309091770320E030E0A9010E9473231816EA
S11317400CF0BFC02091740330917503409176036F
S11317505091770340904C0350904D0360904E039A
S113176070904F038090640390906503A09066038B
S1131770B09067036D897E898F89988D0E9480233C
S1131780A30192010E948023A50194010E94F620E6
S11317906093640370936503809366039093670377
S11317A0209174033091750340917603509177032F
S11317B040904C0350904D0360904E0370904F0343
S11317C08090600390906103A0906203B0906303E3
S11317D069817A818B819C810E948023A30192017B
S11317E00E948023A50194010E94F6206093600367
S11317F07093610380936203909363032091740355
S113180030917503409176035091770340904C03D7
S113181050904D0360904E0370904F0380905C0392
S113182090905D03A0905E03B0905F03C701B60182
S11318300E948023A30192010E948023A5019401A8
S11318400E94F62060935C0370935D0380935E03B3
S113185090935F0320916403309165034091660384
S11318605091670369897A898B899C890E94F62043
S1131870698B7A8B8B8B9C8B2091600330916103F5
S11318804091620350916303698D7A8D8B8D9C8D99
S11318900E94F620698F7A8F8B8F9C8F20915C0336
S11318A030915D0340915E0350915F036D817E81B1
S11318B08F8198850E94F6206D837E838F8398871D
S11318C018C010926403109265031092660310927C
S11318D067031092600310926103109262031092E6
S11318E0630310925C0310925D0310925E031092E6
S11318F05F0320910401309105014091060150914C
S113190007016D897E898F89988D0E9480239B01B0
S1131910AC0169897A898B899C890E94F620698B3C
S11319207A8B8B8B9C8B2091040130910501409123
S113193006015091070169817A818B819C810E9403
S113194080239B01AC01698D7A8D8B8D9C8D0E94C7
S1131950F620698F7A8F8B8F9C8F209104013091B0
S113196005014091060150910701C701B6010E948B
S113197080239B01AC016D817E818F8198850E94BB
S1131980F6206D837E838F83988760914C037091DA
S11319904D0380914E0390914F0320E030E040E0EE
S11319A05FE30E94802329893A894B895C890E94DC
S11319B0802369877A878B879C8760914C03709119
S11319C04D0380914E0390914F0320E030E040E0BE
S11319D05FE30E948023298D3A8D4B8D5C8D0E949C
S11319E080236D877E878F87988B60914C037091DD
S11319F04D0380914E0390914F0320E030E040E08E
S1131A005FE30E9480232D813E814F8158850E948F
S1131A10802369837A838B839C83E0900001F09018
S1131A2001010091020110910301E98AFA8A0B8BEA
S1131A301C8B8090700390907103A0907203B090FF
S1131A407303E0906C03F0906D0300916E031091AA
S1131A506F03E98EFA8E0B8F1C8F409068035090B1
S1131A60690360906A0370906B03C0900001D0908A
S1131A700101E0900201F0900301C501B401905806
S1131A8029853A854B855C850E9480236D837E83FE
S1131A908F839887298D3A8D4B8D5C8D6D857E85DE
S1131AA08F8598890E9480239B01AC016D817E8182
S1131AB08F8198850E94F5206D837E838F8398871C
S1131AC0A301920169817A818B819C810E94802388
S1131AD09B01AC016D817E818F8198850E94F520E8
S1131AE0A70196010E94F620609300017093010102
S1131AF0809302019093030140906803509069031E
S1131B0060906A0370906B03C0907003D09071036F
S1131B10E0907203F090730329893A894B895C89B8
S1131B2069857A858B859C850E9480236D837E835D
S1131B308F839887298D3A8D4B8D5C8D69817A814D
S1131B408B819C810E9480239B01AC016D817E81ED
S1131B508F8198850E94F6206D837E838F8398877A
S1131B60A30192016D857E858F8598890E948023CB
S1131B709B01AC016D817E818F8198850E94F52047
S1131B80A70196010E94F62060937003709371037D
S1131B908093720390937303409068035090690399
S1131BA060906A0370906B03C0906C03D0906D03D7
S1131BB0E0906E03F0906F0329893A894B895C8920
S1131BC06D857E858F8598890E9480236D837E83B1
S1131BD08F839887A501940169817A818B819C8187
S1131BE00E9480239B01AC016D817E818F81988549
S1131BF00E94F5206D837E838F839887A3019201D1
S1131C0069857A858B859C850E9480239B01AC0124
S1131C106D817E818F8198850E94F620A7019601AF
S1131C200E94F62060936C0370936D0380936E039F
S1131C3090936F03C0906803D0906903E0906A03A7
S1131C40F0906B0329893A894B895C8969817A818F
S1131C508B819C810E9480232B013C01A50194016E
S1131C606D857E858F8598890E9480239B01AC01B8
S1131C70C301B2010E94F6204B015C01298D3A8D0B
S1131C804B8D5C8D69857A858B859C850E9480232C
S1131C909B01AC01C501B4010E94F520A701960186
S1131CA00E94F620609368037093690380936A032B
S1131CB090936B0360910001709101018091020186
S1131CC090910301209100013091010140910201A2
S1131CD0509103018090700390907103A09072035F
S1131CE0B09073034090700350907103609072033E
S1131CF070907303E0906C03F0906D0300916E0399
S1131D0010916F03E986FA860B871C87E0906C03B9
S1131D10F0906D0300916E0310916F03ED86FE86C3
S1131D200F87188BE0906803F090690300916A03B1
S1131D3010916B03ED82FE820F831887E090680395
S1131D40F090690300916A0310916B03E982FA82AF
S1131D500B831C830E9480236B017C01A3019201ED
S1131D60C501B4010E9480239B01AC01C701B601E7
S1131D700E94F6204B015C012D853E854F855889D4
S1131D8069857A858B859C850E9480239B01AC01A3
S1131D90C501B4010E94F6204B015C0129813A81FE
S1131DA04B815C816D817E818F8198850E94802327
S1131DB09B01AC01C501B4010E94F6200E945601AA
S1131DC06B017C01209100013091010140910201DD
S1131DD0509103010E9480236093000170930101DC
S1131DE08093020190930301209170033091710359
S1131DF04091720350917303C701B6010E9480237E
S1131E0060937003709371038093720390937303D0
S1131E1020916C0330916D0340916E0350916F03D8
S1131E20C701B6010E94802360936C0370936D0315
S1131E3080936E0390936F0320916803309169033C
S1131E4040916A0350916B03C701B6010E9480233D
S1131E50609368037093690380936A0390936B03A0
S1131E60C85ADF4F0FB6F894DEBF0FBECDBFDF9167
S1131E70CF911F910F91FF90EF90DF90CF90BF9083
S1131E80AF909F908F907F906F905F904F903F9016
S1131E902F9008954F925F926F927F928F929F92AC
S1131EA0AF92BF92CF92DF92EF92FF920F931F9364
S1131EB0CF93DF93CDB7DEB764970FB6F894DEBF48
S1131EC00FBECDBF60917003709171038091720356
S1131ED090917303209170033091710340917203C8
S1131EE05091730380906C0390906D03A0906E03E7
S1131EF0B0906F0340906C0350906D0360906E033C
S1131F0070906F03E0900001F090010100910201D4
S1131F1010910301E982FA820B831C83E090700321
S1131F20F09071030091720310917303ED82FE82AD
S1131F300F831887E0906C03F0906D0300916E039B
S1131F4010916F03E98AFA8A0B8B1C8BE09068036B
S1131F50F090690300916A0310916B03E986FA8695
S1131F600B871C870E9480239B01AC0160E070E01A
S1131F7080E09FE30E94F5206B017C01A3019201A4
S1131F80C501B4010E9480239B01AC01C701B601C5
S1131F900E94F5202B013C012D813E814F81588503
S1131FA069817A818B819C810E9480234B015C0131
S1131FB029853A854B855C8569897A898B899C89D1
S1131FC00E9480239B01AC01C501B4010E94F6204C
S1131FD0A30192010E94902121EE3EE245E652E4E3
S1131FE00E948023609358037093590380935A038B
S1131FF090935B03609170037091710380917203FD
S113200090917303209168033091690340916A03AE
S113201050916B038090000190900101A090020107
S1132020B090030140906C0350906D0360906E0378
S113203070906F030E9480236B017C01A3019201C5
S1132040C501B4010E9480239B01AC01C701B60104
S11320500E94F52020E030E040E050EC0E94802314
S11320600E94622121EE3EE245E652E40E94802372
S113207060935403709355038093560390935703CE
S113208060916C0370916D0380916E0390916F0366
S113209020916C0330916D0340916E0350916F0356
S11320A08090680390906903A0906A03B0906B03DA
S11320B0409068035090690360906A0370906B03CA
S11320C0E0907003F0907103009172031091730318
S11320D0E982FA820B831C83E0906C03F0906D0319
S11320E000916E0310916F03ED82FE820F831887B7
S11320F0E0900001F09001010091020110910301B0
S1132100E98AFA8A0B8B1C8BE0906803F0906903D0
S113211000916A0310916B03E986FA860B871C878A
S11321200E9480239B01AC0160E070E080E09FE3AB
S11321300E94F5206B017C01A3019201C501B40149
S11321400E9480239B01AC01C701B6010E94F520C7
S11321502B013C012D813E814F81588569817A8113
S11321608B819C810E9480234B015C0129853A85E7
S11321704B855C8569897A898B899C890E94802337
S11321809B01AC01C501B4010E94F620A301920198
S11321900E94902121EE3EE245E652E40E94802313
S11321A020E030E044E353E40E94F62060935003BF
S11321B070935103809352039093530364960FB624
S11321C0F894DEBF0FBECDBFDF91CF911F910F9169
S11321D0FF90EF90DF90CF90BF90AF909F908F9043
S11321E07F906F905F904F900895EF92FF920F93BE
S11321F01F93CF93DF9300D01F92CDB7DEB70F2E7E
S1132200F0EDFF2EF02DF9820F2EFBE6EF2EF02DD0
S1132210EA8280E88B8363E08E010F5F1F4FC80161
S11322200E94D81EEA8281E08B8363E0C8010E9489
S1132230D81E83E0F80111928A95E9F7F98287E3C1
S11322408A8382E08B8363E0C8010E94D81E0F90CA
S11322500F900F90DF91CF911F910F91FF90EF900E
S11322600895FC01AEEBB3E0808191812D913C9106
S11322701197821B930B91838083828193811296A1
S11322802D913C911397821B930B938382838481BA
S1132290958114962D913C911597821B930B9583F0
S11322A0848308950F931F93CF93DF93CDB7DEB745
S11322B02A970FB6F894DEBF0FBECDBF8C0180ED18
S11322C089838BE38A8381ED8C8362E0CE0101965E
S11322D00E94D81E67E0CE0104960E94D81E67E0D3
S11322E0CE0104960E94051F8D8190E0982F8827C7
S11322F02E81822BF801918380838F8190E0982F27
S113230088272885822B93838283898590E0982F60
S113231088272A85822B9583848380E02A960FB6AA
S1132320F894DEBF0FBECDBFDF91CF911F910F9107
S113233008953F924F925F926F927F928F929F92F5
S1132340AF92BF92CF92DF92EF92FF920F931F93BF
S1132350CF93DF93CDB7DEB729970FB6F894DEBFDE
S11323600FBECDBF80ED89838CE18A8388E08B83A7
S113237063E0CE0101960E94D81E1D821C821F823A
S11323801E821986188600E018E0412C512C320177
S1132390812C912C5401C12CD12C7601CE010496B0
S11323A00E9452118C819D81092E000CAA0BBB0B3B
S11323B0480E591E6A1E7B1E8E819F81092E000CB9
S11323C0AA0BBB0B880E991EAA1EBB1E8885998575
S11323D0092E000CAA0BBB0BC80ED91EEA1EFB1E4D
S11323E087E998E00197F1F700C000000150110956
S11323F0A9F67F926F925F924F9285E191E09F934D
S11324008F930CE813E01F930F930E948D24F8011F
S113241001900020E9F73197AF014C58534060E038
S113242070E0C8010E94BB1F0F2EF2E33F2EF02D77
S1132430F801232D11922A95E9F7BF92AF929F924A
S11324408F9283E291E09F938F931F930F930E9447
S11324508D24F80101900020E9F73197AF014C5821
S1132460534060E070E0C8010E94BB1FF801232DB7
S113247011922A95E9F7FF92EF92DF92CF9281E3CE
S113248091E09F938F931F930F930E948D24F801E3
S113249001900020E9F73197AF014C58534060E0B8
S11324A070E0C8010E94BB1FF80111923A94E9F749
S11324B0D301C2010FB6F894DEBF0FBECDBF7720A3
S11324C024F48150984FAF4FBF4F2C013D01032E90
S11324D03BE075946794579447943A95D1F7302D1F
S11324E0D501C401BB2024F48150984FAF4FBF4F96
S11324F04C015D01072E7BE0B594A79497948794D3
S11325007A95D1F7702DD701C601FF2024F48150AC
S1132510984FAF4FBF4F6C017D010B2EBBE0F5947C
S1132520E794D794C794BA95D1F7B02D7F926F9260
S11325305F924F928FE391E09F938F930CE813E0A7
S11325401F930F930E948D24F80101900020E9F756
S11325503197AF014C58534060E070E0C8010E94CD
S1132560BB1F0F2EF2E33F2EF02DF801232D119205
S11325702A95E9F7BF92AF929F928F928DE491E0F2
S11325809F938F931F930F930E948D24F8010190C2
S11325900020E9F73197AF014C58534060E070E0F8
S11325A0C8010E94BB1FF801232D11922A95E9F757
S11325B0FF92EF92DF92CF928BE591E09F938F93FE
S11325C01F930F930E948D24F80101900020E9F7D6
S11325D03197AF014C58534060E070E0C8010E944D
S11325E0BB1FF80111923A94E9F7242DEEEBF3E0C6
S11325F040825182828293828C2D9D2D0FB6F89455
S1132600DEBF0FBECDBF1816190634F49052909356
S1132610C3038093C20305C0905E9093C303809369
S1132620C2035F922F930F2EF9E6EF2EF1E0FF2EF7
S1132630F02DFF92EF920CE813E01F930F930E948A
S11326408D24F80101900020E9F73197AF014C582F
S1132650534060E070E0C8010E94BB1F0F2EF2E3FC
S1132660BF2EF02DF8012B2D11922A95E9F70F2E8C
S1132670FEEBCF2EF3E0DF2EF02DF60183818F9356
S113268082818F93FF92EF921F930F930E948D2468
S1132690F80101900020E9F73197AF014C585340FD
S11326A060E070E0C8010E94BB1FF8012B2D11925D
S11326B02A95E9F7F60185818F9384818F93FF92A0
S11326C0EF921F930F930E948D24F8010190002034
S11326D0E9F73197AF014C58534060E070E0C8010E
S11326E00E94BB1FF8011192BA94E9F70FB6F8944F
S11326F0DEBF0FBECDBF80E029960FB6F894DEBFD3
S11327000FBECDBFDF91CF911F910F91FF90EF903E
S1132710DF90CF90BF90AF909F908F907F906F90FD
S11327205F904F903F9008950F931F93CF93DF9343
S1132730CDB7DEB729970FB6F894DEBF0FBECDBF75
S11327408C0180ED898383E48A8381ED8B8362E04D
S1132750CE0101960E94D81E67E0CE0103960E9426
S1132760D81E67E0CE0103960E94051F8C8190E07D
S1132770982F88272D81822BF801918380838E8165
S113278090E0982F88272F81822B938382838885DA
S113279090E0982F88272985822B9583848380E075
S11327A029960FB6F894DEBF0FBECDBFDF91CF914F
S11327B01F910F910895CF93DF93CDB7DEB728977C
S11327C00FB6F894DEBF0FBECDBFFC01408151812E
S11327D0519541955109518340832281338131952B
S11327E02195310933832283848195819195819543
S11327F091099583848351813381958160ED698347
S113280063E16A835B834C833D832E839F83888744
S113281068E0CE0101960E94D81E80E028960FB68B
S1132820F894DEBF0FBECDBFDF91CF9108953F92E4
S11328304F925F926F927F928F929F92AF92BF92CC
S1132840CF92DF92EF92FF920F931F93CF93DF9378
S1132850CDB7DEB72F970FB6F894DEBF0FBECDBF4E
S113286080ED89838BE18A8380E18B8363E0CE01F1
S113287001960E94D81E00E018E0412C512C320130
S1132880812C912C5401C12CD12C7601CE010496BB
S11328900E9494138C819D81092E000CAA0BBB0B02
S11328A0480E591E6A1E7B1E8E819F81092E000CC4
S11328B0AA0BBB0B880E991EAA1EBB1E8885998580
S11328C0092E000CAA0BBB0BC80ED91EEA1EFB1E58
S11328D089EF90E00197F1F700C000000150110961
S11328E0A9F67F926F925F924F9281E891E09F9355
S11328F08F930CE813E01F930F930E948D24F8012B
S113290001900020E9F73197AF014C58534060E043
S113291070E0C8010E94BB1F0F2EF2E33F2EF02D82
S1132920F801232D11922A95E9F7BF92AF929F9255
S11329308F928FE891E09F938F931F930F930E9440
S11329408D24F80101900020E9F73197AF014C582C
S1132950534060E070E0C8010E94BB1FF801232DC2
S113296011922A95E9F7FF92EF92DF92CF928DE9C7
S113297091E09F938F931F930F930E948D24F801EE
S113298001900020E9F73197AF014C58534060E0C3
S113299070E0C8010E94BB1FF80111923A94E9F754
S11329A0D301C2010FB6F894DEBF0FBECDBF7720AE
S11329B024F48150984FAF4FBF4F072E7BE0B5955D
S11329C0A795979587957A95D1F7702D8A879B87D8
S11329D0B501A401BB2024F44150584F6F4F7F4FE1
S11329E0032E3BE075956795579547953A95D1F732
S11329F0302D5D874C87B701A601FF2024F4415098
S1132A00584F6F4F7F4F032E3BE075956795579551
S1132A1047953A95D1F7302D5F874E879F938F93D3
S1132A200F2EF9E6CF2EF1E0DF2EF02DDF92CF92BC
S1132A300CE813E01F930F930E948D24F80101907A
S1132A400020E9F73197AF014C58534060E070E043
S1132A50C8010E94BB1F0F2EF2E3FF2EF02DF801D8
S1132A602F2D11922A95E9F78D858F938C858F935D
S1132A70DF92CF921F930F930E948D24F80101904F
S1132A800020E9F73197AF014C58534060E070E003
S1132A90C8010E94BB1FF8012F2D11922A95E9F756
S1132AA08F858F938E858F93DF92CF921F930F9391
S1132AB00E948D24F80101900020E9F73197AF01BD
S1132AC04C58534060E070E0C8010E94BB1FF801FD
S1132AD01192FA94E9F7CE010A960E94DB130FB61D
S1132AE0F894DEBF0FBECDBF80E02F960FB6F894EA
S1132AF0DEBF0FBECDBFDF91CF911F910F91FF902D
S1132B00EF90DF90CF90BF90AF909F908F907F9089
S1132B106F905F904F903F9008950F931F93CF93C2
S1132B20DF93EC0104EC13E0F801608170E080E0D5
S1132B3090E00E94662220E030E040E053E40E94EE
S1132B40F52020E030E040E05FE30E94802320E0B5
S1132B5030E040E05CE30E94802320E030E040E885
S1132B605FE30E94F6209B01AC01688179818A8130
S1132B709B810E948023688379838A839B83F801E5
S1132B80618170E080E090E00E94662220E030E005
S1132B9040E053E40E94F52020E030E040E05FE3B1
S1132BA00E94802320E030E040E05CE30E94802328
S1132BB020E030E040E85FE30E94F6209B01AC0196
S1132BC06C817D818E819F810E9480236C837D83B3
S1132BD08E839F83F801628170E080E090E00E9420
S1132BE0662220E030E040E053E40E94F52020E03B
S1132BF030E040E05FE30E94802320E030E040E0EA
S1132C005CE30E94802320E030E040E85FE30E9420
S1132C10F6209B01AC01688579858A859B850E9495
S1132C208023688779878A879B8780E0DF91CF91AB
S1132C301F910F9108950F931F93CF93DF93CDB7F7
S1132C40DEB72A970FB6F894DEBF0FBECDBF8C0156
S1132C5088E1898383E08A8389E18B8362E0CE0102
S1132C6001960E94D81E68E0CE0103960E94D81EE9
S1132C7068E0CE0103960E94051F8D8190E0982F95
S1132C8088272C81822BF801918380838F8190E0A7
S1132C90982F88272E81822B93838283898590E0C5
S1132CA0982F88272885822B95838483968581E0B5
S1132CB093FF80E02A960FB6F894DEBF0FBECDBF17
S1132CC0DF91CF911F910F9108952F923F924F92D0
S1132CD05F926F927F928F929F92AF92BF92CF92A8
S1132CE0DF92EF92FF920F931F93CF93DF93CDB7B1
S1132CF0DEB7A9970FB6F894DEBF0FBECDBF88E14B
S1132D0089838AE08A8386E18B8363E0CE0101961E
S1132D100E94D81E86E0E9E0F1E0DE011A960190F7
S1132D200D928A95E1F786E0EFE0F1E0DE0150963E
S1132D3001900D928A95E1F7A12C6894BB24B3F815
S1132D406E0126E1C20ED11CCE0104960E941B1610
S1132D509E012C5F3F4F7E0180E1E80EF11C8E0145
S1132D60065F1F4FB801F701D9018D919D919D0117
S1132D70408151818417950714F491838083DB018A
S1132D804D915C9111974817590714F48D939C93B6
S1132D9032966E5F7F4FEC15FD0531F7EFE1FEE4EF
S1132DA03197F1F700C00000F1E0AF1AB10861F605
S1132DB04E0120E1820E911C0F2EFBEAAF2EF1E0B2
S1132DC0BF2EF02D0F2EFCE8CF2EF3E0DF2EF02DDA
S1132DD00F2EF2E35F2EF02D0F2EF7EB6F2EF1E0A6
S1132DE07F2EF02DD8018C9111969C910E5F1F4F70
S1132DF09F938F93BF92AF92DF92CF920E948D24C4
S1132E00F60101900020E9F73197AF014C58534087
S1132E1060E070E0C6010E94BB1FF601252D1192EF
S1132E202A95E9F7D7018C9111969C91B2E0EB0EAB
S1132E30F11C9F938F937F926F92DF92CF920E94A7
S1132E408D24F60101900020E9F73197AF014C5829
S1132E50534060E070E0C6010E94BB1FF601252DBF
S1132E6011922A95E9F70FB6F894DEBF0FBECDBFD5
S1132E700815190509F0B6CFCA84DB8488889988B7
S1132E80C601880D991D99230CF401969595879593
S1132E90EFEDF3E080839183EC84FD846A887B8882
S1132EA09701260D371D332314F42F5F3F4F3595BB
S1132EB027953093E2032093E1034E845F842C88AA
S1132EC03D889201220D331D332314F42F5F3F4FAD
S1132ED0359527953093E4032093E3039F938F93D1
S1132EE083EC91E09F938F930CE813E01F930F936F
S1132EF00E948D24F80101900020E9F73197AF0179
S1132F004C58534060E070E0C8010E94BB1FD801D8
S1132F10E2E31D92EA95E9F70F2EFFEDAF2EF3E001
S1132F20BF2EF02DD50113968C9113978F93129683
S1132F308C918F9389ED91E09F938F931F930F93BF
S1132F400E948D24F80101900020E9F73197AF0128
S1132F504C58534060E070E0C8010E94BB1FF80168
S1132F6022E311922A95E9F7D50115968C911597CC
S1132F708F9314968C918F938FEE91E09F938F9300
S1132F801F930F930E948D24F80101900020E9F70C
S1132F903197AF014C58534060E070E0C8010E9483
S1132FA0BB1FF80122E311922A95E9F7C818D90842
S1132FB0B6010FB6F894DEBF0FBECDBF12F46F5F3B
S1132FC07F4F75956795072E000C880B990B0E940F
S1132FD068224B015C016E8B7F8B888F998FE6187A
S1132FE0F708B70112F46F5F7F4F75956795072E49
S1132FF0000C880B990B0E9468226A8F7B8F8C8F40
S11330009D8F42185308B20112F46F5F7F4F75957C
S11330106795072E000C880B990B0E9468226E8F0F
S11330207F8F88A399A30F2EFCE8EF2EF3E0FF2EE9
S1133030F02DD7010D900020E9F7119784E1E9E024
S1133040F2E001900D928A95E1F708E713E025E09C
S113305045E0C501B4010E944C24BC01C7010E9493
S11330608224F70101900020E9F731970F2EFDE04B
S11330702F2EFAE03F2EF02D318220821282F701AA
S113308001900020E9F73197AF014C58534060E0BC
S113309070E0C7010E94BB1F0F2EF2E3DF2EF02D5C
S11330A0D701ED2D1D92EA95E9F738010F2EF4E1D1
S11330B0CF2EF02DD801EC2D1D92EA95E9F7D7011A
S11330C00D900020E9F7119784E1E1E2F2E001902C
S11330D00D928A95E1F76A8D7B8D8C8D9D8D25E00F
S11330E045E00E944C24BC01C7010E948224F701E0
S11330F001900020E9F73197318220821282F70192
S113310001900020E9F73197AF014C58534060E03B
S113311070E0C7010E94BB1FD701ED2D1D92EA95F7
S1133120E9F7D801EC2D1D92EA95E9F7D7010D9046
S11331300020E9F7119784E1E9E3F2E001900D92B0
S11331408A95E1F76E8D7F8D88A199A125E045E0F0
S11331500E944C24BC01C7010E948224F701019003
S11331600020E9F73197318220821282F701019021
S11331700020E9F73197AF014C58534060E070E00C
S1133180C7010E94BB1FD701ED2D1D92EA95E9F7F7
S1133190D801EC2D1D92EA95E9F7CE0146960E94DE
S11331A08D15D7010D900020E9F7119788E1E5E02E
S11331B0F2E001900D928A95E1F76E897F89888DFE
S11331C0998D25E045E00E944C24BC01C7010E9472
S11331D08224F70101900020E9F73197318220829F
S11331E01282F70101900020E9F73197AF014C58A2
S11331F0534060E070E0C7010E94BB1FD701ED2D72
S11332001D92EA95E9F7D801EC2D1D92EA95E9F7AC
S1133210D7010D900020E9F7119788E1EDE1F2E084
S113322001900D928A95E1F76A8D7B8D8C8D9D8D31
S113323025E045E00E944C24BC01C7010E94822481
S1133240F70101900020E9F7319731822082128240
S1133250F70101900020E9F73197AF014C58534032
S113326060E070E0C7010E94BB1FD701ED2D1D92E5
S1133270EA95E9F7D801EC2D1D92EA95E9F7D70113
S11332800D900020E9F7119788E1E5E3F2E0019061
S11332900D928A95E1F76E8D7F8D88A199A125E025
S11332A045E00E944C24BC01C7010E948224F7011E
S11332B001900020E9F73197318220821282F701D0
S11332C001900020E9F73197AF014C58534060E07A
S11332D070E0C7010E94BB1FD701ED2D1D92EA9536
S11332E0E9F7D801EC2D1D92EA95E9F72A8D3B8D7B
S11332F04C8D5D8D6E897F89888D998D0E94F62015
S11333002E8D3F8D48A159A10E94F62020E030E087
S113331040E450E40E94F4214B015C01D7010D907C
S11333200020E9F7119788E0EDE4F2E001900D92B6
S11333308A95E1F725E045E0C501B4010E944C24DB
S1133340BC01C7010E948224F70101900020E9F723
S11333503197318220821282F70101900020E9F72F
S11333603197AF014C58534060E070E0C7010E94B0
S1133370BB1FD701ED2D1D92EA95E9F7D801EC2D7D
S11333801D92EA95E9F72E893F89488D598DC5012B
S1133390B4010E94F4216AA37BA38CA39DA30F2EE6
S11333A0F3ED4F2EF3E05F2EF02DD2016D937D935C
S11333B08D939C9313972A8D3B8D4C8D5D8DC50108
S11333C0B4010E94F4216EA37FA388A799A7F201F8
S11333D064837583868397832E8D3F8D48A159A17D
S11333E0C501B4010E94F4214B015C01D20118967D
S11333F06D937D938D939C931B9704EC13E0F801DC
S1133400608170E080E090E00E94662220E030E07D
S113341040E053E40E94F52020E030E040E85BE324
S11334200E94802320E030E040E85FE30E94F62021
S11334302AA13BA14CA15DA10E9480236AA37BA386
S11334408CA39DA3A7ECB3E06D937D938D939C9384
S11334501397F801618170E080E090E00E94662299
S113346020E030E040E053E40E94F52020E030E02A
S113347040E85BE30E94802320E030E040E85FE323
S11334800E94F6202EA13FA148A559A50E948023A1
S11334906093CB037093CC038093CD039093CE03BE
S11334A0D80112966C9170E080E090E00E94662250
S11334B020E030E040E053E40E94F52020E030E0DA
S11334C040E85BE30E94802320E030E040E85FE3D3
S11334D00E94F620A50194010E9480236093CF03EB
S11334E07093D0038093D1039093D203D7010D90AE
S11334F00020E9F7119788E1E5E0F2E001900D92F0
S11335008A95E1F7830125E045E06AA17BA18CA1BE
S11335109DA10E944C24BC01C7010E948224F70192
S113352001900020E9F73197318220821282F7015D
S113353001900020E9F73197AF014C58534060E007
S113354070E0C7010E94BB1FF7012D2D11922A952F
S1133550E9F7D301EC2D1D92EA95E9F7D7010D9017
S11335600020E9F7119788E1EDE1F2E001900D9276
S11335708A95E1F7D20114966D917D918D919C917C
S1133580179725E045E00E944C24BC01C7010E9426
S11335908224F70101900020E9F7319731822082DB
S11335A01282F70101900020E9F73197AF014C58DE
S11335B0534060E070E0C7010E94BB1FF7012D2D4E
S11335C011922A95E9F7D301EC2D1D92EA95E9F7BA
S11335D0D7010D900020E9F7119788E1E5E3F2E0C7
S11335E001900D928A95E1F7D20118966D917D9123
S11335F08D919C911B9725E045E00E944C24BC01D1
S1133600C7010E948224F70101900020E9F7319755
S1133610318220821282F70101900020E9F731976C
S1133620AF014C58534060E070E0C7010E94BB1FDB
S1133630F7012D2D11922A95E9F7D3011D92CA9411
S1133640E9F781E1E5E5F2E0D70101900D928A9571
S1133650E1F7F70101900020E9F73197AF014C58E9
S1133660534060E070E0C7010E94BB1FF701119254
S1133670DA94E9F780E0A9960FB6F894DEBF0FBE9E
S1133680CDBFDF91CF911F910F91FF90EF90DF900D
S1133690CF90BF90AF909F908F907F906F905F90EE
S11336A04F903F902F9008958F929F92AF92BF9228
S11336B0CF92DF92EF92FF920F931F93CF93DF93FA
S11336C0CDB7DEB727970FB6F894DEBF0FBECDBFD8
S11336D00F2EF8E1BF2EF02DB9820F2EFAE09F2EA7
S11336E0F02D9A828FE08B8363E0CE0101967C01FA
S11336F00E94D81E0F2EF3E08F2EF02DF701882D97
S113370011928A95E9F7B98280E18A8389E18C83F1
S113371062E0C7010E94D81E64E0CE0104960E94B4
S1133720D81E64E0CE0104960E94051F8D810F2EE1
S1133730F4ECCF2EF3E0DF2EF02DF60180839E8192
S113374091839F8192831F928F9386E692E09F9349
S11337508F930CE813E01F930F930E948D24F801BC
S113376001900020E9F73197AF014C58534060E0D5
S113377070E0C8010E94BB1F0F2EF2E3AF2EF02DA4
S1133780F8018A2D11928A95E9F7F60181811F9239
S11337908F938BE792E09F938F931F930F930E94D5
S11337A08D24F80101900020E9F73197AF014C58BE
S11337B0534060E070E0C8010E94BB1FF8018A2DED
S11337C011928A95E9F7F60182811F928F9380E91D
S11337D092E09F938F931F930F930E948D24F8017F
S11337E001900020E9F73197AF014C58534060E055
S11337F070E0C8010E94BB1FF8011192AA94E9F776
S1133800F70111928A94E9F7B9829A8263E0C701B9
S11338100E94D81E87EC90E00197F1F700C00000E9
S11338200FB6F894DEBF0FBECDBF80E027960FB66B
S1133830F894DEBF0FBECDBFDF91CF911F910F91E2
S1133840FF90EF90DF90CF90BF90AF909F908F90BC
S11338500895CF92DF92EF92FF920F931F93CF932D
S1133860DF936C01EB010F2EFFEDEF2EF3E0FF2E43
S1133870F02DFC0160817181F70180819181681BC9
S1133880790B072E000C880B990B0E94682207EC19
S113389013E0F80120813181428153810E94802309
S11338A0688379838A839B83F60162817381F7013C
S11338B082819381681B790B072E000C880B990B6E
S11338C00E946822F80124813581468157810E9433
S11338D080236C837D838E839F83F601648175814D
S11338E0F70184819581681B790B072E000C880BE6
S11338F0990B0E946822F801208531854285538501
S11339000E948023688779878A879B87DF91CF917C
S11339101F910F91FF90EF90DF90CF900895E1E811
S1133920F0E08081826080830895219A0895CF9386
S1133930DF93CDB7DEB7AA970FB6F894DEBF0FBEFC
S1133940CDBF0E94CE1E0E94A61F78940CE813E0FF
S11339508FE2E5EAF2E0D80101900D928A95E1F751
S1133960F80101900020E9F73197AF014C5853401A
S113397060E070E0C8010E94BB1F0F2EF2E3BF2E6F
S1133980F02DF8012B2D11922A95E9F78FEF99E686
S1133990E8E181509040E040E1F700C000000E945F
S11339A0F5108CE1E4EDF2E0D80101900D928A95D6
S11339B0E1F7F80101900020E9F73197AF014C5885
S11339C0534060E070E0C8010E94BB1FF8012B2D3A
S11339D011922A95E9F70E94991183E1E0EFF2E050
S11339E0D80101900D928A95E1F7F8010190002029
S11339F0E9F73197AF014C58534060E070E0C801DB
S1133A000E94BB1FF8012B2D11922A95E9F70E9401
S1133A10171487E2E3E0F3E0D80101900D928A9550
S1133A20E1F7F80101900020E9F73197AF014C5814
S1133A30534060E070E0C8010E94BB1FF8012B2DC9
S1133A4011922A95E9F70E94541B0E9465168BE196
S1133A50EAE2F3E0D80101900D928A95E1F7F801CA
S1133A6001900020E9F73197AF014C58534060E0D2
S1133A7070E0C8010E94BB1FF8011192BA94E9F7E3
S1133A800E948F1C0E94951C209084003090850019
S1133A9048016894442445F8512C0F2EFDE06F2E04
S1133AA0FAE07F2EF02D299ACE0143960E949413BA
S1133AB0CE0149960E945211CE0149960E943111BD
S1133AC0CE010D960E941B16811108C0BE016F5FC6
S1133AD07F4FCE010D960E94291C0CC019821A82B8
S1133AE01B821C821D821E821F82188619861A86DA
S1133AF01B861C866B897C89072E000C880B990B0E
S1133B000E94682227E73DE74BE05AE30E948023A6
S1133B106F8F78A389A39AA36D897E89072E000CE1
S1133B20880B990B0E94682227E73DE74BE05AE394
S1133B300E9480236BA37CA38DA39EA36F89788DA1
S1133B40072E000C880B990B0E94682227E73DE79B
S1133B504BE05AE30E9480236FA378A789A79AA712
S1133B60E4E8F0E0608171812616370668F4621992
S1133B70730980E090E00E94662220E034E244E78A
S1133B8059E40E94F42110C0C101861B970BBC01AB
S1133B906095709580E090E00E94662220E034E217
S1133BA044E759E40E94F42160934C0370934D035D
S1133BB080934E0390934F03E4E8F0E0208031803B
S1133BC0698D7A8D072E000C880B990B0E94682250
S1133BD05B016C0189859A85AB85BC85B058BF9320
S1133BE0AF939F938F938C818F938B818F938A81D3
S1133BF08F9389818F9388858F938F818F938E8103
S1133C008F938D818F936D8D7E8D072E000C880B85
S1133C10990B0E9468229F938F937F936F936B8D70
S1133C207C8D072E000C880B990B0E9468229F93B1
S1133C308F937F936F93EFA0F8A409A51AA52BA1E6
S1133C403CA14DA15EA16F8D78A189A19AA10E948A
S1133C50D0060E944A0FF40122E311922A95E9F753
S1133C60F40101900020E9F7319782E79AE3918308
S1133C7080835382428260915803709159038091EA
S1133C805A0390915B0308E713E020E044E00E94AC
S1133C904C24BC01C4010E948224F4010190002040
S1133CA0E9F731977182608212820F2EF4E1BF2E00
S1133CB0F02DF8012B2D11922A95E9F7F4010190CA
S1133CC00020E9F7319789E79AE39183808353824F
S1133CD042826091500370915103809152039091FC
S1133CE0530320E044E00E944C24BC01C4010E9420
S1133CF08224F40101900020E9F7319771826082F7
S1133D001282F8012B2D11922A95E9F7F401019002
S1133D100020E9F7319780E79AE391838083538207
S1133D20428260915403709155038091560390919F
S1133D30570320E044E00E944C24BC01C4010E94CB
S1133D408224F40101900020E9F731978DE090E09E
S1133D5091838083F8011192BA94E9F7D4010D900C
S1133D600020E9F7119785E0E5E4F3E001900D9276
S1133D708A95E1F7F40101900020E9F73197AF014A
S1133D804C58534060E070E0C4010E94BB1F299866
S1133D900FB6F894DEBF0FBECDBF85CE82E0809310
S1133DA0B8008FEF8093BB0084E08093BC0008953B
S1133DB0CF93DF93EC01ECEBF0E0908190FDFDCF2D
S1133DC06093E70388818093E80380FD13C0623029
S1133DD088F0FE013196A9EEB3E06250262F30E060
S1133DE02E5F3F4FCE01820F931F21912D93E81731
S1133DF0F907D9F71092E60388EF8093080185EA62
S1133E008093BC00DF91CF910895AC01ECEBF0E01E
S1133E10908190FDFDCF8091E60380FF12C0662360
S1133E2081F0A8EEB3E0FA016150262F30E02F5F55
S1133E303F4FCA01820F931F2D912193E817F90771
S1133E40D9F78091E603817008951F920F920FB6FF
S1133E500F9211242F933F938F939F93AF93BF930C
S1133E60EF93FF93E091B9008E2F90E0FC01389717
S1133E70E135F10508F056C0EC5CFF4F0C94EF20DF
S1133E801092E503E091E5038091E703E81770F4ED
S1133E9081E08E0F8093E503F0E0E851FC4F8081D0
S1133EA08093BB0085E88093BC0043C08091E60307
S1133EB081608093E60384E98093BC003AC0E0917A
S1133EC0E50381E08E0F8093E5038091BB00F0E071
S1133ED0E851FC4F80832091E50330E08091E703B3
S1133EE090E001972817390724F485EC8093BC00EF
S1133EF020C085E88093BC001CC08091BB00E09189
S1133F00E503F0E0E851FC4F80838091E603816093
S1133F108093E60384E98093BC000BC085EA809318
S1133F20BC0007C08091B9008093080184E08093AD
S1133F30BC00FF91EF91BF91AF919F918F913F9101
S1133F402F910F900FBE0F901F901895E0ECF0E0AA
S1133F5080811082E1ECF0E080EC808386E0809345
S1133F60C2008CE090E09093C5008093C4008081EF
S1133F70886080830895CF92DF92EF92FF929C0134
S1133F809091F8039111FCCF9091F80391112BC0FB
S1133F90411551056105710541F16A017B01B901C2
S1133FA081E08093F803A6018BEF93E00E947924CB
S1133FB0C0925F04D0926004E0926104F0926204C3
S1133FC01092F4031092F5031092F6031092F70383
S1133FD08091FB038093C600E1ECF0E08081806275
S1133FE0808381E003C080E001C080E0FF90EF9017
S1133FF0DF90CF9008951F920F920FB60F92112465
S11340002F933F934F935F936F937F938F939F93DC
S1134010AF93BF93CF93DF93EF93FF93C091F903D3
S1134020D091FA038091F0039091F103A091F203EF
S1134030B091F3032091C600FE01E80FF91F20831D
S11340408091F0039091F103A091F203B091F303F6
S1134050892B8A2B8B2B69F18091F0039091F103CA
S1134060A091F203B091F303019742E050E06AE4B7
S113407073E08C0F9D1F0E946C24892BD1F08091DA
S1134080F0039091F103A091F203B091F303C80FF0
S1134090D91F19828091F803833021F481E0809341
S11340A0F80302C01092F803E1ECF0E080818F7E07
S11340B080838091F0039091F103A091F203B09179
S11340C0F3030196A11DB11D8093F0039093F103B6
S11340D0A093F203B093F303FF91EF91DF91CF919B
S11340E0BF91AF919F918F917F916F915F914F910C
S11340F03F912F910F900FBE0F901F9018951F9214
S11341000F920FB60F9211244F935F936F937F9387
S11341108F939F93AF93BF93EF93FF938091F40397
S11341209091F503A091F603B091F7030196A11DB8
S1134130B11D8093F4039093F503A093F603B09319
S1134140F7034091F4035091F5036091F6037091E5
S1134150F70380915F0490916004A0916104B09191
S11341606204481759076A077B0778F48091F403BF
S11341709091F503A091F603B091F703FC01E5508B
S1134180FC4F80818093C60005C0E1ECF0E08081A3
S11341908F7D8083FF91EF91BF91AF919F918F911C
S11341A07F916F915F914F910F900FBE0F901F9071
S11341B018951F920F920FB60F9211248F9380912E
S11341C0F803833021F482E08093F80302C0109254
S11341D0F8038F910F900FBE0F901F901895EE0F5C
S11341E0FF1F0590F491E02D09945058BB27AA278E
S11341F00E940D210C9439230E942B2338F00E9435
S1134200322320F039F49F3F19F426F40C94ED2264
S11342100EF4E095E7FB0C94E722E92F0E944A2371
S113422058F3BA17620773078407950720F079F4E7
S1134230A6F50C946C230EF4E0950B2EBA2FA02D4A
S11342400B01B90190010C01CA01A0011124FF273F
S1134250591B99F0593F50F4503E68F11A16F0403A
S1134260A22F232F342F4427585FF3CF4695379539
S11342702795A795F0405395C9F77EF41F16BA0BFE
S1134280620B730B840BBAF09150A1F0FF0FBB1FAC
S1134290661F771F881FC2F70EC0BA0F621F731FF5
S11342A0841F48F4879577956795B795F7959E3F52
S11342B008F0B0CF9395880F08F09927EE0F9795E3
S11342C0879508959F939F77EEE389379E0728F497
S11342D0EAE0F1E00E9417230CC00E94A322905848
S11342E0A2EA2AED3FE049EC5FE30E940D210E941F
S11342F039230F9007FC905808950E942B2360F0F7
S113430080E891E009F49EEF0E94322328F040E80F
S113431051E071F45EEF0CC00C94ED220C946C230C
S1134320E92FE0780E944A2340F3092E052AB1F3CD
S1134330261737074807590738F00E2E07F8E025E7
S113434069F0E025E0640AC0EF6307F8009407FA17
S1134350DB01B9019D01DC01CA01AD01EF930E94AB
S11343600B220E9439230E94C0215F91552339F00A
S11343702BED3FE049E450FD49EC0C94F620089500
S1134380DF93DD27B92FBF7740E85FE316161706E2
S113439048075B0718F4D92F0E9478239F938F93C3
S11343A07F936F930E943324EEE1F1E00E94F022A8
S11343B00E9439232F913F914F915F910E94932343
S11343C0DD2351F09058A2EA2AED3FE049EC5FE387
S11343D0D0785D270E940D21DF910C9439230E942F
S11343E0C32208F481E008950E9408220C94392322
S11343F00E94322358F00E942B2340F029F45F3F9F
S113440029F00C94E72251110C946D230C94ED22A5
S11344100E944A2368F39923B1F3552391F3951B22
S1134420550BBB27AA2762177307840738F09F5FD1
S11344305F4F220F331F441FAA1FA9F335D00E2E3E
S11344403AF0E0E832D091505040E695001CCAF7AB
S11344502BD0FE2F29D0660F771F881FBB1F26176E
S113446037074807AB07B0E809F0BB0B802DBF0145
S1134470FF2793585F4F3AF09E3F510578F00C9414
S1134480E7220C946D235F3FE4F3983ED4F38695C2
S113449077956795B795F7959F5FC9F7880F911D35
S11344A09695879597F90895E1E0660F771F881F21
S11344B0BB1F621773078407BA0720F0621B730BD4
S11344C0840BBA0BEE1F88F7E0950895E89409C0B1
S11344D097FB3EF490958095709561957F4F8F4F33
S11344E09F4F9923A9F0F92F96E9BB279395F69549
S11344F0879577956795B795F111F8CFFAF4BB0FC7
S113450011F460FF1BC06F5F7F4F8F4F9F4F16C02A
S1134510882311F096E911C0772321F09EE8872FB4
S1134520762F05C0662371F096E8862F70E060E070
S11345302AF09A95660F771F881FDAF7880F9695E9
S1134540879597F90895DF93CF931F930F938B016A
S1134550EC01EBE4F1E00E94F0220E94392398017F
S1134560AE018B01EC0160E070E080E89FE30E9403
S1134570F5200E94F3239801AE010F911F91CF9172
S1134580DF910C949323990F0008550FAA0BE0E8D0
S1134590FEEF16161706E807F907C0F01216130601
S11345A0E407F50798F0621B730B840B950B39F441
S11345B00A2661F0232B242B252B21F408950A26A7
S11345C009F4A140A6958FEF811D811D089597F9E7
S11345D09F6780E870E060E008959FEF80EC0895A5
S11345E0DF93CF931F930F93FF92EF92DF927B01A0
S11345F08C01689406C0DA2EEF010E949323FE0119
S1134600E894A5912591359145915591A6F3EF0133
S11346100E940D21FE019701A801DA9469F7DF9049
S1134620EF90FF900F911F91CF91DF9108959F9389
S11346308F937F936F93FF93EF939B01AC010E9441
S11346408023EF91FF910E94F0222F913F914F918F
S11346505F910C94802300240A94161617061806FA
S11346600906089500240A94121613061406050672
S11346700895092E0394000C11F4882352F0BB0F03
S113468040F4BF2B11F460FF04C06F5F7F4F8F4F66
S11346909F4F089557FD9058440F551F59F05F3FA1
S11346A071F04795880F97FB991F61F09F3F79F050
S11346B087950895121613061406551FF2CF4695D2
S11346C0F1DF08C0161617061806991FF1CF869554
S11346D07105610508940895E894BB276627772738
S11346E0CB0197F908950E94C32208F48FEF08952F
S11346F09B01AC0160E070E080E89FE30C94F4213E
S11347000E9493230C9439230E942B2338F00E9497
S1134710322320F0952311F00C94E7220C94ED221F
S113472011240C946D230E944A2370F3959FC1F3C6
S1134730950F50E0551F629FF001729FBB27F00D4B
S1134740B11D639FAA27F00DB11DAA1F649F6627A0
S1134750B00DA11D661F829F2227B00DA11D621FEF
S1134760739FB00DA11D621F839FA00D611D221FA9
S1134770749F3327A00D611D231F849F600D211D8D
S1134780822F762F6A2F11249F5750409AF0F1F010
S113479088234AF0EE0FFF1FBB1F661F771F881F79
S11347A091505040A9F79E3F510580F00C94E722A8
S11347B00C946D235F3FE4F3983ED4F3869577958C
S11347C06795B795F795E7959F5FC1F7FE2B880F1F
S11347D0911D9695879597F9089519F416F40C94FC
S11347E0ED220C9437240E945223B8F39923C9F381
S11347F0B6F39F57550B87FF0E9445240024A0E67B
S113480040EA900180585695979528F4805C660F8D
S1134810771F881F20F026173707480730F4621BDC
S1134820730B840B202931294A2BA69517940794DE
S1134830202531254A2758F7660F771F881F20F057
S113484026173707480730F4620B730B840B200DCF
S1134850311D411DA09581F7B901842F9158880F0E
S11348609695879508959B01AC010C9480239F3FF6
S113487031F0915020F4879577956795B795880F17
S1134880911D9695879597F9089591505040660F1C
S1134890771F881FD2F70895EF920F931F93CF933A
S11348A0DF93E80147FD02C034E001C034E1042E87
S11348B0000C550B57FF03C0519541955109E32E48
S11348C0022F242FAE010E949026CE01DF91CF91BA
S11348D01F910F91EF900895FB01DC0104C08D91AD
S11348E00190801921F441505040C8F7881B990B5E
S11348F00895FB01DC0102C001900D92415050402B
S1134900D8F70895FB01DC010D900020E9F7119719
S113491001900D920020E1F70895AEE0B0E0E3E9E4
S1134920F4E20C9480290D891E8986E08C831A8315
S113493009838FEF9FE79E838D83AE01475E5F4FB0
S11349406F89788DCE0101960E94AF24EF81F8859E
S1134950E00FF11F10822E96E4E00C949C29ABE04A
S1134960B0E0E5EBF4E20C9472296C017B018A015E
S1134970FC0117821682838181FFCCC1CE0101968E
S11349803C01F6019381F70193FD859193FF819199
S11349907F01882309F4BAC1853239F493FD8591E6
S11349A093FF81917F01853229F4B60190E00E9442
S11349B0D828E7CF912C212C312CFFE1F315D8F026
S11349C08B3279F038F4803279F08332A1F4232DDC
S11349D020611DC08D3261F0803369F4232D216084
S11349E016C0832D8260382EE32DE4603E2E2AC04B
S11349F0F32DF8601DC037FC2DC020ED280F2A30A0
S1134A0040F08E32B9F436FC81C1232D2064322E5D
S1134A1019C036FE06C08AE0989E200D1124922EFD
S1134A2011C0EAE02E9E200D1124222EF32DF062F7
S1134A303F2E08C08C3621F4832D8068382E02C0A6
S1134A40883641F4F70193FD859193FF81917F01AD
S1134A508111B3CF982F9F7D9554933028F40C5F28
S1134A601F4F9FE399830DC0833631F0833771F074
S1134A70833509F059C021C0F801808189830E5F14
S1134A801F4F88248394912C530113C02801F2E012
S1134A904F0E511CF801A080B18036FE03C0692D71
S1134AA070E002C06FEF7FEFC5010E94CD284C017A
S1134AB08201F32DFF773F2E16C0280122E0420E1B
S1134AC0511CF801A080B18036FE03C0692D70E04E
S1134AD002C06FEF7FEFC5010E94C2284C01F32D85
S1134AE0F0683F2E820133FC1BC0822D90E08816B3
S1134AF09906B0F4B60180E290E00E94D8282A9486
S1134B00F4CFF50137FC859137FE81915F01B60141
S1134B1090E00E94D82821102A9421E0821A91085A
S1134B208114910471F7E8C0843611F0893641F597
S1134B30F80137FE07C060817181828193810C5F27
S1134B401F4F08C060817181072E000C880B990BE0
S1134B500E5F1F4FF32DFF763F2E97FF09C09095F0
S1134B608095709561957F4F8F4F9F4FF0683F2ED2
S1134B702AE030E0A3010E941429882E861845C03B
S1134B80853731F4232D2F7EB22E2AE030E025C064
S1134B90932D997FB92E8F36C1F018F4883579F0AA
S1134BA0B5C0803719F0883721F0B0C0E92FE06133
S1134BB0BE2EB4FE0DC0FB2DF460BF2E09C034FE22
S1134BC00AC0292F2660B22E06C028E030E005C0B6
S1134BD020E130E002C020E132E0F801B7FE07C076
S1134BE060817181828193810C5F1F4F06C0608157
S1134BF0718180E090E00E5F1F4FA3010E94142991
S1134C00882E8618FB2DFF773F2E36FE0DC0232DF0
S1134C102E7FA22E891458F434FE0BC032FC09C036
S1134C20832D8E7EA82E05C0B82CA32C03C0B82CCF
S1134C3001C0B92CA4FE0FC0FE01E80DF11D808156
S1134C40803321F49A2D997EA92E09C0A2FE06C0B4
S1134C50B394B39404C08A2D867809F0B394A3FC6A
S1134C6011C0A0FE06C0B21488F4280C922C9B1824
S1134C700EC0B21460F4B60180E290E00E94D8281D
S1134C80B394F7CFB21418F42B1802C0982C212C2B
S1134C90A4FE10C0B60180E390E00E94D828A2FED2
S1134CA017C0A1FC03C088E790E002C088E590E04B
S1134CB0B6010CC08A2D867859F0A1FE02C08BE2A1
S1134CC001C080E2A7FC8DE2B60190E00E94D828E2
S1134CD0891438F4B60180E390E00E94D8289A94AD
S1134CE0F7CF8A94F301E80DF11D8081B60190E0BD
S1134CF00E94D8288110F5CF222009F442CEB601B3
S1134D0080E290E00E94D8282A94F6CFF6018681AA
S1134D10978102C08FEF9FEF2B96E2E10C948E29CE
S1134D20A9E0B0E0E6E9F6E20C9478296A01122FD2
S1134D30B02E2BE3201720F0FF24F394F00E02C0D2
S1134D402CE3F22E0F2D27E0AE014F5F5F4F0E9440
S1134D50EA27BC014981842F8970813031F0E1FC5C
S1134D6006C0E0FE06C090E205C09DE203C09BE2DF
S1134D7001C090E05E2D507143FF3CC0911102C010
S1134D8083E001C084E0811718F4212F281B01C09F
S1134D9020E051110BC0F601822F30E2882319F074
S1134DA031938150FBCFC20ED11C20E0992329F00E
S1134DB0D6019C93F60131966F01C6010396E2FE7B
S1134DC00AC03EE4D6013C9341E411964C931197FA
S1134DD012963C9306C03EE6F601308341E64183D9
S1134DE03283FC01322F40E2332309F442C0419361
S1134DF03150FACF42FF44C0911102C083E001C098
S1134E0084E0811718F4212F281B01C020E05111E0
S1134E100BC0F601822F30E2882319F031938150C0
S1134E20FBCFC20ED11C20E0992329F0D6019C931C
S1134E30F60131966F01C6010396E2FE0BC039E418
S1134E40D6013C933EE411963C93119736E41296B6
S1134E503C9307C039E6F60130833EE6318336E6FB
S1134E603283FC01322F40E2332319F04193315055
S1134E70FBCFFC01E20FF11D10828EEF9FEFA6C065
S1134E8021E030E0911102C020E030E01616170650
S1134E901CF4FB01319602C0E1E0F0E02E0F3F1F4D
S1134EA0BB2021F0EB2DF0E0319602C0E0E0F0E011
S1134EB02E0F3F1FE12FF0E02E173F071CF4121BAB
S1134EC0212F01C020E08E2D887159F4F601822F24
S1134ED030E2882319F031938150FBCFC20ED11CEC
S1134EE020E0992329F0D6019C93F60131966F01B5
S1134EF051110BC0F601822F90E3882319F091938E
S1134F008150FBCFC20ED11C20E00F2D060F9A81D9
S1134F10342F307144FF03C0913309F4015010164B
S1134F2024F4093018F008E001C001E0AB0177FF78
S1134F3002C040E050E0FB01E41BF50BA1E0B0E04F
S1134F40AC0FBD1FEA0FFB1F8EE2A82E4B01801A87
S1134F5091080B2D10E01195019511094F3FBFEFFA
S1134F605B0721F4D601AC9211966D0164177507A5
S1134F702CF08416950614F4818101C080E341501D
S1134F8051093196D60111967D014017510724F03D
S1134F90D6018C936701E2CF6417750739F4963311
S1134FA020F4953319F4311101C081E3F6018083B3
S1134FB0F701822F90E2882319F091938150FBCF5F
S1134FC0F701E20FF11D108280E090E02996ECE0F9
S1134FD00C949429283008F027E03327DA01990F3C
S1134FE0311D87FD916000966105710539F43260C9
S1134FF02E5F3D9330E32A95E1F708959F3F30F00B
S113500080387105610509F03C5F3C5F3D93913048
S113501008F08068911DDF93CF931F930F93FF9245
S1135020EF92192F987F9695E92F96959695E90F0B
S1135030FF27E253FE4F99273327EE24FF24A701CD
S1135040E70105900894079428F4360FE71EF81E2C
S1135050491F511D660F771F881F991F0694A1F7DA
S11350600590079428F4E70EF81E491F561FC11D2A
S1135070770F881F991F661F0694A1F70590079460
S113508028F4F80E491F561FC71FD11D880F991FFA
S1135090661F771F0694A1F70590079420F4490F23
S11350A0561FC71FD81F990F661F771F881F0694A6
S11350B0A9F784911095177041F0D695C795579527
S11350C04795F794E7941A95C1F7E4E7F1E06894FB
S11350D01590159135916591959105907FE27395A1
S11350E0E118F10A430B560BC90BD009C0F7E10CC8
S11350F0F11E431F561FC91FD01D7EF4703311F4D7
S11351008A95E6CFE894015030F0080F0AF400279E
S1135110021708F4202F2395022F7A3328F079E31D
S11351207D932A95E9F710C07D932A9589F6069414
S113513097956795379517951794E118F10A430BDE
S1135140560BC90BD00998F023957E9173957A3349
S113515008F070E37C932013B8F77E9170617D931F
S113516030F0839571E37D9370E32A95E1F7112480
S1135170EF90FF900F911F91CF91DF91992787FDB9
S113518090950895FC010590615070400110D8F786
S1135190809590958E0F9F1F0895FC01615070407B
S11351A001900110D8F7809590958E0F9F1F089558
S11351B00F931F93CF93DF93FB01238121FD03C042
S11351C08FEF9FEF2CC022FF16C0468157812481A8
S11351D035814217530744F4A081B1819D012F5FAB
S11351E03F4F318320838C93268137812F5F3F4F3C
S11351F03783268314C08B01EC01FB010084F18505
S1135200E02D0995892BE1F6D80116968D919C9194
S11352101797019617969C938E931697CE01DF915C
S1135220CF911F910F910895FA01AA27283051F1C7
S1135230203181F1E8946F936E7F6E5F7F4F8F4FC3
S11352409F4FAF4FB1E03ED0B4E03CD0670F781F22
S1135250891F9A1FA11D680F791F8A1F911DA11D07
S11352606A0F711D811D911DA11D20D009F4689440
S11352703F912AE0269F11243019305D3193DEF6E8
S1135280CF010895462F4770405D4193B3E00FD09E
S1135290C9F7F6CF462F4F70405D4A3318F0495D89
S11352A031FD4052419302D0A9F7EACFB4E0A6956C
S11352B09795879577956795BA95C9F7009761058E
S11352C0710508959B01AC010A2E069457954795E4
S11352D037952795BA95C9F7620F731F841F951FD9
S11352E0A01D08952F923F924F925F926F927F92EA
S11352F08F929F92AF92BF92CF92DF92EF92FF92E2
S11353000F931F93CF93DF93CDB7DEB7CA1BDB0B8D
S11353100FB6F894DEBF0FBECDBF09942A88398832
S113532048885F846E847D848C849B84AA84B98439
S1135330C884DF80EE80FD800C811B81AA81B98145
S1135340CE0FD11D0FB6F894DEBF0FBECDBFED0159
S10953500895F894FFCF5C
S11353560000803F0000803FF8008000800080FF4E
S11353667FFF7FFF7F53756D2061783A20256C643B
S11353760D0A0053756D2061793A20256C640D0A77
S11353860053756D20617A3A20256C640D0A00413C
S113539676672061783A20256C640D0A00417667A9
S11353A62061793A20256C640D0A004176672061F4
S11353B67A3A20256C640D0A005A65726F696E6725
S11353C6206269617320776974683A2025640D0A3E
S11353D60053756D2067783A20256C640D0A0053D6
S11353E6756D2067793A20256C640D0A0053756D36
S11353F620677A3A20256C640D0A004D6178206D89
S11354063A2025640D0A004D696E206D3A20256404
S11354160D0A00486172642069726F6E20782072EA
S113542661773A2025640D0A004861726420697226
S11354366F6E2079207261773A2025640D0A004840
S11354466172642069726F6E207A207261773A20E5
S113545625640D0A0053636C20466C6F61742073D7
S11354666F66742069726F6E20783A200053636CFD
S113547620466C6F617420736F66742069726F6E58
S113548620793A200053636C20466C6F6174207354
S11354966F66742069726F6E207A3A2000617667AF
S11354A62072616400736F66742069726F6E206483
S11354B66F6E650D0A0058207363616C6520666122
S11354C663746F723A2025640D0A00592073636170
S11354D66C6520666163746F723A2025640D0A0058
S11354E65A207363616C6520666163746F723A2037
S11354F625640D0A00506C6561736520707574200F
S11355067468652073656E736F7220646F776E209E
S11355166F6E206120666C617420737572666163B8
S1135526650D0A0063616C6962726174696E672055
S1135536616363656C65726F6D657465720D0A00EF
S113554643616C6962726174696E67204779726F30
S11355560D0A00506C656173652077617665207469
S113556668652073656E736F7220696E20616E20A4
S1135576382073686170650D0A00596F7520636180
S11355866E2073746F7020776176696E67206E6F14
S10F559677200D0A001B5B3241000D0A57
S9030000FC
