S0170000494D555F48656164747261636B65722E7372656365
S11300000C9485000C94A2000C94A2000C94A20001
S11300100C94A2000C94A2000C94A2000C94A200D4
S11300200C94A2000C94A2000C94A2000C94A200C4
S11300300C94A2000C94A2000C94A2000C94A200B4
S11300400C94A2000C94A2000C948F020C94120342
S11300500C9473030C94A2000C94A2000C94A200C0
S11300600C9401020C94A2001C026E026E026E0239
S11300706E026E026E026E021C026E026E026E024E
S11300806E026E026E026E021E026E026E026E023C
S11300906E026E026E026E026E026E026E026E02DC
S11300A06E026E026E026E021E026E026E026E021C
S11300B06E026E026E026E026E026E026E026E02BC
S11300C06E026E026E026E026A026E026E026E02B0
S11300D06E026E026E026E0247026E026E026E02C3
S11300E06E026E026E026E026E026E026E026E028C
S11300F06E026E026E026E023B026E026E026E02AF
S11301006E026E026E026E02590211241FBECFEF00
S1130110D8E0DEBFCDBF11E0A0E0B1E0ECE4F7E051
S113012002C005900D92A430B107D9F721E0A4E0F4
S1130130B1E001C01D92A032B207E1F70E94A20112
S11301400C94A4030C940000CF93DF93CDB7DEB7D7
S113015028970FB6F894DEBF0FBECDBFFC014081D7
S113016051815195419551095183408322813381B5
S11301703195219531093383228384819581919529
S1130180819591099583848351813381958160EDB3
S1130190698363E16A835B834C833D832E839F83FE
S11301A0888768E0CE0101960E94B40180E0289619
S11301B00FB6F894DEBF0FBECDBFDF91CF91089587
S11301C04F925F926F927F928F929F92AF92BF9263
S11301D0CF92DF92EF92FF920F931F93CF93DF930F
S11301E0CDB7DEB760970FB6F894DEBF0FBECDBFB4
S11301F010ED19838BE18A8380E18B8363E0CE0168
S113020001960E94B401198383E48A8381ED8C836F
S113021000E014E062E0CE0101960E94B40167E0C0
S1130220CE0104960E94B40167E0CE0104960E94B8
S1130230E1018D8190E0982F88272E81822B092E51
S1130240000CAA0BBB0B480E591E6A1E7B1E8F8125
S113025090E0982F88272885822B092E000CAA0B62
S1130260BB0B880E991EAA1EBB1E898590E0982F91
S113027088272A85822B092E000CAA0BBB0BC80EDB
S1130280D91EEA1EFB1E89EF90E00197F1F700C02A
S113029000000150110909F0BDCFD301C20177203C
S11302A024F481509C4FAF4FBF4F072E7AE0B59591
S11302B0A795979587957A95D1F7702D9C878B870D
S11302C0D501C401BB2024F481509C4FAF4FBF4FD4
S11302D0072E7AE0B595A795979587957A95D1F7E6
S11302E0702D9E878D87D701C601FF2024F481508D
S11302F09C4FAF4FBF4F072E7AE0B595A7959795C2
S113030087957A95D1F7702D988B8F87CE010B96B0
S11303100E94A40080E060960FB6F894DEBF0FBE82
S1130320CDBFDF91CF911F910F91FF90EF90DF90A0
S1130330CF90BF90AF909F908F907F906F905F9081
S11303404F9008950E94AA010E94820278940E940C
S1130350E000FFCF82E08093B8008FEF8093BB0072
S113036084E08093BC000895CF93DF93EC01ECEB21
S1130370F0E0908190FDFDCF609306018881809329
S1130380070180FD13C0623088F0FE013196A8E0B9
S1130390B1E06250262F30E02E5F3F4FCE01820F36
S11303A0931F21912D93E817F907D9F710920501AE
S11303B088EF8093000185EA8093BC00DF91CF91A0
S11303C00895AC01ECEBF0E0908190FDFDCF8091BD
S11303D0050180FF12C0662381F0A7E0B1E0FA01B5
S11303E06150262F30E02F5F3F4FCA01820F931FC9
S11303F02D912193E817F907D9F7809105018170B0
S113040008951F920F920FB60F9211242F933F93CA
S11304108F939F93AF93BF93EF93FF93E091B900B2
S11304208E2F90E0FC013897E135F10508F056C0B5
S1130430EC5CFF4F0C94910310920401E0910401D1
S113044080910601E81770F481E08E0F8093040117
S1130450F0E0E95FFE4F80818093BB0085E88093E4
S1130460BC0043C08091050181608093050184E94B
S11304708093BC003AC0E091040181E08E0F809328
S113048004018091BB00F0E0E95FFE4F808320917E
S1130490040130E08091060190E0019728173907A4
S11304A024F485EC8093BC0020C085E88093BC00D4
S11304B01CC08091BB00E0910401F0E0E95FFE4FB5
S11304C080838091050181608093050184E9809394
S11304D0BC000BC085EA8093BC0007C08091B900C2
S11304E08093000184E08093BC00FF91EF91BF9161
S11304F0AF919F918F913F912F910F900FBE0F90CD
S11305001F90189580EC8093C10086E08093C20010
S11305108CE090E09093C5008093C40008951F92EE
S11305200F920FB60F9211242F933F934F935F9323
S11305306F937F938F939F93AF93BF93CF93DF93E7
S1130540EF93FF93C0911801D091190180910F018D
S113055090911001A0911101B09112012091C60057
S1130560FE01E80FF91F208380910F019091100183
S1130570A0911101B0911201892B8A2B8B2B61F16F
S113058080910F0190911001A0911101B09112017D
S1130590019742E050E061E071E08C0F9D1F0E94E2
S11305A09703892BC9F080910F0190911001A091BC
S11305B01101B0911201C80FD91F1982809117013E
S11305C0833021F481E08093170102C01092170157
S11305D0E1ECF0E08081108280910F019091100194
S11305E0A0911101B09112010196A11DB11D80933A
S11305F00F0190931001A0931101B0931201FF9188
S1130600EF91DF91CF91BF91AF919F918F917F91A6
S11306106F915F914F913F912F910F900FBE0F906B
S11306201F9018951F920F920FB60F9211242F93BB
S11306303F934F935F936F937F938F939F93AF9366
S1130640BF93EF93FF938091130190911401A091B4
S11306501501B09116010196A11DB11D80931301DE
S113066090931401A0931501B093160140911301C6
S113067050911401609115017091160180911C0133
S113068090911D01A0911E01B0911F0148175907B7
S11306906A077B0798F48091130190911401A0914B
S11306A01501B091160120911A0130911B01F90135
S11306B0E80FF91F80818093C60004C0E1ECF0E0EC
S11306C080811082FF91EF91BF91AF919F918F91A3
S11306D07F916F915F914F913F912F910F900FBE3A
S11306E00F901F9018951F920F920FB60F9211241E
S11306F08F93EF93FF9380911701833021F482E06D
S11307008093170102C010921701E1ECF0E08081A0
S11307101082FF91EF918F910F900FBE0F901F9059
S11307201895EE0FFF1F0590F491E02D0994FB013D
S1130730DC0104C08D910190801921F44150504096
S10F0740C8F7881B990B0895F894FFCFAC
S107074CF80D0A0096
S9030000FC
