S0170000494D555F48656164747261636B65722E7372656365
S11300000C9437010C9454010C9454010C94540135
S11300100C9454010C9454010C9454010C94540108
S11300200C9454010C9454010C9454010C945401F8
S11300300C9454010C9454010C9454010C945401E8
S11300400C9454010C9454010C9431270C94B5274E
S11300500C940F280C9454010C9454010C945401E6
S11300600C945B260C9454017626C826C826C82610
S1130070C826C826C826C8267626C826C826C8265E
S1130080C826C826C826C8267826C826C826C8264C
S1130090C826C826C826C826C826C826C826C826EC
S11300A0C826C826C826C8267826C826C826C8262C
S11300B0C826C826C826C826C826C826C826C826CC
S11300C0C826C826C826C826C426C826C826C826C0
S11300D0C826C826C826C826A126C826C826C826D3
S11300E0C826C826C826C826C826C826C826C8269C
S11300F0C826C826C826C8269526C826C826C826BF
S1130100C826C826C826C826B326036EDB363D9A01
S11301109999993DABAAAA2A3E000000803F084A5B
S1130120D73B3BCE016E84BCBFFDC12F3D6C743107
S11301309ABD56833DDA3D00C77F11BED9E4BB4C5E
S11301403E916BAAAABE000000803F072C7AA5BA94
S11301506CC590DA3B9365FC8BBC53F810FD3C56A0
S113016092834DBD879D3AB63DCBC9BF5BBE73DA62
S11301700FC93F0000407A10F35A00A0724E1809CC
S11301800010A5D4E80000E87648170000E40B54FA
S1130190020000CA9A3B000000E1F50500008096C9
S11301A09800000040420F000000A08601000000FB
S11301B0102700000000E8030000000064000000B5
S11301C000000A00000000000100000000002C767E
S11301D0D888DC674F0823DFC1DFAE59E1B1B79699
S11301E0E5E3E453C63AE651997696E8E6C28426F6
S11301F0EB898C9B62ED407C6FFCEFBC9C9F40F2D2
S1130200BAA56FA5F490055A2AF75C936B6CF9674D
S11302106DC11BFCE0E40D47FEF520E6B500D0ED12
S1130220902E0300943577050080841E080000207A
S11302304E0A000000C80C333333330F986E128318
S11302401141EF8D2114893BE65516CFFEE6DB18EC
S1130250D1844B381BF77C1D901DA4BBE4242032B1
S113026084725E228100C9F124ECA1E53D271124AA
S11302701FBECFEFD8E0DEBFCDBF13E0A0E0B1E0FA
S1130280E8EBF1E602C005900D92AC34B107D9F762
S113029024E0ACE4B3E001C01D92A335B207E1F75A
S11302A00E94C4230C94DA300C940000CF92DF92A5
S11302B0EF92FF920F931F938B019C013595279525
S11302C0179507950F2EFFEDCF2EF9E5DF2EF7E3F7
S11302D0EF2EFFE5FF2EF02DC01AD10AE20AF30A31
S11302E020E030E040E05FE30E94B12AA7019601DC
S11302F00E94B12AA70196010E94B12A9B01AC0178
S113030060E070E080EC9FE30E942B28A701960137
S11303100E94B12A1F910F91FF90EF90DF90CF9030
S113032008954F925F926F927F928F929F92AF92B5
S1130330BF92CF92DF92EF92FF920F931F93CF93CE
S1130340DF93CDB7DEB7CC54D1090FB6F894DEBF36
S11303500FBECDBF6D837E838F83988729873A87AD
S11303604B875C87E982FA820B831C838091640348
S113037090916503A0916603B09167034090600378
S1130380509061036090620370906303E0905C039B
S1130390F0905D0300915E0310915F03E9A6FAA655
S11303A00BA71CA7BC01CD0190582D813E814F8124
S11303B058850E94B12A6D8B7E8B8F8B988F2985EF
S11303C03A854B855C85C301B2010E94B12A9B0129
S11303D0AC016D897E898F89988D0E942B282B0111
S11303E03C0129813A814B815C81C801B7010E949B
S11303F0B12A9B01AC01C301B2010E942B2820E069
S113040030E040E05FE30E94B12A69A77AA78BA796
S11304109CA720910001309101014091020150916B
S113042003014090600350906103609062037090F8
S11304306303E0905C03F0905D0300915E03109110
S11304405F03ED8AFE8A0F8B188F6D817E818F8109
S113045098850E94B12A698F7A8F8B8F9C8FA30114
S1130460920169817A818B819C810E94B12A9B01CE
S1130470AC01698D7A8D8B8D9C8D0E942C282B016B
S11304803C01A801970169857A858B859C850E942A
S1130490B12A9B01AC01C301B2010E942B2820E0C8
S11304A030E040E05FE30E94B12A6D8B7E8B8F8B3E
S11304B0988F2091000130910101409102015091E7
S11304C0030140906403509065036090660370904C
S11304D06703E0905C03F0905D0300915E0310916C
S11304E05F03E98EFA8E0B8F1C8F69857A858B8565
S11304F09C850E94B12A6D8F7E8F8F8F98A3A30154
S1130500920169817A818B819C810E94B12A9B012D
S1130510AC016D8D7E8D8F8D98A10E942B282B01AF
S11305203C01A80197016D817E818F8198850E948D
S1130530B12A9B01AC01C301B2010E942C2820E026
S113054030E040E05FE30E94B12A698F7A8F8B8F9D
S11305509C8F209100013091010140910201509142
S113056003014090640350906503609066037090AB
S11305706703E0906003F0906103009162031091BF
S11305806303ED8EFE8E0F8F18A369817A818B81B0
S11305909C810E94B12A69837A838B839C83A30103
S11305A0920169857A858B859C850E94B12A9B017D
S11305B0AC0169817A818B819C810E942C282B015A
S11305C03C01A80197016D817E818F8198850E94ED
S11305D0B12A9B01AC01C301B2010E942B2820E087
S11305E030E040E05FE30E94B12A6D8F7E8F8F8FF1
S11305F098A320E030E0A901C601B5010E94252995
S113060081111BC020E030E0A901A3966CAD7DAD43
S11306108EAD9FADA3970E94252981110EC020E0C5
S113062030E0A901A7966CAD7DAD8EAD9FADA797C7
S11306300E942529882309F4C4C3A6019501C60193
S1130640B5010E94B12A2B013C01A3962CAD3DAD0E
S11306504EAD5FADA397CA01B9010E94B12A9B01B7
S1130660AC01C301B2010E942C282B013C01A796C6
S11306702CAD3DAD4EAD5FADA797CA01B9010E9447
S1130680B12A9B01AC01C301B2010E942C280E9433
S113069056012B013C019B01AC01C601B5010E942E
S11306A0B12A6D837E838F839887A3019201A396D9
S11306B06CAD7DAD8EAD9FADA3970E94B12A6987C5
S11306C07A878B879C87A3019201A7966CAD7DAD39
S11306D08EAD9FADA7970E94B12A6DA77EA78FA765
S11306E098AB609100017091010180910201909199
S11306F003019B01AC010E942C2869AB7AAB8BAB44
S11307009CAB609164037091650380916603909142
S113071067039B01AC010E942C286DAB7EAB8FABB1
S113072098AF60916003709161038091620390912E
S113073063039B01AC010E942C2869AF7AAF8BAF95
S11307409CAF60915C0370915D0380915E03909116
S11307505F039B01AC010E942C2821966CAF7DAFF6
S11307608EAF9FAF2197609100017091010180913C
S113077002019091030120E030E040E850E40E943F
S1130780B12A6B017C0160916403709165038091CF
S113079066039091670320E030E040E850E40E9453
S11307A0B12A6D877E878F87988B609160037091E3
S11307B06103809162039091630320E030E040E89C
S11307C050E40E94B12A69A37AA38BA39CA36091ED
S11307D0640370916503809166039091670320E040
S11307E030E040E051E40E94B12A25966CAF7DAF21
S11307F08EAF9FAF259760916003709161038091E4
S113080062039091630320E030E040E051E40E94F1
S1130810B12A29966CAF7DAF8EAF9FAF2997809098
S1130820000190900101A0900201B090030140905A
S113083000015090010160900201709003016091E9
S1130840640370916503809166039091670320911E
S113085064033091650340916603509167030E94DD
S1130860B12A69837A838B839C836091600370913E
S1130870610380916203909163032091600330913E
S1130880610340916203509163030E94B12A698B12
S11308907A8B8B8B9C8B60915C0370915D03809150
S11308A05E0390915F0320915C0330915D0340915E
S11308B05E0350915F030E94B12A2D966CAF7DAF09
S11308C08EAF9FAF2D9729893A894B895C89C701DF
S11308D0B6010E94B12A6DA37EA38FA398A729AD68
S11308E03AAD4BAD5CAD6D817E818F8198850E9460
S11308F0B12A9B01AC016DA17EA18FA198A50E9494
S11309002C286DA37EA38FA398A729813A814B81BC
S11309105C81C701B6010E94B12A9B01AC016DA1A3
S11309207EA18FA198A50E942C286B017C012DA982
S11309303EA94FA958AD69857A858B859C850E940F
S1130940B12A9B01AC01C701B6010E942B286DA3FB
S11309507EA38FA398A7A3019201C501B4010E94AD
S1130960B12A20E030E040E850E40E94B12A6B0153
S11309707C0140906403509065036090660370901E
S113098067032D962CAD3DAD4EAD5FAD2D976D85B6
S11309907E858F8598890E94B12A4B015C0121963E
S11309A02CAD3DAD4EAD5FAD21976D817E818F81C4
S11309B098850E94B12A9B01AC01C501B4010E9433
S11309C02B284B015C01A3019201C701B6010E94CF
S11309D0B12A9B01AC01C501B4010E942C284B0132
S11309E05C0129A93AA94BA95CA969857A858B85FB
S11309F09C850E94B12A9B01AC01C501B4010E94EF
S1130A002B282D853E854F8558890E942B284B0124
S1130A105C0129813A814B815C8125966CAD7DAD69
S1130A208EAD9FAD25970E94B12A9B01AC01C501F3
S1130A30B4010E942C284B015C0129893A894B8915
S1130A405C8925966CAD7DAD8EAD9FAD25970E94DA
S1130A50B12A9B01AC01C501B4010E942C284B01B1
S1130A605C012D853E854F8558896DA57EA58FA592
S1130A7098A90E94B12A9B01AC01C501B4010E944E
S1130A802C286D877E878F87988B20916003309107
S1130A9061034091620350916303C701B6010E9450
S1130AA0B12A6B017C0129A93AA94BA95CA96D81E2
S1130AB07E818F8198850E94B12A9B01AC01C70178
S1130AC0B6010E942C286B017C012D962CAD3DAD06
S1130AD04EAD5FAD2D9769A17AA18BA19CA10E9417
S1130AE0B12A9B01AC01C701B6010E942C286B01FD
S1130AF07C0121962CAD3DAD4EAD5FAD219769854E
S1130B007A858B859C850E94B12A9B01AC01C70123
S1130B10B6010E942B2829A13AA14BA15CA10E94F5
S1130B202B286B017C0129813A814B815C812996B8
S1130B306CAD7DAD8EAD9FAD29970E94B12A9B010E
S1130B40AC01C701B6010E942C286B017C012989E4
S1130B503A894B895C8929966CAD7DAD8EAD9FAD8C
S1130B6029970E94B12A9B01AC01C701B6010E94DA
S1130B702C286B017C0129A13AA14BA15CA16DA594
S1130B807EA58FA598A90E94B12A9B01AC01C7013B
S1130B90B6010E942C2869A37AA38BA39CA3C090BE
S1130BA05C03D0905D03E0905E03F0905F0380905F
S1130BB05C0390905D03A0905E03B0905F0320E01F
S1130BC030E040E850E469817A818B819C810E9405
S1130BD0B12AA70196010E94B12A6B017C012DA9BB
S1130BE03EA94FA958AD6D817E818F8198850E9461
S1130BF0B12A9B01AC01C701B6010E942B286B01ED
S1130C007C0120E030E040E850E469897A898B89EE
S1130C109C890E94B12AA50194010E94B12A9B01DA
S1130C20AC01C701B6010E942C286B017C0129ADDF
S1130C303AAD4BAD5CAD69857A858B859C850E9408
S1130C40B12A9B01AC01C701B6010E942B284B01BC
S1130C505C012DA13EA14FA158A5CA01B9010E9472
S1130C60B12A6B017C012D853E854F855889CA01C7
S1130C70B9010E94B12A9B01AC01C701B6010E94CF
S1130C802C286B017C0129A13AA14BA15CA1CA01CA
S1130C90B9010E94B12A9B01AC01C701B6010E94AF
S1130CA02C286B017C01A5019401C501B4010E94AB
S1130CB0B12A9B01AC01C701B6010E942C280E94F5
S1130CC056016B017C014090040150900501609035
S1130CD00601709007019B01AC016DA17EA18FA15B
S1130CE098A50E94B12AA30192010E94B12A9B01F6
S1130CF0AC0169A57AA58BA59CA50E942B2869A7A0
S1130D007AA78BA79CA7409004015090050160909E
S1130D10060170900701A70196016D857E858F8578
S1130D2098890E94B12AA30192010E94B12A9B01D1
S1130D30AC016D897E898F89988D0E942B286D8BDB
S1130D407E8B8F8B988F40900401509005016090AA
S1130D50060170900701A701960169A17AA18BA1F0
S1130D609CA10E94B12AA30192010E94B12A9B0175
S1130D70AC01698D7A8D8B8D9C8D0E942B28698F97
S1130D807A8F8B8F9C8F4090040150900501609066
S1130D90060170900701A7019601C501B4010E94E4
S1130DA0B12AA30192010E94B12A9B01AC016D8D6D
S1130DB07E8D8F8D98A10E942B286D8F7E8F8F8FB3
S1130DC098A320914C0330914D0340914E035091D0
S1130DD04F03C0900001D0900101E0900201F09017
S1130DE0030169A57AA58BA59CA50E94B12AA70138
S1130DF096010E942C286093000170930101809356
S1130E0002019093030120914C0330914D034091D2
S1130E104E0350914F03C0906403D0906503E0905B
S1130E206603F09067036D897E898F89988D0E948F
S1130E30B12AA70196010E942C2860936403709341
S1130E406503809366039093670320914C0330916C
S1130E504D0340914E0350914F03C0906003D090D6
S1130E606103E0906203F0906303698D7A8D8B8D4A
S1130E709C8D0E94B12AA70196010E942C286093A0
S1130E8060037093610380936203909363032091E2
S1130E904C0330914D0340914E0350914F03C09049
S1130EA05C03D0905D03E0905E03F0905F036D8D72
S1130EB07E8D8F8D98A10E94B12AA70196010E9470
S1130EC02C2860935C0370935D0380935E0390937E
S1130ED05F03609100017091010180910201909182
S1130EE003012091000130910101409102015091D0
S1130EF003018090640390906503A0906603B09012
S1130F00670340906403509065036090660370909B
S1130F106703E0906003F090610300916203109115
S1130F206303ED82FE820F831887E0906003F090E4
S1130F3061030091620310916303E986FA860B87CB
S1130F401C87E0905C03F0905D0300915E031091B8
S1130F505F03ED86FE860F87188BE0905C03F090AC
S1130F605D0300915E0310915F03E982FA820B83B3
S1130F701C830E94B12A6B017C01A3019201C5016B
S1130F80B4010E94B12A9B01AC01C701B6010E94C1
S1130F902C284B015C0129853A854B855C856D8144
S1130FA07E818F8198850E94B12A9B01AC01C50185
S1130FB0B4010E942C284B015C0129813A814B81A8
S1130FC05C816D857E858F8598890E94B12A9B01FD
S1130FD0AC01C501B4010E942C280E9456016B018A
S1130FE07C01209100013091010140910201509156
S1130FF003010E94B12A6093000170930101809360
S113100002019093030120916403309165034091A0
S1131010660350916703C701B6010E94B12A609329
S11310206403709365038093660390936703209130
S11310306003309161034091620350916303C701DF
S1131040B6010E94B12A6093600370936103809398
S113105062039093630320915C0330915D0340919C
S11310605E0350915F03C701B6010E94B12A6093E9
S11310705C0370935D0380935E0390935F03C45B92
S1131080DF4F0FB6F894DEBF0FBECDBFDF91CF9117
S11310901F910F91FF90EF90DF90CF90BF90AF9092
S11310A09F908F907F906F905F904F9008952F92B4
S11310B03F924F925F926F927F928F929F92AF92E4
S11310C0BF92CF92DF92EF92FF920F931F93CF9331
S11310D0DF93CDB7DEB7C459D1090FB6F894DEBF9C
S11310E00FBECDBF69837A838B839C8329873A871C
S11310F04B875C87ED82FE820F831887C755DF4FCD
S11311001881C95AD040C655DF4F0881CA5AD04009
S1131110C555DF4F3880CB5AD040C455DF4F2880A7
S1131120CC5AD040C355DF4FE880CD5AD040E98A2D
S1131130C255DF4FF880CE5AD040FD8EC155DF4FE7
S1131140E880CF5AD040E9AAC055DF4FF880C05B91
S1131150D040FDAA20E030E0A901CF54DF4F6881E0
S113116079818A819B81C15BD0400E9425298111AC
S11311703DC020E030E0A901CB54DF4F6881798184
S11311808A819B81C55BD0400E94252981112EC094
S113119020E030E0A901C754DF4F688179818A815A
S11311A09B81C95BD0400E94252981111FC0FF92F9
S11311B0EF92ED8CEF92F988FF922F923F920F936A
S11311C01F93ED80FE800F81188529853A854B8514
S11311D05C8569817A818B819C810E9491010FB623
S11311E0F894DEBF0FBECDBF0C945D1680916403EE
S11311F090916503A0916603B091670340906003EA
S113120050906103609062037090630320915C03CB
S113121030915D0340915E0350915F0329A33AA38B
S11312204BA35CA3BC01CD01905829813A814B8129
S11312305C810E94B12A6DA37EA38FA398A7A3010A
S1131240920169857A858B859C850E94B12A9B01D0
S1131250AC016DA17EA18FA198A50E942B282B0122
S11312603C0129A13AA14BA15CA16D817E818F81B2
S113127098850E94B12A9B01AC01C301B2010E946E
S11312802B2820E030E040E05FE30E94B12A699619
S11312906CAF7DAF8EAF9FAF699720910001309105
S11312A0010140910201509103014090600350906C
S11312B06103609062037090630380915C0390917A
S11312C05D03A0915E03B0915F0389A39AA3ABA3CE
S11312D0BCA369817A818B819C810E94B12A6DA310
S11312E07EA38FA398A7A30192016D817E818F8134
S11312F098850E94B12A9B01AC016DA17EA18FA1AA
S113130098A50E942C282B013C0129A13AA14BA1AC
S11313105CA169857A858B859C850E94B12A9B0195
S1131320AC01C301B2010E942B2820E030E040E070
S11313305FE30E94B12A6D966CAF7DAF8EAF9FAF15
S11313406D9720910001309101014091020150916B
S113135003014090640350906503609066037090AD
S1131360670380915C0390915D03A0915E03B0914B
S11313705F0389A39AA3ABA3BCA369857A858B85F4
S11313809C850E94B12A6DA37EA38FA398A7A30175
S113139092016D817E818F8198850E94B12A9B0183
S11313A0AC016DA17EA18FA198A50E942B282B01D1
S11313B03C0129A13AA14BA15CA169817A818B816D
S11313C09C810E94B12A9B01AC01C301B2010E941D
S11313D02C2820E030E040E05FE30E94B12AA1968F
S11313E06CAF7DAF8EAF9FAFA1972091000130917C
S11313F00101409102015091030140906403509017
S11314006503609066037090670380916003909118
S11314106103A0916203B091630389A39AA3ABA370
S1131420BCA36D817E818F8198850E94B12A6D83D2
S11314307E838F839887A301920169857A858B8542
S11314409C850E94B12A9B01AC016D817E818F81B4
S113145098850E942C282B013C0129A13AA14BA17B
S11314605CA169817A818B819C810E94B12A9B0154
S1131470AC01C301B2010E942B2820E030E040E01F
S11314805FE30E94B12AA5966CAF7DAF8EAF9FAF8C
S1131490A59720E030E0A901C601B5010E942529E5
S11314A081111CC020E030E0A901612F702F832D31
S11314B0922D0E942529811111C020E030E0A9015C
S11314C0B989AD8DF9A9EDA96B2F7A2F8F2F9E2F96
S11314D00E942529882311F40C94F714A601950180
S11314E0C601B5010E94B12A2B013C01212F302FE6
S11314F0432D522D612F702F832D922D0E94B12ADE
S11315009B01AC01C301B2010E942C282B013C01B8
S113151079896D8D99A98DA9272F362F492F582F99
S1131520672F732F892F952F0E94B12A9B01AC013D
S1131530C301B2010E942C280E9456012B013C01D8
S11315409B01AC01C601B5010E94B12AC757DF4F08
S1131550688379838A839B83C958D040A30192010D
S1131560612F702F832D922D0E94B12AC357DF4F14
S1131570688379838A839B83CD58D040A3019201E9
S1131580B989AD8DF9A9EDA96B2F7A2F8F2F9E2FD5
S11315900E94B12ACF56DF4F688379838A839B8365
S11315A0C159D040CF54DF4F288139814A815B81B2
S11315B0C15BD040CA01B9010E94B12A6B017C0110
S11315C0CB54DF4F288139814A815B81C55BD04090
S11315D0CA01B9010E94B12A9B01AC01C701B6013D
S11315E00E942C286B017C01C754DF4F288139816C
S11315F04A815B81C95BD040CA01B9010E94B12A0A
S11316009B01AC01C701B6010E942C280E9456011F
S11316106B017C019B01AC01CF54DF4F6881798160
S11316208A819B81C15BD0400E94B12A698B7A8BED
S11316308B8B9C8BA7019601CB54DF4F68817981FA
S11316408A819B81C55BD0400E94B12A6D837E83D1
S11316508F839887A7019601C754DF4F68817981EA
S11316608A819B81C95BD0400E94B12A6D877E87A5
S11316708F87988B60910001709101018091020124
S1131680909103019B01AC010E942C2829893A897D
S11316904B895C890E94B12A29966CAF7DAF8EAFCD
S11316A09FAF29976091000170910101809102011F
S11316B0909103019B01AC010E942C282D813E8155
S11316C04F8158850E94B12A69AF7AAF8BAF9CAF26
S11316D060910001709101018091020190910301D8
S11316E09B01AC010E942C282D853E854F8558898D
S11316F00E94B12A69877A878B879C8760916403EB
S11317007091650380916603909167039B01AC011E
S11317100E942C2829893A894B895C890E94B12A24
S113172061966CAF7DAF8EAF9FAF61976091000102
S11317307091010180910201909103019B01AC0120
S11317400E942C2825966CAF7DAF8EAF9FAF259756
S113175060916403709165038091660390916703BF
S11317609B01AC010E942C2869AB7AAB8BAB9CAB80
S113177060916003709161038091620390916303AF
S11317809B01AC010E942C286DAB7EAB8FAB98AF54
S113179060915C0370915D0380915E0390915F039F
S11317A09B01AC010E942C28A9966CAF7DAF8EAF33
S11317B09FAFA997E0900001F09001010091020110
S11317C0109103012196ECAEFDAE0EAF1FAF219731
S11317D0E0906003F0906103009162031091630351
S11317E0AD96ECAEFDAE0EAF1FAFAD97E0906003CB
S11317F0F09061030091620310916303EDA6FEA6CD
S11318000FA718ABE0905C03F0905D0300915E03BA
S113181010915F03E196ECAEFDAE0EAF1FAFE19702
S11318206091000170910101809102019091030186
S11318302091000130910101409102015091030176
S11318400E94B12A6DA37EA38FA398A76091000183
S11318507091010180910201909103012091640330
S11318603091650340916603509167030E94B12A49
S113187069A77AA78BA79CA76091000170910101C9
S113188080910201909103012091600330916103E2
S113189040916203509163030E94B12A65966CAF34
S11318A07DAF8EAF9FAF6597E0900001F09001018E
S11318B00091020110910301E596ECAEFDAE0EAF6E
S11318C01FAFE597E0905C03F0905D0300915E0329
S11318D010915F03E996ECAEFDAE0EAF1FAFE99732
S11318E0609164037091650380916603909167032E
S11318F0209164033091650340916603509167031E
S11319000E94B12A6D8F7E8F8F8F98A3E09064031D
S1131910F09065030091660310916703ED96ECAEB9
S1131920FDAE0EAF1FAFED97E0906003F090610342
S11319300091620310916303C358DF4FE882F98278
S11319400A831B83CD57D040609164037091650373
S1131950809166039091670320915C0330915D034D
S113196040915E0350915F030E94B12A6D8B7E8B80
S11319708F8B988F609160037091610380916203F3
S1131980909163032091600330916103409162035D
S1131990509163030E94B12A698F7A8F8B8F9C8F39
S11319A0E0906003F090610300916203109163037F
S11319B0CF57DF4FE882F9820A831B83C158D04096
S11319C0E0905C03F0905D0300915E0310915F036F
S11319D0CB57DF4FE882F9820A831B83C558D04076
S11319E060915C0370915D0380915E0390915F034D
S11319F020915C0330915D0340915E0350915F033D
S1131A000E94B12A69A37AA38BA39CA340905C0390
S1131A1050905D0360905E0370905F03C09060031C
S1131A20D0906103E0906203F0906303009160033F
S1131A3010916103209162033091630309831A8337
S1131A402B833C8380905C0390905D03A0905E03A5
S1131A50B0905F032DA13EA14FA158A569897A8951
S1131A608B899C890E94B12A2D966CAF7DAF8EAF75
S1131A709FAF2D97A301920169AD7AAD8BAD9CAD5B
S1131A800E94B12A9B01AC012D966CAD7DAD8EAD4B
S1131A909FAD2D970E942B282B013C01A701960195
S1131AA069857A858B859C850E94B12A9B01AC014E
S1131AB0C301B2010E942C286B017C012D8D3E8D47
S1131AC04F8D58A169897A898B899C890E94B12A92
S1131AD09B01AC01C701B6010E942C286B017C015B
S1131AE029A93AA94BA95CA96D817E818F8198852A
S1131AF00E94B12A29813A814B815C810E94B12ADA
S1131B009B01AC01C701B6010E942C286B017C012A
S1131B1029A93AA94BA95CA96D857E858F859889E9
S1131B200E94B12AA50194010E94B12A9B01AC0133
S1131B30C701B6010E942C286B017C01298D3A8DC6
S1131B404B8D5C8D69897A898B899C890E94B12A25
S1131B509B01AC01C701B6010E942B286B017C01DB
S1131B6029A13AA14BA15CA169897A898B899C89B5
S1131B700E94B12A9B01AC01C701B6010E942B2827
S1131B8069837A838B839C8320915C0330915D030A
S1131B9040915E0350915F0340906403509065034D
S1131BA06090660370906703C0906003D0906103F7
S1131BB0E0906203F090630380905C0390905D0377
S1131BC0A0905E03B0905F0329966CAD7DAD8EADA1
S1131BD09FAD29970E94B12A2D966CAF7DAF8EAF31
S1131BE09FAF2D972DA13EA14FA158A56D817E8158
S1131BF08F8198850E94B12A9B01AC012D966CAD12
S1131C007DAD8EAD9FAD2D970E942C282D966CAF87
S1131C107DAF8EAF9FAF2D97A301920169857A8521
S1131C208B859C850E94B12A9B01AC012D966CADDD
S1131C307DAD8EAD9FAD2D970E942B282B013C01CD
S1131C40A701960161966CAD7DAD8EAD9FAD619798
S1131C500E94B12A9B01AC01C301B2010E942C284D
S1131C606B017C012D8D3E8D4F8D58A16D817E8140
S1131C708F8198850E94B12A9B01AC01C701B601EE
S1131C800E942B286B017C01298D3A8D4B8D5C8D34
S1131C906D817E818F8198850E94B12A9B01AC0160
S1131CA0C701B6010E942C286B017C012DA93EA915
S1131CB04FA958AD6D857E858F8598890E94B12A7C
S1131CC0A50194010E94B12A9B01AC01C701B60190
S1131CD00E942C286B017C0129A13AA14BA15CA193
S1131CE06D817E818F8198850E94B12A9B01AC0110
S1131CF0C701B6010E942B286B017C0129813A811E
S1131D004B815C81CA01B9010E94B12A4B015C017B
S1131D10A7019601C701B6010E94B12A9B01AC013B
S1131D20C501B4010E942C280E94242B69877A875C
S1131D308B879C87209160033091610340916203FB
S1131D405091630340906403509065036090660370
S1131D5070906703C0905C03D0905D03E0905E03D5
S1131D60F0905F0380905C0390905D03A0905E030D
S1131D70B0905F0329966CAD7DAD8EAD9FAD299774
S1131D8090580E94B12A69837A838B839C83A30130
S1131D90920169AD7AAD8BAD9CAD0E94B12A9B01D5
S1131DA0AC0169817A818B819C810E942C282B0152
S1131DB03C012DA13EA14FA158A56D857E858F853F
S1131DC098890E94B12A9B01AC01C301B2010E940F
S1131DD02C282B013C01A701960161966CAD7DADC9
S1131DE08EAD9FAD61970E94B12A9B01AC01C301E6
S1131DF0B2010E942C286B017C012D8D3E8D4F8DEC
S1131E0058A16D857E858F8598890E94B12A9B0192
S1131E10AC01C701B6010E942B286B017C012DA9DE
S1131E203EA94FA958AD6D817E818F8198850E940E
S1131E30B12AA50194010E94B12A9B01AC01C701FA
S1131E40B6010E942C286B017C01298D3A8D4B8DA3
S1131E505C8D6D857E858F8598890E94B12A9B0152
S1131E60AC01C701B6010E942B286B017C0129A19A
S1131E703AA14BA15CA16D857E858F8598890E94CE
S1131E80B12A9B01AC01C701B6010E942C286983C9
S1131E907A838B839C839B01AC010E942C28299616
S1131EA06CAF7DAF8EAF9FAF29972D893E894F8947
S1131EB0588DCA01B9010E942C286B017C0121961E
S1131EC02CAD3DAD4EAD5FAD2197CA01B9010E9465
S1131ED02C28AD962CAD3DAD4EAD5FADAD970E94B7
S1131EE0B12A9B01AC01C701B6010E942B28C75738
S1131EF0DF4F288139814A815B81C958D0400E94D3
S1131F002B286DA37EA38FA398A72DA53EA54FA52F
S1131F1058A9CA01B9010E942C28E1962CAD3DAD07
S1131F204EAD5FADE1970E94B12A6B017C0129A5FA
S1131F303AA54BA55CA5CA01B9010E942C289B01B6
S1131F40AC01C701B6010E942C28C357DF4F28817A
S1131F5039814A815B81CD58D0400E942B2821963B
S1131F606CAF7DAF8EAF9FAF2197E0906003F09090
S1131F7061030091620310916303EDA6FEA60FA70F
S1131F8018AB298D3A8D4B8D5C8D60E070E080E05C
S1131F909FE30E942B2829A13AA14BA15CA10E9496
S1131FA02B2829853A854B855C850E94B12A6B01D3
S1131FB07C0165962CAD3DAD4EAD5FAD65976D89E9
S1131FC07E898F89988D0E942B2829813A814B81A3
S1131FD05C810E94B12A9B01AC01C701B6010E9439
S1131FE02C2829893A894B895C890E942B28698B82
S1131FF07A8B8B8B9C8B09851A852B853C85305875
S113200009A31AA32BA33CA340905C0350905D0347
S113201060905E0370905F0380906403909065030A
S1132020A0906603B0906703C358DF4F28813981BD
S11320304A815B81CD57D040ED966CAD7DAD8EADC0
S11320409FADED970E94B12A6B017C01E9962CADFE
S11320503DAD4EAD5FADE997E5966CAD7DAD8EAD12
S11320609FADE5970E94B12A9B01AC01C701B6015F
S11320700E942B2829853A854B855C850E94B12ACC
S11320806B017C01CB57DF4F288139814A815B8109
S1132090C558D040CF57DF4F688179818A819B81B1
S11320A0C158D0400E94B12A29A53AA54BA55CA5E8
S11320B00E942C2829813A814B815C810E94B12A9B
S11320C09B01AC01C701B6010E942C282D813E81E1
S11320D04F8158850E942B286D837E838F83988738
S11320E0C0906003D0906103E0906203F0906303BA
S11320F02D8D3E8D4F8D58A160E070E080E09FE310
S11321000E942B28298D3A8D4B8D5C8D0E942B28A3
S113211029813A814B815C810E94B12A69A77AA7FF
S11321208BA79CA72D893E894F89588D65966CADE8
S11321307DAD8EAD9FAD65970E942C2829853A858B
S11321404B855C850E94B12A9B01AC0169A57AA5E7
S11321508BA59CA50E942C282D853E854F855889EA
S11321600E942B286D877E878F87988B6DA97EA907
S11321708FA998AD90582DA13EA14FA158A50E94BA
S1132180B12A6D8B7E8B8F8B988F21962CAD3DADB4
S11321904EAD5FAD219769A97AA98BA99CA90E942C
S11321A0B12A9B01AC016D897E898F89988D0E942B
S11321B02C286D8B7E8B8F8B988F2DA53EA54FA5DC
S11321C058A969817A818B819C810E94B12A2989CD
S11321D03A894B895C890E94B12A9B01AC016D89C3
S11321E07E898F89988D0E942B286D8B7E8B8F8B97
S11321F0988FA301920169A17AA18BA19CA10E944D
S1132200B12A2B013C01A501940169817A818B815A
S11322109C810E94B12A9B01AC01C301B2010E94BE
S11322202C282D813E814F8158850E94B12A9B0123
S1132230AC016D897E898F89988D0E942C284B0171
S11322405C01A701960169857A858B859C850E942E
S1132250B12A2D853E854F8558890E94B12A9B015C
S1132260AC01C501B4010E942C286D8B7E8B8F8B31
S1132270988F40906403509065036090660370905B
S113228067032D8D3E8D4F8D58A1CA01B9010E945F
S11322902C289B01AC0160E070E080E89FE30E9481
S11322A02B286B017C01298D3A8D4B8D5C8DCA01E5
S11322B0B9010E942C289B01AC01C701B6010E9400
S11322C02B28CF56DF4F288139814A815B81C15940
S11322D0D0400E942B286D8F7E8F8F8F98A3C09043
S11322E05C03D0905D03E0905E03F0905F03209167
S11322F06003309161034091620350916303298F1D
S11323003A8F4B8F5C8F8091000190910101A091D5
S11323100201B091030189A79AA7ABA7BCA780903B
S11323205C0390905D03A0905E03B0905F03009106
S113233064031091650320916603309167030DA730
S11323401EA72FA738AB2DA13EA14FA158A5A99632
S11323506CAD7DAD8EAD9FADA9970E94B12A69AFDA
S11323607AAF8BAF9CAF21962CAD3DAD4EAD5FAD3A
S1132370219725966CAD7DAD8EAD9FAD25970E94BE
S1132380B12A9B01AC0169AD7AAD8BAD9CAD0E94C5
S11323902C2869AF7AAF8BAF9CAF20E030E040E8E7
S11323A050E4C301B2010E94B12A2D8D3E8D4F8DA0
S11323B058A10E94B12A9B01AC0169AD7AAD8BADE5
S11323C09CAD0E942B282B013C01A7019601698139
S11323D07A818B819C810E94B12A29893A894B890F
S11323E05C890E94B12A9B01AC01C301B2010E9425
S11323F02C286B017C01298D3A8D4B8D5C8D698570
S11324007A858B859C850E94B12A2B013C0129A5E4
S11324103AA54BA55CA569817A818B819C810E9438
S1132420B12A9B01AC01C301B2010E942C282D8169
S11324303E814F8158850E94B12A9B01AC01C7019E
S1132440B6010E942C286B017C01A50194016985C9
S11324507A858B859C850E94B12A4B015C012DA550
S11324603EA54FA558A929966CAD7DAD8EAD9FAD07
S113247029970E94B12A9B01AC01C501B4010E94B5
S11324802B282D853E854F8558890E94B12A9B01B2
S1132490AC01C701B6010E942C28698F7A8F8B8FFB
S11324A09C8F409060035090610360906203709031
S11324B0630329853A854B855C85CA01B9010E946D
S11324C02C289B01AC01505829A73AA74BA75CA71D
S11324D0C0906003D0906103E0906203F0906303C6
S11324E08091000190910101A0910201B09103013A
S11324F08DA79EA7AFA7B8AB0091640310916503A5
S1132500209166033091670309AF1AAF2BAF3CAF3C
S113251020915C0330915D0340915E0350915F0311
S113252061962CAF3DAF4EAF5FAF619780900001D5
S113253090900101A0900201B0900301809160038A
S113254090916103A0916203B091630365968CAF8F
S11325509DAFAEAFBFAF659725966CAD7DAD8EAD2B
S11325609FAD259790582DA13EA14FA158A50E943B
S1132570B12A25966CAF7DAF8EAF9FAF259721967C
S11325802CAD3DAD4EAD5FAD2197A9966CAD7DAD43
S11325908EAD9FADA9970E94B12A9B01AC012596EF
S11325A06CAD7DAD8EAD9FAD25970E942C282596F0
S11325B06CAF7DAF8EAF9FAF259720E030E040E851
S11325C050E4C301B2010E94B12A2D8D3E8D4F8D7E
S11325D058A10E94B12A9B01AC0125966CAD7DAD3A
S11325E08EAD9FAD25970E942B282B013C01A7019E
S11325F0960169A57AA58BA59CA50E94B12A6B01B9
S11326007C012DA53EA54FA558A969817A818B81AE
S11326109C810E94B12A9B01AC01C701B6010E94B2
S11326202B2829893A894B895C890E94B12A9B010C
S1132630AC01C301B2010E942C286B017C0129ADBD
S11326403AAD4BAD5CAD69857A858B859C850E94DE
S1132650B12A2B013C0161962CAD3DAD4EAD5FAD71
S1132660619769817A818B819C810E94B12A9B0147
S1132670AC01C301B2010E942C282D813E814F81FF
S113268058850E94B12A9B01AC01C701B6010E9482
S11326902C286B017C01A501940169857A858B85C1
S11326A09C850E94B12A4B015C0165962CAD3DAD21
S11326B04EAD5FAD659729966CAD7DAD8EAD9FAD8A
S11326C029970E94B12A9B01AC01C501B4010E9463
S11326D02B282D853E854F8558890E94B12A9B0160
S11326E0AC01C701B6010E942C286D8F7E8F8F8F9D
S11326F098A320915C0330915D0340915E03509157
S11327005F0340906403509065036090660370908B
S11327106703C0900001D0900101E0900201F090A5
S113272003018091600390916103A0916203B091D1
S113273063038DA79EA7AFA7B8AB80906403909066
S11327406503A0906603B090670369A57AA58BA57D
S11327509CA50E94B12A69A77AA78BA79CA7A3016D
S1132760920169817A818B819C810E94B12A9B01AB
S1132770AC0169A57AA58BA59CA50E942C28298962
S11327803A894B895C890E94B12A698B7A8B8B8B3D
S11327909C8B2DA13EA14FA158A569A97AA98BA90B
S11327A09CA90E94B12A2B013C0121962CAD3DAD80
S11327B04EAD5FAD21976DA97EA98FA998AD0E94FA
S11327C0B12A9B01AC01C301B2010E942C289B01D8
S11327D0AC0169897A898B899C890E942C282B01F8
S11327E03C01A701960169A17AA18BA19CA10E9439
S11327F0B12A6B017C012DA53EA54FA558A969817D
S11328007A818B819C810E94B12A9B01AC01C70112
S1132810B6010E942C282D813E814F8158850E944B
S1132820B12A9B01AC01C301B2010E942C286B01A7
S11328307C01A501940169857A858B859C850E941C
S1132840B12A2D853E854F8558890E94B12A9B0166
S1132850AC01C701B6010E942C284B015C012D89F3
S11328603E894F89588DCA01B9010E94B12A6B0172
S11328707C01298D3A8D4B8D5C8DCA01B9010E9472
S1132880B12A9B01AC01C701B6010E942C286B013F
S11328907C012D8D3E8D4F8D58A1CA01B9010E9436
S11328A0B12A9B01AC01C701B6010E942C286B011F
S11328B07C01A5019401C501B4010E94B12A9B01C8
S11328C0AC01C701B6010E942C280E9456016B017D
S11328D07C014090040150900501609006017090C5
S11328E007019B01AC016D897E898F89988D0E94B7
S11328F0B12AA30192010E94B12A9B01AC016996FD
S11329006CAD7DAD8EAD9FAD69970E942B28699605
S11329106CAF7DAF8EAF9FAF69974090040150902C
S113292005016090060170900701A7019601698D69
S11329307A8D8B8D9C8D0E94B12AA30192010E94F5
S1132940B12A9B01AC016D966CAD7DAD8EAD9FAD92
S11329506D970E942B286D966CAF7DAF8EAF9FAFA5
S11329606D974090040150900501609006017090AD
S11329700701A70196016D8D7E8D8F8D98A10E9410
S1132980B12AA30192010E94B12A9B01AC01A19634
S11329906CAD7DAD8EAD9FADA1970E942B28A19605
S11329A06CAF7DAF8EAF9FAFA19740900401509064
S11329B005016090060170900701A7019601C50109
S11329C0B4010E94B12AA30192010E94B12A9B0181
S11329D0AC01A5966CAD7DAD8EAD9FADA5970E9463
S11329E02B28A5966CAF7DAF8EAF9FAFA597209196
S11329F04C0330914D0340914E0350914F03C090CE
S1132A000001D0900101E0900201F0900301699669
S1132A106CAD7DAD8EAD9FAD69970E94B12AA701C3
S1132A2096010E942C286093000170930101809309
S1132A3002019093030120914C0330914D03409186
S1132A404E0350914F03C0906403D0906503E0900F
S1132A506603F09067036D966CAD7DAD8EAD9FAD52
S1132A606D970E94B12AA70196010E942C286093B9
S1132A7064037093650380936603909367032091C6
S1132A804C0330914D0340914E0350914F03C0903D
S1132A906003D0906103E0906203F0906303A19619
S1132AA06CAD7DAD8EAD9FADA1970E94B12AA701FB
S1132AB096010E942C2860936003709361038093B5
S1132AC062039093630320914C0330914D03409132
S1132AD04E0350914F03C0905C03D0905D03E0908F
S1132AE05E03F0905F03A5966CAD7DAD8EAD9FAD9A
S1132AF0A5970E94B12AA70196010E942C286093F1
S1132B005C0370935D0380935E0390935F03609115
S1132B1000017091010180910201909103012091C3
S1132B200001309101014091020150910301809014
S1132B30640390906503A0906603B090670340908F
S1132B406403509065036090660370906703E0909F
S1132B506003F09061030091620310916303E982C2
S1132B60FA820B831C83E0906003F0906103009170
S1132B70620310916303E986FA860B871C87E09051
S1132B805C03F0905D0300915E0310915F03E98A9A
S1132B90FA8A0B8B1C8BE0905C03F0905D03009130
S1132BA05E0310915F03ED82FE820F8318870E94FB
S1132BB0B12A6B017C01A3019201C501B4010E94F9
S1132BC0B12A9B01AC01C701B6010E942C284B011C
S1132BD05C0129853A854B855C8569817A818B8185
S1132BE09C810E94B12A9B01AC01C501B4010E94E1
S1132BF02C284B015C012D813E814F8158856989C8
S1132C007A898B899C890E94B12A9B01AC01C501F8
S1132C10B4010E942C280E9456016B017C01209172
S1132C2000013091010140910201509103010E9481
S1132C30B12A609300017093010180930201909383
S1132C400301209164033091650340916603509120
S1132C506703C701B6010E94B12A609364037093AD
S1132C60650380936603909367032091600330911A
S1132C7061034091620350916303C701B6010E944E
S1132C80B12A60936003709361038093620390930D
S1132C90630320915C0330915D0340915E03509186
S1132CA05F03C701B6010E94B12A60935C0370936D
S1132CB05D0380935E0390935F03CC56DF4F0FB6A2
S1132CC0F894DEBF0FBECDBFDF91CF911F910F915E
S1132CD0FF90EF90DF90CF90BF90AF909F908F9038
S1132CE07F906F905F904F903F902F9008954F92F8
S1132CF05F926F927F928F929F92AF92BF92CF9288
S1132D00DF92EF92FF920F931F93CF93DF93CDB790
S1132D10DEB764970FB6F894DEBF0FBECDBF6091E7
S1132D206403709165038091660390916703209119
S1132D30640330916503409166035091670380906A
S1132D40600390906103A0906203B090630340908D
S1132D506003509061036090620370906303E0909D
S1132D600001F09001010091020110910301E98238
S1132D70FA820B831C83E0906403F0906503009156
S1132D80660310916703ED82FE820F831887E0903B
S1132D906003F09061030091620310916303E98A78
S1132DA0FA8A0B8B1C8BE0905C03F0905D0300911E
S1132DB05E0310915F03E986FA860B871C870E94E5
S1132DC0B12A9B01AC0160E070E080E09FE30E94C7
S1132DD02B286B017C01A3019201C501B4010E945F
S1132DE0B12A9B01AC01C701B6010E942B282B011B
S1132DF03C012D813E814F81588569817A818B8187
S1132E009C810E94B12A4B015C0129853A854B853E
S1132E105C8569897A898B899C890E94B12A9B0186
S1132E20AC01C501B4010E942C28A30192010E94A7
S1132E30C62821EE3EE245E652E40E94B12A6093A0
S1132E4058037093590380935A0390935B036091E2
S1132E5064037091650380916603909167032091E8
S1132E605C0330915D0340915E0350915F03809059
S1132E70000190900101A0900201B09003014090E4
S1132E8060035090610360906203709063030E943A
S1132E90B12A6B017C01A3019201C501B4010E9416
S1132EA0B12A9B01AC01C701B6010E942B2820E086
S1132EB030E040E050EC0E94B12A0E94982821EEB4
S1132EC03EE245E652E40E94B12A609354037093B3
S1132ED05503809356039093570360916003709158
S1132EE061038091620390916303209160033091A8
S1132EF06103409162035091630380905C0390905E
S1132F005D03A0905E03B0905F0340905C0350901B
S1132F105D0360905E0370905F03E0906403F09043
S1132F2065030091660310916703E982FA820B83BB
S1132F301C83E0906003F0906103009162031091A0
S1132F406303ED82FE820F831887E0900001F09006
S1132F5001010091020110910301E98AFA8A0B8BA5
S1132F601C8BE0905C03F0905D0300915E03109174
S1132F705F03E986FA860B871C870E94B12A9B01AE
S1132F80AC0160E070E080E09FE30E942B286B01BD
S1132F907C01A3019201C501B4010E94B12A9B01E5
S1132FA0AC01C701B6010E942B282B013C012D81E5
S1132FB03E814F81588569817A818B819C810E94F1
S1132FC0B12A4B015C0129853A854B855C85698969
S1132FD07A898B899C890E94B12A9B01AC01C50125
S1132FE0B4010E942C28A30192010E94C62821EE5C
S1132FF03EE245E652E40E94B12A20E030E044E398
S113300053E40E942C2860935003709351038093DF
S113301052039093530364960FB6F894DEBF0FBE29
S1133020CDBFDF91CF911F910F91FF90EF90DF9073
S1133030CF90BF90AF909F908F907F906F905F9054
S11330404F900895EF92FF920F931F93CF93DF93C6
S113305000D01F92CDB7DEB70F2EF0EDFF2EF02D6E
S1133060F9820F2EFBE6EF2EF02DEA8280E88B83A7
S113307063E08E010F5F1F4FC8010E940E26EA8293
S113308081E08B8363E0C8010E940E2683E0F8018F
S113309011928A95E9F7F98287E38A8382E08B8328
S11330A063E0C8010E940E260F900F900F90DF91ED
S11330B0CF911F910F91FF90EF900895FC01AEEA1C
S11330C0B3E0808191812D913C911197821B930BE8
S11330D0918380838281938112962D913C911397E1
S11330E0821B930B938382838481958114962D9103
S11330F03C911597821B930B9583848308950F93BA
S11331001F93CF93DF93CDB7DEB72A970FB6F8940A
S1133110DEBF0FBECDBF8C0180ED89838BE38A8334
S113312081ED8C8362E0CE0101960E940E2667E059
S1133130CE0104960E940E2667E0CE0104960E94FA
S11331403B268D8190E0982F88272E81822BF801D1
S1133150918380838F8190E0982F88272885822B04
S113316093838283898590E0982F88272A85822BF0
S11331709583848380E02A960FB6F894DEBF0FBE51
S1133180CDBFDF91CF911F910F9108953F924F9240
S11331905F926F927F928F929F92AF92BF92CF92E3
S11331A0DF92EF92FF920F931F93CF93DF93CDB7EC
S11331B0DEB729970FB6F894DEBF0FBECDBF80ED02
S11331C089838CE18A8388E08B8363E0CE01019656
S11331D00E940E261D821C821F821E82198618865A
S11331E000E018E0412C512C3201812C912C540127
S11331F0C12CD12C7601CE0104960E947F188C81BB
S11332009D81092E000CAA0BBB0B480E591E6A1E89
S11332107B1E8E819F81092E000CAA0BBB0B880E8E
S1133220991EAA1EBB1E88859985092E000CAA0B1F
S1133230BB0BC80ED91EEA1EFB1E87E998E0019756
S1133240F1F700C0000001501109A9F67F926F92B6
S11332505F924F9285E191E09F938F930CE713E087
S11332601F930F930E94BE2BF80101900020E9F7F1
S11332703197AF014C57534060E070E0C8010E94A1
S1133280F1260F2EF2E33F2EF02DF801232D11929B
S11332902A95E9F7BF92AF929F928F9283E291E0D1
S11332A09F938F931F930F930E94BE2BF80101905D
S11332B00020E9F73197AF014C57534060E070E0CC
S11332C0C8010E94F126F801232D11922A95E9F7ED
S11332D0FF92EF92DF92CF9281E391E09F938F93DD
S11332E01F930F930E94BE2BF80101900020E9F771
S11332F03197AF014C57534060E070E0C8010E9421
S1133300F126F80111923A94E9F7D301C2010FB6FC
S1133310F894DEBF0FBECDBF772024F48150984FC0
S1133320AF4FBF4F2C013D01032E3BE075946794D2
S1133330579447943A95D1F7302DD501C401BB2059
S113334024F48150984FAF4FBF4F4C015D01072EBD
S11333507BE0B594A794979487947A95D1F7702DD0
S1133360D701C601FF2024F48150984FAF4FBF4FBF
S11333706C017D010B2EBBE0F594E794D794C794C0
S1133380BA95D1F7B02D7F926F925F924F928FE3EF
S113339091E09F938F930CE713E01F930F930E9488
S11333A0BE2BF80101900020E9F73197AF014C578B
S11333B0534060E070E0C8010E94F1260F2EF2E352
S11333C03F2EF02DF801232D11922A95E9F7BF9293
S11333D0AF929F928F928DE491E09F938F931F936E
S11333E00F930E94BE2BF80101900020E9F731975A
S11333F0AF014C57534060E070E0C8010E94F126D1
S1133400F801232D11922A95E9F7FF92EF92DF92AA
S1133410CF928BE591E09F938F931F930F930E941C
S1133420BE2BF80101900020E9F73197AF014C570A
S1133430534060E070E0C8010E94F126F801119247
S11334403A94E9F7242DEEEAF3E040825182828235
S113345093828C2D9D2D0FB6F894DEBF0FBECDBF89
S11334601816190634F490529093B3038093B20360
S113347005C0905E9093B3038093B2035F922F9341
S11334800F2EF9E6EF2EF1E0FF2EF02DFF92EF92D2
S11334900CE713E01F930F930E94BE2BF8010190D9
S11334A00020E9F73197AF014C57534060E070E0DA
S11334B0C8010E94F1260F2EF2E3BF2EF02DF80171
S11334C02B2D11922A95E9F70F2EFEEACF2EF3E069
S11334D0DF2EF02DF60183818F9382818F93FF92EB
S11334E0EF921F930F930E94BE2BF80101900020CE
S11334F0E9F73197AF014C57534060E070E0C801E1
S11335000E94F126F8012B2D11922A95E9F7F60174
S113351085818F9384818F93FF92EF921F930F93F2
S11335200E94BE2BF80101900020E9F73197AF010A
S11335304C57534060E070E0C8010E94F126F80146
S11335401192BA94E9F70FB6F894DEBF0FBECDBF5F
S113355080E029960FB6F894DEBF0FBECDBFDF9191
S1133560CF911F910F91FF90EF90DF90CF90BF907C
S1133570AF909F908F907F906F905F904F903F900F
S113358008950F931F93CF93DF93CDB7DEB7299799
S11335900FB6F894DEBF0FBECDBF8C0180ED8983DA
S11335A083E48A8381ED8B8362E0CE0101960E94DD
S11335B00E2667E0CE0103960E940E2667E0CE0138
S11335C003960E943B268C8190E0982F88272D81BA
S11335D0822BF801918380838E8190E0982F882735
S11335E02F81822B93838283888590E0982F88276C
S11335F02985822B9583848380E029960FB6F894DD
S1133600DEBF0FBECDBFDF91CF911F910F91089503
S1133610CF93DF93CDB7DEB728970FB6F894DEBF0C
S11336200FBECDBFFC014081518151954195510997
S1133630518340832281338131952195310933832C
S113364022838481958191958195910995838483C1
S113365051813381958160ED698363E16A835B8382
S11336604C833D832E839F83888768E0CE01019637
S11336700E940E2680E028960FB6F894DEBF0FBE97
S1133680CDBFDF91CF9108953F924F925F926F9299
S11336907F928F929F92AF92BF92CF92DF92EF92DE
S11336A0FF920F931F93CF93DF93CDB7DEB72F977E
S11336B00FB6F894DEBF0FBECDBF80ED89838BE1DA
S11336C08A8380E18B8363E0CE0101960E940E26FB
S11336D000E018E0412C512C3201812C912C540132
S11336E0C12CD12C7601CE0104960E94C11A8C8182
S11336F09D81092E000CAA0BBB0B480E591E6A1E95
S11337007B1E8E819F81092E000CAA0BBB0B880E99
S1133710991EAA1EBB1E88859985092E000CAA0B2A
S1133720BB0BC80ED91EEA1EFB1E89EF90E0019761
S1133730F1F700C0000001501109A9F67F926F92C1
S11337405F924F9281E891E09F938F930CE713E08F
S11337501F930F930E94BE2BF80101900020E9F7FC
S11337603197AF014C57534060E070E0C8010E94AC
S1133770F1260F2EF2E33F2EF02DF801232D1192A6
S11337802A95E9F7BF92AF929F928F928FE891E0CA
S11337909F938F931F930F930E94BE2BF801019068
S11337A00020E9F73197AF014C57534060E070E0D7
S11337B0C8010E94F126F801232D11922A95E9F7F8
S11337C0FF92EF92DF92CF928DE991E09F938F93D6
S11337D01F930F930E94BE2BF80101900020E9F77C
S11337E03197AF014C57534060E070E0C8010E942C
S11337F0F126F80111923A94E9F7D301C2010FB608
S1133800F894DEBF0FBECDBF772024F48150984FCB
S1133810AF4FBF4F072E7BE0B595A795979587953A
S11338207A95D1F7702D8A879B87B501A401BB20B7
S113383024F44150584F6F4F7F4F032E3BE0759552
S11338406795579547953A95D1F7302D5D874C8705
S1133850B701A601FF2024F44150584F6F4F7F4F0A
S1133860032E3BE075956795579547953A95D1F7A3
S1133870302D5F874E879F938F930F2EF9E6CF2EBF
S1133880F1E0DF2EF02DDF92CF920CE713E01F93CF
S11338900F930E94BE2BF80101900020E9F73197A5
S11338A0AF014C57534060E070E0C8010E94F1261C
S11338B00F2EF2E3FF2EF02DF8012F2D11922A95F1
S11338C0E9F78D858F938C858F93DF92CF921F9329
S11338D00F930E94BE2BF80101900020E9F7319765
S11338E0AF014C57534060E070E0C8010E94F126DC
S11338F0F8012F2D11922A95E9F78F858F938E85E4
S11339008F93DF92CF921F930F930E94BE2BF801E7
S113391001900020E9F73197AF014C57534060E024
S113392070E0C8010E94F126F8011192FA94E9F7B7
S1133930CE010A960E94081B0FB6F894DEBF0FBE94
S1133940CDBF80E02F960FB6F894DEBF0FBECDBF7B
S1133950DF91CF911F910F91FF90EF90DF90CF9067
S1133960BF90AF909F908F907F906F905F904F909B
S11339703F9008950F931F93CF93DF93EC0104EBD3
S113398013E0F801608170E080E090E00E949C29DF
S113399020E030E040E053E40E942B2820E030E0B7
S11339A040E05FE30E94B12A20E030E040E05CE3C5
S11339B00E94B12A20E030E040E85FE30E942C2816
S11339C09B01AC01688179818A819B810E94B12A23
S11339D0688379838A839B83F801618170E080E046
S11339E090E00E949C2920E030E040E053E40E94F3
S11339F02B2820E030E040E05FE30E94B12A20E081
S1133A0030E040E05CE30E94B12A20E030E040E88E
S1133A105FE30E942C289B01AC016C817D818E8127
S1133A209F810E94B12A6C837D838E839F83F801DA
S1133A30628170E080E090E00E949C2920E030E008
S1133A4040E053E40E942B2820E030E040E05FE3B4
S1133A500E94B12A20E030E040E05CE30E94B12AF9
S1133A6020E030E040E85FE30E942C289B01AC0199
S1133A70688579858A859B850E94B12A68877987BC
S1133A808A879B8780E0DF91CF911F910F910895E2
S1133A900F931F93CF93DF93CDB7DEB72A970FB65B
S1133AA0F894DEBF0FBECDBF8C0188E1898383E02B
S1133AB08A8389E18B8362E0CE0101960E940E26FF
S1133AC068E0CE0103960E940E2668E0CE010396BC
S1133AD00E943B268D8190E0982F88272C81822B91
S1133AE0F801918380838F8190E0982F88272E811D
S1133AF0822B93838283898590E0982F8827288559
S1133B00822B95838483968581E093FF80E02A96B7
S1133B100FB6F894DEBF0FBECDBFDF91CF911F91DA
S1133B200F9108952F923F924F925F926F927F92DE
S1133B308F929F92AF92BF92CF92DF92EF92FF92B9
S1133B400F931F93CF93DF93CDB7DEB7A9970FB62B
S1133B50F894DEBF0FBECDBF88E189838AE08A83F3
S1133B6086E18B8363E0CE0101960E940E2686E0F7
S1133B70E9E0F1E0DE011A9601900D928A95E1F7F1
S1133B8086E0EFE0F1E0DE01509601900D928A9517
S1133B90E1F7A12C6894BB24B3F86E0126E1C20EB0
S1133BA0D11CCE0104960E94481D9E012C5F3F4FFC
S1133BB07E0180E1E80EF11C8E01065F1F4FB80103
S1133BC0F701D9018D919D919D0140815181841707
S1133BD0950714F491838083DB014D915C911197D7
S1133BE04817590714F48D939C9332966E5F7F4F58
S1133BF0EC15FD0531F7EFE1FEE43197F1F700C074
S1133C000000F1E0AF1AB10861F64E0120E1820E26
S1133C10911C0F2EFBEAAF2EF1E0BF2EF02D0F2EDC
S1133C20FCE7CF2EF3E0DF2EF02D0F2EF2E35F2E14
S1133C30F02D0F2EF7EB6F2EF1E07F2EF02DD80133
S1133C408C9111969C910E5F1F4F9F938F93BF92FF
S1133C50AF92DF92CF920E94BE2BF601019000201A
S1133C60E9F73197AF014C57534060E070E0C6016B
S1133C700E94F126F601252D11922A95E9F7D70124
S1133C808C9111969C91B2E0EB0EF11C9F938F9353
S1133C907F926F92DF92CF920E94BE2BF601019029
S1133CA00020E9F73197AF014C57534060E070E0D2
S1133CB0C6010E94F126F601252D11922A95E9F7F5
S1133CC00FB6F894DEBF0FBECDBF0815190509F075
S1133CD0B6CFCA84DB8488889988C601880D991D6B
S1133CE099230CF4019695958795EFECF3E0808386
S1133CF09183EC84FD846A887B889701260D371DA7
S1133D00332314F42F5F3F4F359527953093D20317
S1133D102093D1034E845F842C883D889201220D28
S1133D20331D332314F42F5F3F4F3595279530937C
S1133D30D4032093D3039F938F9383EC91E09F93B9
S1133D408F930CE713E01F930F930E94BE2BF8018F
S1133D5001900020E9F73197AF014C57534060E0E0
S1133D6070E0C8010E94F126D801E2E31D92EA95B1
S1133D70E9F70F2EFFECAF2EF3E0BF2EF02DD501A7
S1133D8013968C9113978F9312968C918F9389ED40
S1133D9091E09F938F931F930F930E94BE2BF80182
S1133DA001900020E9F73197AF014C57534060E090
S1133DB070E0C8010E94F126F80122E311922A95CD
S1133DC0E9F7D50115968C9115978F9314968C91DC
S1133DD08F938FEE91E09F938F931F930F930E9485
S1133DE0BE2BF80101900020E9F73197AF014C5741
S1133DF0534060E070E0C8010E94F126F80122E31C
S1133E0011922A95E9F7C818D908B6010FB6F894A3
S1133E10DEBF0FBECDBF12F46F5F7F4F7595679500
S1133E20072E000C880B990B0E949E294B015C0104
S1133E306E8B7F8B888F998FE618F708B70112F481
S1133E406F5F7F4F75956795072E000C880B990B54
S1133E500E949E296A8F7B8F8C8F9D8F42185308F6
S1133E60B20112F46F5F7F4F75956795072E000CB2
S1133E70880B990B0E949E296E8F7F8F88A399A32C
S1133E800F2EFCE7EF2EF3E0FF2EF02DD7010D905F
S1133E900020E9F7119784E1E9E0F2E001900D9246
S1133EA08A95E1F708E613E025E045E0C501B40191
S1133EB00E947D2BBC01C7010E94B32BF701019026
S1133EC00020E9F731970F2EFDE02F2EFAE03F2E68
S1133ED0F02D318220821282F70101900020E9F74F
S1133EE03197AF014C57534060E070E0C7010E9426
S1133EF0F1260F2EF2E3DF2EF02DD701ED2D1D92CA
S1133F00EA95E9F738010F2EF4E1CF2EF02DD80110
S1133F10EC2D1D92EA95E9F7D7010D900020E9F701
S1133F20119784E1E1E2F2E001900D928A95E1F7C4
S1133F306A8D7B8D8C8D9D8D25E045E00E947D2BC7
S1133F40BC01C7010E94B32BF70101900020E9F7DF
S1133F503197318220821282F70101900020E9F723
S1133F603197AF014C57534060E070E0C7010E94A5
S1133F70F126D701ED2D1D92EA95E9F7D801EC2D34
S1133F801D92EA95E9F7D7010D900020E9F7119702
S1133F9084E1E9E3F2E001900D928A95E1F76E8DF8
S1133FA07F8D88A199A125E045E00E947D2BBC016D
S1133FB0C7010E94B32BF70101900020E9F7319764
S1133FC0318220821282F70101900020E9F73197B3
S1133FD0AF014C57534060E070E0C7010E94F126E6
S1133FE0D701ED2D1D92EA95E9F7D801EC2D1D922C
S1133FF0EA95E9F7CE0146960E94BA1CD7010D90C6
S11340000020E9F7119788E1E5E0F2E001900D92D4
S11340108A95E1F76E897F89888D998D25E045E041
S11340200E947D2BBC01C7010E94B32BF7010190B4
S11340300020E9F73197318220821282F701019042
S11340400020E9F73197AF014C57534060E070E02E
S1134050C7010E94F126D701ED2D1D92EA95E9F7DB
S1134060D801EC2D1D92EA95E9F7D7010D900020B7
S1134070E9F7119788E1EDE1F2E001900D928A955C
S1134080E1F76A8D7B8D8C8D9D8D25E045E00E9446
S11340907D2BBC01C7010E94B32BF70101900020C6
S11340A0E9F73197318220821282F70101900020D2
S11340B0E9F73197AF014C57534060E070E0C70116
S11340C00E94F126D701ED2D1D92EA95E9F7D8015A
S11340D0EC2D1D92EA95E9F7D7010D900020E9F740
S11340E0119788E1E5E3F2E001900D928A95E1F7FA
S11340F06E8D7F8D88A199A125E045E00E947D2BDE
S1134100BC01C7010E94B32BF70101900020E9F71D
S11341103197318220821282F70101900020E9F761
S11341203197AF014C57534060E070E0C7010E94E3
S1134130F126D701ED2D1D92EA95E9F7D801EC2D72
S11341401D92EA95E9F72A8D3B8D4C8D5D8D6E8924
S11341507F89888D998D0E942C282E8D3F8D48A1B2
S113416059A10E942C2820E030E040E450E40E9451
S11341702A294B015C01D7010D900020E9F7119722
S113418088E0EDE4F2E001900D928A95E1F725E0F4
S113419045E0C501B4010E947D2BBC01C7010E940A
S11341A0B32BF70101900020E9F731973182208287
S11341B01282F70101900020E9F73197AF014C57C3
S11341C0534060E070E0C7010E94F126D701ED2D55
S11341D01D92EA95E9F7D801EC2D1D92EA95E9F7CD
S11341E02E893F89488D598DC501B4010E942A2921
S11341F06AA37BA38CA39DA30F2EF3EC4F2EF3E0B5
S11342005F2EF02DD2016D937D938D939C93139724
S11342102A8D3B8D4C8D5D8DC501B4010E942A29E8
S11342206EA37FA388A799A7F2016483758386830D
S113423097832E8D3F8D48A159A1C501B4010E94D9
S11342402A294B015C01D20118966D937D938D93BD
S11342509C931B9704EB13E0F801608170E080E00D
S113426090E00E949C2920E030E040E053E40E946A
S11342702B2820E030E040E85BE30E94B12A20E0F4
S113428030E040E85FE30E942C282AA13BA14CA126
S11342905DA10E94B12A6AA37BA38CA39DA3A7EB73
S11342A0B3E06D937D938D939C931397F801618193
S11342B070E080E090E00E949C2920E030E040E043
S11342C053E40E942B2820E030E040E85BE30E94A6
S11342D0B12A20E030E040E85FE30E942C282EA1C0
S11342E03FA148A559A50E94B12A6093BB037093CE
S11342F0BC038093BD039093BE03D80112966C91C6
S113430070E080E090E00E949C2920E030E040E0F2
S113431053E40E942B2820E030E040E85BE30E9455
S1134320B12A20E030E040E85FE30E942C28A50198
S113433094010E94B12A6093BF037093C0038093D9
S1134340C1039093C203D7010D900020E9F71197A0
S113435088E1E5E0F2E001900D928A95E1F78301AE
S113436025E045E06AA17BA18CA19DA10E947D2B43
S1134370BC01C7010E94B32BF70101900020E9F7AB
S11343803197318220821282F70101900020E9F7EF
S11343903197AF014C57534060E070E0C7010E9471
S11343A0F126F7012D2D11922A95E9F7D301EC2D71
S11343B01D92EA95E9F7D7010D900020E9F71197CE
S11343C088E1EDE1F2E001900D928A95E1F7D201E6
S11343D014966D917D918D919C91179725E045E000
S11343E00E947D2BBC01C7010E94B32BF7010190F1
S11343F00020E9F73197318220821282F70101907F
S11344000020E9F73197AF014C57534060E070E06A
S1134410C7010E94F126F7012D2D11922A95E9F783
S1134420D301EC2D1D92EA95E9F7D7010D900020F8
S1134430E9F7119788E1E5E3F2E001900D928A959E
S1134440E1F7D20118966D917D918D919C911B9706
S113445025E045E00E947D2BBC01C7010E94B32BDF
S1134460F70101900020E9F731973182208212820E
S1134470F70101900020E9F73197AF014C57534001
S113448060E070E0C7010E94F126F7012D2D119222
S11344902A95E9F7D3011D92CA94E9F781E1E5E58C
S11344A0F2E0D70101900D928A95E1F7F7010190AE
S11344B00020E9F73197AF014C57534060E070E0BA
S11344C0C7010E94F126F7011192DA94E9F780E01E
S11344D0A9960FB6F894DEBF0FBECDBFDF91CF9182
S11344E01F910F91FF90EF90DF90CF90BF90AF900E
S11344F09F908F907F906F905F904F903F902F9000
S113450008958F929F92AF92BF92CF92DF92EF92D3
S1134510FF920F931F93CF93DF93CDB7DEB7279707
S11345200FB6F894DEBF0FBECDBF0F2EF8E1BF2E3D
S1134530F02DB9820F2EFAE09F2EF02D9A828FE093
S11345408B8363E0CE0101967C010E940E260F2E20
S1134550F3E08F2EF02DF701882D11928A95E9F75B
S1134560B98280E18A8389E18C8362E0C7010E9479
S11345700E2664E0CE0104960E940E2664E0CE016D
S113458004960E943B268D810F2EF4EBCF2EF3E090
S1134590DF2EF02DF60180839E8191839F8192838B
S11345A01F928F9386E692E09F938F930CE713E01C
S11345B01F930F930E94BE2BF80101900020E9F78E
S11345C03197AF014C57534060E070E0C8010E943E
S11345D0F1260F2EF2E3AF2EF02DF8018A2D119261
S11345E08A95E9F7F60181811F928F938BE792E018
S11345F09F938F931F930F930E94BE2BF8010190FA
S11346000020E9F73197AF014C57534060E070E068
S1134610C8010E94F126F8018A2D11928A95E9F7C2
S1134620F60182811F928F9380E992E09F938F938A
S11346301F930F930E94BE2BF80101900020E9F70D
S11346403197AF014C57534060E070E0C8010E94BD
S1134650F126F8011192AA94E9F7F70111928A94CC
S1134660E9F7B9829A8263E0C7010E940E2687ECBB
S113467090E00197F1F700C000000FB6F894DEBF98
S11346800FBECDBF80E027960FB6F894DEBF0FBEF5
S1134690CDBFDF91CF911F910F91FF90EF90DF90ED
S11346A0CF90BF90AF909F908F900895CF92DF925C
S11346B0EF92FF920F931F93CF93DF936C01EB0163
S11346C00F2EFFECEF2EF3E0FF2EF02DFC016081A6
S11346D07181F70180819181681B790B072E000C91
S11346E0880B990B0E949E2907EB13E0F8012081A7
S11346F03181428153810E94B12A688379838A83FC
S11347009B83F60162817381F70182819381681B27
S1134710790B072E000C880B990B0E949E29F80137
S113472024813581468157810E94B12A6C837D831F
S11347308E839F83F60164817581F701848195815D
S1134740681B790B072E000C880B990B0E949E297D
S1134750F80120853185428553850E94B12A6887F6
S113476079878A879B87DF91CF911F910F91FF9063
S1134770EF90DF90CF900895E1E8F0E080818260CF
S113478080830895219A0895CF93DF93CDB7DEB740
S1134790AA970FB6F894DEBF0FBECDBF0E940426C1
S11347A00E94DC2678940CE713E08FE2E5EAF2E05D
S11347B0D80101900D928A95E1F7F801019000204B
S11347C0E9F73197AF014C57534060E070E0C801FE
S11347D00E94F1260F2EF2E3BF2EF02DF8012B2DAF
S11347E011922A95E9F78FEF99E6E8E1815090401C
S11347F0E040E1F700C000000E942218FFEF20E72C
S113480082E0F15020408040E1F700C000008CE1DC
S1134810E4EDF2E0D80101900D928A95E1F7F801F8
S113482001900020E9F73197AF014C57534060E005
S113483070E0C8010E94F126F8012B2D11922A95EF
S1134840E9F70E94C61883E1E0EFF2E0D801019095
S11348500D928A95E1F7F80101900020E9F731976C
S1134860AF014C57534060E070E0C8010E94F1264C
S1134870F8012B2D11922A95E9F70E94441B87E237
S1134880E3E0F3E0D80101900D928A95E1F7F80195
S113489001900020E9F73197AF014C57534060E095
S11348A070E0C8010E94F126F8012B2D11922A957F
S11348B0E9F70E9481220E94921D8BE1EAE2F3E073
S11348C0D80101900D928A95E1F7F801019000203A
S11348D0E9F73197AF014C57534060E070E0C801ED
S11348E00E94F126F8011192BA94E9F70E94BC23C0
S11348F00E94C2232090840030908500480168946F
S1134900442445F8512C0F2EFDE06F2EFAE07F2E43
S1134910F02D299ACE0143960E94C11ACE014996E0
S11349200E947F18CE0149960E945E18CE010D9612
S11349300E94481D811108C0BE016F5F7F4FCE01E8
S11349400D960E9456230CC019821A821B821C8267
S11349501D821E821F82188619861A861B861C8653
S11349606B897C89072E000C880B990B0E949E2969
S113497027E73DE74BE05AE30E94B12A6F8F78A303
S113498089A39AA36D897E89072E000C880B990B45
S11349900E949E2927E73DE74BE05AE30E94B12A93
S11349A06BA37CA38DA39EA36F89788D072E000C27
S11349B0880B990B0E949E2927E73DE74BE05AE3B9
S11349C00E94B12A6FA378A789A79AA7E4E8F0E028
S11349D0608171812616370668F46219730980E0D4
S11349E090E00E949C2920E034E244E759E40E94CC
S11349F02A2910C0C101861B970BBC0160957095D4
S1134A0080E090E00E949C2920E034E244E759E4ED
S1134A100E942A2960934C0370934D0380934E03A4
S1134A2090934F03E4E8F0E020803180698D7A8D23
S1134A30072E000C880B990B0E949E295B016C01C8
S1134A4089859A85AB85BC85B058BF93AF939F93F6
S1134A508F938C818F938B818F938A818F9389819C
S1134A608F9388858F938F818F938E818F938D8180
S1134A708F936D8D7E8D072E000C880B990B0E94F1
S1134A809E299F938F937F936F936B8D7C8D072EBD
S1134A90000C880B990B0E949E299F938F937F9300
S1134AA06F93EFA0F8A409A51AA52BA13CA14DA1D1
S1134AB05EA16F8D78A189A19AA10E9457080E94D6
S1134AC07716F40122E311922A95E9F7F401019093
S1134AD00020E9F7319782E79AE391838083538238
S1134AE04282609158037091590380915A039091C6
S1134AF05B0308E613E020E044E00E947D2BBC0148
S1134B00C4010E94B32BF40101900020E9F731970E
S1134B107182608212820F2EF4E1BF2EF02DF80113
S1134B202B2D11922A95E9F7F40101900020E9F761
S1134B30319789E79AE3918380835382428260911B
S1134B40500370915103809152039091530320E0DC
S1134B5044E00E947D2BBC01C4010E94B32BF401EC
S1134B6001900020E9F73197718260821282F80186
S1134B702B2D11922A95E9F7F40101900020E9F711
S1134B80319780E79AE391838083538242826091D4
S1134B90540370915503809156039091570320E07C
S1134BA044E00E947D2BBC01C4010E94B32BF4019C
S1134BB001900020E9F731978DE090E091838083A4
S1134BC0F8011192BA94E9F7D4010D900020E9F7A5
S1134BD0119785E0E5E4F3E001900D928A95E1F701
S1134BE0F40101900020E9F73197AF014C5753408D
S1134BF060E070E0C4010E94F12629980FB6F89491
S1134C00DEBF0FBECDBF85CE82E08093B8008FEFAC
S1134C108093BB0084E08093BC000895CF93DF931E
S1134C20EC01ECEBF0E0908190FDFDCF6093D703B5
S1134C3088818093D80380FD13C0623088F0FE0120
S1134C403196A9EDB3E06250262F30E02E5F3F4F3E
S1134C50CE01820F931F21912D93E817F907D9F7FD
S1134C601092D60388EF8093080185EA8093BC00F4
S1134C70DF91CF910895AC01ECEBF0E0908190FDD1
S1134C80FDCF8091D60380FF12C0662381F0A8ED8A
S1134C90B3E0FA016150262F30E02F5F3F4FCA0185
S1134CA0820F931F2D912193E817F907D9F780916B
S1134CB0D603817008951F920F920FB60F9211249C
S1134CC02F933F938F939F93AF93BF93EF93FF9350
S1134CD0E091B9008E2F90E0FC013897E135F105A1
S1134CE008F056C0EC5CFF4F0C9425281092D503B5
S1134CF0E091D5038091D703E81770F481E08E0F1B
S1134D008093D503F0E0E852FC4F80818093BB0090
S1134D1085E88093BC0043C08091D6038160809372
S1134D20D60384E98093BC003AC0E091D50381E0C6
S1134D308E0F8093D5038091BB00F0E0E852FC4FC6
S1134D4080832091D50330E08091D70390E00197D0
S1134D502817390724F485EC8093BC0020C085E82B
S1134D608093BC001CC08091BB00E091D503F0E0AF
S1134D70E852FC4F80838091D60381608093D603F0
S1134D8084E98093BC000BC085EA8093BC0007C013
S1134D908091B9008093080184E08093BC00FF9166
S1134DA0EF91BF91AF919F918F913F912F910F9070
S1134DB00FBE0F901F901895E0ECF0E080811082F8
S1134DC0E1ECF0E080EC808386E08093C2008CE02C
S1134DD090E09093C5008093C400808188608083B4
S1134DE00895CF92DF92EF92FF929C019091E80395
S1134DF09111FCCF9091E80391112BC041155105FD
S1134E006105710541F16A017B01B90181E080937B
S1134E10E803A6018BEE93E00E94AA2BC0924F04F4
S1134E20D0925004E0925104F09252041092E403A0
S1134E301092E5031092E6031092E7038091EB03CE
S1134E408093C600E1ECF0E080818062808381E0A1
S1134E5003C080E001C080E0FF90EF90DF90CF902E
S1134E6008951F920F920FB60F9211242F933F9320
S1134E704F935F936F937F938F939F93AF93BF935E
S1134E80CF93DF93EF93FF93C091E903D091EA03AB
S1134E908091E0039091E103A091E203B091E303D8
S1134EA02091C600FE01E80FF91F20838091E003E2
S1134EB09091E103A091E203B091E303892B8A2B43
S1134EC08B2B69F18091E0039091E103A091E203BF
S1134ED0B091E303019742E050E06AE473E08C0F81
S1134EE09D1F0E949D2B892BD1F08091E00390910E
S1134EF0E103A091E203B091E303C80FD91F198223
S1134F008091E803833021F481E08093E80302C0B8
S1134F101092E803E1ECF0E080818F7E8083809141
S1134F20E0039091E103A091E203B091E3030196C1
S1134F30A11DB11D8093E0039093E103A093E203CC
S1134F40B093E303FF91EF91DF91CF91BF91AF91C4
S1134F509F918F917F916F915F914F913F912F918D
S1134F600F900FBE0F901F9018951F920F920FB6BF
S1134F700F9211244F935F936F937F938F939F931B
S1134F80AF93BF93EF93FF938091E4039091E50374
S1134F90A091E603B091E7030196A11DB11D809392
S1134FA0E4039093E503A093E603B093E7034091F1
S1134FB0E4035091E5036091E6037091E703809167
S1134FC04F0490915004A0915104B0915204481799
S1134FD059076A077B0778F48091E4039091E5030D
S1134FE0A091E603B091E703FC01E551FC4F8081F9
S1134FF08093C60005C0E1ECF0E080818F7D808362
S1135000FF91EF91BF91AF919F918F917F916F919C
S11350105F914F910F900FBE0F901F9018951F92A4
S11350200F920FB60F9211248F938091E80383306F
S113503021F482E08093E80302C01092E8038F9188
S11350400F900FBE0F901F901895EE0FFF1F059045
S1135050F491E02D09945058BB27AA270E944328B5
S11350600C946F2A0E94612A38F00E94682A20F06A
S113507039F49F3F19F426F40C94232A0EF4E09596
S1135080E7FB0C941D2AE92F0E94802A58F3BA17D3
S1135090620773078407950720F079F4A6F50C944A
S11350A0A22A0EF4E0950B2EBA2FA02D0B01B90104
S11350B090010C01CA01A0011124FF27591B99F08A
S11350C0593F50F4503E68F11A16F040A22F232F96
S11350D0342F4427585FF3CF469537952795A795E6
S11350E0F0405395C9F77EF41F16BA0B620B730B8D
S11350F0840BBAF09150A1F0FF0FBB1F661F771FFE
S1135100881FC2F70EC0BA0F621F731F841F48F4B2
S1135110879577956795B795F7959E3F08F0B0CF3B
S11351209395880F08F09927EE0F97958795089522
S11351309F939F77EEE389379E0728F4EAE0F1E036
S11351400E944D2A0CC00E94D9299058A2EA2AED47
S11351503FE049EC5FE30E9443280E946F2A0F90CE
S113516007FC905808950E94612A60F080E891E05D
S113517009F49EEF0E94682A28F040E851E071F497
S11351805EEF0CC00C94232A0C94A22AE92FE07839
S11351900E94802A40F3092E052AB1F32617370707
S11351A04807590738F00E2E07F8E02569F0E02586
S11351B0E0640AC0EF6307F8009407FADB01B90161
S11351C09D01DC01CA01AD01EF930E9441290E94B7
S11351D06F2A0E94F6285F91552339F02BED3FE0AA
S11351E049E450FD49EC0C942C280895DF93DD2705
S11351F0B92FBF7740E85FE31616170648075B0729
S113520018F4D92F0E94A92A9F938F937F936F93A9
S11352100E94642BEEE1F1E00E94262A0E946F2A8C
S11352202F913F914F915F910E94C42ADD2351F049
S11352309058A2EA2AED3FE049EC5FE3D0785D277D
S11352400E944328DF910C946F2A0E94F92908F4E4
S113525081E008950E943E290C946F2A0E94682AD6
S113526058F00E94612A40F029F45F3F29F00C9421
S11352701D2A51110C94A32A0C94232A0E94802ADB
S113528068F39923B1F3552391F3951B550BBB2771
S1135290AA2762177307840738F09F5F5F4F220FB6
S11352A0331F441FAA1FA9F335D00E2E3AF0E0E8AD
S11352B032D091505040E695001CCAF72BD0FE2FF7
S11352C029D0660F771F881FBB1F2617370748078B
S11352D0AB07B0E809F0BB0B802DBF01FF27935843
S11352E05F4F3AF09E3F510578F00C941D2A0C94C0
S11352F0A32A5F3FE4F3983ED4F3869577956795A8
S1135300B795F7959F5FC9F7880F911D9695879577
S113531097F90895E1E0660F771F881FBB1F621796
S113532073078407BA0720F0621B730B840BBA0B54
S1135330EE1F88F7E0950895E89409C097FB3EF4C2
S113534090958095709561957F4F8F4F9F4F9923CE
S1135350A9F0F92F96E9BB279395F695879577954C
S11353606795B795F111F8CFFAF4BB0F11F460FF0C
S11353701BC06F5F7F4F8F4F9F4F16C0882311F064
S113538096E911C0772321F09EE8872F762F05C078
S1135390662371F096E8862F70E060E02AF09A9513
S11353A0660F771F881FDAF7880F9695879597F908
S11353B00895DF93CF931F930F938B01EC01EBE4DC
S11353C0F1E00E94262A0E946F2A9801AE018B0107
S11353D0EC0160E070E080E89FE30E942B280E94CB
S11353E0242B9801AE010F911F91CF91DF910C9462
S11353F0C42A990F0008550FAA0BE0E8FEEF161611
S11354001706E807F907C0F012161306E407F507B4
S113541098F0621B730B840B950B39F40A2661F028
S1135420232B242B252B21F408950A2609F4A140CB
S1135430A6958FEF811D811D089597F99F6780E8D8
S113544070E060E008959FEF80EC0895DF93CF93C0
S11354501F930F93FF92EF92DF927B018C0168946C
S113546006C0DA2EEF010E94C42AFE01E894A59139
S11354702591359145915591A6F3EF010E9443285A
S1135480FE019701A801DA9469F7DF90EF90FF908D
S11354900F911F91CF91DF9108959F938F937F93E5
S11354A06F93FF93EF939B01AC010E94B12AEF919C
S11354B0FF910E94262A2F913F914F915F910C9466
S11354C0B12A00240A941616170618060906089528
S11354D000240A9412161306140605060895092ECC
S11354E00394000C11F4882352F0BB0F40F4BF2B3B
S11354F011F460FF04C06F5F7F4F8F4F9F4F08957B
S113550057FD9058440F551F59F05F3F71F0479570
S1135510880F97FB991F61F09F3F79F08795089555
S1135520121613061406551FF2CF4695F1DF08C074
S1135530161617061806991FF1CF86957105610591
S113554008940895E894BB2766277727CB0197F939
S113555008959B01AC0160E070E080E89FE30C9447
S11355602A290E94C42A0C946F2A0E94612A38F0C6
S11355700E94682A20F0952311F00C941D2A0C94A3
S1135580232A11240C94A32A0E94802A70F3959F45
S1135590C1F3950F50E0551F629FF001729FBB2726
S11355A0F00DB11D639FAA27F00DB11DAA1F649FC2
S11355B06627B00DA11D661F829F2227B00DA11D75
S11355C0621F739FB00DA11D621F839FA00D611DFB
S11355D0221F749F3327A00D611D231F849F600D1C
S11355E0211D822F762F6A2F11249F5750409AF045
S11355F0F1F088234AF0EE0FFF1FBB1F661F771FD1
S1135600881F91505040A9F79E3F510580F00C949B
S11356101D2A0C94A32A5F3FE4F3983ED4F38695A5
S113562077956795B795F795E7959F5FC1F7FE2B3B
S1135630880F911D9695879597F9089519F416F496
S11356400C94232A0C94682B0E94882AB8F399237B
S1135650C9F3B6F39F57550B87FF0E94762B00249E
S1135660A0E640EA900180585695979528F4805C0E
S1135670660F771F881F20F026173707480730F476
S1135680621B730B840B202931294A2BA69517948E
S11356900794202531254A2758F7660F771F881F5E
S11356A020F026173707480730F4620B730B840B7E
S11356B0200D311D411DA09581F7B901842F91580A
S11356C0880F9695879508959B01AC010C94B12A97
S11356D09F3F31F0915020F4879577956795B79562
S11356E0880F911D9695879597F90895915050408C
S11356F0660F771F881FD2F70895EF920F931F93B9
S1135700CF93DF93E80147FD02C034E001C034E1E8
S1135710042E000C550B57FF03C0519541955109B8
S1135720E32E022F242FAE010E94C12DCE01DF9162
S1135730CF911F910F91EF900895FB01DC0104C0FC
S11357408D910190801921F441505040C8F7881B75
S1135750990B0895FB01DC0102C001900D924150A8
S11357605040D8F70895FB01DC010D900020E9F7C3
S1135770119701900D920020E1F70895AEE0B0E09A
S1135780E4ECFBE20C94B1300D891E8986E08C8335
S11357901A8309838FEF9FE79E838D83AE01475E53
S11357A05F4F6F89788DCE0101960E94E02BEF81C7
S11357B0F885E00FF11F10822E96E4E00C94CD30B2
S11357C0ABE0B0E0E6EEFBE20C94A3306C017B01AD
S11357D08A01FC0117821682838181FFCCC1CE012C
S11357E001963C01F6019381F70193FD859193FFA6
S11357F081917F01882309F4BAC1853239F493FD7C
S1135800859193FF81917F01853229F4B60190E05F
S11358100E940930E7CF912C212C312CFFE1F315A4
S1135820D8F08B3279F038F4803279F08332A1F4F5
S1135830232D20611DC08D3261F0803369F4232D46
S1135840216016C0832D8260382EE32DE4603E2E45
S11358502AC0F32DF8601DC037FC2DC020ED280FA1
S11358602A3040F08E32B9F436FC81C1232D2064F5
S1135870322E19C036FE06C08AE0989E200D1124EF
S1135880922E11C0EAE02E9E200D1124222EF32D1B
S1135890F0623F2E08C08C3621F4832D8068382EA8
S11358A002C0883641F4F70193FD859193FF8191FD
S11358B07F018111B3CF982F9F7D9554933028F4A5
S11358C00C5F1F4F9FE399830DC0833631F08337FC
S11358D071F0833509F059C021C0F80180818983B2
S11358E00E5F1F4F88248394912C530113C0280109
S11358F0F2E04F0E511CF801A080B18036FE03C0C7
S1135900692D70E002C06FEF7FEFC5010E94FE2F8A
S11359104C018201F32DFF773F2E16C0280122E0AF
S1135920420E511CF801A080B18036FE03C0692DDF
S113593070E002C06FEF7FEFC5010E94F32F4C01AE
S1135940F32DF0683F2E820133FC1BC0822D90E0C2
S113595088169906B0F4B60180E290E00E940930FE
S11359602A94F4CFF50137FC859137FE81915F01CC
S1135970B60190E00E94093021102A9421E0821A95
S113598091088114910471F7E8C0843611F08936C6
S113599041F5F80137FE07C06081718182819381EE
S11359A00C5F1F4F08C060817181072E000C880BAB
S11359B0990B0E5F1F4FF32DFF763F2E97FF09C003
S11359C090958095709561957F4F8F4F9F4FF068AC
S11359D03F2E2AE030E0A3010E944530882E86182D
S11359E045C0853731F4232D2F7EB22E2AE030E0D6
S11359F025C0932D997FB92E8F36C1F018F48835C0
S1135A0079F0B5C0803719F0883721F0B0C0E92F9C
S1135A10E061BE2EB4FE0DC0FB2DF460BF2E09C0A4
S1135A2034FE0AC0292F2660B22E06C028E030E0DA
S1135A3005C020E130E002C020E132E0F801B7FE09
S1135A4007C060817181828193810C5F1F4F06C002
S1135A506081718180E090E00E5F1F4FA3010E947E
S1135A604530882E8618FB2DFF773F2E36FE0DC05D
S1135A70232D2E7FA22E891458F434FE0BC032FC41
S1135A8009C0832D8E7EA82E05C0B82CA32C03C07C
S1135A90B82C01C0B92CA4FE0FC0FE01E80DF11D05
S1135AA08081803321F49A2D997EA92E09C0A2FE0B
S1135AB006C0B394B39404C08A2D867809F0B394D5
S1135AC0A3FC11C0A0FE06C0B21488F4280C922CCA
S1135AD09B180EC0B21460F4B60180E290E00E94FC
S1135AE00930B394F7CFB21418F42B1802C0982CD1
S1135AF0212CA4FE10C0B60180E390E00E9409307E
S1135B00A2FE17C0A1FC03C088E790E002C088E5AC
S1135B1090E0B6010CC08A2D867859F0A1FE02C02F
S1135B208BE201C080E2A7FC8DE2B60190E00E9406
S1135B300930891438F4B60180E390E00E940930FA
S1135B409A94F7CF8A94F301E80DF11D8081B60190
S1135B5090E00E9409308110F5CF222009F442CE52
S1135B60B60180E290E00E9409302A94F6CFF60153
S1135B708681978102C08FEF9FEF2B96E2E10C9410
S1135B80BF30A9E0B0E0E7ECFDE20C94A9306A0173
S1135B90122FB02E2BE3201720F0FF24F394F00EE5
S1135BA002C02CE3F22E0F2D27E0AE014F5F5F4FB2
S1135BB00E941B2FBC014981842F8970813031F0F0
S1135BC0E1FC06C0E0FE06C090E205C09DE203C011
S1135BD09BE201C090E05E2D507143FF3CC09111E7
S1135BE002C083E001C084E0811718F4212F281B30
S1135BF001C020E051110BC0F601822F30E288234E
S1135C0019F031938150FBCFC20ED11C20E09923AF
S1135C1029F0D6019C93F60131966F01C6010396D3
S1135C20E2FE0AC03EE4D6013C9341E411964C9353
S1135C30119712963C9306C03EE6F601308341E686
S1135C4041833283FC01322F40E2332309F442C002
S1135C5041933150FACF42FF44C0911102C083E016
S1135C6001C084E0811718F4212F281B01C020E013
S1135C7051110BC0F601822F30E2882319F03193C1
S1135C808150FBCFC20ED11C20E0992329F0D6010C
S1135C909C93F60131966F01C6010396E2FE0BC098
S1135CA039E4D6013C933EE411963C93119736E4D3
S1135CB012963C9307C039E6F60130833EE6318301
S1135CC036E63283FC01322F40E2332319F041934C
S1135CD03150FBCFFC01E20FF11D10828EEF9FEFDC
S1135CE0A6C021E030E0911102C020E030E0161699
