S0170000494D555F48656164747261636B65722E7372656365
S11300000C9485000C94A2000C94A2000C94A20001
S11300100C94A2000C94A2000C94A2000C94A200D4
S11300200C94A2000C94A2000C94A2000C94A200C4
S11300300C94A2000C94A2000C94A2000C94A200B4
S11300400C94A2000C94A2000C944B010C94CE01CD
S11300500C942F020C94A2000C94A2000C94A20005
S11300600C94BD000C94A200D8002A012A012A0194
S11300702A012A012A012A01D8002A012A012A0177
S11300802A012A012A012A01DA002A012A012A0165
S11300902A012A012A012A012A012A012A012A0104
S11300A02A012A012A012A01DA002A012A012A0145
S11300B02A012A012A012A012A012A012A012A01E4
S11300C02A012A012A012A0126012A012A012A01D8
S11300D02A012A012A012A0103012A012A012A01EB
S11300E02A012A012A012A012A012A012A012A01B4
S11300F02A012A012A012A01F7002A012A012A01D8
S11301002A012A012A012A01150111241FBECFEF59
S1130110D8E0DEBFCDBF11E0A0E0B1E0E4ECF4E054
S113012002C005900D92A430B107D9F721E0A4E0F4
S1130130B1E001C01D92A032B207E1F70E94A40011
S11301400C9460020C9400000E94B3000E943E01D3
S113015078942FEF84E39CE0215080409040E1F7B5
S113016000C00000FFCF82E08093B8008FEF80933F
S1130170BB0084E08093BC0008951F920F920FB6D9
S11301800F9211242F933F938F939F93AF93BF9319
S1130190EF93FF93E091B9008E2F90E0FC01389724
S11301A0E135F10508F056C0EC5CFF4F0C944D02AC
S11301B010920401E091040180910601E81770F4A3
S11301C081E08E0F80930401F0E0E95FFE4F8081AF
S11301D08093BB0085E88093BC0043C080910501F7
S11301E081608093050184E98093BC003AC0E0916A
S11301F0040181E08E0F809304018091BB00F0E044
S1130200E95FFE4F80832091040130E08091060174
S113021090E001972817390724F485EC8093BC00FB
S113022020C085E88093BC001CC08091BB00E09195
S11302300401F0E0E95FFE4F808380910501816055
S11302408093050184E98093BC000BC085EA809308
S1130250BC0007C08091B9008093000184E08093C2
S1130260BC00FF91EF91BF91AF919F918F913F910E
S11302702F910F900FBE0F901F90189580EC8093D4
S1130280C10086E08093C2008CE090E09093C500AA
S11302908093C40008951F920F920FB60F921124F9
S11302A02F933F934F935F936F937F938F939F937A
S11302B0AF93BF93CF93DF93EF93FF93C091180154
S11302C0D091190180910F0190911001A091110119
S11302D0B09112012091C600FE01E80FF91F20839E
S11302E080910F0190911001A0911101B091120120
S11302F0892B8A2B8B2B61F180910F019091100136
S1130300A0911101B0911201019742E050E061E027
S113031071E08C0F9D1F0E945302892BC9F08091BC
S11303200F0190911001A0911101B0911201C80F19
S1130330D91F198280911701833021F481E08093C1
S1130340170102C010921701E1ECF0E080811082E5
S113035080910F0190911001A0911101B0911201AF
S11303600196A11DB11D80930F0190931001A093DC
S11303701101B0931201FF91EF91DF91CF91BF91E1
S1130380AF919F918F917F916F915F914F913F9129
S11303902F910F900FBE0F901F9018951F920F92E0
S11303A00FB60F9211242F933F934F935F936F9344
S11303B07F938F939F93AF93BF93EF93FF9380911A
S11303C0130190911401A0911501B09116010196A9
S11303D0A11DB11D8093130190931401A0931501E5
S11303E0B0931601409113015091140160911501CD
S11303F07091160180911C0190911D01A0911E0124
S1130400B0911F01481759076A077B0798F4809138
S1130410130190911401A0911501B091160120913E
S11304201A0130911B01F901E80FF91F80818093B3
S1130430C60004C0E1ECF0E080811082FF91EF91EE
S1130440BF91AF919F918F917F916F915F914F91E8
S11304503F912F910F900FBE0F901F9018951F92F0
S11304600F920FB60F9211248F93EF93FF93809105
S11304701701833021F482E08093170102C01092A7
S11304801701E1ECF0E080811082FF91EF918F91F0
S11304900F900FBE0F901F901895EE0FFF1F059041
S11304A0F491E02D0994FB01DC0104C08D910190CD
S11304B0801921F441505040C8F7881B990B0895C6
S10704C0F894FFCFDA
S10704C4F80D0A0021
S9030000FC
