S0170000494D555F48656164747261636B65722E7372656365
S11300000C9437010C9454010C9454010C94540135
S11300100C9454010C9454010C9454010C94540108
S11300200C9454010C9454010C9454010C94EC1849
S11300300C9454010C9454010C9454010C945401E8
S11300400C9454010C9454010C942F1D0C94B31D66
S11300500C94151E0C9454010C9454010C945401EA
S11300600C94571C0C945401721CC41CC41CC41C56
S1130070C41CC41CC41CC41C721CC41CC41CC41CCE
S1130080C41CC41CC41CC41C741CC41CC41CC41CBC
S1130090C41CC41CC41CC41CC41CC41CC41CC41C5C
S11300A0C41CC41CC41CC41C741CC41CC41CC41C9C
S11300B0C41CC41CC41CC41CC41CC41CC41CC41C3C
S11300C0C41CC41CC41CC41CC01CC41CC41CC41C30
S11300D0C41CC41CC41CC41C9D1CC41CC41CC41C43
S11300E0C41CC41CC41CC41CC41CC41CC41CC41C0C
S11300F0C41CC41CC41CC41C911CC41CC41CC41C2F
S1130100C41CC41CC41CC41CAF1C036EDB363D9A47
S11301109999993DABAAAA2A3E000000803F084A5B
S1130120D73B3BCE016E84BCBFFDC12F3D6C743107
S11301309ABD56833DDA3D00C77F11BED9E4BB4C5E
S11301403E916BAAAABE000000803F072C7AA5BA94
S11301506CC590DA3B9365FC8BBC53F810FD3C56A0
S113016092834DBD879D3AB63DCBC9BF5BBE73DA62
S11301700FC93F0000407A10F35A00A0724E1809CC
S11301800010A5D4E80000E87648170000E40B54FA
S1130190020000CA9A3B000000E1F50500008096C9
S11301A09800000040420F000000A08601000000FB
S11301B0102700000000E8030000000064000000B5
S11301C000000A00000000000100000000002C767E
S11301D0D888DC674F0823DFC1DFAE59E1B1B79699
S11301E0E5E3E453C63AE651997696E8E6C28426F6
S11301F0EB898C9B62ED407C6FFCEFBC9C9F40F2D2
S1130200BAA56FA5F490055A2AF75C936B6CF9674D
S11302106DC11BFCE0E40D47FEF520E6B500D0ED12
S1130220902E0300943577050080841E080000207A
S11302304E0A000000C80C333333330F986E128318
S11302401141EF8D2114893BE65516CFFEE6DB18EC
S1130250D1844B381BF77C1D901DA4BBE4242032B1
S113026084725E228100C9F124ECA1E53D271124AA
S11302701FBECFEFD8E0DEBFCDBF13E0A0E0B1E0FA
S1130280ECEBFDE402C005900D92AC3AB107D9F74E
S113029024E0ACEAB3E001C01D92AB32B207E1F74F
S11302A00E94FD180C94DC260C940000FC0180E0F4
S11302B090E0A0E8BFE380839183A283B383148298
S11302C015821682178280879187A287B387148646
S11302D0158616861786108A118A128A138A148A3A
S11302E0158A168A178A108E118E128E138E148E0A
S11302F0158E168E178E10A211A212A213A214AA82
S113030080E090E0A0E0BBE384A395A3A6A3B7A3F9
S113031008958F929F92AF92BF92CF92DF92EF9205
S1130320FF926B017C0120E030E040E05FE30E943B
S1130330BC204B015C01D701C601B595A7959795E3
S113034087950F2EFFEDCF2EF9E5DF2EF7E3EF2E85
S1130350FFE5FF2EF02DC81AD90AEA0AFB0AA70105
S11303609601C501B4010E94BC20A70196010E9418
S1130370BC209B01AC0160E070E080EC9FE30E9434
S1130380311EA70196010E94BC206B017C019B01D8
S1130390AC01C501B4010E94BC20A70196010E94D2
S11303A0BC209B01AC0160E070E080EC9FE30E9404
S11303B0311EA70196010E94BC20FF90EF90DF90B0
S11303C0CF90BF90AF909F908F9008952F923F92BF
S11303D04F925F926F927F928F929F92AF92BF9251
S11303E0CF92DF92EF92FF920F931F93CF93DF93FD
S11303F0CDB7DEB7A4970FB6F894DEBF0FBECDBF5E
S11304001C01CB01BA012801390129E33AEF4EE876
S11304105CE30E94BC2069877A878B879C8729E3E9
S11304203AEF4EE85CE3C301B2010E94BC206D8741
S11304307E878F87988B29E33AEF4EE85CE3C70108
S1130440B6010E94BC20698B7A8B8B8B9C8B20E03D
S113045030E0A901C501B4010E942B1F811119C00C
S113046020E030E0A90169AD7AAD8BAD9CAD0E946E
S11304702B1F81110EC020E030E0A90121966CAD44
S11304807DAD8EAD9FAD21970E942B1F882309F46B
S1130490FEC1A5019401C501B4010E94BC206B01F9
S11304A07C0129AD3AAD4BAD5CADCA01B9010E94E6
S11304B0BC209B01AC01C701B6010E94321E6B0136
S11304C07C0121962CAD3DAD4EAD5FAD2197CA01A7
S11304D0B9010E94BC209B01AC01C701B6010E9476
S11304E0321E0E9489016B017C019B01AC01C50194
S11304F0B4010E94BC206D8B7E8B8F8B988FA701DB
S1130500960169AD7AAD8BAD9CAD0E94BC206D8F18
S11305107E8F8F8F98A3A701960121966CAD7DAD38
S11305208EAD9FAD21970E94BC206D837E838F8307
S11305309887D1011C968D909D90AD90BC901F978B
S113054054964D905D906D907C9057971896CD90F1
S1130550DD90ED90FC901B9750968D919D910D90A0
S1130560BC91A02D89839A83AB83BC83A3019201A0
S1130570C501B4010E94BC20698F7A8F8B8F9C8F38
S113058029813A814B815C81C701B6010E94BC205C
S11305909B01AC01698D7A8D8B8D9C8D0E94311EDF
S11305A0698F7A8F8B8F9C8FA7019601C501B40147
S11305B00E94BC204B015C0129813A814B815C8102
S11305C0C301B2010E94BC209B01AC01C501B4016E
S11305D00E94321E69837A838B839C83A7019601D0
S11305E0C701B6010E94BC2020E030E040E05FE398
S11305F00E94311E6B017C01A3019201C301B2016F
S11306000E94BC209B01AC01C701B6010E94321EAE
S11306106B017C019B01AC016D8D7E8D8F8D98A14A
S11306200E94BC204B015C0129813A814B815C8191
S11306306D817E818F8198850E94BC209B01AC01D5
S1130640C501B4010E94311E69A37AA38BA39CA3A4
S1130650298D3A8D4B8D5C8D6D817E818F8198853E
S11306600E94BC204B015C01A70196016D897E8923
S11306708F89988D0E94BC209B01AC01C501B401F7
S11306800E94311E6D837E838F83988729813A81EE
S11306904B815C816D897E898F89988D0E94BC20F5
S11306A06B017C01298D3A8D4B8D5C8D6D8D7E8D1A
S11306B08F8D98A10E94BC209B01AC01C701B6019B
S11306C00E94311E69837A838B839C83F101C480E9
S11306D0D580E680F78020E030E0A901C701B601AB
S11306E00E94AF2018160CF084C0D10194968D900E
S11306F09D90AD90BC909797A701960169A17AA1AE
S11307008BA19CA10E94BC20A50194010E94BC2045
S1130710F101208D318D428D538D0E94321E6D8BDF
S11307207E8B8F8B988FD10158966D937D938D938B
S11307309C935B97A70196016D817E818F8198853B
S11307400E94BC20A50194010E94BC20F101248DCB
S1130750358D468D578D0E94321E2B013C01D101EF
S11307605C966D937D938D939C935F97A7019601FF
S113077069817A818B819C810E94BC20A5019401AE
S11307800E94BC20F10120A131A142A153A10E94E9
S1130790321E6B017C01D10190966D937D938D93F4
S11307A09C9393972D893E894F89588D69857A85C5
S11307B08B859C850E94321E69877A878B879C87EC
S11307C0A30192016D857E858F8598890E94321ED2
S11307D06D877E878F87988BA701960169897A89AF
S11307E08B899C890E94321E698B7A8B8B8B9C8BA4
S11307F00DC0F101108E118E128E138E148E158E73
S1130800168E178E10A211A212A213A2D101CD909E
S1130810DD90ED90FC90A701960169A17AA18BA1CE
S11308209CA10E94BC209B01AC0169857A858B85C3
S11308309C850E94321E69877A878B879C87A701D3
S113084096016D817E818F8198850E94BC209B01D9
S1130850AC016D857E858F8598890E94321E6D87D7
S11308607E878F87988BA701960169817A818B8116
S11308709C810E94BC209B01AC0169897A898B8987
S11308809C890E94321E698B7A8B8B8B9C8B20E017
S113089030E040E05FE3F10164A175A186A197A176
S11308A00E94BC206B017C019B01AC0169857A85A7
S11308B08B859C850E94BC2069837A838B839C836F
S11308C0A70196016D857E858F8598890E94BC203D
S11308D06D837E838F839887A701960169897A89BE
S11308E08B899C890E94BC20698B7A8B8B8B9C8B17
S11308F0D10118968D919D910D90BC91A02D898761
S11309009A87AB87BC87F101C484D584E684F784D5
S113091080899189A289B3898D879E87AF87B88B97
S11309204488558866887788C701B601905829811C
S11309303A814B815C810E94BC204B015C012D8576
S11309403E854F8558896D817E818F8198850E946F
S1130950BC209B01AC01C501B4010E94311E4B01B6
S11309605C01A301920169897A898B899C890E941F
S1130970BC209B01AC01C501B4010E94311E298534
S11309803A854B855C850E94321E6D8B7E8B8F8BE6
S1130990988F29853A854B855C8569817A818B811D
S11309A09C810E94BC204B015C012D853E854F85B6
S11309B0588969897A898B899C890E94BC209B010A
S11309C0AC01C501B4010E94321E4B015C01A301BC
S11309D092016D817E818F8198850E94BC209B014C
S11309E0AC01C501B4010E94311EA70196010E9409
S11309F0321E6D8F7E8F8F8F98A329853A854B8504
S1130A005C856D817E818F8198850E94BC204B011D
S1130A105C01A701960169897A898B899C890E9466
S1130A20BC209B01AC01C501B4010E94311E4B01E5
S1130A305C01A301920169817A818B819C810E946E
S1130A40BC209B01AC01C501B4010E94321E2D855E
S1130A503E854F8558890E94321E698F7A8F8B8F0D
S1130A609C8F29853A854B855C8569897A898B8930
S1130A709C890E94BC204B015C01A70196016D81F9
S1130A807E818F8198850E94BC209B01AC01C501A9
S1130A90B4010E94321E6B017C012D853E854F8579
S1130AA0588969817A818B819C810E94BC209B0139
S1130AB0AC01C701B6010E94311EA30192010E943C
S1130AC0321E4B015C012D893E894F89588DCA0124
S1130AD0B9010E94BC206B017C012D8D3E8D4F8D90
S1130AE058A1CA01B9010E94BC209B01AC01C701F5
S1130AF0B6010E94321E6B017C01298D3A8D4B8D0B
S1130B005C8DCA01B9010E94BC209B01AC01C701E4
S1130B10B6010E94321E6B017C01A5019401C5013E
S1130B20B4010E94BC209B01AC01C701B6010E9424
S1130B30321E0E9489016B017C019B01AC016D890D
S1130B407E898F89988D0E94BC20D10118966D935F
S1130B507D938D939C931B97A70196016D8D7E8D3C
S1130B608F8D98A10E94BC20F101648775878687C8
S1130B709787A7019601698D7A8D8B8D9C8D0E9434
S1130B80BC20D10150966D937D938D939C93539784
S1130B90A7019601C501B4010E94BC20F101648B38
S1130BA0758B868B978B14AAA4960FB6F894DEBF28
S1130BB00FBECDBFDF91CF911F910F91FF90EF90AA
S1130BC0DF90CF90BF90AF909F908F907F906F9069
S1130BD05F904F903F902F9008952F923F924F92A5
S1130BE05F926F927F928F929F92AF92BF92CF92B9
S1130BF0DF92EF92FF920F931F93CF93DF93CDB7C2
S1130C00DEB7C455D1090FB6F894DEBF0FBECDBF11
S1130C101C01498B5A8B6B8B7C8B0D8B1E8B2F8B02
S1130C20388FAA961FADAA97AB960FADAB97AC962B
S1130C306FACAC97AD967FACAD97AE964FACAE971C
S1130C40AF965FACAF97E0968FADE0978D83E1965A
S1130C509FADE1979D8720E030E0A901E5966CAD5A
S1130C607DAD8EAD9FADE5970E942B1F811135C0E0
S1130C7020E030E0A901E9966CAD7DAD8EAD9FAD6D
S1130C80E9970E942B1F811128C020E030E0A901C0
S1130C90ED966CAD7DAD8EAD9FADED970E942B1F93
S1130CA081111BC0AD85AF93BD81BF935F924F92FD
S1130CB07F926F920F931F930D891E892F89388D10
S1130CC049895A896B897C89C1010E94E6010FB662
S1130CD0F894DEBF0FBECDBF67C629E33AEF4EE8F6
S1130CE05CE369897A898B899C890E94BC20698B21
S1130CF07A8B8B8B9C8B29E33AEF4EE85CE36D890E
S1130D007E898F89988D0E94BC206D8B7E8B8F8B02
S1130D10988F29E33AEF4EE85CE3C701B6010E94DD
S1130D20BC2069A37AA38BA39CA320E030E0A90193
S1130D30C501B4010E942B1F811119C020E030E0CD
S1130D40A901612F702F862D972D0E942B1F8111D1
S1130D500EC020E030E0A901FD81ED85642D752DE4
S1130D608F2F9E2F0E942B1F882309F490C4A50166
S1130D709401C501B4010E94BC206B017C01212FA8
S1130D80302F462D572D612F702F862D972D0E94C1
S1130D90BC209B01AC01C701B6010E94321E6B014D
S1130DA07C019D818D85242D352D492F582F642D4F
S1130DB0752D892F952F0E94BC209B01AC01C70182
S1130DC0B6010E94321E0E9489016B017C019B01C5
S1130DD0AC01C501B4010E94BC2069AB7AAB8BABFA
S1130DE09CABA7019601612F702F862D972D0E9431
S1130DF0BC206DAB7EAB8FAB98AFA7019601FD8194
S1130E00ED85642D752D8F2F9E2F0E94BC2069AF18
S1130E107AAF8BAF9CAFE5962CAD3DAD4EAD5FADDB
S1130E20E597CA01B9010E94BC206B017C01E996D7
S1130E302CAD3DAD4EAD5FADE997CA01B9010E943D
S1130E40BC209B01AC01C701B6010E94321E6B019C
S1130E507C01ED962CAD3DAD4EAD5FADED97CA0175
S1130E60B9010E94BC209B01AC01C701B6010E94DC
S1130E70321E0E9489016B017C019B01AC01E59645
S1130E806CAD7DAD8EAD9FADE5970E94BC206D83AA
S1130E907E838F839887A7019601E9966CAD7DAD1B
S1130EA08EAD9FADE9970E94BC2069877A878B87B6
S1130EB09C87A7019601ED966CAD7DAD8EAD9FAD7F
S1130EC0ED970E94BC206D877E878F87988BD10118
S1130ED018968D919D910D90BC91A02D89839A8334
S1130EE0AB83BC83F101C484D584E684F784A70171
S1130EF09601BC01CD010E94BC206DA37EA38FA3EB
S1130F0098A7D10150964D905D906D907C90539729
S1130F10A301920169817A818B819C810E94BC200A
S1130F20698F7A8F8B8F9C8FF10184889588A6882E
S1130F30B788A501940169817A818B819C810E9483
S1130F40BC206D8F7E8F8F8F98A3A3019201C70160
S1130F50B6010E94BC2069A77AA78BA79CA7A5010C
S1130F609401C701B6010E94BC206DA77EA78FA77C
S1130F7098ABA3019201C301B2010E94BC20219647
S1130F806CAF7DAF8EAF9FAF2197A5019401C301D4
S1130F90B2010E94BC2025966CAF7DAF8EAF9FAF8F
S1130FA02597A5019401C501B4010E94BC202B0121
S1130FB03C0121962CAD3DAD4EAD5FAD219760E077
S1130FC070E080E09FE30E94311EA30192010E9421
S1130FD0311E29966CAF7DAF8EAF9FAF29972D8DB3
S1130FE03E8D4F8D58A169A57AA58BA59CA50E941D
S1130FF0311E2D966CAF7DAF8EAF9FAF2D972DA573
S11310003EA54FA558A9698D7A8D8B8D9C8D0E9424
S1131010321E61966CAF7DAF8EAF9FAF61972996FC
S11310202CAD3DAD4EAD5FAD29976D817E818F8135
S113103098850E94BC204B015C012D962CAD3DADE2
S11310404EAD5FAD2D9769857A858B859C850E9411
S1131050BC209B01AC01C501B4010E94321E4B01AE
S11310605C0161962CAD3DAD4EAD5FAD61976D8574
S11310707E858F8598890E94BC209B01AC01C501A7
S1131080B4010E94321E9B01AC010E94321E4B012E
S11310905C01A7019601C701B6010E94BC209B0117
S11310A0AC0160E070E080E09FE30E94311E659631
S11310B06CAF7DAF8EAF9FAF659729A53AA54BA5C1
S11310C05CA56D8D7E8D8F8D98A10E94321E2D8121
S11310D03E814F8158850E94BC206B017C01A30195
S11310E0920165966CAD7DAD8EAD9FAD65970E9406
S11310F0311E29853A854B855C850E94BC209B0165
S1131100AC01C701B6010E94321E6B017C012DA106
S11311103EA14FA158A525966CAD7DAD8EAD9FAD7A
S113112025970E94311E2D853E854F8558890E9442
S1131130BC209B01AC01C701B6010E94321E9B0179
S1131140AC010E94321E6B017C01A5019401C50112
S1131150B4010E94BC206D8F7E8F8F8F98A3A50150
S11311609401C501B4010E94BC204B015C01A7019C
S11311709601C701B6010E94BC209B01AC01C501C8
S1131180B4010E94321E0E942F214B015C01298D63
S11311903A8D4B8D5C8D6DA57EA58FA598A90E9477
S11311A0311E698F7A8F8B8F9C8F25962CAD3DAD28
S11311B04EAD5FAD25976DA17EA18FA198A50E942C
S11311C0321E6DA37EA38FA398A721962CAD3DADAF
S11311D04EAD5FAD219765966CAD7DAD8EAD9FAD87
S11311E065970E94311E6D8F7E8F8F8F98A3298DF6
S11311F03A8D4B8D5C8D6D817E818F8198850E94A7
S1131200BC206B017C012DA13EA14FA158A569858D
S11312107A858B859C850E94BC209B01AC01C7010B
S1131220B6010E94321E6B017C012D8D3E8D4F8DC7
S113123058A16D857E858F8598890E94BC209B016D
S1131240AC01C701B6010E94321E9B01AC010E9491
S1131250321E6B017C0129813A814B815C81CA0178
S1131260B9010E94BC2020E030E040E05FE30E942E
S1131270311EA30192010E94321E69837A838B83FB
S11312809C83A501940129966CAD7DAD8EAD9FAD77
S113129029970E94BC202B013C01A7019601698D6E
S11312A07A8D8B8D9C8D0E94BC209B01AC01C30167
S11312B0B2010E94321E69A77AA78BA79CA7A50139
S11312C094012D966CAD7DAD8EAD9FAD2D970E9492
S11312D0BC202B013C01A70196016DA17EA18FA129
S11312E098A50E94BC209B01AC01C301B2010E94DD
S11312F0321E6DA77EA78FA798ABA50194016196B6
S11313006CAD7DAD8EAD9FAD61970E94BC202B016D
S11313103C01A70196016D8D7E8D8F8D98A10E9451
S1131320BC209B01AC01C301B2010E94321E6B01BF
S11313307C0129813A814B815C816DA97EA98FA9A9
S113134098AD0E94BC204B015C012DA13EA14FA190
S113135058A569AD7AAD8BAD9CAD0E94BC209B01B4
S1131360AC01C501B4010E94311E4B015C01A7010F
S1131370960169857A858B859C850E94BC202B010A
S11313803C012DA53EA54FA558A96D857E858F8569
S113139098890E94BC209B01AC01C301B2010E9448
S11313A0311E9B01AC01C501B4010E94321E6D8F38
S11313B07E8F8F8F98A3298D3A8D4B8D5C8D69AD6F
S11313C07AAD8BAD9CAD0E94BC204B015C012981A0
S11313D03A814B815C8169A97AA98BA99CA90E9455
S11313E0BC209B01AC01C501B4010E94311E4B011C
S11313F05C0129A53AA54BA55CA56D857E858F85E5
S113140098890E94BC202B013C01A70196016D81A3
S11314107E818F8198850E94BC209B01AC01C30111
S1131420B2010E94311E9B01AC01C501B4010E94AE
S1131430321E69837A838B839C832DA13EA14FA1A5
S113144058A569A97AA98BA99CA90E94BC206B0103
S11314507C01298D3A8D4B8D5C8D6DA97EA98FA958
S113146098AD0E94BC209B01AC01C701B6010E944B
S1131470311E6B017C012DA53EA54FA558A96D8198
S11314807E818F8198850E94BC204B015C0129A537
S11314903AA54BA55CA569857A858B859C850E94B8
S11314A0BC209B01AC01C501B4010E94311E9B010B
S11314B0AC01C701B6010E94321E6D837E838F8307
S11314C09887D1011496CD90DD90ED90FC901797FC
S11314D020E030E0A901C701B6010E94AF20181630
S11314E00CF082C0F10184A095A0A6A0B7A0A7012A
S11314F096016D8D7E8D8F8D98A10E94BC20A501D3
S113150094010E94BC20D10158962D913D914D919A
S11315105C915B970E94321E69877A878B879C87D0
S1131520F101608F718F828F938FA701960169817A
S11315307A818B819C810E94BC20A50194010E9428
S1131540BC20D1015C962D913D914D915C915F97AA
S11315500E94321E2B013C01F101648F758F868F2E
S1131560978FA70196016D817E818F8198850E9456
S1131570BC20A50194010E94BC20D10190962D911C
S11315803D914D915C9193970E94321E6B017C01B9
S1131590F10160A371A382A393A329853A854B85A6
S11315A05C8569897A898B899C890E94321E698B42
S11315B07A8B8B8B9C8BA30192016D897E898F8999
S11315C0988D0E94321E6D8B7E8B8F8B988FA70116
S11315D0960169A17AA18BA19CA10E94321E69A3E4
S11315E07AA38BA39CA312C0D10158961D921D927D
S11315F01D921C925B97F101148E158E168E178E18
S113160090961D921D921D921C929397F101C08099
S1131610D180E280F380A70196016D8D7E8D8F8D40
S113162098A10E94BC209B01AC0169897A898B89AD
S11316309C890E94321E698B7A8B8B8B9C8BA701B1
S1131640960169817A818B819C810E94BC209B01D7
S1131650AC016D897E898F89988D0E94321E6D8BB5
S11316607E8B8F8B988FA70196016D817E818F81F0
S113167098850E94BC209B01AC0169A17AA18BA131
S11316809CA10E94321E69A37AA38BA39CA320E091
S113169030E040E05FE3D10194966D917D918D91AE
S11316A09C9197970E94BC206B017C019B01AC012B
S11316B069897A898B899C890E94BC2069877A8789
S11316C08B879C87A70196016D897E898F89988D68
S11316D00E94BC206D877E878F87988BA701960117
S11316E069A17AA18BA19CA10E94BC20698B7A8BF1
S11316F08B8B9C8BD10118968D919D910D90BC91F3
S1131700A02D89839A83AB83BC83F101C484D584DF
S1131710E684F78480899189A289B3898D839E8325
S1131720AF83B8874488558866887788C701B6012F
S1131730905829853A854B855C850E94BC204B01D5
S11317405C012D813E814F8158856D857E858F8515
S113175098890E94BC209B01AC01C501B4010E9480
S1131760311E4B015C01A301920169897A898B893D
S11317709C890E94BC209B01AC01C501B4010E945C
S1131780311E29813A814B815C810E94321E6D8B0E
S11317907E8B8F8B988F29813A814B815C816985FF
S11317A07A858B859C850E94BC204B015C012D8130
S11317B03E814F81588569897A898B899C890E94E9
S11317C0BC209B01AC01C501B4010E94321E4B0137
S11317D05C01A30192016D857E858F8598890E94A5
S11317E0BC209B01AC01C501B4010E94311EA701BC
S11317F096010E94321E69A37AA38BA39CA329811C
S11318003A814B815C816D857E858F8598890E94A4
S1131810BC204B015C01A701960169897A898B89F7
S11318209C890E94BC209B01AC01C501B4010E94AB
S1131830311E4B015C01A301920169857A858B8578
S11318409C850E94BC209B01AC01C501B4010E948F
S1131850321E2D813E814F8158850E94321E4B01DC
S11318605C0129813A814B815C8169897A898B8900
S11318709C890E94BC2069837A838B839C83A70103
S113188096016D857E858F8598890E94BC209B0179
S1131890AC0169817A818B819C810E94321E6B012B
S11318A07C012D813E814F81588569857A858B85A0
S11318B09C850E94BC209B01AC01C701B6010E941B
S11318C0311EA30192010E94321E2B013C012D897D
S11318D03E894F89588DCA01B9010E94BC206B0111
S11318E07C0129A13AA14BA15CA1CA01B9010E94C2
S11318F0BC209B01AC01C701B6010E94321E6B01E2
S11319007C01A5019401C501B4010E94BC209B0186
S1131910AC01C701B6010E94321E6B017C01A30118
S11319209201C301B2010E94BC209B01AC01C7011A
S1131930B6010E94321E0E9489016B017C019B0149
S1131940AC016D897E898F89988D0E94BC20D1015C
S113195018966D937D938D939C931B97A701960185
S113196069A17AA18BA19CA10E94BC20F10164878A
S1131970758786879787A7019601C501B4010E94E0
S1131980BC20D10150966D937D938D939C93539776
S1131990A7019601C301B2010E94BC20F101648B2E
S11319A0758B868B978B14AACC5ADF4F0FB6F8949D
S11319B0DEBF0FBECDBFDF91CF911F910F91FF907E
S11319C0EF90DF90CF90BF90AF909F908F907F90DB
S11319D06F905F904F903F902F9008954F925F9239
S11319E06F927F928F929F92AF92BF92CF92DF922B
S11319F0EF92FF92CF93DF93CDB7DEB762970FB626
S1131A00F894DEBF0FBECDBF9A8B898BDC011C9688
S1131A108D909D90AD90BC901F9750964D905D9089
S1131A206D907C905397A3019201C301B2010E946F
S1131A30BC2069837A838B839C83A989BA8918968D
S1131A408D919D910D90BC91A02D8D839E83AF832C
S1131A50B887E989FA89C488D588E688F788A50112
S1131A609401C501B4010E94BC209B01AC0160E05B
S1131A7070E080E09FE30E94311E29813A814B810E
S1131A805C810E94311E69877A878B879C872D81B0
S1131A903E814F815885C501B4010E94BC206D87E9
S1131AA07E878F87988BA7019601C301B2010E949C
S1131AB0BC209B01AC016D857E858F8598890E9431
S1131AC0321E29853A854B855C850E94CC1EA989E6
S1131AD0BA8998966D937D938D939C939B97A70158
S1131AE09601C501B4010E94BC2069877A878B875F
S1131AF09C872D813E814F815885C301B2010E948C
S1131B00BC209B01AC0169857A858B859C850E94EC
S1131B10311E20E030E040E050EC0E94BC200E94E6
S1131B209E1EE989FA8964A775A786A797A72981C4
S1131B303A814B815C8160E070E080E09FE30E9429
S1131B40311E69837A838B839C83A7019601C70125
S1131B50B6010E94BC209B01AC0169817A818B8112
S1131B609C810E94311E69837A838B839C83A301A9
S1131B709201C501B4010E94BC204B015C01A70184
S1131B8096016D817E818F8198850E94BC209B0186
S1131B90AC01C501B4010E94321E29813A814B81F6
S1131BA05C810E94CC1EA989BA89D0966D937D93DD
S1131BB08D939C93D39781E0D4968C9362960FB6C1
S1131BC0F894DEBF0FBECDBFDF91CF91FF90EF90B1
S1131BD0DF90CF90BF90AF909F908F907F906F9049
S1131BE05F904F900895FF920F931F93CF93DF93CD
S1131BF000D01F92CDB7DEB70F2EF0EDFF2EF02DE3
S1131C00F9828BE68A8381E08B8363E08E010F5F28
S1131C101F4FC8010E940A1C83E0F80111928A95A3
S1131C20E9F7F98287E38A8382E08B8363E0C80162
S1131C300E940A1C0F900F900F90DF91CF911F917B
S1131C400F91FF9008950F931F93CF93DF93CDB718
S1131C50DEB72A970FB6F894DEBF0FBECDBF8C0156
S1131C6080ED89838BE38A8381ED8C8362E0CE01EE
S1131C7001960E940A1C67E0CE0104960E940A1C89
S1131C8067E0CE0104960E94371C8D8190E0982F66
S1131C9088272E81822BF801918380838F8190E0A5
S1131CA0982F88272885822B93838283898590E0C7
S1131CB0982F88272A85822B9583848380E02A960F
S1131CC00FB6F894DEBF0FBECDBFDF91CF911F9149
S1131CD00F910895CF93DF9300D01F92CDB7DEB755
S1131CE080ED89838CE18A8388E08B8363E0CE0175
S1131CF001960E940A1C2FEF80E792E02150804059
S1131D009040E1F700C0000080E00F900F900F902A
S1131D10DF91CF9108950F931F93CF93DF93CDB7A6
S1131D20DEB729970FB6F894DEBF0FBECDBF8C0186
S1131D3080ED898383E48A8381ED8B8362E0CE0125
S1131D4001960E940A1C67E0CE0103960E940A1CB9
S1131D5067E0CE0103960E94371C8C8190E0982F97
S1131D6088272D81822BF801918380838E8190E0D6
S1131D70982F88272F81822B93838283888590E0F4
S1131D80982F88272985822B9583848380E0299640
S1131D900FB6F894DEBF0FBECDBFDF91CF911F9178
S1131DA00F910895CF93DF93CDB7DEB728970FB681
S1131DB0F894DEBF0FBECDBFFC0140815181519527
S1131DC04195510951834083228133813195219575
S1131DD03109338322838481958191958195910979
S1131DE09583848351813381958160ED698363E1B7
S1131DF06A835B834C833D832E839F83888768E05B
S1131E00CE0101960E940A1C80E028960FB6F89431
S1131E10DEBF0FBECDBFDF91CF9108953F924F92A9
S1131E205F926F927F928F929F92AF92BF92CF9266
S1131E30DF92EF92FF920F931F93CF93DF93CDB76F
S1131E40DEB72F970FB6F894DEBF0FBECDBF80ED7F
S1131E5089838BE18A8380E18B8363E0CE010196E1
S1131E600E940A1C00E014E0CE0104960E948B0E2E
S1131E708C819D81092E000CAA0BBB0B480E591EA8
S1131E806A1E7B1E8E819F81092E000CAA0BBB0B40
S1131E90880E991EAA1EBB1E88859985092E000CE2
S1131EA0AA0BBB0BC80ED91EEA1EFB1E89EF90E0DD
S1131EB00197F1F700C0000001501109A9F67F92C3
S1131EC06F925F924F9289E791E09F938F9300EC1A
S1131ED013E01F930F930E94C021F801019000208A
S1131EE0E9F73197AF01405C534060E070E0C8010E
S1131EF00E94ED1C0F2EF2E33F2EF02DF801232D4E
S1131F0011922A95E9F7BF92AF929F928F9287E838
S1131F1091E09F938F931F930F930E94C021F80128
S1131F2001900020E9F73197AF01405C534060E035
S1131F3070E0C8010E94ED1CF801232D11922A952E
S1131F40E9F7FF92EF92DF92CF9285E991E09F93B8
S1131F508F931F930F930E94C021F80101900020DA
S1131F60E9F73197AF01405C534060E070E0C8018D
S1131F700E94ED1CF80111923A94E9F7D301C201D1
S1131F800FB6F894DEBF0FBECDBF772024F4815086
S1131F909C4FAF4FBF4F072E7AE0B595A795979505
S1131FA087957A95D1F7702D8A879B87B501A4010F
S1131FB0BB2024F441505C4F6F4F7F4F032E3AE017
S1131FC075956795579547953A95D1F7302D5D8767
S1131FD04C87B701A601FF2024F441505C4F6F4F9A
S1131FE07F4F032E3AE075956795579547953A9537
S1131FF0D1F7302D5F874E879F938F930F2EF1E695
S1132000CF2EF1E0DF2EF02DDF92CF9200EC13E023
S11320101F930F930E94C021F80101900020E9F75B
S11320203197AF01405C534060E070E0C8010E940A
S1132030ED1C0F2EF2E3FF2EF02DF8012F2D11923F
S11320402A95E9F78D858F938C858F93DF92CF92B4
S11320501F930F930E94C021F80101900020E9F71B
S11320603197AF01405C534060E070E0C8010E94CA
S1132070ED1CF8012F2D11922A95E9F78F858F9386
S11320808E858F93DF92CF921F930F930E94C0216E
S1132090F80101900020E9F73197AF01405C53400B
S11320A060E070E0C8010E94ED1CF8011192FA94FE
S11320B0E9F7CE010A960E94D20E0FB6F894DEBF5D
S11320C00FBECDBF80E02F960FB6F894DEBF0FBED3
S11320D0CDBFDF91CF911F910F91FF90EF90DF90D3
S11320E0CF90BF90AF909F908F907F906F905F90B4
S11320F04F903F9008950F931F93CF93DF93EC017C
S113210004EF13E0F8016081062E000C770B880BB6
S1132110990B0E94A41F20E030E040E05FE30E949E
S1132120BC2020E030E040E05CE30E94BC2020E0E2
S113213030E040E85FE30E94321E9B01AC016881FD
S113214079818A819B810E94BC20688379838A83F8
S11321509B83F8016181062E000C770B880B990B89
S11321600E94A41F20E030E040E05FE30E94BC2016
S113217020E030E040E05CE30E94BC2020E030E05E
S113218040E85FE30E94321E9B01AC016C817D81BB
S11321908E819F810E94BC206C837D838E839F836C
S11321A0F8016281062E000C770B880B990B0E94B4
S11321B0A41F20E030E040E05FE30E94BC2020E068
S11321C030E040E05CE30E94BC2020E030E040E8E6
S11321D05FE30E94321E9B01AC01688579858A8584
S11321E09B850E94BC20688779878A879B8780E0CB
S11321F0DF91CF911F910F9108950F931F93CF9368
S1132200DF93CDB7DEB72A970FB6F894DEBF0FBEC3
S1132210CDBF8C0188E1898383E08A8389E18B8344
S113222062E0CE0101960E940A1C68E0CE0103968A
S11322300E940A1C68E0CE0103960E94371C8D811F
S113224090E0982F88272C81822BF801918380833A
S11322508F8190E0982F88272E81822B938382830D
S1132260898590E0982F88272885822B95838483FD
S113227080E02A960FB6F894DEBF0FBECDBFDF9183
S1132280CF911F910F9108952F923F924F925F9299
S11322906F927F928F929F92AF92BF92CF92DF9272
S11322A0EF92FF920F931F93CF93DF93CDB7DEB7D7
S11322B0AF970FB6F894DEBF0FBECDBF88E1898318
S11322C08AE08A8386E18B8363E0CE0101960E94D3
S11322D00A1C86E0E1E0F1E0DE011A9601900D921D
S11322E08A95E1F786E0E7E0F1E0DE01509601909F
S11322F00D928A95E1F700E014E05E0126E1A20E5A
S1132300B11CCE0104960E94FD109E012C5F3F4F2C
S11323106E0180E1C80ED11C7E019AE0E90EF11C29
S1132320B701F601D9018D919D919D0140815181A3
S11323308417950714F491838083DB014D915C919C
S113234011974817590714F48D939C9332966E5F36
S11323507F4FEA15FB0531F7EFE1FEE43197F1F722
S113236000C000000150110961F63E01F0E16F0E5A
S1132370711C0F2EF3EA8F2EF1E09F2EF02D0F2EFD
S1132380F0ECAF2EF3E0BF2EF02D12E30F2EFFEA98
S11323904F2EF1E05F2EF02DD7018C9111969C9178
S11323A0B2E0EB0EF11C9F938F939F928F92BF929A
S11323B0AF920E94C021F50101900020E9F7319706
S11323C0AF01405C534060E070E0C5010E94ED1C29
S11323D0F501212F11922A95E9F7D6018C911196D6
S11323E09C91B2E0CB0ED11C9F938F935F924F923E
S11323F0BF92AF920E94C021F50101900020E9F73D
S11324003197AF01405C534060E070E0C5010E9429
S1132410ED1CF501212F11922A95E9F70FB6F894D6
S1132420DEBF0FBECDBFE614F70409F0B5CFAA8511
S1132430BB85BBA3AAA3E889F989FFA3EEA33D0149
S11324406E0E7F1E77201CF4FFEF6F1A7F0A7594BF
S113245067942C853D8539A728A78A899B899BA7E2
S11324608AA74901880E991E99201CF49FEF891AA6
S1132470990A959487942E843F844C885D885101F1
S1132480A40CB51CBB201CF4AFEFAA1ABA0AB5946D
S1132490A7947F926F928BEB91E09F938F930F2E73
S11324A0F0ECEF2EF3E0FF2EF02DFF92EF920E945E
S11324B0C021F70101900020E9F73197AF01405C9A
S11324C0534060E070E0C7010E94ED1C0F2EF2E360
S11324D0DF2EF02DF7012D2D11922A95E9F79F9209
S11324E08F9281ED91E09F938F93FF92EF920E94E0
S11324F0C021F70101900020E9F73197AF01405C5A
S1132500534060E070E0C7010E94ED1CD701ED2D3F
S11325101D92EA95E9F7BF92AF9287EE91E09F93FF
S11325208F93FF92EF920E94C021F7010190002047
S1132530E9F73197AF01405C534060E070E0C701B8
S11325400E94ED1CD701ED2D1D92EA95E9F7B30128
S1132550770C880B990B0E94A41F6CA77DA78EA7EC
S11325609FA70F2EF3E06F2EF4E07F2EF02DD30102
S11325706D937D938D939C931397B401990C880B61
S1132580990B0E94A41FF301648375838683978348
S1132590B501BB0C880B990B0E94A41FD30118969C
S11325A06D937D938D939C931B97D7010D90002081
S11325B0E9F7119784E1E1E0F2E001900D928A9548
S11325C0E1F70CEA13E025E045E06CA57DA58EA5B6
S11325D09FA50E948821BC01C7010E94B521F70173
S11325E001900020E9F731970F2EFDE08F2EFAE0DD
S11325F09F2EF02D918280821282F701019000209B
S1132600E9F73197AF01405C534060E070E0C701E7
S11326100E94ED1CF7012D2D11922A95E9F70F2E3A
S1132620F4E1CF2EF02DD801EC2D1D92EA95E9F7B7
S1132630D7010D900020E9F7119784E1E9E1F2E078
S113264001900D928A95E1F7D30114966D917D91D5
S11326508D919C91179725E045E00E948821BC014B
S1132660C7010E94B521F70101900020E9F73197D5
S1132670918280821282F70101900020E9F731975C
S1132680AF01405C534060E070E0C7010E94ED1C64
S1132690F7012D2D11922A95E9F7D801EC2D1D9201
S11326A0EA95E9F7D7010D900020E9F7119784E145
S11326B0E1E3F2E001900D928A95E1F7D3011896D7
S11326C06D917D918D919C911B9725E045E00E9431
S11326D08821BC01C7010E94B521F70101900020A7
S11326E0E9F73197918280821282F70101900020EC
S11326F0E9F73197AF01405C534060E070E0C701F7
S11327000E94ED1CF7012D2D11922A95E9F7D801AD
S1132710EC2D1D92EA95E9F7C3010E947B10D701C5
S11327200D900020E9F7119788E1EDEFF1E00190B9
S11327300D928A95E1F7D3016D917D918D919C91D4
S113274025E045E00E948821BC01C7010E94B52113
S1132750F70101900020E9F731979182808212827B
S1132760F70101900020E9F73197AF01405C534035
S113277060E070E0C7010E94ED1CF7012D2D11925D
S11327802A95E9F7D801EC2D1D92EA95E9F7D701CE
S11327900D900020E9F7119788E1E5E1F2E001905E
S11327A00D928A95E1F7D30114966D917D918D91E7
S11327B09C91179725E045E00E948821BC01C70140
S11327C00E94B521F70101900020E9F73197918229
S11327D080821282F70101900020E9F73197AF015E
S11327E0405C534060E070E0C7010E94ED1CF701BB
S11327F02D2D11922A95E9F7D801EC2D1D92EA9519
S1132800E9F7D7010D900020E9F7119788E1EDE28F
S1132810F2E001900D928A95E1F7D30118966D913B
S11328207D918D919C911B9725E045E00E94882124
S1132830BC01C7010E94B521F70101900020E9F70E
S11328403197918280821282F70101900020E9F78A
S11328503197AF01405C534060E070E0C7010E94D3
S1132860ED1CF7011192DA94E9F7D8011D92CA948C
S1132870E9F78AA19BA1EEA1FFA18E1B9F0BBC01CE
S11328800FB6F894DEBF0FBECDBF12F46F5F7F4F5B
S113289075956795072E000C880B990B0E94A41F51
S11328A04B015C016E8B7F8B888F998F88A599A5CE
S11328B0AAA5BBA58A1B9B0BBC0112F46F5F7F4FBB
S11328C075956795072E000C880B990B0E94A41F21
S11328D06A8F7B8F8C8F9D8FC10184199509BC01F0
S11328E012F46F5F7F4F75956795072E000C880B68
S11328F0990B0E94A41F6E8F7F8F88A399A30F2E1C
S1132900F0ECEF2EF3E0FF2EF02DD7010D90002018
S1132910E9F7119784E1E9E4F2E001900D928A95D8
S1132920E1F70CEA13E025E045E0C501B4010E949B
S11329308821BC01C7010E94B521F7010190002044
S1132940E9F731970F2EFDE0AF2EFAE0BF2EF02D00
S1132950B182A0821282F70101900020E9F7319739
S1132960AF01405C534060E070E0C7010E94ED1C81
S11329700F2EF2E39F2EF02DF701292D11922A95A7
S1132980E9F70F2EF4E18F2EF02DD801E82D1D92DA
S1132990EA95E9F7D7010D900020E9F7119784E152
S11329A0E1E6F2E001900D928A95E1F76A8D7B8D64
S11329B08C8D9D8D25E045E00E948821BC01C701D6
S11329C00E94B521F70101900020E9F73197B18207
S11329D0A0821282F70101900020E9F73197AF013C
S11329E0405C534060E070E0C7010E94ED1CD701D9
S11329F0E92D1D92EA95E9F7D801E82D1D92EA9593
S1132A00E9F7D7010D900020E9F7119784E1E9E790
S1132A10F2E001900D928A95E1F76E8D7F8D88A189
S1132A2099A125E045E00E948821BC01C7010E94CC
S1132A30B521F70101900020E9F73197B182A08216
S1132A401282F70101900020E9F73197AF01405C51
S1132A50534060E070E0C7010E94ED1CD701E92DEE
S1132A601D92EA95E9F7D801E82D1D92EA95E9F758
S1132A70CE0146960E947B10D7010D900020E9F705
S1132A80119788E1E5E4F2E001900D928A95E1F76F
S1132A906E897F89888D998D25E045E00E94882183
S1132AA0BC01C7010E94B521F70101900020E9F79C
S1132AB03197B182A0821282F70101900020E9F7D8
S1132AC03197AF01405C534060E070E0C7010E9461
S1132AD0ED1CD701E92D1D92EA95E9F7D801E82DFF
S1132AE01D92EA95E9F7D7010D900020E9F71197B7
S1132AF088E1EDE5F2E001900D928A95E1F76A8DA7
S1132B007B8D8C8D9D8D25E045E00E948821BC0144
S1132B10C7010E94B521F70101900020E9F7319720
S1132B20B182A0821282F70101900020E9F7319767
S1132B30AF01405C534060E070E0C7010E94ED1CAF
S1132B40D701E92D1D92EA95E9F7D801E82D1D92E8
S1132B50EA95E9F7D7010D900020E9F7119788E18C
S1132B60E5E7F2E001900D928A95E1F76E8D7F8D95
S1132B7088A199A125E045E00E948821BC01C701F4
S1132B800E94B521F70101900020E9F73197B18245
S1132B90A0821282F70101900020E9F73197AF017A
S1132BA0405C534060E070E0C7010E94ED1CD70117
S1132BB0E92D1D92EA95E9F7D801E82D1D92EA95D1
S1132BC0E9F72A8D3B8D4C8D5D8D6E897F89888DCB
S1132BD0998D0E94321E2E8D3F8D48A159A10E94CD
S1132BE0321E20E030E040E450E40E94301F6AA32B
S1132BF07BA38CA39DA3D7010D900020E9F7119727
S1132C0088E0EDE8F2E001900D928A95E1F725E085
S1132C1045E06AA17BA18CA19DA10E948821BC01F1
S1132C20C7010E94B521F70101900020E9F731970F
S1132C30B182A0821282F70101900020E9F7319756
S1132C40AF01405C534060E070E0C7010E94ED1C9E
S1132C50D701E92D1D92EA95E9F7D801E82D1D92D7
S1132C60EA95E9F72E893F89488D598D6AA17BA1A0
S1132C708CA19DA10E94301F2B013C010F2EF7EF68
S1132C802F2EF3E03F2EF02DD1016D937D938D9384
S1132C909C9313972A8D3B8D4C8D5D8D6AA17BA1EE
S1132CA08CA19DA10E94301FF101648375838683EA
S1132CB097832E8D3F8D48A159A16AA17BA18CA138
S1132CC09DA10E94301FD10118966D937D938D9321
S1132CD09C931B97D7010D900020E9F7119788E189
S1132CE0E5E4F2E001900D928A95E1F725E045E0F4
S1132CF0C301B2010E948821BC01C7010E94B52111
S1132D00F70101900020E9F73197B182A082128285
S1132D10F70101900020E9F73197AF01405C53407F
S1132D2060E070E0C7010E94ED1CF701292D1192AB
S1132D302A95E9F7D801E82D1D92EA95E9F7D7011C
S1132D400D900020E9F7119788E1EDE5F2E001909C
S1132D500D928A95E1F7D10114966D917D918D9133
S1132D609C91179725E045E00E948821BC01C7018A
S1132D700E94B521F70101900020E9F73197B18253
S1132D80A0821282F70101900020E9F73197AF0188
S1132D90405C534060E070E0C7010E94ED1CF70105
S1132DA0292D11922A95E9F7D801E82D1D92EA956B
S1132DB0E9F7D7010D900020E9F7119788E1E5E7DD
S1132DC0F2E001900D928A95E1F7D10118966D9188
S1132DD07D918D919C911B9725E045E00E9488216F
S1132DE0BC01C7010E94B521F70101900020E9F759
S1132DF03197B182A0821282F70101900020E9F795
S1132E003197AF01405C534060E070E0C7010E941D
S1132E10ED1CF701292D11922A95E9F7D8011D928D
S1132E208A94E9F781E1E5E9F2E0D70101900D9296
S1132E308A95E1F7F70101900020E9F73197AF0196
S1132E40405C534060E070E0C7010E94ED1CF70154
S1132E5011929A94E9F780E0AF960FB6F894DEBF2A
S1132E600FBECDBFDF91CF911F910F91FF90EF90D7
S1132E70DF90CF90BF90AF909F908F907F906F9096
S1132E805F904F903F902F900895BF92CF92DF9222
S1132E90EF92FF920F931F93CF93DF93CDB7DEB7DB
S1132EA027970FB6F894DEBF0FBECDBF0F2EF8E103
S1132EB0DF2EF02DD9820F2EFAE0BF2EF02DBA822C
S1132EC08FE08B8363E0CE0101960E940A1CD982B5
S1132ED080E18A8389E18C8362E0CE0101960E94BD
S1132EE00A1C64E0CE0104960E940A1C64E0CE0130
S1132EF004960E94371C8D810F2EF4EFEF2EF3E021
S1132F00FF2EF02DF70180839E8191839F81928310
S1132F10282F082E000C330B3F938F9386EA92E000
S1132F209F938F9300EC13E01F930F930E94C02193
S1132F30F80101900020E9F73197AF01405C53405C
S1132F4060E070E0C8010E94ED1C0F2EF2E3CF2E6A
S1132F50F02DF8018C2D11928A95E9F7F701818102
S1132F60282F082E000C330B3F938F938BEB92E0AA
S1132F709F938F931F930F930E94C021F801019098
S1132F800020E9F73197AF01405C534060E070E006
S1132F90C8010E94ED1CF8018C2D11928A95E9F765
S1132FA0F7018281282F082E000C330B3F938F9357
S1132FB080ED92E09F938F931F930F930E94C02103
S1132FC0F80101900020E9F73197AF01405C5340CC
S1132FD060E070E0C8010E94ED1CF8011192CA94EF
S1132FE0E9F7D982BA821B8263E0CE0101960E947E
S1132FF00A1C87EC90E00197F1F700C000000FB6BF
S1133000F894DEBF0FBECDBF80E027960FB6F894CC
S1133010DEBF0FBECDBFDF91CF911F910F91FF9007
S1133020EF90DF90CF90BF9008950F931F93CF93AD
S1133030DF93EC0103E014E0F80120813181428147
S11330405381688179818A819B810E94311E6883C2
S113305079838A839B83F801248135814681578152
S11330606C817D818E819F810E94311E6C837D8362
S11330708E839F83F8012085318542855385688539
S113308079858A859B850E94311E688779878A871E
S11330909B8780E0DF91CF911F910F9108950F934B
S11330A01F93CF93DF93EC0107EF13E0F801208126
S11330B0318142815381688179818A819B810E9417
S11330C0BC20688379838A839B83F80124813581BA
S11330D0468157816C817D818E819F810E94BC20B5
S11330E06C837D838E839F83F8012085318542859F
S11330F05385688579858A859B850E94BC2068876D
S113310079878A879B8780E0DF91CF911F910F9108
S11331100895EF92FF920F931F93CF93DF9300D004
S11331201F92CDB7DEB710ED19830F2EFBE1FF2EF2
S1133130F02DFA820F2EF0EEEF2EF02DEB8263E0ED
S1133140CE0101960E940A1C19830CE10A83EB82CA
S113315063E0CE0101960E940A1C2FEF80E792E003
S1133160215080409040E1F700C000001983FA82AA
S11331701B8263E0CE0101960E940A1C19830A8314
S11331801B8263E0CE0101960E940A1C8FE39CE936
S11331900197F1F700C0000080E00F900F900F90AE
S11331A0DF91CF911F910F91FF90EF900895E1E887
S11331B0F0E080818860808384E590ED90938900BD
S11331C080938800B19AAFE6B0E08C9182608C93D2
S11331D080818160808308951F920F920FB60F92B1
S11331E011248F9381E08093F3038F910F900FBE8E
S11331F00F901F901895219A0895CF93DF93CDB720
S1133200DEB7CF56D1090FB6F894DEBF0FBECDBFDF
S11332100E94001C0E94D81C789400EC13E08FE2FA
S1133220E5EEF2E0D80101900D928A95E1F7F801FC
S113323001900020E9F73197AF01405C534060E012
S113324070E0C8010E94ED1C0F2EF2E3FF2EF02D5A
S1133250F8012F2D11922A95E9F78FEF99E6E8E10D
S113326081509040E040E1F700C000000E94F30D5F
S11332700E9489188CE1E4E1F3E0D80101900D92F9
S11332808A95E1F7F80101900020E9F73197AF0141
S1133290405C534060E070E0C8010E94ED1CF801FE
S11332A02F2D11922A95E9F783E1E0E3F3E0D801A9
S11332B001900D928A95E1F7F80101900020E9F759
S11332C03197AF01405C534060E070E0C8010E9458
S11332D0ED1CF8012F2D11922A95E9F70E940E0F8B
S11332E087E2E3E4F3E0D80101900D928A95E1F7D7
S11332F0F80101900020E9F73197AF01405C534099
S113330060E070E0C8010E94ED1CF8012F2D1192BD
S11333102A95E9F78FEF91E1EAE781509040E04088
S1133320E1F700C000000E94451785E2EAE6F3E0F9
S1133330D80101900D928A95E1F7F80101900020DF
S1133340E9F73197AF01405C534060E070E0C80199
S11333500E94ED1CF8012F2D11922A95E9F70E9485
S113336044118BE1EFE8F3E0D80101900D928A95C6
S1133370E1F7F80101900020E9F73197AF01405CD3
S1133380534060E070E0C8010E94ED1CF801119206
S1133390FA94E9F70E946A0ECE01C7960E9456017C
S11333A08EE094E7AAEDBBE36F968CAF9DAFAEAF12
S11333B0BFAF6F970E94D7180E94FB182E01F1E34C
S11333C04F0E511C1E012DE0220E311C380180913C
S11333D0F3038823E1F3299A1092F3038091F20313
S11333E08F5F87708093F20381118CC0CE018B961E
S11333F00E948B0EC2010E94230ECE0185960E946C
S1133400FD106DA17EA1072E000C880B990B0E9464
S1133410A41F69837A838B839C836FA178A5072E6D
S1133420000C880B990B0E94A41F6D837E838F83ED
S1133430988769A57AA5072E000C880B990B0E9422
S1133440A41F69877A878B879C87CE0101960E9487
S11334501518CE0101960E944F188E010F5F1F4F61
S11334602AE939E949E15EE3F801608171818281E9
S113347093810E94BC20F80161937193819391938D
S11334808F01E215F30561F78E01055D1F4F5E01A3
S1133490FDE0AF0EB11C6E0121E3C20ED11C7E0112
S11334A089E1E80EF11CF801619171918F01072EF9
S11334B0000C880B990B0E94A41F27E73DE74BE003
S11334C05AE30E94BC20F501619371938193919317
S11334D05F01F601619171916F01072E000C880B59
S11334E0990B0E94A41F20E030E04AEF5DE30E94A4
S11334F0BC20F70161937193819391937F0104152B
S1133500150589F6898C9A8CAB8CBC8CCD88DE88A9
S1133510EF88F88C09891A892B893C894D855E8549
S11335206F85788989859A85AB85BC85B058BF93AA
S1133530AF939F938F938C818F938B818F938A8189
S11335408F9389818F9388858F938F818F938E81B9
S11335508F938D818F938CA18F938BA18F938AA14D
S11335608F9389A18F9388A18F938F8D8F938E8D45
S11335708F938D8D8F93CE01C7960E94ED050FB664
S1133580F894DEBF0FBECDBFAC968FADAC97811162
S1133590F7C0CE01C7960E94EE0C21EE3EE245E64E
S11335A052E4A3966CAD7DAD8EAD9FADA3970E9402
S11335B0BC204B015C01AC968FADAC97811107C167
S11335C0CE01C7960E94EE0C21EE3EE245E652E49F
S11335D0AB966CAD7DAD8EAD9FADAB970E94BC201C
S11335E020E030E044E353E40E94321EE0966CAFE6
S11335F07DAF8EAF9FAFE097AC968FADAC97811146
S113360004C0CE01C7960E94EE0C8091F203811192
S1133610B5C0A796CCACDDACEEACFFACA797F3017C
S113362022E311922A95E9F7F30101900020E9F7CA
S1133630319782E79AE39183808380E290E09383D9
S113364082830CEA13E021E043E0C501B4010E9447
S11336508821BC01C3010E94B521F301019000201F
S1133660E9F731970F2EFDE0AF2EFAE0BF2EF02DD3
S1133670B182A0821282F30101900020E9F7319710
S1133680AF01405C534060E070E0C3010E94ED1C58
S1133690F30122E311922A95E9F7F80124E111924A
S11336A02A95E9F7F30101900020E9F7319789E7BA
S11336B09AE39183808380E290E09383828321E084
S11336C043E0E0966CAD7DAD8EAD9FADE0970E947A
S11336D08821BC01C3010E94B521F301019000209F
S11336E0E9F73197B182A0821282F30101900020A0
S11336F0E9F73197AF01405C534060E070E0C301EB
S11337000E94ED1CF30122E311922A95E9F7F801D6
S113371024E111922A95E9F7F30101900020E9F7D9
S1133720319780E79AE39183808380E290E09383EA
S1133730828321EE3EE245E652E4C701B6010E94CF
S1133740BC2021E043E00E948821BC01C3010E9407
S1133750B521F30101900020E9F73197B182A082ED
S11337601282F30101900020E9F73197AF01405C28
S1133770534060E070E0C3010E94ED1C299827CEFD
S113378021EE3EE245E652E4A3966CAD7DAD8EADEE
S11337909FADA3970E94BC204B015C0121EE3EE249
S11337A045E652E4AB966CAD7DAD8EAD9FADAB9767
S11337B00E94BC2020E030E044E353E40E94321E27
S11337C0E0966CAF7DAF8EAF9FAFE0971ECF21EE3A
S11337D03EE245E652E4AB966CAD7DAD8EAD9FAD59
S11337E0AB970E94BC2020E030E044E353E40E9405
S11337F0321EE0966CAF7DAF8EAF9FAFE09705CFE2
S113380082E08093B8008FEF8093BB0084E08093C4
S1133810BC000895CF93DF93EC01ECEBF0E09081D2
S113382090FDFDCF6093110488818093120480FD84
S113383013C0623088F0FE013196A3E1B4E0625017
S1133840262F30E02E5F3F4FCE01820F931F219130
S11338502D93E817F907D9F71092100488EF809395
S1133860000185EA8093BC00DF91CF910895AC01FB
S1133870ECEBF0E0908190FDFDCF8091100480FF8F
S113388012C0662381F0A2E1B4E0FA016150262F50
S113389030E02F5F3F4FCA01820F931F2D91219378
S11338A0E817F907D9F780911004817008951F92E1
S11338B00F920FB60F9211242F933F938F939F93E0
S11338C0AF93BF93EF93FF93E091B9008E2F90E0F5
S11338D0FC013897E135F10508F056C0EC5CFF4F68
S11338E00C942B1E10920F04E0910F04809111048C
S11338F0E81770F481E08E0F80930F04F0E0EE5E21
S1133900FB4F80818093BB0085E88093BC0043C05B
S11339108091100481608093100484E98093BC003A
S11339203AC0E0910F0481E08E0F80930F048091E0
S1133930BB00F0E0EE5EFB4F808320910F0430E08B
S11339408091110490E001972817390724F485EC3D
S11339508093BC0020C085E88093BC001CC080918B
S1133960BB00E0910F04F0E0EE5EFB4F808380919A
S1133970100481608093100484E98093BC000BC020
S113398085EA8093BC0007C08091B9008093000150
S113399084E08093BC00FF91EF91BF91AF919F9120
S11339A08F913F912F910F900FBE0F901F901895FC
S11339B0E0ECF0E080811082E1ECF0E080EC8083C8
S11339C086E08093C2008CE090E09093C5008093E1
S11339D0C4008081886080830895FC019091220452
S11339E0911137C04115510561057105A1F181E0BF
S11339F0809322044093270450932804609329045D
S1133A0070932A0410921E0410921F041092200432
S1133A1010922104F0932604E0932504808180937E
S1133A20C600E1ECF0E08081806280838091220412
S1133A30813099F4F89483B7816083BF7894889532
S1133A4083B78E7F83BF80912204813099F381E014
S1133A50089580E0089580E0089581E008951F921C
S1133A600F920FB60F9211242F933F934F935F93AE
S1133A706F937F938F939F93AF93BF93CF93DF9372
S1133A80EF93FF93C0912304D091240480911A04EE
S1133A9090911B04A0911C04B0911D042091C600B8
S1133AA0FE01E80FF91F208380911A0490911B04F2
S1133AB0A0911C04B0911D04892B8A2B8B2B69F1D6
S1133AC080911A0490911B04A0911C04B0911D04D0
S1133AD0019742E050E06AEA73E08C0F9D1F0E9458
S1133AE0A821892BD1F080911A0490911B04A091F4
S1133AF01C04B0911D04C80FD91F1982809122049F
S1133B00833021F481E08093220402C010922204C5
S1133B10E1ECF0E080818F7E808380911A049091A3
S1133B201B04A0911C04B0911D040196A11DB11D9C
S1133B3080931A0490931B04A0931C04B0931D0457
S1133B40FF91EF91DF91CF91BF91AF919F918F91B1
S1133B507F916F915F914F913F912F910F900FBE85
S1133B600F901F9018951F920F920FB60F92112469
S1133B702F933F934F935F936F937F938F939F9371
S1133B80AF93BF93EF93FF9380911E0490911F0412
S1133B90A0912004B09121040196A11DB11D809330
S1133BA01E0490931F04A0932004B0932104409119
S1133BB01E0450911F04609120047091210480918F
S1133BC0270490912804A0912904B0912A0448174D
S1133BD059076A077B0798F480911E0490911F048B
S1133BE0A0912004B0912104209125043091260451
S1133BF0F901E80FF91F80818093C60005C0E1EC4C
S1133C00F0E080818F7D8083FF91EF91BF91AF9130
S1133C109F918F917F916F915F914F913F912F91E0
S1133C200F900FBE0F901F9018951F920F920FB612
S1133C300F9211248F9380912204833021F482E027
S1133C408093220402C0109222048F910F900FBE21
S1133C500F901F901895EE0FFF1F0590F491E02D23
S1133C6009945058BB27AA270E94491E0C9475201A
S1133C700E94672038F00E946E2020F039F49F3FA4
S1133C8019F426F40C9429200EF4E095E7FB0C9427
S1133C902320E92F0E94862058F3BA17620773077E
S1133CA08407950720F079F4A6F50C94A8200EF467
S1133CB0E0950B2EBA2FA02D0B01B90190010C0138
S1133CC0CA01A0011124FF27591B99F0593F50F450
S1133CD0503E68F11A16F040A22F232F342F4427A8
S1133CE0585FF3CF469537952795A795F0405395A0
S1133CF0C9F77EF41F16BA0B620B730B840BBAF070
S1133D009150A1F0FF0FBB1F661F771F881FC2F7DA
S1133D100EC0BA0F621F731F841F48F487957795EE
S1133D206795B795F7959E3F08F0B0CF9395880FA8
S1133D3008F09927EE0F9795879508959F939F779D
S1133D40EEE389379E0728F4EAE0F1E00E9453206D
S1133D500CC00E94DF1F9058A2EA2AED3FE049EC14
S1133D605FE30E94491E0E9475200F9007FC905843
S1133D7008950E94672060F080E891E009F49EEFC6
S1133D800E946E2028F040E851E071F45EEF0CC010
S1133D900C9429200C94A820E92FE0780E94862016
S1133DA040F3092E052AB1F32617370748075907A8
S1133DB038F00E2E07F8E02569F0E025E0640AC02B
S1133DC0EF6307F8009407FADB01B9019D01DC01F8
S1133DD0CA01AD01EF930E94471F0E9475200E9403
S1133DE0FC1E5F91552339F02BED3FE049E450FD73
S1133DF049EC0C94321E0895DF93DD27B92FBF7769
S1133E0040E85FE31616170648075B0718F4D92F36
S1133E100E94B4209F938F937F936F930E946F218E
S1133E20EEE1F1E00E942C200E9475202F913F9139
S1133E304F915F910E94CF20DD2351F09058A2EA68
S1133E402AED3FE049EC5FE3D0785D270E94491EEC
S1133E50DF910C9475200E94FF1F08F481E00895FF
S1133E600E94441F0C9475200E946E2058F00E94FA
S1133E70672040F029F45F3F29F00C94232051116E
S1133E800C94A9200C9429200E94862068F399237D
S1133E90B1F3552391F3951B550BBB27AA27621742
S1133EA07307840738F09F5F5F4F220F331F441F4F
S1133EB0AA1FA9F335D00E2E3AF0E0E832D0915083
S1133EC05040E695001CCAF72BD0FE2F29D0660F70
S1133ED0771F881FBB1F261737074807AB07B0E8B3
S1133EE009F0BB0B802DBF01FF2793585F4F3AF0B9
S1133EF09E3F510578F00C9423200C94A9205F3F39
S1133F00E4F3983ED4F3869577956795B795F7953E
S1133F109F5FC9F7880F911D9695879597F9089526
S1133F20E1E0660F771F881FBB1F621773078407C2
S1133F30BA0720F0621B730B840BBA0BEE1F88F7D1
S1133F40E0950895E89409C097FB3EF49095809518
S1133F50709561957F4F8F4F9F4F9923A9F0F92F4B
S1133F6096E9BB279395F695879577956795B795C9
S1133F70F111F8CFFAF4BB0F11F460FF1BC06F5FAF
S1133F807F4F8F4F9F4F16C0882311F096E911C0C1
S1133F90772321F09EE8872F762F05C0662371F0E2
S1133FA096E8862F70E060E02AF09A95660F771FF6
S1133FB0881FDAF7880F9695879597F90895DF9308
S1133FC0CF931F930F938B01EC01EBE4F1E00E947C
S1133FD02C200E9475209801AE018B01EC0160E059
S1133FE070E080E89FE30E94311E0E942F21980117
S1133FF0AE010F911F91CF91DF910C94CF20990FB7
S11340000008550FAA0BE0E8FEEF16161706E8079E
S1134010F907C0F012161306E407F50798F0621BBF
S1134020730B840B950B39F40A2661F0232B242B94
S1134030252B21F408950A2609F4A140A6958FEFB3
S1134040811D811D089597F99F6780E870E060E005
S113405008959FEF80EC0895DF93CF931F930F9300
S1134060FF92EF92DF927B018C01689406C0DA2EF6
S1134070EF010E94CF20FE01E894A591259135918E
S113408045915591A6F3EF010E94491EFE01970147
S1134090A801DA9469F7DF90EF90FF900F911F91D8
S11340A0CF91DF9108959F938F937F936F93FF93A5
S11340B0EF939B01AC010E94BC20EF91FF910E9401
S11340C02C202F913F914F915F910C94BC200024A0
S11340D00A941616170618060906089500240A9469
S11340E012161306140605060895092E0394000CEF
S11340F011F4882352F0BB0F40F4BF2B11F460FF7E
S113410004C06F5F7F4F8F4F9F4F089557FD9058A6
S1134110440F551F59F05F3F71F04795880F97FB87
S1134120991F61F09F3F79F0879508951216130641
S11341301406551FF2CF4695F1DF08C01616170670
S11341401806991FF1CF86957105610508940895A5
S1134150E894BB2766277727CB0197F908950E9437
S1134160FF1F08F48FEF08959B01AC0160E070E03D
S113417080E89FE30C94301F0E94CF200C9475209C
S11341800E94672038F00E946E2020F0952311F0E1
S11341900C9423200C94292011240C94A9200E940F
S11341A0862070F3959FC1F3950F50E0551F629FD1
S11341B0F001729FBB27F00DB11D639FAA27F00D7C
S11341C0B11DAA1F649F6627B00DA11D661F829FA3
S11341D02227B00DA11D621F739FB00DA11D621F88
S11341E0839FA00D611D221F749F3327A00D611DA5
S11341F0231F849F600D211D822F762F6A2F112487
S11342009F5750409AF0F1F088234AF0EE0FFF1FB9
S1134210BB1F661F771F881F91505040A9F79E3F10
S1134220510580F00C9423200C94A9205F3FE4F303
S1134230983ED4F3869577956795B795F795E79566
S11342409F5FC1F7FE2B880F911D9695879597F96F
S1134250089519F416F40C9429200C9473210E94E7
S11342608E20B8F39923C9F3B6F39F57550B87FFF4
S11342700E9481210024A0E640EA900180585695CE
S1134280979528F4805C660F771F881F20F0261707
S11342903707480730F4621B730B840B202931293C
S11342A04A2BA69517940794202531254A2758F7B9
S11342B0660F771F881F20F026173707480730F44A
S11342C0620B730B840B200D311D411DA09581F7EA
S11342D0B901842F9158880F9695879508959B016D
S11342E0AC010C94BC209F3F31F0915020F4879591
S11342F077956795B795880F911D9695879597F94A
S1134300089591505040660F771F881FD2F7089583
S1134310EF920F931F93CF93DF93E80147FD02C001
S113432034E001C034E1042E000C550B57FF03C0E8
S1134330519541955109E32E022F242FAE010E947D
S1134340C323CE01DF91CF911F910F91EF90089578
S1134350FB01DC0104C08D910190801921F44150CE
S11343605040C8F7881B990B0895FB01DC010D90A0
S11343700020E9F7119701900D920020E1F70895CC
S1134380AEE0B0E0E6ECF1E20C94B3260D891E89B0
S113439086E08C831A8309838FEF9FE79E838D8346
S11343A0AE01475E5F4F6F89788DCE0101960E9402
S11343B0E221EF81F885E00FF11F10822E96E4E0F0
S11343C00C94CF26ABE0B0E0E8EEF1E20C94A52625
S11343D06C017B018A01FC0117821682838181FFB3
S11343E0CCC1CE0101963C01F6019381F70193FD06
S11343F0859193FF81917F01882309F4BAC18532A5
S113440039F493FD859193FF81917F01853229F4DD
S1134410B60190E00E940B26E7CF912C212C312C81
S1134420FFE1F315D8F08B3279F038F4803279F06B
S11344308332A1F4232D20611DC08D3261F08033BD
S113444069F4232D216016C0832D8260382EE32D5C
S1134450E4603E2E2AC0F32DF8601DC037FC2DC049
S113446020ED280F2A3040F08E32B9F436FC81C199
S1134470232D2064322E19C036FE06C08AE0989E91
S1134480200D1124922E11C0EAE02E9E200D11243D
S1134490222EF32DF0623F2E08C08C3621F4832D9A
S11344A08068382E02C0883641F4F70193FD859167
S11344B093FF81917F018111B3CF982F9F7D9554F4
S11344C0933028F40C5F1F4F9FE399830DC083360C
S11344D031F0833771F0833509F059C021C0F801F8
S11344E0808189830E5F1F4F88248394912C53010C
S11344F013C02801F2E04F0E511CF801A080B180D6
S113450036FE03C0692D70E002C06FEF7FEFC50176
S11345100E9400264C018201F32DFF773F2E16C026
S1134520280122E0420E511CF801A080B18036FE21
S113453003C0692D70E002C06FEF7FEFC5010E94D8
S1134540F5254C01F32DF0683F2E820133FC1BC08E
S1134550822D90E088169906B0F4B60180E290E0CE
S11345600E940B262A94F4CFF50137FC859137FE7F
S113457081915F01B60190E00E940B2621102A94DC
S113458021E0821A91088114910471F7E8C08436FD
S113459011F0893641F5F80137FE07C06081718159
S11345A0828193810C5F1F4F08C060817181072E47
S11345B0000C880B990B0E5F1F4FF32DFF763F2ED7
S11345C097FF09C090958095709561957F4F8F4FA7
S11345D09F4FF0683F2E2AE030E0A3010E94472657
S11345E0882E861845C0853731F4232D2F7EB22EB0
S11345F02AE030E025C0932D997FB92E8F36C1F083
S113460018F4883579F0B5C0803719F0883721F06F
S1134610B0C0E92FE061BE2EB4FE0DC0FB2DF460E6
S1134620BF2E09C034FE0AC0292F2660B22E06C050
S113463028E030E005C020E130E002C020E132E0B3
S1134640F801B7FE07C060817181828193810C5F9C
S11346501F4F06C06081718180E090E00E5F1F4FA4
S1134660A3010E944726882E8618FB2DFF773F2E34
S113467036FE0DC0232D2E7FA22E891458F434FE4D
S11346800BC032FC09C0832D8E7EA82E05C0B82C29
S1134690A32C03C0B82C01C0B92CA4FE0FC0FE018A
S11346A0E80DF11D8081803321F49A2D997EA92E85
S11346B009C0A2FE06C0B394B39404C08A2D8678C0
S11346C009F0B394A3FC11C0A0FE06C0B21488F490
S11346D0280C922C9B180EC0B21460F4B60180E230
S11346E090E00E940B26B394F7CFB21418F42B1861
S11346F002C0982C212CA4FE10C0B60180E390E0E7
S11347000E940B26A2FE17C0A1FC03C088E790E01C
S113471002C088E590E0B6010CC08A2D867859F075
S1134720A1FE02C08BE201C080E2A7FC8DE2B601CB
S113473090E00E940B26891438F4B60180E390E0DF
S11347400E940B269A94F7CF8A94F301E80DF11D89
S11347508081B60190E00E940B268110F5CF2220C3
S113476009F442CEB60180E290E00E940B262A941E
S1134770F6CFF6018681978102C08FEF9FEF2B96CB
S1134780E2E10C94C126A9E0B0E0E9ECF3E20C9478
S1134790AB266A01122FB02E2BE3201720F0FF2442
S11347A0F394F00E02C02CE3F22E0F2D27E0AE019D
S11347B04F5F5F4F0E941D25BC014981842F897082
S11347C0813031F0E1FC06C0E0FE06C090E205C095
S11347D09DE203C09BE201C090E05E2D507143FF57
S11347E03CC0911102C083E001C084E0811718F439
S11347F0212F281B01C020E051110BC0F601822F8C
S113480030E2882319F031938150FBCFC20ED11CC2
S113481020E0992329F0D6019C93F60131966F018B
S1134820C6010396E2FE0AC03EE4D6013C9341E48D
S113483011964C93119712963C9306C03EE6F601EE
S1134840308341E641833283FC01322F40E233233B
S113485009F442C041933150FACF42FF44C0911150
S113486002C083E001C084E0811718F4212F281BC3
S113487001C020E051110BC0F601822F30E28823E1
S113488019F031938150FBCFC20ED11C20E0992343
S113489029F0D6019C93F60131966F01C601039667
S11348A0E2FE0BC039E4D6013C933EE411963C93FE
S11348B0119736E412963C9307C039E6F60130832B
S11348C03EE6318336E63283FC01322F40E2332365
S11348D019F041933150FBCFFC01E20FF11D10821E
S11348E08EEF9FEFA6C021E030E0911102C020E0DE
S11348F030E0161617061CF4FB01319602C0E1E005
S1134900F0E02E0F3F1FBB2021F0EB2DF0E031969D
S113491002C0E0E0F0E02E0F3F1FE12FF0E02E1781
S11349203F071CF4121B212F01C020E08E2D88713B
S113493059F4F601822F30E2882319F03193815023
S1134940FBCFC20ED11C20E0992329F0D6019C9301
S1134950F60131966F0151110BC0F601822F90E3DD
S1134960882319F091938150FBCFC20ED11C20E013
S11349700F2D060F9A81342F307144FF03C09133F9
S113498009F40150101624F4093018F008E001C0AD
S113499001E0AB0177FF02C040E050E0FB01E41B03
S11349A0F50BA1E0B0E0AC0FBD1FEA0FFB1F8EE2D8
S11349B0A82E4B01801A91080B2D10E0119501953A
S11349C011094F3FBFEF5B0721F4D601AC9211965A
S11349D06D01641775072CF08416950614F4818113
S11349E001C080E3415051093196D60111967D01F1
S11349F04017510724F0D6018C936701E2CF641766
S1134A00750739F4963320F4953319F4311101C044
S1134A1081E3F6018083F701822F90E2882319F065
S1134A2091938150FBCFF701E20FF11D108280E0DA
S1134A3090E02996ECE00C94C726283008F027E093
S1134A403327DA01990F311D87FD916000966105C6
S1134A50710539F432602E5F3D9330E32A95E1F716
S1134A6008959F3F30F080387105610509F03C5F7F
S1134A703C5F3D93913008F08068911DDF93CF93A4
S1134A801F930F93FF92EF92192F987F9695E92F1A
S1134A9096959695E90FFF27E253FE4F9927332702
S1134AA0EE24FF24A701E70105900894079428F455
S1134AB0360FE71EF81E491F511D660F771F881F0A
S1134AC0991F0694A1F70590079428F4E70EF81EA1
S1134AD0491F561FC11D770F881F991F661F069413
S1134AE0A1F70590079428F4F80E491F561FC71F15
S1134AF0D11D880F991F661F771F0694A1F7059093
S1134B00079420F4490F561FC71FD81F990F661F1B
S1134B10771F881F0694A9F784911095177041F0A8
S1134B20D695C79557954795F794E7941A95C1F785
S1134B30E4E7F1E0689415901591359165919591AC
S1134B4005907FE27395E118F10A430B560BC90BEC
S1134B50D009C0F7E10CF11E431F561FC91FD01D19
S1134B607EF4703311F48A95E6CFE894015030F066
S1134B70080F0AF40027021708F4202F2395022FA8
S1134B807A3328F079E37D932A95E9F710C07D9371
S1134B902A9589F6069497956795379517951794EE
S1134BA0E118F10A430B560BC90BD00998F0239571
S1134BB07E9173957A3308F070E37C932013B8F7F1
S1134BC07E9170617D9330F0839571E37D9370E302
S1134BD02A95E1F71124EF90FF900F911F91CF9147
S1134BE0DF91992787FD90950895FC010590615008
S1134BF070400110D8F7809590958E0F9F1F0895EF
S1134C00FC016150704001900110D8F78095909597
S1134C108E0F9F1F08950F931F93CF93DF93FB0174
S1134C20238121FD03C08FEF9FEF2CC022FF16C00C
S1134C3046815781248135814217530744F4A0816A
S1134C40B1819D012F5F3F4F318320838C93268157
S1134C5037812F5F3F4F3783268314C08B01EC01CC
S1134C60FB010084F185E02D0995892BE1F6D8013B
S1134C7016968D919C911797019617969C938E93F7
S1134C801697CE01DF91CF911F910F910895FA01EC
S1134C90AA27283051F1203181F1E8946F936E7F77
S1134CA06E5F7F4F8F4F9F4FAF4FB1E03ED0B4E068
S1134CB03CD0670F781F891F9A1FA11D680F791FA9
S1134CC08A1F911DA11D6A0F711D811D911DA11DBA
S1134CD020D009F468943F912AE0269F11243019CA
S1134CE0305D3193DEF6CF010895462F4770405D65
S1134CF04193B3E00FD0C9F7F6CF462F4F70405D14
S1134D004A3318F0495D31FD4052419302D0A9F76E
S1134D10EACFB4E0A6959795879577956795BA9568
S1134D20C9F700976105710508959B01AC010A2E2E
S1134D3006945795479537952795BA95C9F7620F05
S1134D40731F841F951FA01D08952F923F924F92A9
S1134D505F926F927F928F929F92AF92BF92CF9207
S1134D60DF92EF92FF920F931F93CF93DF93CDB710
S1134D70DEB7CA1BDB0B0FB6F894DEBF0FBECDBF88
S1134D8009942A88398848885F846E847D848C8459
S1134D909B84AA84B984C884DF80EE80FD800C8162
S1134DA01B81AA81B981CE0FD11D0FB6F894DEBF45
S10F4DB00FBECDBFED010895F894FFCFB5
S1134DBCF8008000800080FF7FFF7FFF7F53756DBC
S1134DCC2061783A20256C640D0A0053756D2061BE
S1134DDC793A20256C640D0A0053756D20617A3A7A
S1134DEC20256C640D0A004176672061783A2025F1
S1134DFC6C640D0A004176672061793A20256C6455
S1134E0C0D0A0041766720617A3A20256C640D0AFC
S1134E1C005A65726F696E672062696173207769E5
S1134E2C74683A2025640D0A0053756D2067783A2E
S1134E3C20256C640D0A0053756D2067793A202582
S1134E4C6C640D0A0053756D20677A3A20256C64E6
S1134E5C0D0A004D6178206D3A2025640D0A004D31
S1134E6C696E206D3A2025640D0A00486172642035
S1134E7C69726F6E2078207261773A2025640D0A6E
S1134E8C00486172642069726F6E207920726177B8
S1134E9C3A2025640D0A00486172642069726F6EB1
S1134EAC207A207261773A2025640D0A0053636CD2
S1134EBC20466C6F617420686172642069726F6E35
S1134ECC20783A200053636C20466C6F6174206820
S1134EDC6172642069726F6E20793A200053636C9E
S1134EEC20466C6F617420686172642069726F6E05
S1134EFC207A3A200053636C20466C6F61742073E3
S1134F0C6F66742069726F6E20783A200053636C5C
S1134F1C20466C6F617420736F66742069726F6EB7
S1134F2C20793A200053636C20466C6F61742073B3
S1134F3C6F66742069726F6E207A3A20006176670E
S1134F4C2072616400736F66742069726F6E2064E2
S1134F5C6F6E650D0A0058207363616C6520666181
S1134F6C63746F723A2025640D0A005920736361CF
S1134F7C6C6520666163746F723A2025640D0A00B7
S1134F8C5A207363616C6520666163746F723A2096
S1134F9C25640D0A00506C6561736520707574206E
S1134FAC7468652073656E736F7220646F776E20FE
S1134FBC6F6E206120666C61742073757266616318
S1134FCC650D0A0063616C6962726174696E6720B5
S1134FDC616363656C65726F6D657465720D0A004F
S1134FEC43616C6962726174696E67204779726F90
S1134FFC0D0A00506C6561736520776176652074C9
S113500C68652073656E736F7220696E20616E2003
S113501C382073686170650D0A005363616C696EA6
S113502C677320726561642C2063616C69627261C0
S113503C74696E67206D61676E65746F0D0A005933
S113504C6F752063616E2073746F7020776176695D
S10F505C6E67206E6F77200D0A000D0AAD
S9030000FC
